S01B0000626F6F746C6F616465725F4E43505F4D325F4D352E733337AF
S1130000081000204101000001200000E722000048
S11300100120000001200000012000000120000058
S11300200120000001200000742F000001200000C6
S113003001200000242F0000012000000120000006
S11300400120000001200000012000000120000028
S11300500120000001200000012000000120000018
S11300600120000001200000012000000120000008
S113007001200000012000000120000001200000F8
S113008001200000012000000120000001200000E8
S113009001200000012000000120000001200000D8
S11300A001200000012000000120000001200000C8
S11300B001200000012000000120000001200000B8
S11300C001200000012000000120000001200000A8
S11300D00120000001200000012000000120000098
S11300E00120000001200000012000000120000088
S11300F00120000001200000012000000120000078
S11301000120000001200000012000000120000067
S11301100120000001200000012000000120000057
S11301200120000001200000012000000120000047
S11301300120000001200000012000000120000037
S113014008B50D4B83F30A880C4B09A1D1E90001D2
S1130150C3E9000100F090F800F038FA00F07EF8EE
S113016000F056F800F068F800F0E2F9AFF3008010
S1130170A5EDF5FEA5EDF5FE080000200810002011
S11301800348044B834202D0034B03B11847704722
S1130190701000207010002000000000064B07497A
S11301A0C91A891048BF0131491003D0044B0BB15F
S11301B001481847704700BF7010002070100020DD
S11301C00000000010B5064C237843B9FFF7D8FFB0
S11301D0044B13B10448AFF300800123237010BD16
S11301E0B210002000000000DC31000008B5054B0F
S11301F01BB105490548AFF30080BDE80840FFF78F
S1130200CDBF00BF0000000070100020DC310000F2
S1130210064B0748DA1C121AC11E22F00302994247
S113022088BF0022034902F033BE00BF70100020D3
S113023010100020E8310000064B0748DA1C121A9F
S1130240C11E22F00302994288BF0022002102F05D
S113025017BE00BF38130020701000200348044A62
S11302600449121A921001F0CCBE00BF48320000BB
S11302704832000038130020044B054A9A60D3F832
S1130280882042F47002C3F88820704700ED00E033
S11302900000000010B5164BADF5067D01AC0FCB88
S11302A084E80F002C22002105A802F0E9FDFF23B9
S11302B04FF4947200213CA88DF8153002F0E0FD53
S11302C04822002110A802F0DBFD6822002122A8A8
S11302D002F0D6FD202322AA10A93CA800F0DEFCDF
S11302E022463CA905A801F0A4FE0DF5067D10BD2B
S11302F0002F000000B5C3B000F0FCF9B0F5027F98
S11303000DD14FF484720021684602F0B9FDA02398
S11303108DF803300D4B6846019301F082FE4FF4D3
S113032084720021684602F0ABFDA0238DF80330EF
S113033004238DF8043001F0AAFFCDF807006846C5
S113034001F06FFE43B05DF804FB00BF02000146FC
S1130350F0B5421ED11C034685B018D86E460D4C2C
S113036004F11007354620686168083403C5BC42AF
S11303702E46F7D104A90F3311F8014D12F8010FDD
S1130380844204D19A42F7D1012005B0F0BD002087
S1130390FBE700BF102F0000F0B50368044603F12B
S11303A06043B3F5004F4FF000009FB029D8826A34
S11303B0636816699E4224D8B3F5B02F21D8656BC3
S11303C006F14003AB425ED8B5F5B02F5BD82846A2
S11303D0FFF7BEFF002856D0284601F03EFF80B14B
S11303E06B6973B1022B0ED1AB69C4F104011944DA
S11303F04FF0FF32204600F0D5FF244BC31A584279
S113040058411FB0F0BD40F2046328460293FFF741
S11304109FFF08B90020F4E700235F6B3846FFF71D
S113042097FF0028F6D0A6F150039F42F2D8284641
S113043003A901F019FF0028ECD0039DAE42E9D8CE
S1130440AC42E7D8B5F5B02FE4D804A801F066F8BB
S113045021462A1B04A802F0BBF804A802F0BAF84B
S113046001F070F8044601F071F823460090294623
S113047005F1200204A800F0D7FF02900298B0FA18
S113048080F04009BDE70120BBE700BFE320BBDEED
S113049030B54FF0FF3289B005460C4600F082FFBC
S11304A00D4B984215D140F2022000F0EDF81C22C9
S11304B0002101A802F0E4FC084B29466846009399
S11304C002F001F96846211F02F0FDF8684601F0C8
S11304D011FA002009B030BDE320BBDE0100064361
S11304E010B5044688B040F2022000F0CDF81C227A
S11304F0002101A802F0C4FC054B21466846009384
S113050002F0E1F8684601F0F5F9002008B010BDEA
S11305100000034340B139B100230B60034B036077
S11305200B6843F480430B60704700BF1424004001
S113053010B501F0BDFA01280DD1214B04205A6EEB
S11305404FF480231F494B6601F5104108625003A4
S11305505CBF1D4A53664FF04023D3F88420110634
S113056006D44FF400621A67D3F88420D206FBD471
S113057001F0ABFE00F072F801F04EFD01F04EFD0B
S113058018B14FF4017000F08BF8FFF783FE0446B6
S113059001F046FD34B940F2012000F081F84FF437
S11305A0017009E040F203739C42F4D0A4F2057494
S11305B0012CF4D840F2032000F072F8002010BDA2
S11305C0008000400090004000A00040012307B5D7
S11305D08DF806308DF807304FF04023D3F894306F
S11305E05A060FD500F070F8A0F2022080B2072856
S11305F008D8C923C340DB0742BF00238DF8063067
S11306008DF807304FF4C0435B68013308D14FF4D1
S1130610027000F039F800238DF806308DF80730A9
S11306209DF8073063B14FF4C040FFF7B5FE8DF875
S113063006009DF806301BB94FF4027000F024F850
S11306409DF806302BB14FF4C040034B986001F085
S113065040FE03B05DF804FB00ED00E04CF23C32D8
S1130660014B5A80704700BF000000204AF6C0309A
S1130670044B5B8823F00F039BB21B1A584258416A
S1130680704700BF00000020044A08B51080FFF73F
S1130690EDFF10B94FF20F03538008BD0000002096
S11306A008B5FFF7F1FFBFF34F8F0549054BCA6843
S11306B002F4E0621343CB60BFF34F8F00BFFDE74A
S11306C000ED00E00400FA054FF20F01084B5A88D0
S11306D08A4201D1188870473AB91B8840F2022037
S11306E0012B18BF4FF4007070474FF4007070472F
S11306F000000020014B1888704700BF0000002054
S11307004FF4003208B5044B9A6601F05BF8B0FA76
S113071080F0400908BD00BF00900040072BF8B5E9
S113072006460F4614461D4601D90020F8BD012196
S1130730202000F0BDFF0121212000F0B9FF8CB181
S113074044EA06039B07F0D14FF40032064B3146CE
S11307509A66284623463A4601F05EF8B0FA80F0DD
S11307604009E3E70120E1E7009000401FB51022B3
S11307700E4B5A6600F0F8F94FF47A23B0FBF3F00D
S11307800B4B0F22186000210DF1010002F078FBE1
S113079001238DF8003040F2FF3369460548ADF877
S11307A0023001F0A0FF05B05DF804FB00900040AA
S11307B0881000200080044030B50D4D0D4A2D688E
S11307C0536A15FB00F515FA83F09CB280B2A0427F
S11307D02CBF00240124084B1880084B1C7011B155
S11307E0536A8342FCD1012305494B61936130BDB7
S11307F08810002000800440B0100020B3100020B6
S113080000A00440094B0A4A5869127800F001001C
S11308100AB108B9704738B9586A064B1B88984220
S113082034BF00200120704701207047008004403D
S1130830B3100020B01000202DE9F84FDFF89481A8
S1130840584BD8F80020584E9A42584F07D12823C5
S1130850C8F80430564B33604FF480233B60554B4B
S113086002F13C01DFF87091996002F12403C9F8A8
S11308702430C9F804304FF08063DFF860A14FF0F2
S1130880010BCAF864304FF48073CAF8643002F57F
S11308908053C3F804B040F6AA630024536141F2C4
S11308A00503454D454802F500519460D465D36075
S11308B01461D461D4648864C5F81C46C5F8344610
S11308C0C5F82C46C5F82446C5F82846D360936875
S11308D0936000F049F93A4B4FF4E1121B6F052184
S11308E0C3F380235B44B0FBF3F303F5E1435B0103
S11308F0B3FBF2F3334A203B02EAC303D8F80020E7
S11309002046D3615B46042200F0F2FE20465B469B
S11309105A46062100F0ECFE1423C5F81C364FF4A9
S1130920A023C5F834364FF4C0230522C5F82C366D
S1130930D8F8003003215A614FF0F052224BCAF824
S11309406410C3F804B09A605C629C631C645C65C8
S11309503A681E4802607A7B1A66FA7ABC7A1205F3
S113096042EA04423C7B42EA4452DA65C3F870909E
S113097032684260727BC3F89020F27AB07A120532
S113098042EA0042307B42EA4052C3F88C20104ACB
S113099051630222C3F848B003F580531A61BDE8DD
S11309A0F88F00BF00C005409C1000208C10002070
S11309B0020004005010002000C00340FFFF0100AB
S11309C000800040F8FF7F00000004400040044025
S11309D0002004406010002010100020009000400F
S11309E0084B586B10F0020006D002229A6203F5FD
S11309F0005301205A637047DB6A9B07FBD4022231
S1130A00014BF6E700000440002004407F2938B57C
S1130A100446154624D8FFF7E3FF20B32046134BC2
S1130A20621890420DD1124B01391A8861F30E12EB
S1130A301A80104AC2F8A0300223936435B900200A
S1130A4038BD10F8014B03F8014BEAE7FFF7C8FF84
S1130A500028FBD0084B1A6893699B06FCD5EEE787
S1130A6041F20310ECE741F20620E9E7B41000205C
S1130A705010002000000440601000200E4A0F4B6C
S1130A80106840F20112DB6E934205D190B100234D
S1130A90C0F500701844704740F2022293420EBF22
S1130AA04FF48073064A9B1A984202D0F0D2181A67
S1130AB070470020704700BFAC10002000000440C5
S1130AC0341100202DE9F843089D04460E461746CC
S1130AD0F3B9FFF7D3FFB04228BF304600214FF0EF
S1130AE001084FF002091D4A054604EB000C136887
S1130AF0DFF870E01A4864451CD101B1136007B1F6
S1130B003D6041F20420AE4298BF0020BDE8F88366
S1130B102DB1FFF72BFE00212846FFF74DFEFFF70E
S1130B20ADFFB042D5D2002DF9D0FFF76BFE0028FF
S1130B30F5D0CEE71EF803100133B3F5007F04F8B7
S1130B40011B04D10023C0F810900121D3E7B3F5B1
S1130B50807F08BFC0F81080F7E700BFAC1000200A
S1130B60001004403411002030B51C4B87B001AA9A
S1130B7003F11005144618685968083303C4AB42DE
S1130B802246F7D11B782370154B1B6F03F0070324
S1130B90032B1FD04FF48022124B5A66124A9368DB
S1130BA0C3F30443102B17D818336B440F4913F8BD
S1130BB0143C4B430E498B4203D19268C2F3016249
S1130BC0D340074A106FC0F303300130B3FBF0F099
S1130BD007B030BD074BF4E7074BF2E7BC2F00002A
S1130BE000800040009000400000014040420F009F
S1130BF000093D0000F04902C0EA210130B5024677
S1130C0000230C25054905FB03F460180C59944294
S1130C1003D001330C2BF6D1002030BDD02F0000BF
S1130C20F0B50023082787B0CDE9013315463B46CC
S1130C30009704AA044601F0E9FB41F20303984239
S1130C40064623D194F8433053B13A46E06C04A9E4
S1130C5001F0BEFC04AA3B461146A06C01F0A7FCBF
S1130C60059A049B6A6094F843202B6052B9094AA0
S1130C70934207D0084A934204D00822E06C04A9A6
S1130C8001F0A6FC6B68236500236365304607B05A
S1130C90F0BD00BFF70A0AF7FC0404FC2DE9F0419B
S1130CA000254FF0FF3704468846164603F020031C
S1130CB080F842301822FF21C0E91855A0F84050AE
S1130CC080F84350A0F8445080F84650C0F888702B
S1130CD0683002F0D5F888222946C4E91286C4F89F
S1130CE08070C4F8847004F1900002F0C9F8074BD6
S1130CF0C4F82071C4E9463584F8245116B130464D
S1130D0000F00CFC0020BDE8F08100BF00010101EF
S1130D102DE9F04FA5B09946CDE9112300230446EF
S1130D200E464FF001082E9D1393139978E094F822
S1130D3046300C2B70D8062B4BD908FA03F212F468
S1130D40286F40F00B8212F4885F40F0B7810A2BC1
S1130D5066D1DFF8B4A3636D072B00F228814FF04E
S1130D60080B382316AA2046CDE90188CDF800B037
S1130D7011A901F04BFB41F203030A900A9A9A422B
S1130D8000F03F810A9B5BE0A3F10E02052A00F20A
S1130D908F82DFE812F001030600F500320232020E
S1130DA0FF020027636D0F2B00F28A80102314AA20
S1130DB0009320464023CDE9018711A901F026FBC9
S1130DC041F203030890089A9A4200F0CB80089BF2
S1130DD036E0013B052B27D8DFE813F074006E00E2
S1130DE00600C001DC0078010127636D072B00F2C7
S1130DF0DE80082314AA009320464023CDE901771E
S1130E0011A901F003FB41F203030B900B9A9A42E0
S1130E1000F021810B9B13E0A3F10D02062AB3D944
S1130E20494584D3002065E014AA204611A9FFF7A0
S1130E30F7FE41F203020590059B934208D0059BFF
S1130E40049341F20303049A9A423FF46EAF50E0D4
S1130E50159A1499226500226265A94A914240F0CC
S1130E600581022284F84620EAE7082314AA0093A5
S1130E7020464023CDE9018711A901F0C7FA41F2C8
S1130E8003030690069A9A4201D0069BD8E7149B66
S1130E9003F07F43B3F1407F05D0132384F8463039
S1130EA041F20903CCE7159BD90706D594F84230E3
S1130EB043F0010384F842300027636D072BD4D933
S1130EC0012300E1204614AA11A9FFF7A9FE41F26B
S1130ED003030790079F9F420FD0079F41F203032C
S1130EE00497049A9A423FF420AF049B0BB1002369
S1130EF0F370049825B0BDE8F08F1498FFF77EFED8
S1130F0028B9132341F2080784F84630E6E7437909
S1130F1094F824219A4205D9132341F20E0784F848
S1130F204630DBE7026877498A4205D00289D20756
S1130F3048BF013384F8243194F84230D9070DD5E1
S1130F40028994F84330920706D53BB1132341F24A
S1130F50010784F84630C1E7002BF7D0037984F801
S1130F604630BBE7D4F848A000F0F4FA802302210D
S1130F70CDE9000315AA0123504600F02BFA11E72E
S1130F80226D0123A265002284F84330E26584F8CF
S1130F904630CAE600213C2215A81491012701F02D
S1130FA06FFFD4E91432934204D884F8467041F2B6
S1130FB0030345E7009314AA40232046CDE90177B3
S1130FC011A901F023FA41F203030990099A9A4204
S1130FD001D0099B34E70DF1500C06F108030DF123
S1130FE0680E624603CA724518605960944603F15C
S1130FF00803F6D110681860337843F001033370A6
S1131000CFE7337843F004033370179BB3627378EC
S11310105F071CD50020236DCDF850A0C4F88430A0
S113102094F84530606643F0020384F84530EF6875
S11310306FB104222B6814A9B847606E2B685A4616
S1131040EF6816A90830B847636E103363660B2344
S113105084F846307FE63378159A43F00203337000
S1131060149B7360236D083B73622AB1132384F8C5
S1131070463041F20103E3E6042384F8463094F851
S11310804530626643F0010384F84530ADE604233D
S113109014AA009320464023CDE9017711A901F059
S11310A0B5F941F203030C900C9A9A4201D00C9BBF
S11310B0C6E6226D149B042A01D923660127636DB9
S11310C0032BE4D9092384F8463070E700236366D0
S11310D007235CE79F4251D89F4228BF1F46402305
S11310E014AA2046CDE90188009711A901F08EF9D0
S11310F041F203030D900D9A9A4210D00D9B9FE686
S1131100EB17A603F90707F9EB17A65E402F28BFD4
S113111040279F4228BF1F4627F00307DFE794F8C4
S113112046B0BBF1070F2FD0042FC7F1040A88BFC4
S11311304FF0000A14AB5246FF21D81901F0A0FE6B
S1131140BBF1090FBA442DD12B465246204614A9AF
S113115001F0DDF90D900D9B002BCFD1D4E9147370
S11311609F427FF6ADAEFF1ADDE912329B1A94F866
S11311704020032F1344ADD9032BC7D8204611A90F
S113118001F023F900235BE6D5F808A0BAF1000FBB
S1131190CAD02B683A46606E14A9D047636E3B44AC
S11311A06366DBE7BBF1040F1DD173789807D5D5CF
S11311B0EB68002BD2D0626E042A0BD80AEB020330
S11311C0062B07D915AB9B1A1A68C4F884204FF074
S11311D0FF321A60EF682B685246606E14A9B84754
S11311E0636E5344DCE7BBF10B0FB7D17378590737
S11311F0B4D5EF68002FEED1B0E700218A6A496BBD
S11312001269503A91423FF634AF112B0FD194F842
S11312101831002B7FF454AE41F206030E930E9A5C
S11312209A4202D1132384F846300E9B08E694F8C0
S11312304430002B7FF444AECDE90133402314AA9B
S11312400093204611A901F0E1F841F203030E9046
S11312500E9A9A42E9D1E06C01F0BCF994F8183185
S1131260A3B104F1B4030093E06C04F194031CAA49
S113127014A900F0D9F80E900E9BA3B10023F370CB
S1131280132384F8463041F20603D9E5D4F84CA080
S113129000F058F9074600F059F93B4600901CAAA3
S11312A0504614A9E5E70123F37084F8443007E6B7
S11312B000234FF00408CDE9013314AA402320464B
S11312C0CDF8008011A901F0A1F841F203030F90B9
S11312D00F9A9A4202D00F9B04930AE6D4F888200E
S11312E02F4B9A4205D0132384F8463041F205036C
S11312F0F2E70123F37094F84530DA0707D5EF6875
S11313002FB1424640462B6804F18401B84794F853
S113131045309B0707D5EF682FB104222B68104690
S113132004F18401B847236E6BB36F685FB34FF069
S1131330FF3304F180080422414610A8109301F001
S11313408FFD28B10422414648F204002B68B847B7
S113135004F168090422494610A801F081FD90B106
S113136000239B6A1422D3F8108004F16C0108F165
S11313700800D5E90037B847D5E9003704224946C3
S113138008EB0200B8470123B3700E2384F84630FB
S11313900023A1E70023F37041F20700AAE500BF90
S11313A0E320BBDE30B50824094B00255C6601242C
S11313B003F5FE235C6001449D601A61DC60884291
S11313C001D1586A30BD10F8012B1A62F7E700BF4B
S11313D000900040F8B516464FF400521D46114BDC
S11313E004469A660222C3F860220F4601F05AFCB2
S11313F0DDE90612204601F059FC002384F8387018
S113140063623368C4F839307368C4F83D30B36834
S1131410C4F841302B0C6DBA84F84530A4F846501A
S1131420F8BD00BF009000402DE9F041B0B0144673
S11314300D461A460646369B002867D0002965D01B
S1131440002C63D0002A61D0002B5FD006214FF41A
S1131450005006912F4920AF88660320C1F860022E
S11314600021BE4609910C910F9105F12008F44624
S1131470286869680835ACE803004545E646F6D1B6
S11314800DF1A00C04F1200E654620686168083453
S113149003C57445AC46F7D10DF1400C654602F125
S11314A0200E2C4610685168083203C47245254644
S11314B0F7D118AC03F1200522461868596808339F
S11314C003C2AB421446F7D14023CDE90A73089313
S11314D020230AAA0E9303AB07CACDF81CC00D96AD
S11314E083E8070007AB93E807008DE807000DAB1E
S11314F00ECB094801F010FB0690069B40F20460F5
S1131500002B08BF002030B0BDE8F08140F201603C
S1131510F9E700BF00900040F83000004FF400529B
S1131520074B10B59A6602220446C3F8602201F004
S113153054F82046BDE81040002101F052B800BF25
S113154000900040004870474C6305000048704715
S11315506C63050000487047866205002DE9F34777
S11315601446DDE90A920D461F4600284DD14CB3BE
S113157013683F2B2AD8516851B32549002F14BF53
S1131580B846884603F03F061B19136022BF536810
S113159001335360FEB93F2C0ED9A3092A460093A8
S11315A041463B46002001F035F824F03F031D443A
S11315B004F03F0434B100262246294609EB060014
S11315C001F066FC002002B0BDE8F087B846D9E718
S11315D0DFF83C80D6E7C6F1400A5445ECD32946EF
S11315E0524609EB060001F053FC01232644009304
S11315F04A463B4641460020A6F1400401F00AF861
S11316003F2C5544D6D9B846C7E70248DBE700BFAC
S1131610A030000080AFFFFF2DE9F04117461468A9
S113162086B01E46E3008DF80F3063098DF80E3046
S1131630630B8DF80D30630D8DF80C30536805463F
S1131640DA0002EB54728DF80B2004F03F045A09BF
S1131650372C8DF80A204FEA53324FEA53538DF852
S11316600920884694BFC4F13802C4F17802CDE958
S113167000178DF808300D4903460020FFF76EFF70
S113168008222B460020CDE900870DEB0201FFF76D
S113169065FF284605F1200350F8042B984246F8CC
S11316A0042BF9D1002006B0BDE8F08160300000C1
S11316B0420910B50FD0012A0FD00A4B0A4C022A56
S11316C018BF234600F01F0049B103F580530122DF
S11316D082401A6010BD1346F4E7044BF2E703F5A9
S11316E00053F4E76880004060820040648000405A
S11316F0F8B504460D461F4616464AB101238B40F1
S11317003021184A01FB0022F7B141F21001535075
S113171004EB4403072D4FF00F014FEA031316D8CF
S1131720A80006FA00F281400F48184400F0BCFFFC
S11317304EB9012330210B4AAB4001FB042277B19F
S113174041F210015350F8BD42F21001DFE7A5F158
S11317500800800006FA00F281400448E5E742F2FE
S11317601001EFE700C0034004C003400CC0034075
S1131770F0B5114A114C124E00F00105E3695F0700
S113178013D40DB9334213D103EA00078F4207D1B2
S11317900B4A1A40002A0CBF00206FF00100F0BD74
S11317A0013AEBD16FF00200F9E74FF0FF30F6E7B2
S11317B06FF00100F3E700BF80969800000003403B
S11317C0020001004FF4003238B50F4B0F4C9A66FB
S11317D041F671330122E569E3630D4B0021DA60C0
S11317E0022360612120236105F48035FFF7C0FFE7
S11317F010B92120FFF7BCFF0122064BDA600DB1BE
S11318000023E36338BD00BF0090004000000340A4
S113181000100340002003402DE9F04F01274FF44E
S1131820402530262C4CDFF8BCC0DFF8BCE0CCF8F7
S1131830047044F8205000244FF4003506FB00E601
S1131840F46534663467254CDFF8A090A56641F64C
S1131850713504F51C34D4F81C80E563E568DFF8C1
S113186090A03D43E56007FA00F04BB9E26818F434
S1131870803F22F00102E26029D10020BDE8F08F10
S113188001F5005505EA09056D1A9D4228BF1D465C
S11318906161D4F81CB0AF081BF0040F19D1013FEB
S11318A03F0147F060577766B266C6F86CA0CCF883
S11318B02400DEF834703842FBD0094F29447863A1
S11318C00427CCF828002A4427615B1BCDE7E36397
S11318D0D3E74FF0FF30D1E70040044000900040D0
S11318E000200440001004400000044000E0FFFF1A
S11318F018000340F8B5C3690446042B66D800F009
S1131900CCFE4FF48032324B3249586E03F580538B
S11319105A66314D314BC003C1F80036C1F8045644
S11319205CBFA1F5E4214A662D4AE5691A60226884
S11319305A602C4A04F1080303EB8501121B8B4205
S113194002EB03001FD1284600216368264CF3B93B
S1131950224A41EA056191601368516892684B40DC
S11319605340002282422CD144F82230BFF34F8FDF
S11319701E491F4BCA6802F4E0621343CB60BFF3F5
S11319804F8F00BFFDE753F8046F0660D7E70022CE
S1131990D3F800E004EB80079E68BC46C6F39906C2
S11319A0B24207F1040706D3114410445A68012ACD
S11319B0CED05B68CBE75EF822600132CCF80060E1
S11319C0EAE754F8221001324B40CBE7F8BD00BFE0
S11319D00080004000C00740004E00A0004C00A062
S11319E0DEC0ECE5044C00A00C4C00A000ED00E0CF
S11319F00400FA054FF48031174B10B5586E03F507
S1131A008053596603F5E623D3F8043603F1C04244
S1131A10A2F58042B2F5606F01D9002010BDC20367
S1131A205CBF0E4A516619680D4A9142F5D11A6994
S1131A300532B2F5007FF0D200210C46914205D365
S1131A4053F82200031B58425841E7E753F821009A
S1131A5001314440F2E700BF0080004000A0004094
S1131A60DEC0ECE538B50F4B0F495A6E4FF48033A6
S1131A70D20358BF0D4A4B6601F5E621D1F804564E
S1131A80044658BF536630B1FFF7B4FF30B10020AD
S1131A906B68236038BD4FF4E020FBE74FF47E0011
S1131AA0F8E700BF008000400090004000A0004024
S1131AB0024B1868C0F30740704700BF0080E00F76
S1131AC060B5054619B10139B1F5806F0FD2094EE1
S1131AD0F06810F48030FBD143EA012312072B4352
S1131AE002F08052134343F00043736060BD012051
S1131AF0FCE700BF0020024C0122054B9A60DA6823
S1131B00D203FCD4D86820F00F000004000C704706
S1131B100020024C0322024B186019615A6370477B
S1131B200000024C82B01FB507930A9B04AC8B42A1
S1131B3028BF0B4604E907001048D100079948BFA5
S1131B4003330160099948BF23F0030323F0704372
S1131B5001F0E041194341F000518160002102F09D
S1131B60E042019C1A4342F00052C1600461826168
S1131B70416304B0BDE8104002B070470000024C5D
S1131B803F22034B1A631022DA6103229A637047DF
S1131B900000024C024AD36B9B07FCD4704700BF81
S1131BA00000024C044B9B6A13F0240F14BF012065
S1131BB000208000704700BF0000024C08B5FFF70A
S1131BC0F1FF064BDB6B23F47F4323F0EF03034366
S1131BD01EBF0122024BC3F8FC2F08BD0000024CBB
S1131BE000F0FF3F4368182B0AD0202B1DD0102B88
S1131BF02BD1174BD3F80434DB010AD401207047EE
S1131C00134BD3F804349A01F8D50B6843F0080356
S1131C100B6003680F4A934210D10B6843F04003F2
S1131C200B600023436000207047094BD3F8043451
S1131C305B01E3D50B6843F00403E9E7064A9342EA
S1131C40F1D10B6843F08003EAE70720704700BF37
S1131C500000024C35130020341300200B4607B556
S1131C600749D1F80414C90708D500210092024697
S1131C70084600F033F803B05DF804FB0120FAE7EE
S1131C800000024C0B4607B50749D1F80414C907F4
S1131C9008D5009201210246002000F01FF803B08D
S1131CA05DF804FB0120FAE70000024C1FB50A4C62
S1131CB0D4F8044464070CD5CDE900120021069C35
S1131CC00222CDE902340346084600F031F804B09C
S1131CD010BD0120FBE700BF0000024CF0B51C461C
S1131CE05B6815468DB01A07129E1AD1CBB1726883
S1131CF0934216D10C4B0D4A53F8217009AB07CA15
S1131D0083E807001A462946CDE90533CDE90333B4
S1131D10CDE90163009447F4807000F027FE0DB014
S1131D20F0BD0720FBE700BFF0300000C03000002A
S1131D302DE9F0418CB0DDE9127C7C681E46DDE9BA
S1131D40143E200728D13CB3DCF80400844223D19C
S1131D505868102820D1DEF8040010281CD10F4840
S1131D6009AC50F821500E4951F822800D4A07CA97
S1131D7084E8070045EA080022463146CDE9054ECD
S1131D80CDE90344CDE901C4009740F0300000F0F0
S1131D90EDFD0CB0BDE8F0810720FAE7F03000005B
S1131DA0CC300000C03000000138C0B206289ABF11
S1131DB0014B185C00207047D33100000138C0B2D9
S1131DC006289ABF014B185C00207047CC310000F4
S1131DD02DE9F04FBBB0804603A880E80E001E46F4
S1131DE07A4B1746D3F800248A46D4069DF81091FE
S1131DF003D401203BB0BDE8F08F08F1FF32062A7E
S1131E006DD8DFE802F004191F252B313700D3F811
S1131E100C34D807EDD5012307930023B9F1010F42
S1131E20CDE908332CD0B9F1020F5AD04046FFF760
S1131E30C5FF6324054631E0D3F80C349907D8D59F
S1131E400223E9E7D3F80C345A07D2D50423E3E795
S1131E50D3F80C341B07CCD50823DDE7D3F80C34B6
S1131E60DD06C6D51023D7E7D3F80C349C06C0D5BD
S1131E702023D1E7D3F80C345806BAD54023CBE756
S1131E80524BD3F80C34D903B3D5079B404643F4E3
S1131E90C0630793FFF788FF032405461323042236
S1131EA0009307A94FF0005312A800F01DFD5146FE
S1131EB0009446F000533A4600F016FD4FF0000B34
S1131EC004465E46DDF814A1469B9B452CD1B9F12E
S1131ED0030F42D14046FFF771FFB84237D00720C5
S1131EE088E73A4BD3F80C24D20382D5D3F80C34C8
S1131EF09B037FF57EAF97B17C423946374604F0A9
S1131F000304079B404643F4E0630793FFF74CFF49
S1131F1024023E4605460F4644F0A304BEE70421CE
S1131F200DF1200A0C46ECE7DAF8042016444AB115
S1131F30032300932046DAF80830DAF8001000F0A2
S1131F40D3FC04460BF1010B0AF10C0ABCE7404632
S1131F5000F02CFE01383042C1D17EBB032332464F
S1131F602046009308A9334600F0BEFC042604462C
S1131F70103C204600F0CDFC2046314600F0D4FC55
S1131F80489BAB4228BF2B461C46EBB1002322469C
S1131F9000934799499B0AA800F0A6FC2A1B04D089
S1131FA000231946009300F09FFC103800F0B1FCA8
S1131FB012A80AA900F08DFC00201BE716F0030606
S1131FC018BFC6F10406D3E70AA8E7E70000024CED
S1131FD04FF40052034B00209A660322C3F8602298
S1131FE0704700BF009000404FF40052034B0020A4
S1131FF09A660322C3F86022704700BF00A0004025
S1132000FEE710B53AB1002350F8234041F82340CD
S113201001339A42F8D110BD00F009B8FEF76AB94D
S113202070470179012204310330FEF7EFBCFEF75B
S113203003BCF0B5ADF5097D04460E4617460021F4
S11320404FF4847246A800F01BFF20238DF81B3147
S113205002238DF81C314FF48472002104A800F08F
S11320600FFF4FF47A75FEF709FD0028FBD001231A
S11320700095194603AA0DF11300FEF723FD9DF800
S11320801330202BEFD101230321009503AA05A8C7
S1132090FEF718FD0028DED1039B032BDBD19DF84E
S11320A0145075B140F6B8332946009303AA0123AE
S11320B00DF11700FEF706FD0028CCD1039B9D42CD
S11320C0C9D19DF81530002B56D19DF81650022D1C
S11320D00DD0032D1FD0012DBDD18DF81E518DF8CB
S11320E01F318DF8203146A8FFF79BFFB3E7214647
S11320F030469DF81730009706AAFEF709FE8DF8C2
S11321001E5128B141F20703984214BF4620002013
S1132110ADF81F01E7E7A3788DF81E5153B3E378B8
S1132120002B0CBF4623002346A8ADF81F31FFF750
S113213078FFA378002B8ED0E378002B8BD0237804
S11321405A0707D5A06A00F0ADF818B14FF4004063
S1132150FEF7C6F923789B077FF57DAF656800F02D
S113216096F885427FF677AF616A4FF40040FEF738
S11321708FF970E74623D7E7012B7FF46CAF9DF806
S11321801630012B7FF467AFA37833B1E37823B91A
S113219040F20320FEF784FA5DE79DF81730012B27
S11321A00CBF40F2022040F20120F3E7C0F30C031D
S11321B02DE9F04105460F4616460BB9FEF7A0FA85
S11321C005F5005424F4FF5424F01F0405EB06081D
S11321D0A04507D8324639462846BDE8F0410223D7
S11321E0FEF79CBA2046FEF78BFA04F50054EFE79D
S11321F070B40025AD6A03462E69864206D86C6920
S113220013449C4202D370BCFFF7D0BF70BC70472C
S113221037B500F5004310F5004F0D461446019301
S113222019D2019BB3F5AC2F15D2019BC3F5AC2396
S1132230934210D338B9836A5A69B2F5004F02D970
S11322401869FEF75DFA22462946019803B0BDE8F5
S11322503040FFF7ABBF03B030BD036913F0FE0F8E
S11322600CBF01200020704738B504460D46FEF728
S11322706FF838B16369012B07D12046FFF7EDFFF2
S113228010B1A46901202C6038BD0020FCE70023B4
S11322909B6A9868704708B5FFF7E4FBB0FA80F0D2
S11322A0400908BD4FF0FF3313B5044601A801935C
S11322B0FFF7F1FF20B1019BA3422CBF00200120B6
S11322C002B010BD4FF4004070470020704700205A
S11322D0704703461846016881F3088881F309882A
S11322E040688746FEE74FF40170FEF7D9B9B1F5AF
S11322F0057F10B504460FD34FF40572002100F09A
S1132300BFFD04F5CE7204F5AA7104F12C0000237C
S1132310BDE81040FEF7C2BC40F2052010BD13B565
S11323200446009101462C30FEF7F2FCC4F810027A
S113233018B141F20703984204D1A37823B1E0789D
S113234000F2022002B010BD40F20120FAE72DE9AC
S1132350F04387B00DF1080904460E4617460021E4
S1132360102248461D46DDF8388000F089FD002122
S11323701C22C8F80010284600F082FD32463B4675
S11323802146CDF8009004F12C00FEF7C1FC23781F
S11323909A0744BF6268C8F80020DB0709D504F136
S11323A0080304F1240253F8041B934245F8041B68
S11323B0F9D1237840F20640002B18BF002007B063
S11323C0BDE8F0834FF40570704770B5D1E9015250
S11323D0AA4205D290F840302B449B1A402B10D9C6
S11323E0002012E00A6890F84040D65C90F8412042
S11323F00133224402F03F02013486548B6080F89A
S113240040408B689D42EDD8012070BD2DE9F84312
S113241090F840C017469E46D1E90123089DD21A80
S11324206244954204460E469DF824909DF8288007
S11324300AD9FFF7CAFF002867D1132341F202002B
S113244084F84630BDE8F883754555D8002394F8E0
S113245040200AB19D4235D1D6E90121914201D2F1
S11324609D4241D89D424DD129463846D4F8882012
S1132470FEF798FFC4F88800B9F1000F04D02A468B
S11324803946E06C00F0A4F894F84330B8F1000F3A
S113249006D08BB12B463A463946A06C00F087F83B
S11324A094F8433043B1E36DA26D2B449342E3654A
S11324B024BF002384F84330636D41F203002B44AE
S11324C06365BFE794F84120A25CFA5494F8412074
S11324D00133013202F03F0284F8412094F8402095
S11324E0013A84F84020B2E73268525CFA54B26888
S11324F001330132B260AFE741F20100132384F8E3
S113250046309FE741F20200F8E700209AE72DE900
S1132510F04799465B6804460F469046002B40D02E
S113252011F0030340D19B6A006E1B6981181D1DC5
S1132530A9421BD31C33984218D2A842024638BF82
S11325402A46994294BFC2EB010AC2EB030A101A4D
S11325503E18C5F16800104431465246204400F04C
S113256097FC5246FF21304600F08AFC48F20403EF
S1132570226E9A420CD848F2070102EB0800884206
S113258006D99B1AFA58C4F880204FF0FF32FA504B
S1132590D9E9003542463946206EA847236E4344A4
S11325A023660020BDE8F08741F20200FAE730B567
S11325B00D4685B0194600F12803CDE90152009378
S11325C000F1240200F1380300F0C1FB05B030BD76
S11325D000F00CB8014600F016B86822002100F0A3
S11325E04FBC03460020C3E90000704707B500F163
S11325F028030190009300F108030020FEF7AEFFCA
S113260003B05DF804FB02460B4600F128010830D4
S1132610FFF702B8F0B51D4693B0002837D1189BD8
S113262006909B01CDE904230AAB0A461E4601F13C
S113263020071C4610685168083203C4BA42234676
S1132640F7D1002307960993FFF7C2FC0446D8B9D3
S11326502023089304AB93E807008DE8070007AB39
S113266004200ECB00F0B3FA0746FFF7BDFC8FB988
S11326702B46324612AE154603CDB542186059605A
S11326802A4603F10803F6D1204613B0F0BD6FF0DB
S11326907104F9E76FF06F04F6E7EFF3108072B698
S11326A0704700B962B6704770B5054614460E46C9
S11326B0FFF7F3FF2B685C4034405C402C60BDE8BE
S11326C07040FFF7EEBFC369032B9FBF00EB83028B
S11326D00133D160C3617047036BDA0702D5036924
S11326E05B06F9D4704710B5FFF7F6FF01220446E4
S11326F000F500531A630B7948881B0243EA8043B0
S1132700887A0343487843EA8013C87A43EAC013BB
S1132710087B43EA4013487B43EA0013887B43EA7F
S1132720C003C87B43EAC023887943EA0043C879DD
S113273043EA4043636004F580531A630A780AB994
S11327400223E360002363624B79087A1B01497A10
S113275043EA80030B43A3600AB10123E36010BD85
S113276013B51AB10024009400F0BEF802B010BDF5
S1132770F0B58DB005AC84E807001C46A1420D46B7
S113278028BF2546129B0DB304B3114628460026E4
S113279003F51813CDE90A468DE8030003F241134B
S11327A05F02C5EB4323099302950CAA059B12E92A
S11327B00700069500F025FAA54207D23146621BB0
S11327C0381B0DB0BDE8F04000F019BA0DB0F0BDF3
S11327D030B591B001AC84E807001C461346DA001A
S11327E049BF029A6200033222F00302014604A8A0
S11327F0FFF7B6FF04A800F08CF81499224601F5FF
S1132800181101F241114D0208A8C4EB4121002323
S1132810FFF7A6FF05F5007100232246091B0CA84B
S1132820FFF79EFF0CA800F074F808A904A800F0B4
S113283050F811B030BD10B58CB005AC84E8070079
S11328400E9ADDE9060102F5181202F5A072520291
S1132850CDE9092300228DE803000B9202930CAA10
S1132860059B12E9070000F0CCF90CB010BD2DE96E
S1132870F04B4FF0000899460746164645468AB085
S113288003AC84E8070002F0805B07AC049A42457D
S113289002D80AB0BDE8F08B139B13B9AA1E012A13
S11328A00AD9129BCDE90779099600955BB194E8A2
S11328B007004B46FFF75CFFBBF1000F00D14F440C
S11328C00135C844E2E74B4694E80700FFF7B3FF3D
S11328D0F2E708B5FFF71EF9FFF752F9FFF75AF9C7
S11328E0BDE80840FFF76AB910B5044622F070420B
S11328F0103060602160A26039B1A26803F07043B7
S11329001343A360029BE36010BDA36843F08043BC
S1132910F7E701234360C36843F02003C36083687F
S113292043F0005383607047C36803F00F03012B27
S113293002D0033B012B08D8C36801F01F0143EA0E
S11329400123C36083680B448360704737B5154621
S11329504A6804463AB18C680093096845EA04035E
S1132960FFF7C2FF0446204603B030BD2DE9F04F07
S1132970D3B0CDE90123DDE95D7BDDE95FA9002367
S11329800390042003ACCDE9050307C907AB83E832
S1132990070021461846619E0494FFF723F98046F8
S11329A0002840F0B3805C9A0AAB07CADBF80450F5
S11329B083E80700DAF804304C421D44D9F80430A7
S11329C06D425B420093BB6805F00F05DA0048BF17
S11329D07B6804F00F0442BF033323F003037B60DE
S11329E0B368DB0041BF7368033323F003037360F0
S11329F00023DBF80400DAF80420CDE9153381184C
S1132A002944CDE90E1379680D93494201F00F0171
S1132A10CDE9103171681293494201F00F01CDE9FB
S1132A201331CDE9173319935C9B5B684BB9D9F823
S1132A3004301343184301BF1024CDE90B4016ABF7
S1132A400A9311234FF0005204A932A8FFF77EFF26
S1132A5040F611034FF0005207A9FFF777FF42F643
S1132A6011034FF000520299FFF770FF44F611036F
S1132A704FF000520199FFF769FF412300225946A4
S1132A80FFF764FF2B024FF00052514643F041031D
S1132A90FFF75CFF23024FF0005243F001030AA941
S1132AA0FFF754FF009B4FF000521B0203F47063C6
S1132AB0494643F00103FFF749FF1038FFF729FFA8
S1132AC000230DA91A461AA8FFF740FF0023394630
S1132AD01A46FFF73BFF002310A91A46FFF736FFFB
S1132AE0002331461A46FFF731FF002313A91A4683
S1132AF0FFF72CFF002362991A46FFF727FF1038CF
S1132B00FFF707FF1AA932A8FFF7E3FE404653B0C8
S1132B10BDE8F08F0069704770B586B003AE054616
S1132B2086E80E00FFF7F6FF202804463AD86A68C4
S1132B3000EB80039A4203D0062343439A4233D1E5
S1132B400B9BB3EB440F2FD10E9A93422CD101224D
S1132B5021463120EB68FEF7B3FF08BB0123CDE922
S1132B600033234695E80700FFF781FE08230AAAED
S1132B70009307CA2346FFF72BFE0C23009396E825
S1132B8007002346FFF7F4FD0A230DAA009307CAA2
S1132B902346FFF71DFEFEF7AFFF002818BF0320F2
S1132BA006B070BD0120FBE70720F9E7062808D826
S1132BB004280AD8013803288CBF00200120800192
S1132BC07047C31F58425841F9E78020704770B5D9
S1132BD08AB007AC84E80E0003AD064694E807000B
S1132BE085E80B00012302930EAB019303230093AA
S1132BF0304694E80E00FFF7EBF80AB070BD00F021
S1132C003FB982B02DE9F0438BB005AE86E80700EA
S1132C10079D1F4615F0804513938046DDE9143265
S1132C208946169C16D18C4228BF0C46D20016D574
S1132C3084B10F2C1AD8A9EB0502042A3B6828BFDB
S1132C40042208EB050009A90435099300F020F9D2
S1132C50AC42F0D80BB0BDE8F04302B070479C42E0
S1132C6028BF1C46002CF5D00F2C13D9DDE9140124
S1132C708DE803000294139B96E80700FEF752FFC9
S1132C80FEF77EFFFEF786FF0BB0BDE8F04302B00F
S1132C90FEF794BF224639460BB0BDE8F04302B0BC
S1132CA000F0F6B82422002100F0EAB870B5154609
S1132CB00E4624220021044600F0E2F825F04003E9
S1132CC0802B02D0B5F5807F08D12046314640F8EC
S1132CD0045BEA0800F0DCF8002070BD6FF01F0010
S1132CE0FBE730B501290D468BB02AD8046824F0DF
S1132CF04001802902D0B4F5807F25D10021CDE99F
S1132D00031210220430E408CDE90521CDE907328D
S1132D10019002940991FFF75BF968B9012D07AAA4
S1132D2004A901A80AD1FEF799FF0446FFF75CF94C
S1132D30204318BF6FF06F000BB030BDFEF7A2FF49
S1132D40F3E76FF02000F7E76FF07100F4E72DE987
S1132D50F04F91B082460F4698461646DDF86CB0A7
S1132D60FAB11568DAF8003023F04002802A02D064
S1132D70B3F5807F6ED10024DB0805931023CDE9E1
S1132D800648CDE908340AF104020BEB0703049268
S1132D900293BC4207D306B13560002011B0BDE8F0
S1132DA0F08F1546DEE75DB11A9A1BF80430525DC8
S1132DB0013553401C9A05F00F0513550134E8E71B
S1132DC0A7EB0409B9F10F0F1DD929F00F090BEB7B
S1132DD00403CDE90A391C9B0C952344CDE90D3934
S1132DE00F95FFF7F5F80028D8D107AB00930DAA8B
S1132DF00AA904A8FEF75AFF0390FFF7F5F8039B0E
S1132E0003432AD14C441C9B0BEB04091C44029B36
S1132E104B4501D13C46BCE78DB9424601215046A1
S1132E201A9BFFF75EFF0028B8D108F1100212F8D0
S1132E30013D0133DBB213700BB94245F7D11A9A45
S1132E4019F8013B525D0135534004F8013B05F08C
S1132E500F05DCE76FF07100A0E76FF06F009DE7EE
S1132E600139024410B5904201D1002005E00378F5
S1132E7011F8014FA34201D0181B10BD0130F2E735
S1132E8002440346934200D1704703F8011BF9E75B
S1132E900A44431E914200D1704710B511F8014B0A
S1132EA0914203F8014FF9D110BD00000000000069
S1132EB0000000000000000000000000000000000E
S1132EC0F8B500BFF8BC08BC9E467047F8B500BF13
S1132ED0F8BC08BC9E4670470000000000000000DB
S1132EE000000000000000000000000000000000DE
S1132EF000000000000000000000000000000000CE
S1132F0000000000F1210000000000001122000078
S1132F10B814B6F1E0CFF3ADB7DD25C9FA79B7132C
S1132F200000000013B779FAC925DDB7ADF3CFE08F
S1132F30F1B614B80102000000000000483200009D
S1132F404000000003000402000000000000000034
S1132F50000000000000000000000000000000006D
S1132F60000000000000000000000000000000005D
S1132F700000000007B0CD5E020000000300040260
S1132F804C3200000060000000800500F0041000D6
S1132F90CB220000CF22000099030000EF220000A2
S1132FA01F230000000000004F230000C523000081
S1132FB00000000015050000C52200000400000701
S1132FC000000D1013001A20263038405000000075
S1132FD0EB17A6030201000003000000FA0606FA3C
S1132FE00F04000003000000F40A0AF405050000C1
S1132FF001000000EB17A65E0A06000001000000B5
S1133000F50909F50307000001000000F60808F6B9
S11330100608000000000000FE0101FE0808000090
S113302000000000FD0303FD0C0800000000000088
S1133030F90707F91009000002000000F30B0BF375
S1133040110A000003000000F70A0AF7120B00003F
S113305003000000FC0404FC0D0C0000030000004D
S113306080000000000000000000000000000000DC
S1133070000000000000000000000000000000004C
S1133080000000000000000000000000000000003C
S1133090000000000000000000000000000000002C
S11330A06A09E667BB67AE853C6EF372A54FF53AD5
S11330B0510E527F9B05688C1F83D9AB5BE0CD1901
S11330C000000000000000000000004000010000BB
S11330D000020000000400000008000000100000CE
S11330E000200000004000000080000000000100FB
S11330F000000000010000000C310000C0000000CE
S1133100000000000000100020000000FFFFFFFF8F
S113311000000001000000000000000000000000AA
S1133120FFFFFFFFFFFFFFFFFFFFFFFFFFFFFFFFAB
S113313000000000FFFFFFFFFFFFFFFFBCE6FAAD4A
S1133140A7179E84F3B9CAC2FC6325516B17D1F249
S1133150E12C4247F8BCE6E563A440F277037D81A5
S11331602DEB33A0F4A13945D898C2964FE342E23F
S1133170FE1A7F9B8EE7EB4A7C0F9E162BCE3357AD
S11331806B315ECECBB6406837BF51F5FFFFFFFF12
S1133190000000010000000000000000000000002A
S11331A0FFFFFFFFFFFFFFFFFFFFFFFC5AC635D8FD
S11331B0AA3A93E7B3EBBD55769886BC651D06B075
S11331C0CC53B0F63BCE3C3E27D2604B10142020AB
S10F31D040402010141C2030402000005F
S10F31DCE8310000101000201800000072
S11331E8F00F100300000000341100201300000049
S11331F809000000000100000202000013000000A2
S1133208F00F100300000000341200201300000027
S1133218090000000002000001010000D3FFFFFFC5
S1133228F07F1030B41000200000000000000000FF
S113323800C0054028000000ED010000C5010000A1
S9030141BA
