S01200006164635F6578616D706C652E7333376F
S214012000C00A00208D2F010083DB020083DB020063
S214012010AFEC020083DB020083DB020083DB0200FD
S21401202083DB020083DB020083DB020083DB02002A
S21401203083DB0200548503003BDA020083DB0200E7
S21401204083DB020083DB020083DB020083DB02000A
S21401205083DB020083DB020083DB020083DB0200FA
S21401206083DB020083DB020083DB020083DB0200EA
S214012070BD7C010083DB020083DB02005D2A0100D8
S214012080E9DA020083DB020083DB020083DB020065
S21401209083DB0200BD36010083DB020083DB020026
S2140120A083DB020083DB020083DB020083DB0200AA
S2140120B083DB020015B5020083DB02005DBF020070
S2140120C0E76D0300E36D03004DB70200F36D0300F7
S2140120D0EB6D030035BF0200EF6D03009DBF0200EC
S2140120E02D990200F19A02000DC0020083DB020066
S2140120F083DB020083DB020083DB020083DB02005A
S2140121007125010083DB020083DB020083DB020012
S21401211083DB020083DB020083DB020083DB020039
S21401212083DB020083DB020083DB020083DB020029
S21401213083DB020083DB020083DB020083DB020019
S214012140002370B5404C05468AB0E36318B1008899
S21401215023600BF04DFE3D4824F0A4F93C4E3D4B68
S214012160304633603C4B736020F0EBF9002130467B
S21401217013F060FB32A3D3E90023A062C4E906236F
S21401218020F0EAF9D4E9062319431043C4E906010D
S214012190CDE900014FF0FF334FF0FF32A06A24F083
S2140121A0FCF902224FF0FF31A06A24F0FBF901206E
S2140121B00BF09EFB4FF4007300222849A06A24F01E
S2140121C044FAB0F5007F38D100239422CDE90733D5
S2140121D009933C23CDE9033205939623A06A03A90C
S2140121E0069313F045FC35B3287C0BF0AFFF05468C
S2140121F0F0B9A06A24F00AFB0BF056FF0BF05AFB6D
S21401220020B14FF48070002108F068FB0BF062FBF0
S21401221020B14FF40060002108F060FB20F067FA5F
S214012220012013F05BFB0E4A0E49A06A20F087F9E5
S21401223028460AB070BDFF20D7E70725F8E700BF9C
S2140122400DD5015520000000680F0020690345ECFC
S2140122507821002075D7010088210020781F0020F2
S214012260E7240300272503000348044B834202D0DA
S214012270034B03B118477047F40E0020F40E0020FC
S21401228000000000064B0749C91A891048BF0131F2
S214012290491003D0044B0BB101481847704700BFE3
S2140122A0F40E0020F40E00200000000010B5064CCD
S2140122B0237843B9FFF7D8FF044B13B10448AFF3B3
S2140122C000800123237010BD462900200000000075
S2140122D0CCCE030008B5054B1BB105490548AFF345
S2140122E00080BDE80840FFF7CDBF00BF000000003A
S2140122F0C8110020CCCE0300A3F5803A704700BF7A
S214012300174B002B08BF134B9D46FFF7F5FF002127
S2140123108B460F461348144A121A24F0B2FE0E4B8F
S214012320002B00D098470D4B002B00D0984700207B
S214012330002104000D000D48002802D00C48AFF320
S21401234000801AF06FFB200029001BF06AFB1AF0D0
S21401235079F800BF0000080000000000000000003F
S214012360C00A0020F40E0020842A0020000000008D
S2140123700000000001223E4BF0B5DA60002347F270
S2140123802F5287B00393039B934268DD0227384C94
S21401239004A821461BF0E8FDE7600499354C364851
S2140123A0218089B21AF0BAF9344D23883A460021C1
S2140123B0ADF80830288802AB0EF02EFE39460646E8
S2140123C002AA1F200EF056FE00284CD031462C489B
S2140123D01AF0A4F94FF4F07223882A4E534340F6BC
S2140123E0FF72B3FBF2F39BB233803188264889B281
S2140123F01AF094F933889BB2B3F5E16F36D940F6FB
S214012400E342338864249BB293420AD833889BB252
S214012410A3F5E16304FB03F140F2DC5391FBF3F116
S214012420CCB2214619481AF079F901AB01220021F4
S21401243028888DF804400EF0EFFD01AA01212888B6
S2140124400EF018FE01AB012200211B200EF0E4FD68
S214012450012101AA1B200EF00DFE07B0F0BD039B63
S214012460013303938FE721880948B1E70024D8E7B1
S2140124700040005AF0280020E07E0300EE280020ED
S214012480F27E0300E8280020277F0300397F03003F
S214012490117F030040F673622C4B70B51A8040F230
S2140124A06C722B4B90B02B481A801AF049F9012117
S2140124B02A2001F033FB01213A2001F02FFB0023F3
S2140124C0254D1A460321184606AC01F0C3FF0FCD71
S2140124D00FC40FCD00260FC495E803000323012582
S2140124E084E803001D4C324620461D49CDE90166AD
S2140124F0CDE903668DF806300596009502F010F8D2
S214012500184B8DF81100059341F20103204606AAE7
S21401251003A9ADF800308DF809508DF8035002F08C
S2140125203FF86A46204601A91BF0EBFC042204F59D
S21401253080539A624FF480320B4BC3F884215A6061
S2140125400A48E5601AF0FCF810B070BDEC280020CF
S214012550EA280020537F0300008103000040005A50
S2140125608096980040C5506500E100E07E7F03003C
S214012570042213B50B4C684604F500535A622146F3
S2140125801BF0FAFC4FF4965300990748594340F65E
S214012590FF73B1FBF3F11AF0C1F80123E36002B057
S2140125A010BD00BF0040005AA67F03000368324AF0
S2140125B023F47F4323F00703934210B53DD007D899
S2140125C02E4A934214D002F5A02293422BD010BD7E
S2140125D02B4A934243D002F17D7202F54032934278
S2140125E0F5D10379002BF2D1BDE81040FFF7C2BE4A
S2140125F0244C25481AF0A4F820460EF0A5FC02212A
S21401260020780EF0CFFC022120780EF0DFFC014688
S21401261020B91E48BDE810401AF092B81C48BDE823
S21401262010401AF07BB81B481AF08AF8BDE8104033
S21401263002211F20184A0EF01DBD18481AF080F816
S214012640FF22174B1A7002220E4B114618780EF015
S21401265093FC014608B91348DCE71348DFE7C37962
S214012660012BB4D10389114913F0010F104B114806
S21401267018BF1946D3E700BFA0000601A00001005D
S214012680A0000A03F50C0020C77F0300FC7F0300AF
S2140126901180030036800300F028002062800300CA
S2140126A0F40C00207080030088800300BE7F0300C6
S2140126B0B67F0300B680030008B50A481AF040F852
S2140126C0FFF7E8FE002341F699111A464FF4203031
S2140126D00EF004FD014620B1BDE8084002481AF09C
S2140126E01DB808BDC8800300D480030030B5036858
S2140126F0514A23F47F4323F00703934289B040F005
S21401270098800522002116204C4B0EF085FC0546CC
S21401271010B34B4C4B4920681CF0D4F84A4920684A
S2140127201CF0D0F81BF02BFA1BF02AFA474B484A4C
S21401273000934849592320681CF0C4F846492B46A3
S214012740464A20681CF0BEF8284600F0D1FA4449F3
S21401275020681CF0B7F8FEE70DF10F0104A80EF093
S2140127609FFC044610B3364D364928681CF0AAF87B
S214012770354928681CF0A6F81BF001FA1BF000FA90
S214012780324B334A00933349642328681CF09AF885
S21401279031492346314A28681CF094F8204600F057
S2140127A0A7FA2F4928681CF08DF8FEE7BDF814300B
S2140127B001465BBAADF818309DF8133008228DF843
S2140127C01A30FF238DF81B30FE238DF81C309DF840
S2140127D0123018208DF81D30BDF810305BBAADF8F8
S2140127E01E3006AB0EF018FC054610B3144C154906
S2140127F020681CF067F8144920681CF063F81BF089
S214012800BEF91BF0BDF9114B114A0093114974230F
S21401281020681CF057F810492B46104A20681CF017
S21401282051F8284600F064FA0D4920681CF04AF871
S214012830FEE709B030BD00BFA000010028810300FB
S21401284098120020517F03002E810300908103001F
S214012850338103005B8103006A8103006781030003
S2140128607F81030010B5234C01F032FA01F00EFC13
S214012870236F23F0070343F0030323671BF0C7FA14
S2140128801D4B00209B6A9B075EBF01221B4B9A6271
S214012890D4F8203123F0030343F00203C4F82031B7
S2140128A0D4F8243123F0070343F00203C4F824319B
S2140128B0D4F8403123F0030343F00103C4F8403158
S2140128C0D4F8603123F0030343F00103C4F8603108
S2140128D0D4F8403223F0030343F00103C4F8403236
S2140128E0D4F8003223F0070343F00103C4F80032A2
S2140128F010BD00BF0080005000C0005000E0005036
S21401290008B502F065F901280ED1114B04205A6E64
S2140129104FF480230F49520358BF0F4A4B6601F507
S2140129201041086258BF536603F096FD03F03AFD66
S21401293003F05AFD1BF075FFFFF794FF03F042FD0D
S21401294000F0DEFB00F0F4FEBDE8084004F028BA13
S214012950008000500090005000A0005030B51A4D85
S21401296095B00DAC0FCD0FC495E80700292384E878
S21401297007000021154A0DF12600CDE90223144B6C
S2140129800E22CDE904314FF48073069324F079FBCF
S2140129904FF4A0210F4B0DAACDE907130F238DF895
S2140129A0243010238DF825300B4B07A90A932023DA
S2140129B00B9301238DF83130084B0948009302AB85
S2140129C003F0B0FF15B030BD94840300000006503C
S2140129D0010101022400065047290020E0110020D1
S2140129E034120020831E012B10B512D8012922D8DB
S2140129F00121114B04221B6C0846C3F3400301F06E
S214012A0029FD0E4B1B681868A8B1BDE81040436A43
S214012A1018478B1E012B0CD801280CD8BDE8104096
S214012A200121054B00221B6C0846C3F3400301F04D
S214012A3011BD0129E5D910BD00C00350C00A002010
S214012A4008B50449044804F071FABDE80840FFF7E8
S214012A5085BF00BFC40A00205812002001481CF0A0
S214012A60DEB800BF34120020014B1A6A18681047FE
S214012A7034120020184B37B583422AD1174B1B78E6
S214012A803BB3C8B20EF0B6FA054610B3144C15495E
S214012A9020681BF017FF144920681BF013FF1BF07A
S214012AA06EF81BF06DF8114B114A009311498523FE
S214012AB020681BF007FF10492B46104A20681BF0C0
S214012AC001FF284600F014F90D4920681BF0FAFEB4
S214012AD0FEE703B030BD00BF60120020672900206A
S214012AE098120020517F03002E8103001E850300EB
S214012AF0B08403005B8103006A81030067810300E1
S214012B007F81030030B500250368584A23F47F43CC
S214012B1023F0070385B0934204460295ADF80C50A6
S214012B207ED002F5802293420ED0A2F182729342A9
S214012B3040F09A804E4B1B78002B00F0958005B034
S214012B40BDE830401CF090B9B0F80530232B40F0BA
S214012B508B80FF2304A91A4611E903001BF008F82D
S214012B60012814BF41F2FC15414B05F0FC0208BFD9
S214012B701870232120790EF065FA054610B33D4CF6
S214012B803D4920681BF09EFE3C4920681BF09AFEDA
S214012B901AF0F5FF1AF0F4FF394B3A4A00933A4916
S214012BA0592320681BF08EFE38492B46384A206888
S214012BB01BF088FE284600F09BF8364920681BF07B
S214012BC081FEFEE7344900902379344A0968344887
S214012BD000F0E8F80546002846D0264C264920682D
S214012BE01BF070FE254920681BF06CFE1AF0C7FF2B
S214012BF01AF0C6FF224B234A00932349622320681A
S214012C001BF060FE21492B46214A20681BF05AFE24
S214012C10284600F06DF81F4920681BF053FEFEE7BA
S214012C20B0F80530B7EE047A07EE903AF8EE677A18
S214012C30B0F8073067EE877A013307EE103AB8EE40
S214012C40C77A67EE877AB1EE047A67EE877AFAFE7C
S214012C50677AFCEEE77A17EE903AB3F57A7F38BFDB
S214012C604FF47A730C4A136005B030BDA00006021B
S214012C706729002098120020517F03002E8103004F
S214012C802D850300B08403005B8103006A81030085
S214012C90678103007F810300CC0A0020752A0100AA
S214012CA060120020012208B5074B1A700022074B5C
S214012CB01A700422064B1A701F22064B1A7003F074
S214012CC0F5FB054B186008BDF80C002068290020AC
S214012CD0F70C0020F60C002098120020024B034946
S214012CE018681BF0EFBD00BF981200204D85030049
S214012CF070B50C4C0C49064620681BF0E3FD03F04A
S214012D00D5FB0546206803F0C5FB3046FFF7E6FF16
S214012D10284603F0BFFB20680449BDE870401BF05D
S214012D20D1BD00BF981200204F85030051850300D6
S214012D3038B505461BF087F800230B4A14685CB1CA
S214012D40AC4206D1A96A6BB199621BF082F80120E8
S214012D5007E02346A46AF2E7002DF3D01BF079F8CA
S214012D60204638BD1160F0E79C12002010B50446DD
S214012D7098B104F045FD2046FFF7DAFF10B194F84C
S214012D802C300BB9002010BD1BF05DF8044A136807
S214012D90013B13601BF05DF8F4E72220F3E700BF68
S214012DA0A01200202DE9F04385B0054691469846CD
S214012DB00E469DF8307009B9002F5CD12846FFF702
S214012DC0D5FF0446002836D185F82C00686304F048
S214012DD00FFE864233D904F0A5FD2146844640F213
S214012DE0E7304FF47A720023E6FB0C0119F092F9F2
S214012DF04FF0FF32002319F08DF92B46E886114675
S214012E002846CDE900441D4A1BF0C7FF044690B989
S214012E10C5E9089885F82D702E631BF014F8184A3A
S214012E20136833B31A469B6A002BFBD195620023C5
S214012E30AB621BF00EF8204605B0BDE8F08347B143
S214012E402B4631462846CDE900440C4A04F08EFD57
S214012E50DCE7304603A904F06BFD04460028EAD1FE
S214012E602B462846CDE90077044A03991BF071FFEB
S214012E70CCE71560DBE72124DDE700BF852E0100E6
S214012E809C12002091F82C3013B50C4683B98B8E1A
S214012E90CA8E93420ED243B9CDE9003320460B4683
S214012EA0104A4FF0FF311BF038FFA38E0133A38683
S214012EB002B010BD52B191F82D307BB101230093C1
S214012EC0D1E908232046096BFFF76CFF0123064A68
S214012ED084F82C30136801331360E9E7084604F0E0
S214012EE08FFCF3E7852E0100A01200202DE9F041AA
S214012EF0144E336823B34FF00008134F1AF0A3FFA4
S214012F0005463C6824B92846BDE8F0411AF0A1BF41
S214012F1094F82C3093B1336884F82C80013B3360ED
S214012F2094F82D3013B92046FFF702FF28461AF011
S214012F3090FFD4E9083120469847DFE7A46AE1E725
S214012F40BDE8F081A01200209C120020034B1B68F4
S214012F50002B14BF04200120704700BFA0120020E0
S214012F60024B1868B0FA80F040097047A0120020A2
S214012F700348044A0449121A92101AF003BE00BF0D
S214012F8014D3030014D30300842A002008B500F0EC
S214012F902FF8FFF7EDFF124B12498B4212D3002098
S214012FA0114B12498B4218D3FFF7AAF9186850F84B
S214012FB02240586840F82240013298688242F5D390
S214012FC00C33EAE70022F8E71C6844F822000132D5
S214012FD05C68A242F8D30833E4E70022F8E700BFB2
S214012FE0D4CE0300E0CE0300E0CE0300E0CE030023
S214012FF04FF400414FF0FF30124B134A10B59A6060
S214013000D3F8882042F47002C3F888200F4A9166EC
S21401301001F1884101F5005210664FF6DF705066E7
S2140130200220C3F8D000BFF34F8FBFF36F8F082481
S2140130304FF440330648C0F88041D36004600B610A
S21401304010BD00BF00ED00E0002001000090005020
S21401305000E100E0014B1868704700BFD40A002069
S214013060084B1B6F03F00703022B04D0032B05D07C
S214013070012B05D0FEE7044B18687047034BFBE7AE
S2140130800348704700800050D40A0020DC0A002064
S214013090002D310108B5FFF7E3FF054B1B6FC3F3A6
S2140130A003330133B0FBF3F0024B186008BD00BFD9
S2140130B000800050D00A00200048704700B4C404C5
S2140130C0014B1868704700BFDC0A0020054B1860EA
S2140130D0054B1B6F03F00703032B01D1FFF7DABF84
S2140130E0704700BFDC0A002000800050004870478F
S2140130F0002D3101014B1868704700BFD80A002027
S21401310000239B6A10B5B3F5903F11D219680A4A9D
S21401311091420DD1094C227812F0FD0F01D000200A
S21401312010BDDB6998470028FAD101232370F6E722
S2140131304FF48170F4E700BF07B0CD5E6929002027
S2140131404FF00053074A1A60BFF34F8F0649074BEB
S214013150CA6802F4E0621343CB60BFF34F8F00BF2F
S214013160FDE700BF02020FF000ED00E00400FA05E3
S2140131700346054A0549106803448B428CBF4FF04D
S214013180FF301360704700BFE00A00200080002077
S21401319008B501213A2000F0C1FC032101230422D5
S2140131A0002001F057F900201AF06EFE0122214B93
S2140131B04FF46070C3F844241AF060FD1E4B00F50E
S2140131C0D520D3F8F02000F2FC4042F00102C3F80B
S2140131D0F020D3F8FC2042F08072C3F8FC20174A96
S2140131E0A3F55D431A60164B0222B0FBF3F0154BB4
S2140131F001381861C3F8F0204FF48072C3F8042335
S2140132004FF06043104A0020C3F8B02F0F4AC3F8AE
S214013210802ED3F8002E42F48072C3F8002EFF22CF
S21401322083F82020D3F8002E22F48072C3F8002EF3
S21401323008BD00BF00D0035000ED00E0FF030040D2
S214013240F8590D00000004E055CEACC50900010098
S2140132504FF06043D3F8802E30B5D20715D5012440
S2140132600B4D8440D5F8FC2042F08072C5F8FC2056
S214013270D3F8002E2243C3F8002E53F82020002A4C
S214013280F0D003F82010002030BD1120FCE700BF6D
S21401329000ED00E02DE9F04F9A46564B85B01B78BD
S2140132A006460F461546DDF83C909DF844B0DDF81D
S2140132B05080002B00F09780072A00F296800E9B24
S2140132C0002B00F09280B9F1000F00F08E80129B67
S2140132D0B3F5006F00F38980012803D1109B002B02
S2140132E000F08380444B03EB05131B7B002B7ED041
S2140132F0424C10220021684623F0C3FE04EB45141D
S2140133001022A7BB3946204623F0BBFE43F210032A
S2140133106380BBF1000F03D1E37843F00303E3704E
S214013320364A0E9B02EB451CCCE90193129B6901C0
S214013330581E9DF84C30C0F30A0003F003039B06A9
S21401334043EA001E53582E48012E00EA03004EEAB7
S2140133500003CDF800A0535017D0B8F1000F2ED1BE
S2140133609CF8023068F304138CF8023027E0002141
S214013370204623F086FE4FF444736380BBF1000FB2
S214013380CED1E37843F03003C9E713230CF1100ED6
S214013390CCF80C309CE80F008EE80F006FF00301AC
S2140133A0DCF81C20109B61F39F02012FCCF81C2037
S2140133B0CCF8143003D1CCF81890CCF804300027A0
S2140133C00D4A290102EB051342F80180159A284699
S2140133D05A60694622469F605E7301F0E3FA3846FA
S2140133E005B0BDE8F08F0748FAE70748F8E7074851
S2140133F0F6E700BF6A290020A4130020A4120020CB
S2140134000F80FFF3028000F0018000F0078000F0DB
S21401341038B5124B05461B78DBB1E0B11AF013FD47
S2140134200F4A00231146147B54B92B6001251A015B
S21401343001EB03131D738C501AF00BFD204638BDAB
S2140134400133082B02F11002EDD11AF002FD0548F6
S214013450F5E70548F3E70548F1E700BF6A290020CC
S214013460A4130020048000F0028000F0018000F028
S21401347038B51AF0E8FC002305460B4A147B6CB9F4
S2140134800133082B02F11002F8D101F02DFA074B97
S21401349028461C701AF0DDFC204603E028461AF088
S2140134A0D8FC034838BD00BFA41300206A290020B9
S2140134B0058000F00D4B10B51B78044693B1072824
S2140134C012D81AF0C0FC0A4B03EB04131A7B2AB17C
S2140134D000241C731AF0BDFC204610BD1AF0B9FC7E
S2140134E00448FAE70448F8E70448F6E76A290020A2
S2140134F0A4130020068000F0028000F0018000F096
S214013500154B13B51868002301908DF804301AF096
S2140135109AFC124B1C7824B11AF09BFC104802B09E
S21401352010BD01221A701AF094FC0E4B01A81C73F0
S2140135301C7783F82C4083F83C4083F84C4083F892
S2140135405C4083F86C4083F87C4008238DF8073094
S21401355001F0F6F92046E2E7A48503006A29002077
S214013560038000F0A41300200A4A08B512785AB165
S21401357007280BD8084A02EB00131B7B43B1002136
S21401358001F0D0F9002008BD0448FCE70448FAE73A
S2140135900448F8E76A290020A4130020028000F0FE
S2140135A0018000F0078000F00A4A08B512785AB187
S2140135B007280BD8084A02EB00131B7B43B10121F5
S2140135C001F0B0F9002008BD0448FCE70448FAE71A
S2140135D00448F8E76A290020A4130020028000F0BE
S2140135E0018000F0078000F00A4A08B5127852B14F
S2140135F007280AD8084A02EB00131B7B3BB101F0EF
S2140136001BFA002008BD0548FCE70548FAE705480F
S214013610F8E700BF6A290020A4130020028000F00A
S214013620018000F0078000F00D4B1B7893B107284E
S21401363012D889B10B4B03EB00131B7B73B10A4BFA
S2140136401A6D01238340134214BF01230023002077
S2140136500B70704705487047054870470548704726
S2140136606A290020A413002000000450028000F004
S214013670018000F0078000F00B4A10B512780C4666
S21401368062B107280CD859B1084A02EB00131B7B1C
S21401369043B101F0E3F92070002010BD0448FCE7B7
S2140136A00448FAE70448F8E76A290020A413002032
S2140136B0028000F0018000F0078000F0184B2DE931
S2140136C0F0411F6D5B6D1F4000D5FEE7012600250A
S2140136D0144CDFF85880374218D02368C8F8506079
S2140136E0A3B1A168284601316268A1609847637B4F
S2140136F0012B0BD150B90C4B03EB45131A7B60F32E
S21401370041021A731A7F60F341021A770135082DB8
S2140137104FEA460604F11004DDD1BDE8F08100BF92
S21401372000000450A4130020A4120020002004501E
S214013730024B1968024B186811F08EBCE40A00208F
S214013740040B002070B59400224605460E4624F070
S214013750ABFB431C0AD058B922463146284623F013
S21401376066FC0028034808BF002070BD0248FCE73D
S2140137700248FAE710E000F021E000F024E000F053
S21401378010B5044624F088FB431C10D088B901F01C
S21401379027FA234620F003002044984201D1002056
S2140137A010BD53F8042B0132F7D00348F8E703485D
S2140137B0F6E70348F4E700BF0EE000F021E000F072
S2140137C024E000F008B51AF037FB014B186008BD7D
S2140137D0141B0020014B18681AF032BB141B002082
S2140137E0044BD3F88420D206FBD4D3F88400C0F36C
S2140137F0811070470040005038B5104B0546D3F88D
S21401380020310C4603F00303022B0BD0032B0DD003
S214013810012B0FD1FFF71EFC052305B1286004B16B
S214013820236038BDFFF74CFC0323F6E7FFF75EFC89
S2140138300223F2E701230020EFE700BF00800050DB
S21401384073B50D4600210E4B0191D3F88041064613
S21401385004F00304012C09D0022C0CD00C460EB146
S214013860019B336005B12C6002B070BD01A8FFF763
S214013870C3FF0F24F3E7FFF739FC0190EFE700BF22
S2140138800080005038B5184B0546D3F824010C4685
S21401389000F00700062823D8DFE800F0040A121A11
S2140138A01E0E1600012305B1286004B1236038BD41
S2140138B0FFF7D0FB0523F6E7FFF7CCFB0623F2E77D
S2140138C0FFF7FEFB0323EEE7FFF7FAFB0423EAE725
S2140138D0FFF70CFC0223E6E71AF05FF90723E2E79D
S2140138E000231846DFE700BF0080005038B5104BB4
S2140138F00546D3F840310C4603F00303022B0BD0E8
S214013900032B0DD0012B0FD11AF049F9092305B16C
S214013910286004B1236038BDFFF7ECFB0823F6E707
S2140139201AF040F90B23F2E701230020EFE700BF6E
S2140139300080005038B5144B0546D3F800020C46FB
S21401394000F0070004281BD8DFE800F003090D117A
S2140139501500012305B1286004B1236038BD1AF0B3
S2140139601EF90923F6E7FFF7C5FB0823F2E71AF06D
S21401397019F90B23EEE7FFF78DFB0E23800AE9E723
S21401398000231846E6E700BF0080005038B5104B0C
S2140139900546D3F840320C4603F00303022B0BD046
S2140139A0032B0DD0012B0FD11AF0F9F8092305B11D
S2140139B0286004B1236038BDFFF79CFB0823F6E7B7
S2140139C01AF0F0F80B23F2E700231846EFE700BFE2
S2140139D00080005038B5104B0546D3F860310C46D0
S2140139E003F00303022B0BD0032B0DD0012B0FD1B9
S2140139F01AF0D5F8092305B1286004B1236038BD53
S214013A00FFF778FB0823F6E71AF0CCF80B23F2E76A
S214013A1001230020EFE700BF0080005010B40D4CDA
S214013A200B46D4F8204204F00304012C0AD0022CE1
S214013A300CD008B1002101600BB100221A605DF8BC
S214013A40044B70475DF8044BFFF7D6BE5DF8044B98
S214013A50FFF74CBF0080005038B50C4605461AF0FB
S214013A60EBF9054B9A6A54402C4054409C62BDE8E1
S214013A7038401AF0E5B900BF00C00050B0F5207F0D
S214013A801FD009D8B0F5007F15D003D868B1B0F5BE
S214013A90C07F0AD000200CE0B0F5607FFAD10B4B56
S214013AA0D3F88000C0F3011003E0084B186FC0F391
S214013AB0033001307047054BD3F89000C0F3046023
S214013AC0F7E7024B186FC0F38020F2E70080005042
S214013AD04FF400320E4B014610B500209A66FFF7F0
S214013AE0CDFF484341F671320A490B4B884294BFD9
S214013AF000200120DC69DA639A6822F4401242EA67
S214013B0000529A60E20344BF0022DA6310BD00BF90
S214013B1000900050005A620200000350420910B59E
S214013B200FD0012A0FD00A4B0A4C022A18BF23468F
S214013B3000F01F0049B103F58053012282401A604C
S214013B4010BD1346F4E7044BF2E703F50053F4E720
S214013B5068800050608200506480005008B5802064
S214013B601AF08CF8034B98429EBF4FF48032024BFA
S214013B701A6708BD005A620200A000501FB5002354
S214013B80B0F5807F019377D028D8382800F094804C
S214013B900BD82438092810D809280ED8DFE800F0F9
S214013BA0676767670D0D620D377D52285FD008D8AD
S214013BB03D283BD03E2800F08480019805B05DF892
S214013BC004FB8028F9D1414B1B6F03F00703013B2F
S214013BD0032BF2D8DFE803F044413F6CB0F5D06F19
S214013BE05BD019D8B0F5A06F66D00AD8B0F5806F53
S214013BF03DD0B0F5906FE0D1002001A9FFF742FE5D
S214013C00DBE7B0F5B06F2DD0B0F5C06FD5D1002091
S214013C1001A9FFF76BFED0E7B0F5006FECD00AD82C
S214013C20B0F5E06F4DD0B0F5F06FC6D1002001A918
S214013C30FFF7D0FEC1E7B0F5086FBED1234BD3F82E
S214013C40003103F00303022B2CD0032B2ED0012BC3
S214013C5030D1FFF735FA032300E005230193ACE7E3
S214013C600223FBE7002001A9FFF7EAFDA5E70020F4
S214013C7001A9FFF7C1FDA0E702934FF0E0231B69FE
S214013C805B0705D5FFF706FA0C230393039BE5E7CD
S214013C9003A902A8FFF72AFEF8E7002001A9FFF70B
S214013CA049FE8AE7FFF726FA0823D7E719F075FFDA
S214013CB00723D3E70123D1E7002001A9FFF7AEFED2
S214013CC07BE7002001A9FFF761FE76E70080005040
S214013CD04FF40022034B5A66012203F580439A6291
S214013CE0704700BF0090005008B5FFF747FF08284F
S214013CF011D00938012802D94FF6FF7008BD4FF4DC
S214013D000012064B5A6603F5D8335B6ADB07F3D518
S214013D104FF4FA70F2E7024B1888EFE70090005074
S214013D20E00C0020F8B504468020FFF727FF0328A3
S214013D3000F087804FF40022424B02215A6645F676
S214013D400E03414AC2F88030404B9962012103F5C7
S214013D5080539962936DD903FCD4D4E900131B05F3
S214013D6043EA0163E17B94F820500B43217BE77E15
S214013D7043EA0143617B6D0143EA0133A17B43EAD8
S214013D80811313619169D4E904031B0643EA806336
S214013D9001F000410B43A17E94F823000B43217EE2
S214013DA043EA0143617E43EA01239361136AE669AC
S214013DB023F00D0394F8221043EA8703002E2DD139
S214013DC01362966A94F8213045EA031326F0330508
S214013DD02B4343F0010393621D4D1B4B9A6D35EA4D
S214013DE00202FBD10222194DAA621A659A6D52008F
S214013DF0FCD41A69A56822F4700242EA05521A61D7
S214013E004FF00042114B9A6119B9022203F5805313
S214013E109A6278B901220F4B9A620BE0334343F062
S214013E2008031362936A23F0330303432B4343EAE5
S214013E304103936294F824301BB1034B064AC3F83E
S214013E408020F8BD0090005000C0005000D0005007
S214013E500300014000E00050F1A7FFFF1E4BFF28C2
S214013E6070B59E6A35D89A6D12F4803F18BF01214D
S214013E701A4A18BF9162022191629B6DDC0303D539
S214013E80154A936D9907FCD50222144B124D1A65FB
S214013E90AC6D14F08044FBD1114AAB6992F9002055
S214013EA023F47F03024423F47F4382F3080243EAA8
S214013EB0002343EA0243AB6131460220FFF7CCFD03
S214013EC0AB6DDB0303D531460120FFF7C5FD204668
S214013ED070BD2124FBE700BF00C0005000D0005099
S214013EE06B290020014B93F9000070476B290020D5
S214013EF001221548154B816A9A62826D02F003020F
S214013F00032AFAD102229A621A650F4A936D5B0060
S214013F10FCD40F48936D30EA0303FBD101220B4B0F
S214013F201A65A3F580539A6D9007FCD49A6D920793
S214013F30FCD50222054B1A65034A936D9B07FCD5F7
S214013F400320FFF789BD00BF00C0005000D000501D
S214013F5003000100014B1880704700BFDE0C0020F3
S214013F604FF4001208B5184B5A660223174A5360DD
S214013F70936813F48033FBD1012822D1FFF7A0F810
S214013F80134B984215D003F5122303F5F8639842B4
S214013F9013D0104B00EB8002400AB3FBF0F3520A39
S214013FA00A49CA620B6301234B620022074B5A601F
S214013FB008BD45F67A13084AF2E745F61A03074A9A
S214013FC0EEE75362F1E700BF009000500040025058
S214013FD000F0490264666666D8B80500BBCF0500E6
S214013FE0B0F5207F10B50C4642D008D8B0F5007F5A
S214013FF033D003D888B1B0F5C07F0ED010BDB0F570
S214014000607FFBD11F4A4C1ED2F8803023F030036C
S21401401043EA0413C2F88030F0E719F027FE19F0DE
S214014020F1FE4FF48031184B164A1967136F013CA5
S21401403023F4704343EA04331367FFF72BF804466F
S214014040FFF7CEFBC0F10201204619F0D5FE00F0C5
S2140140502DF8BDE81040FFF781BD0A4A4C1ED2F884
S214014060903023F0F85343EA0463C2F89030C5E772
S214014070044A4C1E136F23F4806343EA84231367B8
S214014080BCE700BF008000500090005008B5012139
S214014090022000F0E7F819F0E9FD19F0B3FE4FF43D
S2140140A08032014B1A6708BD0090005008B54FF4E6
S2140140B0C07019F0E3FDBDE808400449884294BF8A
S2140140C0012102214FF42070FFF78ABF80F0FA0227
S2140140D0034B5868C0F30800003818BF012070472A
S2140140E000ED00E010B5224B70B94FF40031214AC3
S2140140F01860516602F598325268012A03D11E4AA9
S214014100D2F800211A6010BD1B68002BFBD01B4A99
S2140141105268012AF7D0184A8020C2F80031FFF70A
S2140141202DFD05281FD14FF4C070FFF7A7FC01280D
S214014130044604D102214FF4C070FFF751FF072255
S2140141400F4B1A610122A3F580535A600B4A13697B
S214014150DB07FCD5012CD6D12146BDE810404FF433
S214014160C070FFF73DBF0122064B5A60CBE700BF88
S214014170181B0020009000500080005000C0015025
S21401418000E0015000D00150044A4178536F23F4F7
S214014190407343EA01235367704700BF0040005055
S2140141A010B5044610B10020FFF79CFF104A1369B2
S2140141B043F00403136103F0F5F819F04DFE0D4BBF
S2140141C00D4AC3F8202419F037FE23F069FE19F0D2
S2140141D037FE19F042FE03F00DF91CB9BDE8104098
S2140141E0FEF758BF0120BDE81040FFF77BBF00BFB8
S2140141F000ED00E000E003500000FF0F10B504469C
S21401420010B10020FFF76EFF0E4A136943F0040356
S21401421013610D4B0D4AC3F8202403F0C3F819F0BF
S2140142200BFE23F03DFE19F00BFE03F0E3F81CB97C
S214014230BDE81040FEF72EBF0120BDE81040FFF795
S21401424051BF00BF00ED00E000E003500000FF0F8B
S214014250034A0179D36E23F030030B43D3667047CC
S21401426000400050F8B504461C4BD3F88420D10614
S214014270FBD4D3F88430C3F381139C422CD0FEF7D1
S214014280EFFE012C064602D1214619F0B5FD19F0C4
S214014290D3FD4FF00072124B07465A66204619F0BE
S2140142A0E3FD4FF480630D4D621E93402B676B6EEA
S2140142B09A0103D4D5F884309B060AD5384619F0FE
S2140142C0BFFD022C08D13046BDE8F840002119F0A8
S2140142D093BDD5F88430EAE7F8BD00BF0040005032
S2140142E00060005010B50C4608B9FEF7B9FE074B42
S2140142F021461B783BB1064B984204D80120BDE805
S2140143001040FFF7AFBF0220F9E700BF6C2900207D
S214014310005A62020278034B012100201A70FFF74F
S214014320E1BF00BF6C2900204FF0004238B5264B94
S21401433026495A6601224A604AF6CD3103F50B2317
S2140143405D6C1964154030BB9968C9070BD400240D
S21401435001221F4B5A6015B11E4B1F4A1A6422F0E8
S21401436034F9204638BD1A498A601C4AD96ACC07F6
S21401437005D4904201D10724EAE70130F6E79042DE
S214014380E5D1F8E70132DC6A14F0080406D08A4267
S214014390F8D10724DFE700221049F4E78A42F8D073
S2140143A020220B4B0B495A620122A3F580539A60D7
S2140143B023460A4A486A800603D49342E9D0013369
S2140143C0F8E79342C7D1E4E7009000500050095047
S2140143D000600950004009503254FFFF40420F0070
S2140143E04FF0004238B5174B174C5A66012203F5B9
S2140143F00C235A604AF6CD33656C236443789340A8
S2140144001343124AD363C3788178A2689B0043EAB8
S214014410011322F074021343A3600279837943EAFD
S214014420022323614279C37943EA02236361007858
S214014430FFF77AFFEB0744BF054B236422F0C5F86C
S214014440012038BD00900050004009500040005047
S2140144503254FFFFF8B504460D461F4616464AB1CC
S21401446001238B403021184A01FB0022F7B141F2AB
S2140144701001535004EB4403072D4FF00F014FEA90
S214014480031316D8A80006FA00F281400F48184414
S21401449019F0EBFC4EB9012330210B4AAB4001FB6E
S2140144A0042277B141F210015350F8BD42F21001D7
S2140144B0DFE7A5F10800800006FA00F28140044813
S2140144C0E5E742F21001EFE700C0035004C00350D5
S2140144D00CC00350084608B569B92A2019F0CEFB6E
S2140144E0B0B10C4B984206D90B4B9B68C3F30273D1
S2140144F00133B0FBF3F0094B00F5742000F23F20C6
S214014500B0FBF3F001387F2828BF7F20C0B208BD7A
S2140145100120F0E7005A62020040005A40420F00B4
S2140145200B4B10B5994228BF19460C461AB92A20DA
S21401453019F0A4FB0246631E1344B3FBF4F0A34236
S21401454028BF00F1FF30032828BF0320C0B210BDEA
S214014550005A620210B51048104C002B08BF0446E2
S2140145608C4228BF0C461AB92A2019F087FB02464E
S2140145709DF8083040F2FF300133B2FBF3F2631EC0
S2140145801A44B2FBF4F3A24228BF03F1FF33984268
S21401459028BF184610BD00BF80969800404B4C00BF
S2140145A02DE9F04F2DED048BDFF834830F4687B0ED
S2140145B01446414600220546FFF7B2FF7E79864241
S2140145C038BF0646284619F060FC3879F6B250B96D
S2140145D02A2019F053FB4045014628BFB0FBF6F1EF
S2140145E02846FFF777FFFB7832071B0102F0E0420F
S2140145F003F03003134300043A7800F4FE0003434B
S2140146000AB143F002037A780AB143F00403BA7898
S2140146100AB143F00803AB60FB883A892B617B89BA
S21401462043EA02432B62A44B9D4200F03F810123E3
S21401463005F580556B6007B0BDEC048BBDE8F08FC7
S214014640D0F880015BB91FFA80F9DFED9C7A79E03A
S214014650D0F880714FEA1749002B00F0F4804FEA3A
S2140146600A1101F1B441C2F3090201F580414A6021
S21401467008F101081434B8F1020FD8D000222378CB
S214014680DFF834928E488F49A768934218BF0146D7
S214014690009648460393FFF75DFF09EB0819D9F822
S2140146A04810BAB2039B824201EA0B0138BF0246A8
S2140146B003F003000843617894F803C0890001F011
S2140146C01C010843A1784FEA081E090301F4E041E2
S2140146D001434FEA0C4000F4E0200143207C08F13E
S2140146E0050A400500F4600001432079000700F048
S2140146F040500143C9F84810D9F848707248C7F3CA
S2140147000237013F042F00F296800FF2080959F88C
S21401471027F000BF41460100414601005146010015
S214014720294701001D480100D0F88471002B96D15D
S214014730D0F88C311FFA87F91B145B0007EE903A0C
S214014740F8EEE77A01230EF1B44E0EF5804EDEF850
S214014750480029F4C047C0F3820000F1010E03FAB5
S2140147600EF309EE103ABF0419F4004FB8EEC99AD9
S214014770F6EE008A544B18BF47F00047002866D172
S214014780D3F88C311BB208EE103AB8EEC88A38EE70
S214014790278ABCF1000F71D105A8039200F000FA38
S2140147A0DFED4A7A28EE278A039A9FED497AC7EE0B
S2140147B0097A9FED487A67EE877AB1EE007AB7F10B
S2140147C0004F48EE077A0BD0DFED436A07EE109AEA
S2140147D037EEA66ABAEEE87AF0EE667A57EE067A11
S2140147E0F5EEC07AF1EE10FACBBFF1EE677A78EE0D
S2140147F0E78A77EEE87AFDEEE87AC8BFFDEEE77A5B
S21401480017EE903AB3F5003F47DB6FEA57476FEA7A
S214014810474729484FEA0A13C75020E7D0F8847162
S214014820002B7FF41CAFD0F88C314FEA17491B14CC
S21401483003EB430382E7D0F880011FFA80F9002BCF
S2140148403FF403AF0BE7D0F88C311B1476E7D3F8AF
S2140148509001D3F8883100B207EE100AB8EEC77A95
S2140148601BB277EE677A69EE286A08EE103A87EE91
S214014870A67AB8EEC88A38EE078A8AE7D4ED037AB4
S214014880DFED166AF8EE677A87EEA67AF7EE046A27
S214014890C6EE877A27EE888A87E713F5003FAABF18
S2140148A0C3F3110347F400371F43B2E74FF0000884
S2140148B0DFF830B0DFE600BF0040005A000000001D
S2140148C0404B4C00809698000080E00F3D3B843FB3
S2140148D000008043000020440000004900007A44A4
S2140148E0005A6202E08F18CF4FF400120B4B10B53E
S2140148F0C3F88020BFF34F8FBFF36F8F0024FF22D2
S214014900074B21465C6520209A625C60FFF706F93A
S2140149102146BDE810402120FFF700B900E100E084
S21401492000000450044A054B002908BF1346012223
S21401493082401A60704700BF401004504020045067
S21401494010B5012104462020FFF7E8F801212120B7
S214014950FFF7E4F80122114B5A60227812069A609A
S2140149606178A27842EA01429A61FF229A620022A5
S2140149709A631A644FF000425A654FF0FF324FF4C3
S214014980001103F500531A65054AC2F88011E37851
S2140149901B01DBB282F81533116010BD0000045014
S2140149A000E100E0F8B50125C3B2DFF888C0D1F810
S2140149B000E09D408F7ACB7A0C46097BCCF85050AC
S2140149C00CF5005C4CF820E04FF0300E174E1B053E
S2140149D00EFB006094F80DC043EA074343EA4153D7
S2140149E022F00302C0F860C0C365026719F02BFA13
S2140149F0736D227A2B4373650D4B02B11D64627A87
S214014A0002B19D632279A37943EA0243094A93617D
S214014A106179E37943EA014305498B61034B5563A9
S214014A209D64BDE8F84019F014BA00BF00000450B8
S214014A30001004500020045010B50124C0B2844078
S214014A4019F001FA044B5A6D22EA04025A659C6277
S214014A50BDE8104019F0FDB90000045010B501245E
S214014A60C0B2844019F0EFF9074BDA6A224208D146
S214014A705B6B9C430CBF0124002419F0EAF9204625
S214014A8010BD0024F9E700BF000004504FF40032C7
S214014A90054B9A6641F6713203F51C33DA6301223F
S214014AA003F50053DA6070470090005041F671320A
S214014AB00121064BDA6303F50052D1600022DA6366
S214014AC04FF40032A3F518339A667047000003507E
S214014AD0CB784A7810B55B010C7843EA82030A79F1
S214014AE0234343EA02130C22424302F1B04213630A
S214014AF0012C02BF8A78024B43F8202010BD00BF6C
S214014B00E880035008B54FF0B0435A686AB958B107
S214014B105B680BB119F038FA01210D4B596019F099
S214014B2033FA4FF0B043D96008BD5B680BB119F09A
S214014B302BFA0028F0D119F027FA4FF0B0430222E1
S214014B40DA6019F021FA0122024B5A60ECE700BF45
S214014B5000100058002000584FF0B0414B6810B5C7
S214014B600BB119F011FA01220B4BC4785A60837805
S214014B70934043EA840344782343047943EA0413C5
S214014B80447943EAC4038B60044B5A600378C3F14B
S214014B900203CB6010BD00BF002000580010005873
S214014BA04FF48032064B5A6603F5E6235B69C3F37E
S214014BB08512827003F03F021B0B42700370704730
S214014BC000900050014B986CD96C70470080E00F44
S214014BD0024B1868C0F30740704700BF0080E00F23
S214014BE00120034B9B680A3303F01F03984070476C
S214014BF00080E00F70B5054616461C4621B94FF4F5
S214014C00207019F03BF80146402C1BD003D8DCB1CC
S214014C10202C1BD070BD602CFCD1042303FB06F2B4
S214014C20530803EB4113B3FBF2F36021084A203B20
S214014C3002EAC30305F50052916005F580529460BF
S214014C40EB61E7E70623E9E71023E7E70823E5E753
S214014C50F8FF7F00012200F580535A6040F6AA63F0
S214014C6041F20502436100230B498360C365C260BC
S214014C7000F500520361C361C3649164074983650B
S214014C80884203D103650023436502E00449884254
S214014C90F8D0012353607047FFFF010000C00550A4
S214014CA00000065070B50D46FFF7D4FF012300F54E
S214014CB080567360AB7C04461BB1836843F0804327
S214014CC08360EB7C4BB1344A2B7D944243D1A2F5F1
S214014CD01032C2F88C318023F3652A8A6B7B20461A
S214014CE01343EA891343E3602B7BD5E90112FFF7EF
S214014CF081FF6B7D1BB1A36843F48033A360AB7D5A
S214014D001BB1A36843F40043A360EB7D2A7E1B0717
S214014D10120502F4E00203F0E0431343A365697E43
S214014D201D4A8B1E012B1D4B1FD894421BD002F52A
S214014D30804294420CBF01224FF0FF3203EB421334
S214014D40022041F21C620329985020D10423F36506
S214014D502B78636170BD124A944204BFA2F52032DB
S214014D60C2F89C31B7E70022E8E794420DD00C4A1E
S214014D7094420CBF01224FF0FF3203EB4213022094
S214014D8042F21C6201299850DFE70022F5E704226F
S214014D9004F50053DA65DBE700C0055000C0035098
S214014DA00000065038B50446054D21F032FC0FCC04
S214014DB00FC594E8030085E80300002038BD00BF56
S214014DC01C1B002047F6FF739A42F0B56FD00229EC
S214014DD06FD8394B5B5C012B6BD8384DDF0005EB88
S214014DE0C30415F83330A178012B13D10025E078E0
S214014DF0401AA84202D80844C0B2F0BD431B6668F8
S214014E00A0EB530336F913609642D4BF1D4603F157
S214014E10FF30EEE760680028EFD0B0F9004094421A
S214014E2004DBB0F902409442B8BF144683883D447F
S214014E30FF2B19BFC8224FF0280CB0F90620B0F995
S214014E4008C0A2EB04030CBF0126002693FBFCF36B
S214014E5033446E781BB29E4201DD002B01DA731ECD
S214014E601BB24FF47A7C01339BB2071D5D1E2DB237
S214014E704FEAC50E00EBC505EA88AD689E4214FBF5
S214014E80025222EAE27202F15C02B2FBFCF204DD9B
S214014E9037F8335001339542E8D200EB0E03988879
S214014EA0904228BF1046884238BF0846A4E7FF2034
S214014EB0A3E70020A1E700BFC98503001C1B002053
S214014EC00229F0B555D82C4B585C012851D82B4CEB
S214014ED004EBC00114F830004B6801280FD1C878E4
S214014EE08C78904294BFC4EB0001C4EB0201001B16
S214014EF0CAB28242C8BF002233F91200F0BD002BAD
S214014F0037D08878904202D3B3F90200F6E7CC781E
S214014F10B3F900009442F1D94C789988013CA1F18B
S214014F20FF06714203F10405E4B2714103F10C0777
S214014F30CEB2B44216D805EBC1014FF47A756A4376
S214014F40B1F902404968521A04EBD47102EB6102CE
S214014F5092FBF4F29042D1DBB3F902009042CDDC31
S214014F6010B2CBE737F831C04E1C9445E3D3314637
S214014F70DEE70348C2E700BFC98503001C1B00200B
S214014F800080FFFF08B50448FFF70CFFBDE80840A6
S214014F90012021F042BB00BFCC85030000487047CA
S214014FA0E20C00207FB51422002101A822F069F846
S214014FB0044B01A94FF0FF30029321F063FB07B0C9
S214014FC05DF804FB006A18001B0603F0706300F02E
S214014FD00F000902034301F47061120402F4702207
S214014FE00B431343014A1360704700BF0020025C65
S214014FF060B5054619B10139B1F5806F0FD2094E7A
S214015000F06810F48030FBD143EA012312072B43EA
S21401501002F08052134343F00043736060BD0120E9
S214015020FCE700BF0020025C0122054B9A60DA68AB
S214015030D203FCD4D86820F00F000004000C70479F
S2140150400020025C014B1868704700BF0040025CFC
S214015050014B5868704700BF0010025C014B186B8B
S214015060704700BF0010025C014B1868704700BF14
S2140150700010025C014B9860704700BF0010025C94
S214015080014B1864704700BF0010025C014B586466
S214015090704700BF0010025C014B5863704700BFA9
S2140150A00010025C0022014B1A6070470010025C7F
S2140150B0024A136843F00103136070470010025C54
S2140150C0024A136823F00103136070470010025C64
S2140150D043F20402014B1A60704700BF0010025CE5
S2140150E0024A136843F03003136070470010025CF5
S2140150F0044B1A6842F480721A601A6822F48072AD
S2140151001A6070470010025C024A136843F4806319
S214015110136070470010025C034A136823F470237F
S21401512043EA0043136070470010025C044B1A699F
S21401513002605A6942609A698260DB69C36070479F
S2140151400010025C0268044B1A6142685A61826868
S2140151509A61C268DA6170470010025C024B1A6BF2
S214015160D207FCD4186270470010025C0322024B7F
S214015170186019615A6370470000025C82B01FB55F
S21401518007930A9B04AC8B4228BF0B4604E9070031
S2140151901048D100079948BF03330160099948BFF9
S2140151A023F0030323F0704301F0E041194341F07B
S2140151B000518160002102F0E042019C1A4342F056
S2140151C00052C16004618261416304B0BDE81040D1
S2140151D002B070470000025C3F22034B1A631022A4
S2140151E0DA6103229A6370470000025C024AD36BBD
S2140151F09B07FCD4704700BF0000025C044B9B6A0F
S21401520013F0240F14BF012000208000704700BF58
S2140152100000025C08B5FFF7F1FF064BDB6B23F4D9
S2140152207F4323F0EF0303431EBF0122024BC3F863
S214015230FC2F08BD0000025C00F0FF3F4368182BFE
S2140152400AD0202B1DD0102B2BD1174BD3F80434AA
S214015250DB010AD401207047134BD3F804349A01BA
S214015260F8D50B6843F008030B6003680F4A9342B6
S21401527010D10B6843F040030B600023436000200D
S2140152807047094BD3F804345B01E3D50B6843F050
S2140152900403E9E7064A9342F1D10B6843F0800321
S2140152A0EAE70720704700BF0000025C6E29002075
S2140152B06D2900200B4607B50749D1F80414C90724
S2140152C008D5002100920246084600F02FF803B0E8
S2140152D05DF804FB0120FAE70000025C13B5084CF8
S2140152E0D4F80444E40508D5009313460A4601465B
S2140152F0002000F045F802B010BD0120FBE700BF1A
S2140153000000025C13B5084CD4F80444E40508D543
S214015310009313460A460146002000F055F802B0F5
S21401532010BD0120FBE700BF0000025CF0B51C4683
S2140153305B6815468DB01A07129E1AD1CBB17268FA
S214015340934216D10C4B0D4A53F8217009AB07CA8C
S21401535083E807001A462946CDE90533CDE903332C
S214015360CDE90163009447F4807018F021FF0DB079
S214015370F0BD0720FBE700BF5C86030050860300F4
S214015380F0B516465A688DB0102A0D46129F15D1F3
S2140153907A68102A12D10A4A09AC07CA84E80700BB
S2140153A022462946CDE90547CDE90344CDE9014426
S2140153B00448009618F0FCFE0DB0F0BD0720FBE790
S2140153C05086030030000100F0B516465A688DB0CD
S2140153D0102A0D46129F15D17A68102A12D10A4A50
S2140153E009AC07CA84E8070022462946CDE90574B8
S2140153F0CDE90344CDE901440448009618F0D8FEEF
S2140154000DB0F0BD0720FBE7508603001000010039
S21401541070B598B0002843D02C4C08AD0FCC0FC502
S2140154200FCC0FC50FCC0FC594E80F0085E80F0011
S2140154306D4604AE04F1100320340FCB85E80F004F
S21401544094E80F0086E80F00FFF752FE0420FFF7EE
S21401545063FEFFF73DFE3046FFF774FE002408AEFC
S21401546056F8040B0134FFF779FE102CF8D1FFF73C
S214015470EFFD0328FBD90024FFF714FE2646FFF7AD
S214015480E1FD55F8043B01365840042E44EA000479
S214015490F5D12CB1012206200D4B1A7018B070BD43
S2140154A0FFF726FE0820FFF7E5FD0020FFF7E8FDE1
S2140154B00720FFF7EBFD4FF40070FFF7EDFD082026
S2140154C0FFF72AFEFFF7F4FD0020E7E73887030021
S2140154D07029002008B5FFF70BFE0122014B1A7058
S2140154E008BD00BF6F2900201FB519F05DF80446FE
S2140154F030B1012206240D4B1A70204604B010BDAF
S214015500FFF7A0FD0090FFF79DFD0190FFF79AFDC4
S2140155100290FFF797FD03906846FFF713FEFFF72B
S214015520D9FFFFF7DDFDFFF7EFFDE6E77029002065
S21401553006289ABF014B185C002070479887030025
S21401554030B5154B87B00293144B0390049346F67F
S21401555011030D46059300F077F91428044616D179
S214015560684619F0CBF84FF0A843032202A95A6304
S21401557019601D619A63DA6B9207FCD1142C02D173
S214015580684619F0C9F800F093F9044601E00028CE
S214015590E9D0204607B030BD341B002004000020AF
S2140155A02DE9F04FB1B005468C469E46E8466F4E53
S2140155B0DDF8EC90409C06F1100A474630687168A9
S2140155C0083603C75645B846F7D13E9B03EB02089B
S2140155D0C8F1000A0AF00F0AB9F1000F00F09D8029
S2140155E0C9F1000707F00F070121DDF8FCB044F010
S2140155F00050C4F11006CDF810B0059106903002A7
S21401560000F4F85040F021000790B9F1000F40F087
S2140156108680CDF820D047F00050002D00F0848021
S214015620099121210A9041EA07210B9142F000508D
S214015630CDF830C03D9B08A94FEA0A2C0D910E907B
S2140156404CF041000F901093002A75D13E9B1191AA
S21401565043F0005312933C9B1390149310AB159395
S214015660434B444A169340F611031793424B0021CD
S214015670002D08BF1346189314AB19933F4B102205
S2140156801A9311231B931CAB184621F0FAFC012236
S2140156901D92002246F0804603461E96239205B9C7
S2140156A0EB46102CCDF880B024AE4BD10123224618
S2140156B0002130462193229421F0E3FC20AB002107
S2140156C025938F4218BF334647F0804226923A9A76
S2140156D02CA828922993B2FA82F35B0949EA8373CC
S2140156E010222B912A9321F0CCFCB9F1000F00D0A7
S2140156F028AED04448F080432CA918A82D962E93A6
S214015700FFF71EFF30B92DB90346A34225D1002865
S21401571018BF2C2031B0BDE8F08F102764E7CDF814
S21401572020E049F0005078E7002C3FF479AF04A957
S214015730099101210A9076E73E9B0CAA119241201D
S214015740129388E71022002130462193229421F0FB
S21401575098FC002CB2D10123B1E703F1C0026A44E0
S21401576012F8C02C01331043CFE700BF9F87030018
S21401577010000020B4870300B8870300040000204F
S214015780F0B5C0299FB0DDE9244557D0B1F5807F3B
S21401579004D0802948D029201FB0F0BD01265CB175
S2140157A040F234470294102403960494212401976E
S2140157B00594069502AC0AE040F2144702941024C0
S2140157C003960494212405940124019706950794D1
S2140157D001251024089409950A9221220B950C9410
S2140157E00D92174A0AAD0E92164A0F95109242F67E
S2140157F011021192129313951494159201AA1692FE
S214015800D3B112AB1793042318931123199316AB34
S2140158101A901B9340F61103C9081C911AA806A9F1
S2140158201D93FFF78DFEB7E7012614B94FF4826783
S214015830C4E74FF48667B5E70EABE3E70F20ABE7A7
S214015840B08703001000001038B5164B5A6E42F0B0
S21401585004025A66D3F8802242F00102C3F880227D
S214015860114B5B68C3F3080343B14FF0A842D36BF7
S21401587013F0430FFBD11424204638BD4FF0A84344
S214015880DC6B14F04304FBD1084D2B681BB90421D3
S214015890284602F059FC2B68013343F000432B6085
S2140158A0EAE700BF0080005000ED00E0341B002056
S2140158B0014B00205B68704700ED00E04FF400529A
S2140158C0034B00209A660322C3F86022704700BF8C
S2140158D0009000504FF40052034B00209A660322BA
S2140158E0C3F86022704700BF00A00050012300F0FB
S2140158F01F02A0F506200949A0F550604009934013
S21401590051F820201A4341F82020054951F820205B
S21401591022EA030241F82020704700BF4C1B0020FA
S214015920381B00200121A0F506230E4AA3F550637B
S2140159305B0900F01F00814052F82300014342F842
S21401594023100949D1E90030034488680344C86834
S214015950096903445B1802BFC2E90033C2E9023396
S21401596013617047381B00204C1B00202DE9F04FB7
S214015970A9B003921D4604460822339ECDE90401D0
S214015980414021FA02F34B40980702F1080218BF82
S2140159909B00202A1C44F4D18123B4FBF3F303EBD0
S2140159A0C313E41A734B04F506241B7804F55064FC
S2140159B0002B3ED1FDF7BCFE074620B16FF09100EB
S2140159C029B0BDE8F08F0146402208A821F059FB16
S2140159D04022394618A821F054FBDFF8B481DFF8DD
S2140159E0B491C3460BF10F0ACDF800A0102208A906
S2140159F05B46D9F8000020F09BFB0022014608F127
S214015A00100808AF914246D1CDF800A05B4610229F
S214015A10D9F8000018A920F094FB4FF0000A83463D
S214015A2018AFD34541D1544B9845DAD10122514B99
S214015A301A704FF0810A4FF00008DFF85CB1A4F548
S214015A400627A7F550635B095BF8232004F01F01C6
S214015A50CA40D2073DD4494A52F82330CB40DB072F
S214015A602AD5B8F1000F08BFA0468123A7F6FF4745
S214015A70B7FBF3F303EBC313FF1A07F50624BAF1DA
S214015A80010A04F55064DAD1039BBBB1B8F1000FEB
S214015A9014D0444619E057F8040BCDE90612FFF777
S214015AA025FF079A06990132ACE757F8040BFFF772
S214015AB039FF0AF1010AB4E7039B13B96FF08B00B3
S214015AC07EE7B8F1000F18BF4446349B00201C60E7
S214015AD076E7329B13B10023329A13600EB100238E
S214015AE033601023DFF8AC9000932A46002321464A
S214015AF0D9F800000FF022FC60BB32992A68204BCF
S214015B00C9B99A4206D02146D9F800000FF0AEFC7A
S214015B100028D3D1D5E90223DDE90410834208BF6A
S214015B208A42A2D1039B002BCFD06B68012BCCD12C
S214015B306FF0840044E7102032999A420860E2D15F
S214015B40002EE7D033462146D9F8000018AA0FF0F8
S214015B5049FC48B10B4B9842D5D00B4B9842D2D05A
S214015B600A4B9842D6D029E7329A336812689B1AB4
S214015B703360CFE77129002000710800381B002030
S214015B80105D175EFFDF00F011E000F0FEDF00F0B1
S214015B90006D0800040B00204C1B00202DE9F04F7F
S214015BA087B08246894698461646DDF840B02AB147
S214015BB0002B4FD040F26C739A424ED8BBF1010FC6
S214015BC04ED8002406F1100739460120059419F035
S214015BD066F90546002846D021463A4621F051FA94
S214015BE005ABCDE9014300942B46012250464946B8
S214015BF0FFF7BCFE044680B110F18C0F08BF6FF0B2
S214015C008D043A460021284621F03BFA284619F031
S214015C1056F9204607B0BDE8F08F144BC5E902A936
S214015C202B60C5F804B02EB13246414605F110008E
S214015C3021F032FA059E0E483B462A463146006858
S214015C400FF0E4FA18B93046FFF750FED9E76FF0C7
S214015C509104D6E76FF08604DBE76FF09104D8E78E
S214015C606FF08504D5E76FF08C04D2E7105D175E00
S214015C70040B00202DE9F0438DB08146DDE9147850
S214015C800E4615461C469BB1B8F1000F05D16FF0C4
S214015C90860630460DB0BDE8F083002FF7D0B7F189
S214015CA0005FF4D3C3F1005303F500439F42EED8DF
S214015CB01022002108A821F0E4F9002207AB029384
S214015CC005AB019306AB31460093484608ABCDE9D8
S214015CD00522FFF74BFE06460028DAD1059BA4B144
S214015CE0AB4215D853EA0504D1D1069B0B48C8F838
S214015CF0004000943A46079900682B440FF01EFBBB
S214015D00002818BF6FF09106C3E7AB42EDD2BEE79D
S214015D105B1B9C4228BF1C46E7E700BF040B002024
S214015D2030B58DB00C4605461022002108A821F09A
S214015D30A8F9002207AB029305AB019306AB2146F7
S214015D400093284608ABCDE90522FFF70FFE04466F
S214015D50D8B9099B012B1BD0079D104B2946186803
S214015D600FF084FBB8B90122A5F506230C49A3F56B
S214015D7050635B0905F01F00824051F82300424042
S214015D80284641F82320FFF7CDFD20460DB030BD53
S214015D906FF08404F9E76FF09104F6E7040B002036
S214015DA04C1B00202DE9F04F89B007460E46FFF741
S214015DB05BF9C00709D40424012018F002FC80B363
S214015DC0013CF9D16FF0920028E0102200210DEB82
S214015DD0020021F056F904A8FFF7A8F9049B002B4E
S214015DE0E9D0059B002BE6D0069B002BE3D0079B52
S214015DF0002BE0D00025DFF8808008F10409B542C9
S214015E0019D34FF48A74FFF729F900F00E03062B15
S214015E102DD1C30501D5FFF753F9002009B0BDE820
S214015E20F08FFFF71BF910F00E03FAD0022BF8D013
S214015E304105DFD5C4E7FFF70BF9A6EB050A840099
S214015E40544528BF544699E8030000238DE8030013
S214015E50CDE9054307EB050BCDF810B0029404AA73
S214015E60D8F8003007CA18F0A5FA2544C7E724FA7F
S214015E7003F3DA07A6D5C6E7C48703001FB504A84F
S214015E8000E90E0011460198FFF78CFF70B1FFF78D
S214015E9021FBBFF34F8F0749074BCA6802F4E06244
S214015EA01343CB60BFF34F8F00BFFDE705B05DF82E
S214015EB004FB00BF00ED00E00400FA052DE9F04305
S214015EC08BB01746DDE91545DDE913269C46DDE96D
S214015ED01738894621B96FF086000BB0BDE8F0830C
S214015EE0002FF8D00EB9002CF5D1129909B9002A65
S214015EF0F1D10DB9002BEED1B8F1000FEBD0244A49
S214015F00944541D10288B2F5105F3DD14288B7EB86
S214015F10D20FE0D322F04001802902D0B2F5807F73
S214015F20D9D16CB3AE421CD23219954219D29C42D9
S214015F30D1D831462246284621F089F82E4614F05B
S214015F400F03C8D1CDE90197CDE90336CDE9054365
S214015F50CDE907540993FFF7B1FC38B16FF0920011
S214015F60BBE79C42EBD96FF08900B6E707AA04A904
S214015F7001A8FFF79FF90546FFF7ACFC0543EDD1F5
S214015F800020C8F80040A8E76FF08500A5E700BF2D
S214015F9000444004F0B50E461D468BB0002853D091
S214015FA0002951D0002A4FD0002B4DD0048804F48C
S214015FB04F43B3F5824F03D06FF085000BB0F0BDB1
S214015FC0E3B224F0FF04B4F5E24FB0F802C0F3D117
S214015FD0122B01D0172BEFD10CF10701B2EBD10F29
S214015FE04FEAD10733D31D4A04ACBCF5807F07CAFC
S214015FF084E80700E0D1122B07D1194B1A691B68F8
S2140160001344CDE90432002306930023CDE9076744
S2140160100993FFF753FC0028D0D1124A02AB92E84D
S214016020030083E803000AAB13E903008DE80300CD
S214016030079B94E8070018F08FF90446FFF74AFC1F
S214016040204307D12F60B9E76FF08600B6E76FF0FF
S2140160508900B3E76FF09200B0E700BF50860300F7
S21401606064860300BC8703002DE9F04389B00E4621
S21401607015461F46DDF8488020B96FF0860009B046
S214016080BDE8F0830029F8D0002AF6D0B8F1000F59
S214016090F3D0038803F44F42B2F5824F02D06FF07B
S2140160A08500ECE7DAB2122A01D0172AF7D123F0DD
S2140160B0FF03B3F5E24F41D14488C8F8004044B924
S2140160C0EB00B3F5807FC8F80030E8D1122A0DD175
S2140160D008E0E31DB5EBD30FCFD1B4F5807FDED159
S2140160E0122A29D1354B1C681B691C44002319460A
S2140160F070192C4414F801CD10F8012D1143B2EBA0
S2140161000C020CBF4FF0FF3C4FF0000C86420CEA2D
S214016110030343EA0203EDD10029AED0002BACDA2B
S214016120109B9D4246D82A463146384620F0B4FF99
S214016130119B00201D60A2E70024D7E73378042BCB
S2140161409BD16B1EDB005B08B3F5807FC8F800307F
S214016150A5D1122A06F1010318BF4FF000094FF02E
S214016160400205934FF000030ABF144C4C46D4F886
S2140161700C90CDE90623FFF7A1FB00287FF47FAF43
S214016180CDF80C90D8F800300733DB08029308AB43
S21401619013E903008DE80300059B94E8070018F057
S2140161A05AF90446FFF796FB00287FF468AF002CE7
S2140161B0B6D062E76FF0890061E700BF648603002E
S2140161C00388B3F5105F0ED14388DB08103B102B14
S2140161D00CD8084A22FA03F313F0010F14BF00206B
S2140161E06FF0860070476FF0850070476FF086008D
S2140161F0704700BF010101002DE9F041069F0C46E2
S2140162001646054610B309B302B9FBB96288B3EB6B
S214016210D20F4FEAD20819D34C220021284620F08B
S21401622030FF0D4B27F47E129A4212D12046FFF71B
S214016230C7FF044638B942463146281D20F02CFFD8
S214016240C5F824802F602046BDE8F0816FF08604F3
S214016250F9E76FF08504F6E70002C0032DE9F04187
S2140162600E4614460546002840D000293ED092B17D
S2140162700368214823F47E1383423AD1AF6BF7B10A
S214016280C7F1100807F128004245284406D22744E2
S21401629020F002FFAF630020BDE8F081424620F007
S2140162A0FBFE1022103C3C19AA63F4D0284605F1E7
S2140162B0280118F079FA0028EED14644A863102C7C
S2140162C00CD9671E27F00F073A463146284618F0C4
S2140162D06BFA0028E0D1E41BDDD03E44224631466D
S2140162E005F1280020F0D8FEAC63D4E76FF08600F5
S2140162F0D2E76FF08800CFE70002C0032DE9F04334
S21401630088461F4605468BB070B169B163B1036814
S214016310234923F47E1088423ED113F47C1FC3F335
S214016320054604D0102E03D96FF086042AE0102605
S21401633096422BD8FFF7C2FA044618BBAB6B05F1A1
S2140163402802CDE901236B6A2A1DCDE90423102317
S214016350CDE9083007AB1A460390069005F13C09D3
S21401636001A904A8CDF81C90FEF7CCFF0546FFF75F
S214016370B1FA04466DB928B932464946404620F07E
S2140163808BFE3E6020460BB0BDE8F0836FF08904BB
S214016390F8E76FF09204F5E76FF08504F2E700BFC7
S2140163A00002C00307B56B46054A1068516803C36F
S2140163B06846FEF715F8002003B05DF804FB00BF41
S2140163C0D087030013B50024064A6846536F43F08E
S2140163D00103536700948DF80440FDF739FF20460A
S2140163E002B010BD0040005030B58BB06C46174D62
S2140163F00FCD0FC40FCD0FC495E8030084E803004A
S214016400134BD3F84C2112031CD5A3F5FE431C886D
S2140164104FF6FF739C4208BF8C248DF81940FDF798
S21401642061FD204480F308008DF818000948FCF748
S2140164304DFE6846FDF776FC3220FDF78BFD002009
S2140164400BB030BDD3F85041E4B2E6E7D88703007D
S2140164500080E00F00F049026FF00403502110B5F0
S2140164600A480B4C13F0800F03F1010207D12344B5
S214016470402A83F800131346F4D1002010BD03F020
S2140164800F03043B034419761346EBE700ED00E0E7
S21401649000E100E010B5044617F0CEFC024B1C608C
S2140164A017F0CEFC002010BD601B002010B517F0C1
S2140164B0C3FC034B1C6817F0C3FC204610BD00BF8D
S2140164C0601B002010B5002400F028F80348044B98
S2140164D084604360FFF7DEFF204610BD641B00208A
S2140164E0E564010013B5064C23780093054B1B8821
S2140164F018F01DFA10B923780133237002B010BDCD
S21401650072290020E80C0020034B022218680023A1
S2140165108068194616F01CB9180C002008B5074B00
S2140165201A6842B9012208201A6017F045FB04498F
S214016530044800F0FBFC002008BD00BF781B0020CB
S214016540080B0020701B002030B51446054687B0A6
S214016550104618F045FA6369024683423CBFD4E907
S21401656003315B181B1A7BB10F4904940391002178
S214016570CDE90131012300932846D4E9001317F031
S21401658026FB002007B030BD0122627694F82D204C
S214016590002AF6D084F835301321E369204698475F
S2140165A02046636A9847ECE7496501002DE9F04704
S2140165B088B004460F461646984617F044FC8146B6
S2140165C0002E7AD0237E03F0FF02002B00F0A2807B
S2140165D0204618F005FA6569A84205D1637ED4E91C
S2140165E0033213445D1B01E0F9D9451BB54228BFB0
S2140165F0354617F028FC94F82D308246002B6DD1D5
S2140166002A463846616920F047FD63692E462B44C9
S214016610636121E0037803F0FD0111295BD1216B51
S214016620814205D1A3F111014B424B4184F834302C
S214016630013E6369216B01328B4203F1010308BFFE
S2140166402363636195426069E4D1D4E90323216B36
S2140166501344994200D122630025D4E903236169DA
S2140166601344994208BF6261207A6576FCF77CFF85
S214016670204618F0B5F96369834232D1257694F83D
S2140166802D30E568656103B125632046636A984746
S214016690214B049403930023029323692A46019312
S2140166A00123009363682168207A17F090FA207A14
S2140166B0FCF77AFF504617F0CCFB4846C8F8006056
S2140166C017F0C7FBD8F80030002B0CBF1B200020AA
S2140166D008B0BDE8F08707F8013BAAE72E4600227E
S2140166E0B0E70123207A23760DF11E01FCF7C4FFE3
S2140166F09DF81E30002BDAD00DF11F01207AFCF731
S21401670093FF9DF81F100029D1D12246207AFFF76A
S2140167101BFFCCE71646D0E749650100002807DBDA
S21401672001234109034A00F01F00834042F821304B
S214016730704700BF00E100E0002808DB01224309A2
S214016740034900F01F008240603341F82320704760
S21401675000E100E070B504460568FFF7A7FE844235
S21401676002D10020FFF796FE95F936603046FFF716
S214016770E3FF002E0CDB01221949730906F01F0600
S214016780B240203341F82320BFF34F8FBFF36F8F02
S21401679095F937603046FFF7CFFF002E0CDB01225C
S2140167A00F49730906F01F06B240203341F8232033
S2140167B0BFF34F8FBFF36F8F287AFCF715FF287A48
S2140167C0FCF778FEFCF754FE00232846C4E90033A4
S2140167D0C4E90433A360AB6ABDE87040184700BF44
S2140167E000E100E02DE9F0430C461546064687B069
S2140167F04022002120461F4620F043FC95E8030076
S21401680000232A692376EB6884E80300C4E904239D
S2140168102A7DE36084F82C20AA7D2363012384F873
S214016820343084F835300E9B84F82D2023620F9B7C
S214016830E7616362109BA3622B7A84F836306B7A29
S21401684084F837302D4B346073602D4BB3602D4B7D
S21401685033612D4B73612D4BF360FCF751FE38B15C
S2140168602B4B984204D01024204607B0BDE8F08395
S214016870002104F10800FCF7CBFD07460028F2D101
S2140168804FF00108234B3362234B84F83C80B361FD
S214016890224BF3619DF8483084F8390084F83B3088
S2140168A09DF84430204684F83A30697D84F8388073
S2140168B018F0A6F895F909904846FFF73DFF4846B7
S2140168C0FFF72CFF164B0494CDE902732369CDE93B
S2140168D000836368E2682168207A17F078F9044635
S2140168E00028C0D195F908502846FFF725FF28460D
S2140168F0FFF714FF3046FFF7CDFDB5E751EA02007A
S214016900AD650100CFE90200D5E902005567010037
S214016910038000F0A9E9020001EA0200DBE90200B7
S214016920496501002DE9F04101271C46584B86B008
S2140169300293584B0C9D0193574B904600930A4681
S214016940CDE903772946554BFFF74CFF064600284D
S21401695040F09680236839462B6463683A206B645E
S214016960637A85F84930237A85F84830E37A85F8E2
S2140169704B30A37A85F84A30637B85F84D30237B0C
S21401698085F84C30E37B85F84F30A37B85F84E3095
S214016990FDF7C4F83B460422617A207AFDF75AFDDA
S2140169A03B460222E17AA07AFDF754FD394660683B
S2140169B0FDF7B4F888F8006041462068FEF772F9E2
S2140169C01422637C5B0103F1A04303F57033C3F823
S2140169D01C26617A227A42EA0142C3F83426E17A19
S2140169E0A27A42EA0142C3F82C2685F8506098F84C
S2140169F01930032B4AD8DFE803F03447021C022380
S214016A0085F8503000230422E17BA07BFDF722FDB0
S214016A10022741F21C61627C214B03EB4210475076
S214016A20E07BA17BB13241EA004103EB421399605E
S214016A3017E0012785F8503002220023617B207B76
S214016A40FDF708FD637B227B617C42EA0342154B1E
S214016A5049015A500422236803F58053DA65002F52
S214016A60D0D10422237A052185F84830637A85F847
S214016A7049302B6C206803F58053DA6417F08CFAE2
S214016A80304606B0BDE8F0810027D3E72326F7E7B6
S214016A907FEB020073EB020007EC0200FBEB020047
S214016AA000C0035024D60350BFF35F8F074B5A6ACA
S214016AB022F480325A62D3F8942022F00102C3F8FD
S214016AC09420BFF34F8FBFF36F8F704700ED00E048
S214016AD070B52948294CFFF7E7FF8442284D29491C
S214016AE019D1D5F8C03023F0FF0343F0A003C5F851
S214016AF0C0304FF080430A68214D234EC5F89820D8
S214016B0043F0010301328442C5F89C60C5F8A03009
S214016B100A601ED00DE0D5F8C02020F01F03203BF0
S214016B2022F0FF0242F0A002B3F1005FC5F8C020D8
S214016B30E1D2164B0A68124823F01F0343F0030301
S214016B40C0F89820C0F89C30114B0132C0F8A03034
S214016B500A60BFF35F8F0522094BC3F894205A6A77
S214016B6042F480325A62BFF34F8FBFF36F8FBFF389
S214016B704F8FBFF36F8F70BD140D0020EC0E0020F9
S214016B8000ED00E07C1B0020030000200B0F00201E
S214016B90E1FFFF3FF8B51446FFF786FF1F2C27D904
S214016BA00027C2062A4D1CBF20F01F0020302A688D
S214016BB0CB06284B18BF21F01F01FCB2A2422BD8EE
S214016BC0D3F8C04020F01F0024F47F4444F48074BE
S214016BD021F01F01C3F8C04040F00300C3F898201D
S214016BE041F003010132C3F89C00C3F8A0102A60EB
S214016BF00020BFF35F8F0522164BC3F894205A6A14
S214016C0042F480325A62BFF34F8FBFF36F8FBFF3E8
S214016C104F8FBFF36F8FF8BDC3F89840D3F89C40F1
S214016C20D3F8A06024F01F04A04226F01F0601D16D
S214016C30B142DDD0B04201D8A14207D2D3F8984084
S214016C40013724F0FF04C3F89840B6E72820D0E7C0
S214016C507C1B002000ED00E0BFF34F8F0549064B7B
S214016C60CA6802F4E0621343CB60BFF34F8F00BFE4
S214016C70FDE700BF00ED00E00400FA05054B1A78B9
S214016C802AB95B78002B0CBF032002207047012035
S214016C90704700BF7D2900200329F8B598BF124B25
S214016CA005460E468CBF00245C5C032805D8DFE849
S214016CB000F002080B0E44F002040C4B1F684FB99B
S214016CC0F8BD44F00804F8E744F02004F5E744F082
S214016CD08004F2E77B681A68144203D031462846DE
S214016CE05B6898473F68EAE700880300AC1B002012
S214016CF038B5104D2B78ABB10F4C23781BB100F093
S214016D00B7FB00232370002017F0E1FF0B4C50B1B6
S214016D1000F000FC0023012120782B70FFF7BCFF58
S214016D200123237038BD0122054B1A702278054BCA
S214016D301A70F7E778290020762900207F2900209D
S214016D40792900207A29002010B517F075F8064B2E
S214016D5004461B781BB1BDE8104017F071B8FFF769
S214016D60C7FF2046F7E700BF75290020094A1378B8
S214016D7030B101331370084B1B78012B03D87047D1
S214016D80013B13707047054B1B780BB9FFF7B0BF7B
S214016D90704700BF7D2900207F2900207929002027
S214016DA070B517F049F8124E054633789BB900F0D6
S214016DB0EDFC044620B1284617F042F8204670BD87
S214016DC00C4816F0F2FE00F093FF0B4B1C6000F02F
S214016DD0A9FD0A4B186000F02BFA17F07AFF084B52
S214016DE00024186001232846337017F029F8E5E7D8
S214016DF080290020AC1B0020801B0020A81B00203F
S214016E00841B00202DE9F843284A0138135C39B168
S214016E10274F013339781354012904D8BDE8F88384
S214016E20013B1354FAE7FFF729FF0128044635D83A
S214016E3017F002F8DFF88480054698F8003013B39F
S214016E401C4E33781BB9012232701B4A1370DFF8CF
S214016E50709099F8003023B100F00AFB002389F8FE
S214016E600030284616F0ECFF012017F030FF16F030
S214016E70E3FF337805461BB100F04CFB002333706B
S214016E80002388F80030284616F0DAFF3878A0424A
S214016E90C4D02146FFF700FF3C70BFE70329F5D1B8
S214016EA00228F3D117F019FFF0E700BF7D29002073
S214016EB07F290020752900207929002078290020C3
S214016EC07629002010B5044616F0B6FF002C0CBF3C
S214016ED0FF210121064A13780B44DBB21370B3FA83
S214016EE083F3BDE81040034A5B09137016F0A8BF90
S214016EF07C2900207B29002038B516F09DFF094B20
S214016F0005461B78012B04D816F09AFF002420466C
S214016F1038BD054B1C6800F047FB0444284616F0B4
S214016F208FFFF4E77F290020801B002038B54160E1
S214016F30044616F081FF05462146044816F038FE41
S214016F402846BDE8384016F07BBF00BFAC1B0020CA
S214016F50054B1B685843054B00F5742000F23F2093
S214016F60B0FBF3F0704700BFA81B002040420F00A3
S214016F702DE9F04F85B0EFF3108772B6AFF30080BE
S214016F8016F0B8FD00286FD0804EDFF82C823378DB
S214016F9023B10020FFF7EAFE00233370FFF76EFEF1
S214016FA00446002867D0841EE4B2012C6AD9FFF794
S214016FB065FE01280546764CDFF8009200F28C80CB
S214016FC02078854240F0C680207800F0D7FA99F8FC
S214016FD0003013B16F4B1B782370AFF3008007B9F5
S214016FE062B6EFF3108772B66B4B1A7852B1002275
S214016FF01A70684B20781B78984203D101212170C2
S214017000FFF74AFE654800F0FBFB16F082FD0546D9
S2140170100028BCD1624BDFF89481187098F80030D4
S214017020ABB189F80000DFF88C9199F800301BB1FC
S21401703000F01EFA89F80050002017F048FE0028DC
S21401704000F09B8000F066FA002388F80030337861
S21401705023B10020FFF78AFE002333700021207839
S214017060FFF71AFE00232370AFF3008007B962B65C
S21401707005B0BDE8F08F3378002B98D0FFF776FE89
S214017080347094E7002003A900F008FC04460028A9
S2140170908DD1D8F80030039A9A4205D80120FFF71F
S2140170A065FE0123337082E73E4B1D6800F07CFAD3
S2140170B0039B05449D42F1D200F08EFA82000399AB
S2140170C042F0020292B2CDE900422346364A491BFB
S2140170D0324817F003FE6AE7344BDFF8C4A093F892
S2140170E000B0BBF1000F25D100F046F920788542AB
S2140170F030D19AF800307BB92C4D2B78002B7FF4D9
S21401710063AF2B4B1B7823B900F0ACF90122294B56
S2140171101A7001232B7057E7022DEDD18AF800B0C3
S21401712015E02378022B25D100238AF800301FF0C2
S214017130ACFB1FE0207885420CD19AF80030002B7A
S2140171403FF442AF022DD7D100238AF800301FF05A
S2140171509CFBD1E70023DFF848A08AF8003099F8B5
S214017160003013B92946FFF797FD9AF800302570CD
S214017170002BD6D1012DBFD826E7012000F0FEF95D
S21401718007B962B6EFF3108772B655E77729002084
S2140171907F2900207A29002073290020881B0020DF
S2140171A07B290020801B0020496D010078290020E2
S2140171B07C29002076290020841B002079290020C4
S2140171C010B516F039FE0022044B1C781A7016F022
S2140171D037FE00F0CFFC2043C0B210BD742900205A
S2140171E073B5114E0446337883420FD04FF40073C3
S2140171F00E4DADF8043058B101A8FCF7C5FF40208C
S214017200FFF7A6FE2B68181A2860347002B070BD0E
S2140172108DF8050001A8FCF7B7FF4020FFF798FEA0
S2140172202B681844F0E700BFF90C0020E41B00208F
S21401723073B5002401A88DF80440FDF76BF82046CD
S214017240FFF7CEFF404A4149136F414803F0070359
S2140172500B60D2F800113F4D01F0030101604FF4BD
S21401726000203D49032B48664FF40030486601F57F
S21401727098318969C1F3400129705DD0D2F8203177
S21401728003F00303981E43424341D2F82421334CB2
S21401729002F00702022A08BF43F001034FF4C87048
S2140172A02370FFF755FE00222D4B2E4918602E4EF7
S2140172B00B680132D2B20A2A46F8040BF9D103440C
S2140172C000EBC00003440B602B78284D63B3237892
S2140172D01D4A3BB9D2F8003103F00303591E4B4255
S2140172E04B412370D2F8003103F00303022B25D063
S2140172F0032B26D0012B17D1FBF7E2FE024698B1ED
S2140173001B4B1C4EDC6800231946C4F30B040134E6
S21401731004EB84040138E4FB060114F0FBFEFFF7DE
S21401732017FE2B6803442B601F20FFF711FE2B6806
S21401733003442B6002B070BD0123A6E7FBF7DAFE1B
S214017340DCE716F02AFCD9E700800050E81B002095
S214017350EC1B002084290020009000508529002085
S214017360B01B0020B41B0020B81B0020E41B00202B
S21401737000C0015040420F00074A0849D2F82031A8
S21401738003F003030B60D2F82431054A03F0070328
S214017390136016F063BD00BF00800050F41B002090
S2140173A0F01B002008B5104B1A78C2B100221A70E3
S2140173B00E4B1A6F22F0070242F001021A67D3F849
S2140173C0202142F00302C3F82021D3F8242122F021
S2140173D0070242F00302C3F82421FBF75BFE0122F9
S2140173E0034B5A6708BD00BF832900200080005068
S2140173F000E000500122154B10B55A67144B154C8E
S2140174001B7813B3022017F002FDF0B100F076FAF4
S214017410D8B1A36DD90302D5E36D9A0715D40D4BE8
S2140174209B6DDB0711D401220B4B1A7017F0DAFCA7
S214017430BDE81040094B0A4A1860136F23F0070392
S21401744043F003031367FBF725BE10BD00D00050C1
S2140174508529002000C0005082290020E01B002062
S214017460008000500122014B1A70704783290020CA
S214017470F8B51F4B1B78002B39D01E4C2378B3B9B7
S2140174801D4B9A6DD10302D5DA6D92072FD49B6DF1
S214017490DB072CD417F0A6FC184B194A1860136F9B
S2140174A023F0070343F003031367FBF7F3FD17F01D
S2140174B099FC124B134D1B68134EC01A2B78134FB1
S2140174C056F8232046F82300111A3A681048521A33
S2140174D00A213A600932B2FBF1F20133DBB20260F3
S2140174E0B3FBF1F201FB12332B7000232370F8BDBE
S2140174F0852900208229002000C00050E01B0020C2
S2140175000080005081290020B81B0020B41B0020F9
S214017510B01B002008B516F0A4FC124B12491A6FD6
S214017520096822F007020A431A671049D3F8202196
S214017530096822F003020A43C3F820210C49D3F854
S2140175402421096822F007020A43C3F82421094BC3
S2140175501B7813B10122084B9A62BDE80840FBF77D
S21401756099BD00BF00800050E81B0020F41B0020DE
S214017570F01B00208529002000E0005002280AD0D8
S21401758003280BD001280CD1064A136923F0040303
S214017590136130BF70470020FCF702BE0020FCF7E5
S2140175A02DBE704700ED00E0054B187818B1054B6D
S2140175B0186800EBD000044B1B681844704700BFE6
S2140175C085290020B01B0020E41B00200122014B6E
S2140175D01A70704785290020014B1878704700BF44
S2140175E08529002038B517F00BFC0025084B094CFF
S2140175F01A682368C31A2AB123B15169994203D381
S214017600C91A5161206038BD55615B1A9268F2E76C
S214017610001C0020FC1B0020C38870B504460D46E4
S2140176203BB9FFF769FC8542064602D217F043FBD9
S21401763035460E4965610B688BB90C60A3600DE099
S214017640AD1A9A68184665616AB113465A69AA4224
S214017650F6D930B18460521BA3605A6170BD002018
S214017660F4E70C60F7E79C60A260F7E7001C0020D7
S21401767038B5134D2B685B6993B1124A0220146822
S2140176801C4400F0F1FA204600F0BCFA00230E4933
S2140176902A680B70D088800709D501230B7038BD86
S2140176A0022000F0E1FA022000F000FBEEE792680B
S2140176B0002AF4D050690344012BEBD9EFE700BF51
S2140176C0001C0020FC1B00208729002070B51646F0
S2140176D09DF81420C0E903360271049ABDF81830EB
S2140176E00260002204460D468260C380EEB917F0A0
S2140176F087FB2844A0619DB12E4616F09DFB0546EA
S214017700FFF770FF31462046FFF786FF104B1B68D8
S214017710A34201D1FFF7ACFF284616F091FB02E029
S214017720E36865617BB9002070BD17F069FB3044E2
S214017730A061002DE0D1E3686561002BDDD0204615
S21401774021689847D9E7204621689847EBE700BFAC
S214017750001C002000220C490B687BB183420AD131
S21401776083687AB1936083681BB15A6941690A4498
S2140177705A61002070471A469B68EEE70028EFD052
S214017780022070470B60EEE7001C002070B516F073
S2140177905AFB144E05463478FCB9134B1C60134B48
S2140177A01C60134B1C8000F0F1F9012000F05CFA1C
S2140177B017F03CFB0F4B0246186020B9284616F01E
S2140177C048FB232070BD234640F2E7310A4814F0F7
S2140177D0A1FC0A4B186001233370284616F039FBCA
S2140177E00020EFE788290020001C0020FC1B002059
S2140177F0F2280020041C002018FCFFFFF81B0020C4
S21401780070B5044640B316F017FB144E0546FFF755
S214017810E9FE3068A04209D02046FFF79BFF0446E8
S214017820B0B1284616F00CFB204670BDFFF792FF5C
S21401783004460028F5D133683BB9022000F020FA4F
S214017840284616F0FDFA0024EEE7FFF711FFF7E7EA
S2140178503368002BF4D1F0E72224E5E7001C002072
S21401786038B50C460546A8B1A1B100230B7016F039
S214017870EAFA0121084B1B6833B916F0EAFA002030
S21401788038BD9D4204D121702278002AF9D0F4E750
S2140178909B68F1E72220F3E7001C0020F8B50646B6
S2140178A00F4616F0D0FA00250446124B1B6823B982
S2140178B0204616F0CEFA1B2011E05A691544DA88E4
S2140178C0B2420DD117F09CFA0B4E3368C01AA8428B
