S02200005261696C5F746573745F4E43505F6578616D706C655F4D335F4D362E733337DF
S214006000C00A0020656E00002DD902002DD90200BE
S214006010BBE902002DD902002DD902002DD90200BD
S2140060202DD902002DD902002DD902002DD902004B
S2140060302DD9020020BB0300A1D702002DD90200F3
S2140060402DD902002DD902002DD902004D73000073
S2140060502DD902002DD902002DD902002DD902001B
S2140060602DD902002DD902002DD902002DD902000B
S21400607029C40000DBD802002DD902002DD9020069
S2140060802DD902002DD902002DD902002DD90200EB
S2140060902DD902009D7700002DD902002DD90200CF
S2140060A02DD90200C17800009D7800002DD902008D
S2140060B02DD902008DBA02002DD90200D5C40200E7
S2140060C0F1AE0300EDAE0300C5BC0200FDAE03005A
S2140060D0F5AE0300ADC40200F9AE030015C502001C
S2140060E0E19D0200A59F020085C502002DD9020091
S2140060F02DD902002DD902002DD902002DD902007B
S2140061002DD902002DD902002DD902002DD902006A
S2140061102DD902002DD902002DD902002DD902005A
S2140061202DD902002DD902002DD902002DD902004A
S2140061302DD902002DD902002DD902002DD902003A
S214006140002370B5404C05468AB0E36318B100885A
S21400615023600FF01DFD3D4834F098F83C4E3D4B53
S214006160304633603C4B73602EF033FC00213046E3
S2140061701FF0F6F932A3D3E90023A062C4E9062390
S2140061802EF032FCD4E9062319431043C4E9060175
S214006190CDE900014FF0FF334FF0FF32A06A34F034
S2140061A0F5F802224FF0FF31A06A34F0F4F801202F
S2140061B00FF06CF94FF4007300222849A06A34F0FF
S2140061C0F9F9B0F5007F38D100239422CDE90733E2
S2140061D009933C23CDE9033205939623A06A03A9CD
S2140061E006931FF0E9FA35B3287C0FF0F1FE05465A
S2140061F0F0B9A06A34F0CCFA0FF098FE0FF028F948
S21400620020B14FF48070002109F0FEFF0FF030F946
S21400621020B14FF40060002109F0F6FF2EF06AFC72
S21400622001201FF0F1F90E4A0E49A06A2EF0CFFBAE
S21400623028460AB070BDFF20D7E70725F8E700BF5D
S2140062400DD501552000000028100020690345ECFC
S214006250002500201153010010250020E822002010
S21400626077490300B74903000348044B834202D032
S214006270034B03B118477047B80F0020B80F002033
S21400628000000000064B0749C91A891048BF0131B3
S214006290491003D0044B0BB101481847704700BFA4
S2140062A0B80F0020B80F00200000000010B5064C04
S2140062B0237843B9FFF7D8FF044B13B10448AFF374
S2140062C000800123237010BD922F002000000000E4
S2140062D0D40C040008B5054B1BB105490548AFF3BF
S2140062E00080BDE80840FFF7CDBF00BF00000000FB
S2140062F088120020D40C0400A3F5803A704700BF33
S214006300174B002B08BF134B9D46FFF7F5FF0021E8
S2140063108B460F461348144A121A34F043FE0E4BAF
S214006320002B00D098470D4B002B00D0984700203C
S214006330002104000D000D48002802D00C48AFF3E1
S214006340008026F04FFC2000290027F01DFA26F0DA
S21400635071FB00BF00000800000000000000000005
S214006360C00A0020B80F00201033002000000000F4
S214006370000000000A4B70B51E680123304600F886
S214006380013B084B084C1D7821782A4634F00AFE5B
S2140063903146284627F0B2FA23680133236070BDE1
S2140063A0A4120020942F0020A01200202DE9F34113
S2140063B043780446013B042B49D8DFE803F0032B5F
S2140063C02F363A004FF00008C378234F234E244D53
S2140063D03B70837828683370224BC3F8008018B16E
S2140063E028F00BFCC5F80080387828F0E8FB286019
S2140063F070B1012300931C4A002331781B4800F03B
S2140064003DFC0121621C02B0BDE8F04127F073BAE2
S2140064101920F6E7154800F015FCF2E7144834F0AA
S214006420D8FD134AC1B20020EDE7024612F8011B60
S214006430F9E7054615F8011B00202A4627F05BFA07
S2140064402946207802B0BDE8F04127F057BA00226E
S21400645001201146D7E700BF942F0020932F00207D
S214006460A4120020A012002075630000A8120020CD
S214006470B40D002010B5234C02F0F0F902F0CCFB6E
S214006480236F23F0070343F00303236727F01FFD62
S2140064901D4B00209B6A9B075EBF01221B4B9A6226
S2140064A0D4F8203123F0030343F00203C4F820316C
S2140064B0D4F8243123F0070343F00203C4F8243150
S2140064C0D4F8403123F0030343F00103C4F840310D
S2140064D0D4F8603123F0030343F00103C4F86031BD
S2140064E0D4F8403223F0030343F00103C4F84032EB
S2140064F0D4F8003223F0070343F00103C4F8003257
S21400650010BD00BF0080005000C0005000E00050EA
S21400651008B502F0EBFF01280ED1114B04205A6E8D
S2140065204FF480230F49520358BF0F4A4B6601F5BC
S2140065301041086258BF536604F058FE04F0FCFD94
S21400654004F01CFE28F033FAFFF794FF04F004FE74
S21400655000F0C0FE01F0C6F9BDE8084004F0E0BF58
S214006560008000500090005000A0005018B1034B6F
S2140065701860002070472520704700BFE0120020FA
S21400658010B5054C0549206801F0DEFC2068BDE822
S2140065901040FFF7EBBF00BFE40B0020C00A00204E
S2140065A0014B1868704700BFE012002008B527F0BE
S2140065B0AAFC0022034B1A8083F80621BDE8084097
S2140065C027F0A7BC2C2E002008B527F09CFC002244
S2140065D0034B1A8083F80621BDE8084027F099BCD3
S2140065E0242D00202D4938B591F8063153B32C4D93
S2140065F02B783BBBD1F802002A4A81F8063120F4FA
S2140066007F4323F0070393423AD002F1807293420D
S21400661040D002F17E42934227D006312EF06BFA2C
S21400662015F050FF0446FFF7C1FF012322682B70C8
S214006630130203F4E063C2F3072213432146181D36
S21400664000F0B2FA184991F8063133B3144B1A78B1
S2140066501ABB81F80621012231F8020B1A7000F0ED
S214006660A3FABDE83840FFF7AFBF8A791AB1881D94
S214006670FFF79CFED4E71146012015F087F9CFE717
S2140066808B791BB1881D00F0D9F8C9E7012015F0F9
S2140066908FF9C5E700F0C8FCC2E738BD2C2E0020F5
S2140066A0952F00202000FF01242D0020084A138883
S2140066B0C3F58273984208D892F806312BB9054B79
S2140066C093F8060180F0010070470020704700BF75
S2140066D0242D00202C2E0020084B93F8060150B9DC
S2140066E0074B93F806311BB9064B187880F001006B
S2140066F000F0010070470020FAE700BF2C2E0020B3
S214006700242D0020952F002008B5FFF74FFFFFF738
S2140067105BFF00F05BF90022024B1A7027F0F8F8D6
S21400672008BD00BF952F0020F8B50546006820F488
S2140067307F4020F0070000F0DFF828BB284627F04F
S214006740D8F808B32B68114E1C0204F4E064C3F3B7
S21400675007231C4327F0D7FB33880434C3F5827223
S214006760944207460BD802332246F018294634F0E6
S21400677023FC33881C440123348086F806313846CF
S21400678027F0C7FB27F0C5F8F8BD00BF242D002072
S214006790002208B5024B1A7027F0BBF808BD00BFF0
S2140067A0952F0020F7B50C46174600B1FEE727F0F8
S2140067B0AAFB1F4DA2B22B880646C3F582718A42F9
S2140067C005D927F0A6FB27F0A4F803B0F0BD981C67
S2140067D03946284434F0F0FB2B88E11889B20329A7
S2140067E029800DD8304627F094FB00234FF4FA7129
S2140067F0104A1148009300F041FA0028E3D0FEE763
S214006800D5F80220130203F4E063C2F30722134311
S21400681004338B42E6D80123304685F8063127F04C
S21400682078FB054800F00EFA0028CCD0FEE700BF43
S2140068302C2E0020DFD802004413002070B54378C9
S2140068400278012B14D0022B2BD063BB052A2AD149
S214006850274C2278082A47D02649D0F802000D4651
S214006860DEB2964224D345F822000132227016E0AA
S214006870052A18D11E4C2178C1B3D0F802601D48F5
S2140068800023024650F8045BAE421ED100200139B8
S21400689042F82300217002EB830299420FDC0020AD
S2140068A002E0012A17D00120BDE8704015F080B83C
S2140068B051F8046B0133B042D2D12E20F4E754686D
S2140068C00133146042F8040FE7E70133DDB2A94252
S2140068D0D8D82D20E8E720220021064834F062FBB5
S2140068E00022034B1A70DAE71C20DDE71B20DBE7EB
S2140068F0962F00207C13002010B5084B084A1C7801
S2140069000023D9B28C4201D8002010BD52F8041BD7
S21400691001338842F5D10120F7E700BF962F00200B
S2140069207C13002010B54FF48272084B084901F022
S21400693015FC044640B9074B186890F83530032B11
S21400694002D0022101F0FCFB204610BD17D9020040
S2140069509B300020B013002038B54FF4827200211F
S214006960144834F01FFB4FF482720021124834F0B2
S21400697019FBFFF715FE114A0368114D9342286074
S21400698004D002F58042934211D0FEE70D230D4A53
S2140069900020137027F0D2F92B680446186827F0F9
S2140069A023FBB4FBF0F4084BA4001C6038BD0F2397
S2140069B0EDE700BF9B300020972F002000C0055059
S2140069C0B01300209F310020AC13002008B5124BF6
S2140069D093F90030002B0CDB012203F01F015B094A
S2140069E09B0003F160438A4003F56143C3F88021AE
S2140069F01A600A4B0A4A18680A4903685A6603F579
S214006A0000529164DA6C42F42042DA64FFF78AFF9F
S214006A1000B1FEE708BD00BF9F310020B013002084
S214006A20FF002400FFFF01002DE9F0474B4E3068C1
S214006A3003689B6C1B0440F18E8090F83530032B66
S214006A4002D0012101F07CFB27F05DFA3468054690
S214006A5023685A6E22F4E0225A665A6E42F4802266
S214006A605A664FF4004203F500539A6427F04BFA37
S214006A70A36A07469B889BB24BB927F04AFA306850
S214006A80FFF750FF2846BDE8F04727F042BAE06817
S214006A9000F01CFE0023D4F8289084F8303027F04D
S214006AA032FAB9F804309BB2002BE6D04FF0140847
S214006AB0B9F802A027F02DFA1FFA8AFA08FB0AFA9C
S214006AC00AF110014944E06800F046FE244BD14428
S214006AD0C9F81830D4F82890B9F804309BB20BB92E
S214006AE03846CAE727F00FFAB9F804A01FFA8AFA60
S214006AF0BAF1000F04D127F00CFADAF80C30FFDEFA
S214006B00B9F802A0B9F80230B9F806209BB20133F2
S214006B10B3FBF2F102FB11339BB2A9F80230B9F8CD
S214006B2004301FFA8AFA08FB0A9A013B9BB2A9F8BE
S214006B30043027F0EEF9DAF81490B9F1000FC9D056
S214006B40DAF80C20DAF810300021D31A2046DAF8EA
S214006B500820C847BEE7BDE8F08700BFB013002096
S214006B60097000F010B50E4C237B6BB1206827F03F
S214006B70D1F8830609D40B4A63681268934204D29C
S214006B800133636026F0C6FE10BD0023A068636074
S214006B90C01A18BF01202373FFF7FAFDF4E700BF01
S214006BA09C130020AC130020B0F5827F10B504467D
S214006BB000D9FEE70246074834F0FEF906482246AA
S214006BC0064B0449006801F077FB00B1FEE726F0AB
S214006BD0A1FE10BD972F0020B0130020E16B00002F
S214006BE038B50D46044627F08EF90022054B5A604C
S214006BF001229D601C601A7327F08BF926F08AFE2E
S214006C0038BD00BF9C13002038B5054627F07BF939
S214006C1000230B4A14685CB1AC4206D1A96A6BB17A
S214006C20996227F076F9012007E02346A46AF2E786
S214006C30002DF3D027F06DF9204638BD1160F0E73F
S214006C40B413002010B5044698B105F099F9204613
S214006C50FFF7DAFF10B194F82C300BB9002010BD06
S214006C6027F051F9044A1368013B136027F051F9E5
S214006C70F4E72220F3E700BFB81300202DE9F04325
S214006C8085B00546914698460E469DF8307009B97F
S214006C90002F5CD12846FFF7D5FF0446002836D1E2
S214006CA085F82C00686305F05DFA864233D905F056
S214006CB0F9F92146844640F2E7304FF47A72002311
S214006CC0E6FB0C0125F01EFD4FF0FF32002325F0F9
S214006CD019FD2B46E88611462846CDE900441D4A94
S214006CE027F0E1FE044690B9C5E9089885F82D70AE
S214006CF02E6327F008F9184A136833B31A469B6ABE
S214006D00002BFBD195620023AB6227F002F92046E8
S214006D1005B0BDE8F08347B12B4631462846CDE99D
S214006D2000440C4A05F0E2F9DCE7304603A905F01A
S214006D30BFF904460028EAD12B462846CDE900775D
S214006D40044A039927F08BFECCE71560DBE7212485
S214006D50DDE700BF5D6D0000B413002091F82C3015
S214006D6013B50C4683B98B8ECA8E93420ED243B9A6
S214006D70CDE9003320460B46104A4FF0FF3127F08E
S214006D8052FEA38E0133A38602B010BD52B191F815
S214006D902D307BB101230093D1E908232046096BEF
S214006DA0FFF76CFF0123064A84F82C301368013382
S214006DB01360E9E7084605F0E3F8F3E75D6D0000C9
S214006DC0B81300202DE9F041144E336823B34FF07A
S214006DD00008134F27F097F805463C6824B9284664
S214006DE0BDE8F04127F095B894F82C3093B133689D
S214006DF084F82C80013B336094F82D3013B920467C
S214006E00FFF702FF284627F084F8D4E90831204629
S214006E109847DFE7A46AE1E7BDE8F081B8130020F1
S214006E20B4130020034B1B68002B14BF0420012062
S214006E30704700BFB8130020024B1868B0FA80F005
S214006E4040097047B81300200348044A0449121A40
S214006E50921026F06CBD00BFE0110400E0110400A3
S214006E601033002008B500F02FF8FFF7EDFF124BA7
S214006E7012498B4212D30020114B12498B4218D371
S214006E80FFF73EFA186850F82240586840F822404B
S214006E90013298688242F5D30C33EAE70022F8E71D
S214006EA01C6844F8220001325C68A242F8D308331A
S214006EB0E4E70022F8E700BFDC0C0400E80C04005E
S214006EC0E80C0400E80C04004FF400414FF0FF30DB
S214006ED0124B134A10B59A60D3F8882042F4700219
S214006EE0C3F888200F4A916601F1884101F50052E7
S214006EF010664FF6DF7050660220C3F8D000BFF36E
S214006F004F8FBFF36F8F08244FF440330648C0F806
S214006F108041D36004600B6110BD00BF00ED00E04F
S214006F20006000000090005000E100E0014B18688F
S214006F30704700BFEC0B0020084B1B6F03F00703E5
S214006F40022B04D0032B05D0012B05D0FEE7044B03
S214006F5018687047034BFBE70348704700800050F3
S214006F60EC0B0020F40B0020002D310108B5FFF7D4
S214006F70E3FF054B1B6FC3F303330133B0FBF3F0A2
S214006F80024B186008BD00BF00800050E80B0020D0
S214006F900048704700B4C404014B1868704700BF2F
S214006FA0F40B0020054B1860054B1B6F03F007031E
S214006FB0032B01D1FFF7DABF704700BFF40B0020A8
S214006FC00080005000487047002D3101014B1868C2
S214006FD0704700BFF00B0020BFF34F8F0549064BEC
S214006FE0CA6802F4E0621343CB60BFF34F8F00BF62
S214006FF0FDE700BF00ED00E00400FA0500239B6AF1
S214007000B3F5C04F03D21968064A914203D0002355
S214007010037083607047012202709A689B69426021
S214007020F7E700BF07B0CD5E08B54FF00053024A41
S2140070301A60FFF7D1FF00BF02020FF073B55E4B78
S21400704004461A781AB102221A7002B070BDCDE951
S21400705000220028F9D001261E7026F054FF574D56
S214007060574B186021F022FF2B785BB900F03AFCF2
S21400707040B954480823544A544900681DF0A6FFF6
S21400708000B92E70524B5A6E62619B6E514AA361D4
S2140070904FF40043936603F188435968E1614E4913
S2140070A09960196E2160596E6160D3F87011A16005
S2140070B0196CE160596C21614849086C1864496C88
S2140070C05964012151664FF4005191661A6E5604B8
S2140070D04BD54349CA68D407FCD45B6E5A0449D5DD
S2140070E0404AD36B13F0430FFBD13F4B1A68531C37
S2140070F046D04FF4001393403C4A136604233B4C9F
S21400710023664FF48063236626F03CFC01300ED0E5
S21400711026F038FC40F20113984208D04FF4804322
S21400712023664FF4004323661023C4F870311023FF
S2140071302E4C684623664FF4005323664FF0804378
S21400714023664FF4804301A9636626F003FC009B88
S2140071502366019B63662B78002B3FF476AF1A4BB1
S2140071601A6822665B6863666FE72149CA68D007BB
S214007170FCD4B2E71F4AD36B13F0430FFBD1B4E73E
S2140071801D4B1B78002BB9D14FF48072114B5A66F9
S2140071901A4A52681AB94FF40011144A11664FF48D
S2140071A000725A66164B5B68002BA7D14FF480021C
S2140071B00E4B1A66A2E700BFA1310020A2310020C4
S2140071C0DC130020200C0020E013002000710800D3
S2140071D0008000500090005055CEAC0000C0005417
S2140071E0000004400000024CF80B00200090004411
S2140071F0000004500000025CA031002000C00550D2
S21400720000000650F8B5284D04462F78012F02D00E
S21400721001232B70F8BD0028FCD026F0B3FB01300C
S214007220224E0AD026F0AEFB40F20113984204D05C
S2140072301F4A7766D368DF07FCD44FF400531D4916
S214007240B366CA6B12F04302FBD121681A4B19666B
S21400725061685966A168C3F87011E168196421690C
S2140072605964E169C80748BF9A60144B1A6801322E
S2140072700DD1134A127852B912494968C90748BF56
S2140072801A60114A5268D20744BF01221A60626926
S2140072900E4B5A66A2699A6621F010FE0C4B1868CF
S2140072A026F037FE0023B4E7A1310020009000400E
S2140072B0000004400000024C00800044F80B002050
S2140072C0A031002000C0055000000650008000508D
S2140072D0DC13002038B500239B6AB3F5C04F25D2D7
S2140072E01A68144B9A4221D1134D2B7813F0FD04E3
S2140072F002D00024204638BD1048FFF79FFE082124
S2140073004FF480330E4A0F48C2F88011C3601160F4
S2140073100D4A1361A36ADB69984704460748FFF7DE
S21400732071FF002CE6D101232B70E2E74FF4817445
S214007330E0E700BF07B0CD5EA0310020BC13002000
S21400734000E100E000A000440090004413B5204B8C
S2140073501B7803B9FEE700231E4CCDE900336A46CE
S21400736008231D4920681DF031FEF0B91B4AD2F8EB
S2140073704031D2F840211F2B4FF0010310D9203A9C
S2140073809340019A1A43019208236A4612492068DC
S2140073901DF0D2FD4FF00053114A1A60FFF71CFE95
S2140073A09340009A1A430092EEE70E4B9842F1D1B2
S2140073B00A4AD2F84031D2F840211F2B4FF0010381
S2140073C085BF203A93409340019398BF0093DBE734
S2140073D0A1310020200C002000710800008000442D
S2140073E00B020FF00BE000F00346054A0549106853
S2140073F003448B428CBF4FF0FF301360704700BFD2
S214007400FC0B0020008000202DE9F04F9A46564BDA
S21400741085B01B7806460F461546DDF83C909DF86D
S21400742044B0DDF85080002B00F09780072A00F269
S21400743096800E9B002B00F09280B9F1000F00F0B2
S2140074408E80129BB3F5006F00F38980012803D16C
S214007450109B002B00F08380444B03EB05131B7B33
S214007460002B7ED0424C10220021684633F09AFD55
S21400747004EB45141022A7BB3946204633F092FD94
S21400748043F210036380BBF1000F03D1E37843F0AF
S2140074900303E370364A0E9B02EB451CCCE90193CE
S2140074A0129B6901581E9DF84C30C0F30A0003F089
S2140074B003039B0643EA001E53582E48012E00EA9B
S2140074C003004EEA0003CDF800A0535017D0B8F1E1
S2140074D0000F2ED19CF8023068F304138CF80230AB
S2140074E027E00021204633F05DFD4FF444736380AF
S2140074F0BBF1000FCED1E37843F03003C9E7132386
S2140075000CF1100ECCF80C309CE80F008EE80F0043
S2140075106FF00301DCF81C20109B61F39F02012F23
S214007520CCF81C20CCF8143003D1CCF81890CCF84A
S214007530043000270D4A290102EB051342F80180AA
S214007540159A28465A60694622469F605E7301F087
S214007550AFFE384605B0BDE8F08F0748FAE70748A3
S214007560F8E70748F6E700BFA3310020E81400203C
S214007570E81300200F80FFF3028000F0018000F087
S214007580078000F038B5124B05461B78DBB1E0B13A
S21400759026F0B9FC0F4A00231146147B54B92B6021
S2140075A001251A0101EB03131D738C5026F0B1FC64
S2140075B0204638BD0133082B02F11002EDD126F02B
S2140075C0A8FC0548F5E70548F3E70548F1E700BFDE
S2140075D0A3310020E8140020048000F0028000F0B0
S2140075E0018000F0154B13B51868002301908DF844
S2140075F0043026F088FC124B1C7824B126F089FC57
S214007600104802B010BD01221A7026F082FC0E4B04
S21400761001A81C731C7783F82C4083F83C4083F841
S2140076204C4083F85C4083F86C4083F87C40082329
S2140076308DF8073001F00AFE2046E2E770BB030033
S214007640A3310020038000F0E81400200A4A08B5A1
S21400765012785AB107280BD8084A02EB00131B7B96
S21400766043B1002101F0E4FD002008BD0448FCE71A
S2140076700448FAE70448F8E7A3310020E81400209D
S214007680028000F0018000F0078000F00A4A08B58A
S21400769012785AB107280BD8084A02EB00131B7B56
S2140076A043B1012101F0C4FD002008BD0448FCE7F9
S2140076B00448FAE70448F8E7A3310020E81400205D
S2140076C0028000F0018000F0078000F00A4A08B54A
S2140076D0127852B107280AD8084A02EB00131B7B1F
S2140076E03BB101F031FE002008BD0548FCE7054827
S2140076F0FAE70548F8E700BFA3310020E8140020A9
S214007700028000F0018000F0078000F00C4B1B7830
S2140077107BB107280FD871B10A4B03EB00131B7B14
S2140077205BB1094BDB6AC34003F0010300200B701A
S214007730704706487047064870470648704700BFBF
S214007740A3310020E814002000000450028000F05E
S214007750018000F0078000F00B4A10B512780C4646
S21400776062B107280CD859B1084A02EB00131B7BFC
S21400777043B101F0FBFD2060002010BD0448FCE78B
S2140077800448FAE70448F8E7A3310020E81400208C
S214007790028000F0018000F0078000F0184B2DE911
S2140077A0F0411F6D5B6D1F4000D5FEE701260025EA
S2140077B0144CDFF85880374218D02368C8F8506059
S2140077C0A3B1A168284601316268A1609847637B2F
S2140077D0012B0BD150B90C4B03EB45131A7B60F30E
S2140077E041021A731A7F60F341021A770135082D99
S2140077F04FEA460604F11004DDD1BDE8F08100BF73
S21400780000000450E8140020E81300200020045074
S21400781070B5044601250B4E04B970BD94FAA4F069
S214007820B0FA80F005FA00F306EB001224EA03042F
S2140078305368002BF0D0117B11B191689847EBE7A5
S2140078409847E9E76815002008B5192001F022FAE4
S21400785028B14FF00072074BC3F880211A601A2037
S21400786001F018FA28B14FF08062024BC3F880216D
S2140078701A6008BD00E100E038B505460C4626F063
S21400788042FB0022044B03EB05135C601A73BDE851
S214007890384026F03EBB00BF68150020074BD3F8E3
S2140078A02404D3F8202403F50053104000F055308C
S2140078B020F05020C3F82004FFF7AABF00C00350F2
S2140078C0074BD3F82404D3F8202403F500531040C4
S2140078D000F0AA3020F0A020C3F82004FFF798BFDD
S2140078E000C00350024B1968024B18681DF04ABAD4
S2140078F0000C0020200C002070B59400224605469F
S2140079000E4634F0E9F8431C0AD058B922463146F0
S214007910284633F01DFB0028034808BF002070BD32
S2140079200248FCE70248FAE710E000F021E000F029
S21400793024E000F010B5044634F0D2F8431C10D012
S21400794088B901F0DBFD234620F00300204498426E
S21400795001D1002010BD53F8042B0132F7D00348A4
S214007960F8E70348F6E70348F4E700BF0EE000F048
S21400797021E000F024E000F008B526F0BDFA014B47
S214007980186008BD581E0020014B186826F0B8BACB
S214007990581E002038B141B1013AB2F5006F0448D4
S2140079A038BF00207047034870470148704700BF43
S2140079B0037000F0027000F0104930B50A78104BE2
S2140079C02AB9C3E90022C3E9022201220A700C493F
S2140079D000220C4654F8045B854208D00132042A83
S2140079E0F8D1002251F8044B1CB943F822000020BD
S2140079F030BD0132042AF5D10248F9E7A43100204F
S214007A005C1E0020027000F038B504460D4626F0D5
S214007A107AFAA3889BB223B92B6026F07AFA064836
S214007A2038BD142263889BB202FB034408342C60E2
S214007A3026F06FFA0020F3E70B7000F010B504464E
S214007A40FFF7D0FD002104F10800FFF79BFD01467B
S214007A5008B1044810BD04F10C00FFF793FD0028A0
S214007A60F8D0F6E70E7000F0F8B5044616460F4656
S214007A7026F049FAA388E2889BB29A42054605D8C2
S214007A800023336026F045FA1748F8BD14222388F1
S214007A9007F1100C9BB202FB03433A460833174625
S214007AA003CF6745186059603A4603F10803F6D1DC
S214007AB0142238681860238828469BB202FB0343CA
S214007AC0083333602388E2889BB20133B3FBF2F1BC
S214007AD002FB11339BB22380A38801339BB2A380A1
S214007AE026F017FA0020D0E70A7000F0002313B53E
S214007AF01D4A52F8044B94F8211081420ED00133EF
S214007B00042BF6D102B010BD0028FBD19DF807303B
S214007B10002BF7D0A068FFF799FDF3E794F835300F
S214007B20022BEFD1204626F04DF8637E2076022BFE
S214007B30E8D194F8323003F0FF02002BE2D1A068BF
S214007B400DF107018DF80720FFF7E0FD237E1BB13E
S214007B5094F83330002BD7D00023A06884F8333055
S214007B60FFF794FDCEE700BF5C1E002008B590F836
S214007B70363083B9042203685A619A699207FCD5A5
S214007B8041F21C62102103795B0103F1A04303F567
S214007B907033995008BD022BFCD10068036CDB07DC
S214007BA04CBF0521062126F0FEF90222014BC3F840
S214007BB0C020EFE700D4035013B591F836200B68C9
S214007BC0022A0CBF1B6C9B690C469B06084605D513
S214007BD026F04AF80223E36502B010BD25F0DBFF6D
S214007BE000230146CDE90033034A234604F13C0056
S214007BF026F035FFF0E700BFB97B0000012370B523
S214007C0080F8303090F8363004460E4686B0A3B979
S214007C1005682435204626F041F80D4B049403935E
S214007C2000230293736801930123009332682B4666
S214007C306169E06825F0F1FE07E0022B02D10568D5
S214007C403435E7E7002380F8303006B070BD00BF5B
S214007C50B581000001232DE9F04180F8313090F81D
S214007C60363004460E4688B063BB256826F04BF9CE
S214007C7004F13C0807460DF11F0140463C3504F070
S214007C80AFF940B99DF81F302BB1404604F078F9A3
S214007C90204625F0E9FF3846012726F03AF9204627
S214007CA0E76525F0FBFF0B4B049403930023029338
S214007CB073682A46CDE9007333682169A06825F009
S214007CC092FE04E0022BD0D0002380F8313008B0BA
S214007CD0BDE8F081D97C00002DE9FF41D06A03A9F8
S214007CE01446FFF791FE0646204625F054FF002571
S214007CF001462346CDE90055184A04F13C0026F01B
S214007D00AEFE174B9E4221D0039E3561B56026F02D
S214007D10FAF8D6F80C800746B8F1000F04D0D6E97A
S214007D20002329462046C047E06A03A925F0CFFF76
S214007D30E06A83889BB26BB103A9FFF765FE204615
S214007D400399FFF787FF384626F0E3F8012004B0D2
S214007D50BDE8F08184F83130F5E700BFB97B00005C
S214007D600B7000F02DE9F04104461746FFF712FEAF
S214007D7088460646E8B9152000F09AFF0546E26AEE
S214007D8093889BB213B194F83230ABB194F8363086
S214007D90BBB923689D6915F0020527D0012384F836
S214007DA034304744B84520683ED183699B06FCD5ED
S214007DB045B33046BDE8F081002DE1D0FFF7EEFC7C
S214007DC0DDE7022B12D123681D6C15F002050DD0DD
S214007DD0012384F834304744474520682BD142F2CB
S214007DE02002036C32EA0303FBD1E1E72046FFF7EB
S214007DF0BDFE012394F8365084F83430002DD0D0E0
S214007E00022D16D094F83630D3B1022BD1D120688B
S214007E10016C11F0010118BF092126F0C4F80222F6
S214007E200E4BC3F8C020C4E718F8011B26F0FCF878
S214007E30B8E70025CFE718F8011B26F0B9F8CBE71E
S214007E4042F21C62102123795B0103F1A04303F583
S214007E5070339950082223685A61AAE700E4035059
S214007E6010B5044680B190F832302BB925F0AAFE42
S214007E7010B9A068FFF7EAFB002094F8323001330F
S214007E80DBB284F8323010BD0048FCE7027000F028
S214007E9010B50446A0B190F832309BB190F832305D
S214007EA0012B05D125F08EFE10B9A068FFF7EEFB7A
S214007EB0002094F83230013BDBB284F8323010BD3B
S214007EC00148FCE70148FAE7027000F0057000F090
S214007ED037B590F835500446022D1DD1012290F892
S214007EE02230457E817F9A403020164B3DB900FBFC
S214007EF0013342F210015A50002003B030BD012D6C
S214007F0004D100FB013341F21001F4E7247E00FBAC
S214007F100133002CF7D1ECE7012DEDD1037E73B9C8
S214007F2011238DF80730FFF79BFF2A4620460DF1F8
S214007F300701FFF717FF2046FFF7AAFFDCE713232A
S214007F40EFE700BF00C003502DE9F0410446744F30
S214007F5088B001AE0D460FCF0FC697E8070086E83B
S214007F600700002C00F0D98025B96E4E304608B0C8
S214007F70BDE8F08160220021204633F013F8204649
S214007F80FFF71AFD06460028F0D12B7D84F8353021
S214007F902B6884F8360023602A7B22710122E26572
S214007FA0614A934200F0A38002F580429342DCD1FE
S214007FB029214FF4A0235D4A0026C4E90423D5E90D
S214007FC007236162A26216805680968084F830602D
S214007FD0E3621E805E809E806B6884F83160039347
S214007FE0EB8984F83360ADF814302B8A0121ADF8A4
S214007FF01230AB7C3A208DF81030EB7CDFF83C81F9
S2140080008DF8163005238DF8113000F04DFB012158
S214008010606A00F049FB286801A98DF8046001F049
S214008020FDFA14222B7B08EB4313C3F81C262E7A8A
S214008030A87A46EA0042C3F83426697AEA7A41EA20
S2140080400247C3F82C76E676E077217784F820207E
S2140080506B7D01216377AB7D204684F82130EB7D74
S214008060A3772B7E84F8223025F026FD06460028CE
S2140080707FF47CAF25F047FF2B7D0746032B3BD1D3
S21400808041F21C6202212B7B08EB431848F80210D1
S21400809004212A685B0102F58052D165297EEA7DBB
S2140080A003F1A04342EA014203F57433C3F82826DD
S2140080B0A97D6A7D42EA0142C3F824264FF0FF32CA
S2140080C0286800F500539A642B7D032B0CBF05210E
S2140080D0042125F09AFF4FF440622B6820465A612F
S2140080E0FFF7ACFC0646384625F013FF3EE728218E
S2140080F04FF480230E4A5FE7022BDFD194F821006D
S2140081000C49FFF7B9FBFFF79FFB4FF400732046BF
S2140081102383A676FFF7DCFED0E7074E26E700BFF0
S21400812098BB0300037000F000C005500200050075
S21400813002000400ED7A0000027000F000C0035058
S21400814090F83530032B05D00229417618BF01760A
S214008150FFF7BEBE00487047057000F0F0B587B068
S21400816005461646FFF716FC0446F0B90493104B76
S214008170CDE901166A46A86A01A903960593FFF79A
S21400818073FC044688B995F8303073B9284625F054
S2140081904CFD28460099FFF731FD95F83530032B46
S2140081A003D028462C76FFF793FE204607B0F0BD96
S2140081B0017000F0F7B5906A01A91446FFF724FC99
S2140081C00546204625F050FD384B9D4230D094F8A9
S2140081D03610019D002939D123689A6C12F400727A
S2140081E029D0334AA9602A614FF4007203F5005380
S2140081F09A6425F088FEEF68064637B16A68AB6871
S2140082002046D31A29692A68B847A06A01A925F02A
S2140082105EFDA06A8588ADB2002D37D001A9FFF7B4
S214008220F3FB20460199FFF7E9FC304625F071FE86
S214008230012003B0F0BD996CC80523D51D49AA607E
S21400824029614FF4807203F50053D1E7022919D152
S21400825023685A6C12F4007209D0154A03F50053CD
S2140082602A610022AA604FF400725A64C1E7596C72
S214008270C90507D50F49AA6029614FF4807203F536
S2140082800053F2E700232B61AB60B2E701232046E0
S2140082902376FFF71DFE94F8353084F83050032B14
S2140082A0C3D0204625F0A5FCBFE700BF0B7000F04A
S2140082B00D7000F00C7000F0F0B587B0044616465E
S2140082C0FFF768FB054658BB0493194BCDE901162A
S2140082D0059394F8363003962BBB23689B6903F00E
S2140082E0020313B92046FFF741FC6A46E06A01A97B
S2140082F0FFF7BAFB054698B994F8313083B925F0F4
S21400830002FEE36A06469B889BB233B1204600997C
S214008310FFF7A0FC012384F83430304625F0F9FD41
S214008320284607B0F0BD022BDCD123681B6CD6E7CD
S214008330017000F00B4B10B51B7883B100230120B1
S214008340094951F8042B32B192F85C40022C02BF66
S2140083500120D06520460133042BF2D110BD012048
S214008360FCE700BFA43100205C1E0020044BD3F8BD
S2140083708420D206FBD4D3F88400C0F38110704763
S2140083800040005038B5104B0546D3F820310C4657
S21400839003F00303022B0BD0032B0DD0012B0FD1C0
S2140083A0FEF7C4FD052305B1286004B1236038BD7F
S2140083B0FEF7F2FD0323F6E7FEF704FE0223F2E7DC
S2140083C001230020EFE700BF0080005073B50D4684
S2140083D000210E4B0191D3F88041064604F00304B9
S2140083E0012C09D0022C0CD00C460EB1019B336038
S2140083F005B12C6002B070BD01A8FFF7C3FF0F24C3
S214008400F3E7FEF7DFFD0190EFE700BF00800050C6
S21400841038B5184B0546D3F824010C4600F0070083
S214008420062823D8DFE800F0040A121A1E0E1600EB
S214008430012305B1286004B1236038BDFEF776FD40
S2140084400523F6E7FEF772FD0623F2E7FEF7A4FD26
S2140084500323EEE7FEF7A0FD0423EAE7FEF7B2FDEE
S2140084600223E6E725F06EFA0723E2E70023184624
S214008470DFE700BF0080005038B5104B0546D3F844
S21400848040310C4603F00303022B0BD0032B0DD018
S214008490012B0FD125F058FA092305B1286004B145
S2140084A0236038BDFEF792FD0823F6E725F04FFA65
S2140084B00B23F2E701230020EFE700BF0080005007
S2140084C038B5144B0546D3F800020C4600F00700FA
S2140084D004281BD8DFE800F003090D11150001235E
S2140084E005B1286004B1236038BD25F02DFA0923B4
S2140084F0F6E7FEF76BFD0823F2E725F028FA0B23D4
S214008500EEE7FEF733FD0E23800AE9E70023184660
S214008510E6E700BF0080005038B5104B0546D3F89C
S21400852040320C4603F00303022B0BD0032B0DD076
S214008530012B0FD125F008FA092305B1286004B1F4
S214008540236038BDFEF742FD0823F6E725F0FFF965
S2140085500B23F2E700231846EFE700BF0080005029
S21400856038B5104B0546D3F860310C4603F00303CC
S214008570022B0BD0032B0DD0012B0FD125F0E4F9E5
S214008580092305B1286004B1236038BDFEF71EFD3F
S2140085900823F6E725F0DBF90B23F2E7012300209A
S2140085A0EFE700BF0080005010B40D4C0B46D4F827
S2140085B0204204F00304012C0AD0022C0CD008B18F
S2140085C0002101600BB100221A605DF8044B704771
S2140085D05DF8044BFFF7D6BE5DF8044BFFF74CBFC3
S2140085E00080005038B50C46054625F085FC054B46
S2140085F09A6A54402C4054409C62BDE8384025F0AE
S2140086007FBC00BF00C00050B0F5207F1FD009D847
S214008610B0F5007F15D003D868B1B0F5C07F0AD09A
S21400862000200CE0B0F5607FFAD10B4BD3F8800049
S214008630C0F3011003E0084B186FC0F3033001309D
S2140086407047054BD3F89000C0F30460F7E7024B81
S214008650186FC0F38020F2E7008000504FF400321D
S2140086600E4B014610B500209A66FFF7CDFF484333
S21400867041F671320A490B4B884294BF0020012014
S214008680DC69DA639A6822F4401242EA00529A6081
S214008690E20344BF0022DA6310BD00BF0090005022
S2140086A0005A620200000350420910B50FD0012A9A
S2140086B00FD00A4B0A4C022A18BF234600F01F00B0
S2140086C049B103F58053012282401A6010BD13465B
S2140086D0F4E7044BF2E703F50053F4E76880005034
S2140086E0608200506480005008B5802025F026FB8C
S2140086F0034B98429EBF4FF48032024B1A6708BD68
S214008700005A620200A000501FB50023B0F5807F1B
S214008710019377D028D8382800F094800BD82438D6
S214008720092810D809280ED8DFE800F067676767C1
S2140087300D0D620D377D52285FD008D83D283BD0FE
S2140087403E2800F08480019805B05DF804FB802880
S214008750F9D1414B1B6F03F00703013B032BF2D803
S214008760DFE803F044413F6CB0F5D06F5BD019D81A
S214008770B0F5A06F66D00AD8B0F5806F3DD0B0F5E2
S214008780906FE0D1002001A9FFF742FEDBE7B0F5CD
S214008790B06F2DD0B0F5C06FD5D1002001A9FFF77E
S2140087A06BFED0E7B0F5006FECD00AD8B0F5E06FFE
S2140087B04DD0B0F5F06FC6D1002001A9FFF7D0FE6E
S2140087C0C1E7B0F5086FBED1234BD3F8003103F0F4
S2140087D00303022B2CD0032B2ED0012B30D1FEF717
S2140087E0DBFB032300E005230193ACE70223FBE752
S2140087F0002001A9FFF7EAFDA5E7002001A9FFF781
S214008800C1FDA0E702934FF0E0231B695B0705D587
S214008810FEF7ACFB0C230393039BE5E703A902A832
S214008820FFF72AFEF8E7002001A9FFF749FE8AE7CE
S214008830FEF7CCFB0823D7E725F084F80723D3E719
S2140088400123D1E7002001A9FFF7AEFE7BE7002059
S21400885001A9FFF761FE76E7008000504FF4002282
S214008860034B5A66012203F580439A62704700BFA5
S2140088700090005008B5FFF747FF082811D00938C8
S214008880012802D94FF6FF7008BD4FF40012064BC0
S2140088905A6603F5D8335B6ADB07F3D54FF4FA70F4
S2140088A0F2E7024B1888EFE700900050A20D002078
S2140088B0F8B504468020FFF727FF032800F08780DE
S2140088C04FF40022424B02215A6645F60E03414AF7
S2140088D0C2F88030404B9962012103F580539962BB
S2140088E0936DD903FCD4D4E900131B0543EA016356
S2140088F0E17B94F820500B43217BE77E43EA01435B
S214008900617B6D0143EA0133A17B43EA8113136166
S2140089109169D4E904031B0643EA806301F0004131
S2140089200B43A17E94F823000B43217E43EA0143C8
S214008930617E43EA01239361136AE66923F00D031F
S21400894094F8221043EA8703002E2DD11362966A0C
S21400895094F8213045EA031326F033052B4343F001
S214008960010393621D4D1B4B9A6D35EA0202FBD143
S2140089700222194DAA621A659A6D5200FCD41A6931
S214008980A56822F4700242EA05521A614FF00042CE
S214008990114B9A6119B9022203F580539A6278B98D
S2140089A001220F4B9A620BE0334343F00803136235
S2140089B0936A23F0330303432B4343EA4103936252
S2140089C094F824301BB1034B064AC3F88020F8BD48
S2140089D00090005000C0005000D00050030001403E
S2140089E000E00050F1A7FFFF1E4BFF2870B59E6AFF
S2140089F035D89A6D12F4803F18BF01211A4A18BF65
S214008A009162022191629B6DDC0303D5154A936D3A
S214008A109907FCD50222144B124D1A65AC6D14F062
S214008A208044FBD1114AAB6992F9002023F47F03FE
S214008A30024423F47F4382F3080243EA002343EA16
S214008A400243AB6131460220FFF7CCFDAB6DDB0382
S214008A5003D531460120FFF7C5FD204670BD212411
S214008A60FBE700BF00C0005000D00050A53100203A
S214008A70014B93F900007047A531002001221548EC
S214008A80154B816A9A62826D02F00302032AFAD1BC
S214008A9002229A621A650F4A936D5B00FCD40F4857
S214008AA0936D30EA0303FBD101220B4B1A65A3F545
S214008AB080539A6D9007FCD49A6D9207FCD50222DB
S214008AC0054B1A65034A936D9B07FCD50320FFF7F9
S214008AD089BD00BF00C0005000D000500300010058
S214008AE0014B1880704700BFA00D00204FF4001205
S214008AF008B5184B5A660223174A5360936813F456
S214008B008033FBD1012822D1FEF746FA134B984258
S214008B1015D003F5122303F5F863984213D0104BD3
S214008B2000EB8002400AB3FBF0F3520A0A49CA621D
S214008B300B6301234B620022074B5A6008BD45F6C3
S214008B407A13084AF2E745F61A03074AEEE7536235
S214008B50F1E700BF009000500040025000F04902CC
S214008B6064666666D8B80500BBCF0500B0F5207F02
S214008B7010B50C4642D008D8B0F5007F33D003D8E5
S214008B8088B1B0F5C07F0ED010BDB0F5607FFBD1C8
S214008B901F4A4C1ED2F8803023F0300343EA0413F9
S214008BA0C2F88030F0E725F0C1F825F08BF94FF4D5
S214008BB08031184B164A1967136F013C23F4704333
S214008BC043EA04331367FEF7D1F90446FFF7CEFBFA
S214008BD0C0F10201204625F06FF900F02DF8BDE83F
S214008BE01040FFF781BD0A4A4C1ED2F8903023F0A1
S214008BF0F85343EA0463C2F89030C5E7044A4C1EB3
S214008C00136F23F4806343EA84231367BCE700BF33
S214008C10008000500090005008B50121022000F0AE
S214008C2031F925F083F825F04DF94FF48032014BE9
S214008C301A6708BD0090005008B54FF4C07025F0C4
S214008C407DF8BDE808400449884294BF012102210E
S214008C504FF42070FFF78ABF80F0FA020028ABBFFF
S214008C6000F16040054B00F5614000F00F00ACBF1E
S214008C7090F80003185C0009704700BF14ED00E090
S214008C80034B5868C0F30800003818BF012070472F
S214008C9000ED00E0054B420953F8223000F01F00BB
S214008CA023FA00F0C04300F00100704700E100E046
S214008CB0014608B5EFF31083DB0702D50122104604
S214008CC008BDFFF7E7FF02460028F7D10846FFF782
S214008CD0C5FF0146EFF3118313B1B0EB131FEDD2BE
S214008CE0074B5B68C3F30803002BE8D0103B58B271
S214008CF0FFF7B4FF88428CBF00220122DFE700BFE7
S214008D0000ED00E010B5224B70B94FF40031214A57
S214008D101860516602F598325268012A03D11E4A3D
S214008D20D2F800211A6010BD1B68002BFBD01B4A2E
S214008D305268012AF7D0184A8020C2F80031FFF79F
S214008D40E3FC05281FD14FF4C070FFF75DFC012837
S214008D50044604D102214FF4C070FFF707FF072234
S214008D600F4B1A610122A3F580535A600B4A136910
S214008D70DB07FCD5012CD6D12146BDE810404FF4C8
S214008D80C070FFF7F3BE0122064B5A60CBE700BF68
S214008D906C1E0020009000500080005000C0015063
S214008DA000E0015000D00150044A4178536F23F48C
S214008DB0407343EA01235367704700BF00400050EA
S214008DC010B5044610B10020FFF79CFF104A136947
S214008DD043F00403136102F0A5FE25F09DF80D4B49
S214008DE00D4AC3F8202425F087F832F07DFE25F0E2
S214008DF087F825F092F802F0BDFE1CB9BDE81040D9
S214008E00FEF7B4B80120BDE81040FFF77BBF00BFF7
S214008E1000ED00E000E003500000FF0F10B5044630
S214008E2010B10020FFF76EFF0E4A136943F00403EB
S214008E3013610D4B0D4AC3F8202402F073FE25F093
S214008E405BF832F051FE25F05BF802F093FE1CB999
S214008E50BDE81040FEF78AB80120BDE81040FFF7D5
S214008E6051BF00BF00ED00E000E003500000FF0F20
S214008E70034A0179D36E23F030030B43D366704761
S214008E8000400050F8B504461C4BD3F88420D106A9
S214008E90FBD4D3F88430C3F381139C422CD0FEF766
S214008EA04BF8012C064602D1214625F005F825F0A0
S214008EB023F84FF00072124B07465A66204625F0FC
S214008EC033F84FF480630D4D621E93402B676B6E34
S214008ED09A0103D4D5F884309B060AD5384625F087
S214008EE00FF8022C08D13046BDE8F840002124F0E7
S214008EF0E3BFD5F88430EAE7F8BD00BF0040005075
S214008F000060005010B50C4608B9FEF715F8074B80
S214008F1021461B783BB1064B984204D80120BDE899
S214008F201040FFF7AFBF0220F9E700BFA6310020D0
S214008F30005A62020278034B012100201A70FFF7E4
S214008F40E1BF00BFA63100204FF0004238B5264BE7
S214008F5026495A6601224A604AF6CD3103F50B23AC
S214008F605D6C1964154030BB9968C9070BD40024A2
S214008F7001221F4B5A6015B11E4B1F4A1A6431F06E
S214008F801DFA204638BD1A498A601C4AD96ACC07A1
S214008F9005D4904201D10724EAE70130F6E7904273
S214008FA0E5D1F8E70132DC6A14F0080406D08A42FC
S214008FB0F8D10724DFE700221049F4E78A42F8D008
S214008FC020220B4B0B495A620122A3F580539A606C
S214008FD023460A4A486A800603D49342E9D00133FE
S214008FE0F8E79342C7D1E4E70090005000500950DC
S214008FF000600950004009503254FFFF40420F0005
S2140090004FF0004238B5174B174C5A66012203F54D
S2140090100C235A604AF6CD33656C2364437893403C
S2140090201343124AD363C3788178A2689B0043EA4D
S214009030011322F074021343A3600279837943EA92
S214009040022323614279C37943EA022363610078ED
S214009050FFF77AFFEB0744BF054B236431F0AEF908
S214009060012038BD009000500040095000400050DC
S2140090703254FFFFF8B504461E481F4E84420CBF0C
S2140090803820002024F05AFEA36AA4681E4004F08C
S214009090E004402C0DD004D824B3202C25D000208A
S2140090A01FE0602C23D0802CF9D14FF4807500246B
S2140090B019E080250024032306F580765E4300230E
S2140090C03246194623F01EFB544300FB05F705FB0A
S2140090D00344A2FB050100233246214423F012FB81
S2140090E03844F8BD10250123E6E72546DFE740258E
S2140090F0DDE700BF0000035AF8FF7F00072A2DE9CE
S214009100F041154698464FF0030401F003072DD8AA
S2140091109600B44000FA06F221461C4824F04DFFA3
S21400912021461B4807FA06F224F047FF194B1A4956
S2140091309DF81800B8F1000F18BF1946012303FA6E
S21400914005F50D60154B1649002818BF0B461D6027
S214009150144B9DF81C00C3F82054103103F224432E
S214009160002818BF0B461D60BDE8F081A2F1080676
S214009170B600B44000FA06F221460B4824F01DFF64
S21400918021460A4807FA06F2CEE700BF00C403509D
S21400919008C4035010D4035010E4035014E40350E2
S2140091A014D4035000E0035004C403500CC403500E
S2140091B0F8B504460D461F4616464AB101238B40B5
S2140091C03021184A01FB0022F7B141F2100153503A
S2140091D004EB4403072D4FF00F014FEA031316D894
S2140091E0A80006FA00F281400F48184424F0E5FE75
S2140091F04EB9012330210B4AAB4001FB042277B164
S21400920041F210015350F8BD42F21001DFE7A5F11C
S2140092100800800006FA00F281400448E5E742F2C2
S2140092201001EFE700C0035004C003500CC0035009
S214009230044A054B002908BF1346012282401A60E3
S214009240704700BF401004504020045010B5012164
S21400925004462020FFF728FA01212120FFF724FAF0
S2140092600122114B5A60227812069A606178A27821
S21400927042EA01429A61FF229A6200229A631A64C5
S2140092804FF000425A654FF0FF324FF4001103F5DD
S21400929000531A65054AC2F88011E3781B01DBB259
S2140092A082F81533116010BD0000045000E100E0A4
S2140092B0F8B50125C3B2DFF888C0D1F800E09D40BC
S2140092C08F7ACB7A0C46097BCCF850500CF5005CB4
S2140092D04CF820E04FF0300E184E1B050EFB0060D9
S2140092E094F80DC043EA074343EA415322F00302D1
S2140092F0C0F860C0C365026724F005FE736D2B439B
S2140093007365237A13B1336C2B433364637A13B1DA
S214009310B36B2B43B3632279A37943EA0243084A2B
S21400932093616179E37943EA014306498B61034B14
S21400933055639D64BDE8F84024F0EBBD0000045082
S214009340002004500010045010B50124C0B2844020
S21400935024F0D9FD044B5A6D22EA04025A659C6239
S214009360BDE8104024F0D5BD00000450F8B5012536
S214009370C3B204469D4024F0C6FD3022094B1E6D44
S2140093805F6B02FB04335C6E24F0C3FD3D4206D1E6
S214009390C4F30A1008B9354200D10130F8BD0020E8
S2140093A0FCE700BF000004504FF40032054B9A66FD
S2140093B041F6713203F51C33DA63012203F50053DC
S2140093C0DA6070470090005041F671320121064B7A
S2140093D0DA6303F50052D1600022DA634FF40032FC
S2140093E0A3F518339A66704700000350CB784A7886
S2140093F010B55B010C7843EA82030A79234343EAFB
S21400940002130C22424302F1B0421363012C02BF46
S2140094108A78024B43F8202010BD00BFE880035036
S21400942008B54FF0B0435A686AB958B15B680BB1DB
S21400943024F0D2FD01210D4B596024F0CDFD4FF0F4
S214009440B043D96008BD5B680BB124F0C5FD0028A9
S214009450F0D124F0C1FD4FF0B0430222DA6024F0D0
S214009460BBFD0122024B5A60ECE700BF001000581B
S214009470002000584FF0B0414B6810B50BB124F0F7
S214009480ABFD01220B4BC4785A608378934043EAC5
S214009490840344782343047943EA0413447943EA73
S2140094A0C4038B60044B5A600378C3F10203CB609D
S2140094B010BD00BF00200058001000584FF4803246
S2140094C0064B5A6603F5E6235B69C3F38512827082
S2140094D003F03F021B0B4270037070470090005071
S2140094E0014B986CD96C70470080E00F024B1868EF
S2140094F0C0F30740704700BF0080E00F0120034B19
S2140095009B680A3303F01F03984070470080E00F03
S21400951070B5054616461C4621B94FF4207024F057
S2140095200DFC0146402C1BD003D8DCB1202C1BD0F0
S21400953070BD602CFCD1042303FB06F2530803EB3A
S2140095404113B3FBF2F3094A203B02EAC303AA68BD
S21400955022F06002AA60AA681443AC60EB61E7E7F9
S2140095600623E9E71023E7E70823E5E7F8FF7F008F
S214009570F8B5154E1C4615460E40FAB9202B05D0F8
S214009580402B1ED0002B0CBF10244024012306F5D0
S21400959080765E4300233246194623F0B3F802FB7A
S2140095A005F100FB04F704FB0311A2FB04040023EF
S2140095B03246214423F0A6F83844F8BD802400251E
S2140095C0E4E780240323E2E7F8FF7F00012200F5AA
S2140095D080535A6040F6AA6341F2050243610023B5
S2140095E00B498360C365C26000F500520361C36126
S2140095F0C364916407498365884203D103650023E9
S214009600436502E004498842F8D00123536070475E
S214009610FFFF010000C005500000065070B50D4663
S214009620FFF7D4FF012300F580567360AB7C044639
S2140096301BB1836843F080438360EB7C5BB1354AA3
S2140096402B7D944245D1A2F51032C2F88C31E36DE1
S21400965043F08003E3652A8A6B7B20461343EA893E
S2140096601343E3602B7BD5E90112FFF751FF6B7DB7
S2140096701BB1A36843F48033A360AB7D1BB1A36822
S21400968043F40043A360EB7D2A7E1B07120502F419
S214009690E00203F0E0431343A365697E1D4A8B1E78
S2140096A0012B1D4B1FD894421BD002F580429442DA
S2140096B00CBF01224FF0FF3203EB4213022041F2AF
S2140096C01C620329985020D10423F3652B7863612C
S2140096D070BD124A944204BFA2F52032C2F89C31F3
S2140096E0B5E70022E8E794420DD00C4A94420CBF3E
S2140096F001224FF0FF3203EB4213022042F21C62BB
S21400970001299850DFE70022F5E7042204F500530C
S214009710DA65DBE700C0055000C0035000000650C5
S21400972038B50446054D30F027FF0FCC0FC594E83A
S214009730030085E80300002038BD00BF701E00202F
S21400974047F6FF739A42F0B56FD002296FD8394BAF
S2140097505B5C012B6BD8384DDF0005EBC30415F8B6
S2140097603330A178012B13D10025E078401AA842A7
S21400977002D80844C0B2F0BD431B6668A0EB530392
S21400978036F913609642D4BF1D4603F1FF30EEE76C
S21400979060680028EFD0B0F90040944204DBB0F9CE
S2140097A002409442B8BF144683883D44FF2B19BF3D
S2140097B0C8224FF0280CB0F90620B0F908C0A2EB7A
S2140097C004030CBF0126002693FBFCF333446E789B
S2140097D01BB29E4201DD002B01DA731E1BB24FF452
S2140097E07A7C01339BB2071D5D1E2DB24FEAC50E73
S2140097F000EBC505EA88AD689E4214FB025222EAD9
S214009800E27202F15C02B2FBFCF204DD37F8335080
S21400981001339542E8D200EB0E039888904228BFA9
S2140098201046884238BF0846A4E7FF20A3E700207A
S214009830A1E700BFD4BB0300701E00200229F0B5CC
S21400984055D82C4B585C012851D82B4C04EBC00142
S21400985014F830004B6801280FD1C8788C789042F5
S21400986094BFC4EB0001C4EB0201001BCAB28242E3
S214009870C8BF002233F91200F0BD002B37D088781D
S214009880904202D3B3F90200F6E7CC78B3F90000B1
S2140098909442F1D94C789988013CA1F1FF067142B7
S2140098A003F10405E4B2714103F10C07CEB2B442F1
S2140098B016D805EBC1014FF47A756A43B1F9024038
S2140098C04968521A04EBD47102EB610292FBF4F27F
S2140098D09042D1DBB3F902009042CDDC10B2CBE768
S2140098E037F831C04E1C9445E3D33146DEE70348D3
S2140098F0C2E700BFD4BB0300701E00200080FFFF3D
S21400990008B50448FFF70CFFBDE80840012030F01A
S21400991039BE00BFD8BB030000487047A40D002026
S2140099201B0603F0706300F00F000902034301F406
S2140099307061120402F470220B431343014A136051
S214009940704700BF0020025C60B5054619B10139BA
S214009950B1F5806F0FD2094EF06810F48030FBD15D
S21400996043EA012312072B4302F08052134343F0CD
S2140099700043736060BD0120FCE700BF0020025C6E
S2140099800122054B9A60DA68D203FCD4D86820F02E
S2140099900F000004000C70470020025C014B1868A2
S2140099A0704700BF0040025C014B5868704700BF1C
S2140099B00010025C014B186B704700BF0010025C81
S2140099C0014B1868704700BF0010025C014B98609E
S2140099D0704700BF0010025C014B1864704700BF60
S2140099E00010025C014B5864704700BF0010025C18
S2140099F0014B5863704700BF0010025C0022014B09
S214009A001A6070470010025C024A136843F00103B4
S214009A10136070470010025C024A136823F00103CB
S214009A20136070470010025C43F20402014B1A6098
S214009A30704700BF0010025C024A136843F0300310
S214009A40136070470010025C044B1A6842F4807280
S214009A501A601A6822F480721A6070470010025C5E
S214009A60024A136843F48063136070470010025C78
S214009A70034A136823F4702343EA004313607047D5
S214009A800010025C044B1A6902605A6942609A69C7
S214009A908260DB69C36070470010025C0268044B9A
S214009AA01A6142685A6182689A61C268DA617047D0
S214009AB00010025C024B1A6BD207FCD41862704787
S214009AC00010025C0322024B186019615A6370474B
S214009AD00000025C82B01FB507930A9B04AC8B4261
S214009AE028BF0B4604E907001048D100079948BF75
S214009AF003330160099948BF23F0030323F0704342
S214009B0001F0E041194341F000518160002102F06C
S214009B10E042019C1A4342F00052C1600461826137
S214009B20416304B0BDE8104002B070470000025C1C
S214009B303F22034B1A631022DA6103229A637047AE
S214009B400000025C024AD36B9B07FCD4704700BF40
S214009B500000025C044B9B6A13F0240F14BF012024
S214009B6000208000704700BF0000025C08B5FFF7C9
S214009B70F1FF064BDB6B23F47F4323F0EF03034335
S214009B801EBF0122024BC3F8FC2F08BD0000025C7A
S214009B9000F0FF3F4368182B0AD0202B1DD0102B57
S214009BA02BD1174BD3F80434DB010AD401207047BD
S214009BB0134BD3F804349A01F8D50B6843F0080326
S214009BC00B6003680F4A934210D10B6843F04003C2
S214009BD00B600023436000207047094BD3F8043421
S214009BE05B01E3D50B6843F00403E9E7064A9342BA
S214009BF0F1D10B6843F08003EAE70720704700BF07
S214009C000000025CA8310020A73100200B4607B5F3
S214009C100749D1F80414C90708D500210092024666
S214009C20084600F05BF803B05DF804FB0120FAE795
S214009C300000025C1346064AD2F80424D20504D576
S214009C400A460146002024F0F6BB0120704700BFFC
S214009C500000025C13B5084CD4F80444E40508D5AB
S214009C60009313460A460146002000F061F802B051
S214009C7010BD0120FBE700BF0000025C13B5084CD6
S214009C80D4F80444E40508D5009313460A46014672
S214009C90002000F071F802B010BD0120FBE700BF05
S214009CA00000025C70B504460D4616468CB00A4AA3
S214009CB009AB07CA83E807001A462146CDE90563C3
S214009CC0CDE90333CDE9013300954FF4803024F01D
S214009CD0DEFA0CB070BD00BF5CBC0300F0B51C46DD
S214009CE05B6815468DB01A07129E1AD1CBB1726802
S214009CF0934216D10C4B0D4A53F8217009AB07CA94
S214009D0083E807001A462946CDE90533CDE9033333
S214009D10CDE90163009447F4807024F0B8FA0DB0E2
S214009D20F0BD0720FBE700BF68BC03005CBC030077
S214009D30F0B516465A688DB0102A0D46129F15D1FA
S214009D407A68102A12D10A4A09AC07CA84E80700C2
S214009D5022462946CDE90547CDE90344CDE901442D
S214009D600448009624F093FA0DB0F0BD0720FBE7F8
S214009D705CBC030030000100F0B516465A688DB092
S214009D80102A0D46129F15D17A68102A12D10A4A57
S214009D9009AC07CA84E8070022462946CDE90574BF
S214009DA0CDE90344CDE901440448009624F06FFA57
S214009DB00DB0F0BD0720FBE75CBC030010000100FF
S214009DC082B070B586B0149D03AE202D86E80700DD
S214009DD00B9359D805EB85038B4203D006236B43C0
S214009DE08B4253D10C9BAB4250D10F9BB3EB450F2C
S214009DF04CD1129A934249D1012229462220159B22
S214009E00FFF7A2FD044630BB034606220E210C20B7
S214009E10FFF786FD0123CDE900332B4696E80700C1
S214009E2024F0C8F90E230BAA009307CA2B4624F089
S214009E300CF90C23164C00930EAA2B4607CA24F0E6
S214009E4034F9636823F07F0343F026036360FFF76B
S214009E5097FD30B10624204606B0BDE8704002B03B
S214009E607047636823F07F0343F022036360FFF7C5
S214009E7087FD04460028EDD1062311AA009307CAE1
S214009E802B4624F045F9E6E70124E4E70724E2E759
S214009E900020025C70B598B0002843D02C4C08AD6A
S214009EA00FCC0FC50FCC0FC50FCC0FC594E80F0015
S214009EB085E80F006D4604AE04F1100320340FCB86
S214009EC085E80F0094E80F0086E80F00FFF7BCFD5A
S214009ED00420FFF7CDFDFFF7A7FD3046FFF7DEFDB8
S214009EE0002408AE56F8040B0134FFF7E3FD102CEF
S214009EF0F8D1FFF759FD0328FBD90024FFF77EFDB4
S214009F002646FFF74BFD55F8043B01365840042E15
S214009F1044EA0004F5D12CB1012206200D4B1A703C
S214009F2018B070BDFFF790FD0820FFF74FFD00202A
S214009F30FFF752FD0720FFF755FD4FF40070FFF7BF
S214009F4057FD0820FFF794FDFFF75EFD0020E7E7CA
S214009F5044BD0300AA31002008B5FFF775FD0122B5
S214009F60014B1A7008BD00BFA93100201FB524F0B0
S214009F70E1FB044630B1012206240D4B1A70204640
S214009F8004B010BDFFF70AFD0090FFF707FD019033
S214009F90FFF704FD0290FFF701FD03906846FFF708
S214009FA07DFDFFF7D9FFFFF747FDFFF759FDE6E711
S214009FB0AA31002006289ABF014B185C0020704783
S214009FC0A4BD030030B5154B87B00293144B039025
S214009FD0049346F611030D46059300F077F914280E
S214009FE0044616D1684624F04FFC4FF0A8430322DF
S214009FF002A95A6319601D619A63DA6B9207FCD155
S21400A000142C02D1684624F04DFC00F093F9044667
S21400A01001E00028E9D0204607B030BD881E0020A9
S21400A020040000202DE9F04FB1B005468C469E4650
S21400A030E8466F4EDDF8EC90409C06F1100A474665
S21400A04030687168083603C75645B846F7D13E9B58
S21400A05003EB0208C8F1000A0AF00F0AB9F1000F74
S21400A06000F09D80C9F1000707F00F070121DDF819
S21400A070FCB044F00050C4F11006CDF810B00591C5
S21400A0800690300200F4F85040F021000790B9F135
S21400A090000F40F08680CDF820D047F00050002D0D
S21400A0A000F08480099121210A9041EA07210B9152
S21400A0B042F00050CDF830C03D9B08A94FEA0A2C6C
S21400A0C00D910E904CF041000F901093002A75D120
S21400A0D03E9B119143F0005312933C9B13901493B4
S21400A0E010AB1593434B444A169340F6110317934F
S21400A0F0424B0021002D08BF1346189314AB19934A
S21400A1003F4B10221A9311231B931CAB184630F0BA
S21400A11049FF01221D92002246F0804603461E9605
S21400A120239205B9EB46102CCDF880B024AE4BD167
S21400A13001232246002130462193229430F032FF3C
S21400A14020AB002125938F4218BF334647F080424C
S21400A15026923A9A2CA828922993B2FA82F35B099F
S21400A16049EA837310222B912A9330F01BFFB9F132
S21400A170000F00D028AED04448F080432CA918A881
S21400A1802D962E93FFF71EFF30B92DB90346A34236
S21400A19025D1002818BF2C2031B0BDE8F08F10273D
S21400A1A064E7CDF820E049F0005078E7002C3FF453
S21400A1B079AF04A9099101210A9076E73E9B0CAA83
S21400A1C011924120129388E71022002130462193F5
S21400A1D0229430F0E7FE002CB2D10123B1E703F160
S21400A1E0C0026A4412F8C02C01331043CFE700BF08
S21400A1F0ABBD030010000020C0BD0300C4BD0300BB
S21400A20004000020F0B5C0299FB0DDE9244557D0F2
S21400A210B1F5807F04D0802948D029201FB0F0BD3A
S21400A22001265CB140F2344702941024039604944D
S21400A230212401970594069502AC0AE040F21447E3
S21400A2400294102403960494212405940124019773
S21400A2500695079401251024089409950A92212250
S21400A2600B950C940D92174A0AAD0E92164A0F954E
S21400A270109242F6110211921293139514941592AD
S21400A28001AA1692D3B112AB179304231893112385
S21400A290199316AB1A901B9340F61103C9081C912C
S21400A2A01AA806A91D93FFF78DFEB7E7012614B975
S21400A2B04FF48267C4E74FF48667B5E70EABE3E773
S21400A2C00F20ABE7BCBD03001000001038B5164BDE
S21400A2D05A6E42F004025A66D3F8802242F0010217
S21400A2E0C3F88022114B5B68C3F3080343B14FF0F9
S21400A2F0A842D36B13F0430FFBD11424204638BD7D
S21400A3004FF0A843DC6B14F04304FBD1084D2B68D8
S21400A3101BB90421284602F0CDFA2B68013343F01E
S21400A32000432B60EAE700BF0080005000ED00E02D
S21400A330881E0020014B00205B68704700ED00E09F
S21400A3404FF40052034B00209A660322C3F86022A3
S21400A350704700BF009000504FF40052034B00209F
S21400A3609A660322C3F86022704700BF00A0005020
S21400A370012300F01F02A0F506200949A0F5506051
S21400A3804009934051F820201A4341F820200549FF
S21400A39051F8202022EA030241F82020704700BF2F
S21400A3A0A01E00208C1E00200121A0F506230E4AC8
S21400A3B0A3F550635B0900F01F00814052F82300AC
S21400A3C0014342F823100949D1E900300344886864
S21400A3D00344C868096903445B1802BFC2E9003336
S21400A3E0C2E90233136170478C1E0020A01E0020B5
S21400A3F02DE9F04FA9B003921D4604460822339E6D
S21400A400CDE90401414021FA02F34B40980702F1DE
S21400A410080218BF9B00202A1C44F4D18123B4FBF9
S21400A420F3F303EBC313E41A734B04F506241B780B
S21400A43004F55064002B3ED1FDF754FA074620B1D0
S21400A4406FF0910029B0BDE8F08F0146402208A8C1
S21400A45030F0A8FD4022394618A830F0A3FDDFF8FA
S21400A460B481DFF8B491C3460BF10F0ACDF800A013
S21400A470102208A95B46D9F800002FF02EFD002216
S21400A480014608F1100808AF914246D1CDF800A069
S21400A4905B461022D9F8000018A92FF027FD4FF0D0
S21400A4A0000A834618AFD34541D1544B9845DAD1BC
S21400A4B00122514B1A704FF0810A4FF00008DFF866
S21400A4C05CB1A4F50627A7F550635B095BF823206B
S21400A4D004F01F01CA40D2073DD4494A52F823303F
S21400A4E0CB40DB072AD5B8F1000F08BFA046812372
S21400A4F0A7F6FF47B7FBF3F303EBC313FF1A07F503
S21400A5000624BAF1010A04F55064DAD1039BBBB104
S21400A510B8F1000F14D0444619E057F8040BCDE903
S21400A5200612FFF725FF079A06990132ACE757F89F
S21400A530040BFFF739FF0AF1010AB4E7039B13B9CE
S21400A5406FF08B007EE7B8F1000F18BF4446349BCF
S21400A55000201C6076E7329B13B10023329A13600A
S21400A5600EB1002333601023DFF8AC9000932A4628
S21400A57000232146D9F800001AF076FD60BB329918
S21400A5802A68204BC9B99A4206D02146D9F800005D
S21400A5901AF002FE0028D3D1D5E90223DDE9041023
S21400A5A0834208BF8A42A2D1039B002BCFD06B68A0
S21400A5B0012BCCD16FF0840044E7102032999A42E8
S21400A5C00860E2D1002EE7D033462146D9F80000D5
S21400A5D018AA1AF09DFD48B10B4B9842D5D00B4BEC
S21400A5E09842D2D00A4B9842D6D029E7329A33689E
S21400A5F012689B1A3360CFE7AB3100200071080069
S21400A6008C1E0020105D175EFFDF00F011E000F0EA
S21400A610FEDF00F0006D0800200C0020A01E0020C9
S21400A6202DE9F04F87B08246894698461646DDF8F3
S21400A63040B02AB1002B4FD040F26C739A424ED8ED
S21400A640BBF1010F4ED8002406F110073946012051
S21400A650059424F0C2FA0546002846D021463A461C
S21400A66030F0A0FC05ABCDE9014300942B46012257
S21400A67050464946FFF7BCFE044680B110F18C0FE9
S21400A68008BF6FF08D043A460021284630F08AFC59
S21400A690284624F0B2FA204607B0BDE8F08F144BE7
S21400A6A0C5E902A92B60C5F804B02EB13246414672
S21400A6B005F1100030F080FC059E0E483B462A4609
S21400A6C0314600681AF038FC18B93046FFF750FEDD
S21400A6D0D9E76FF09104D6E76FF08604DBE76FF0FA
S21400A6E09104D8E76FF08504D5E76FF08C04D2E7C5
S21400A6F0105D175E200C00202DE9F0438DB08146DA
S21400A700DDE914780E4615461C469BB1B8F1000FDD
S21400A71005D16FF0860630460DB0BDE8F083002FF9
S21400A720F7D0B7F1005FF4D3C3F1005303F500434D
S21400A7309F42EED81022002108A830F033FC0022F9
S21400A74007AB029305AB019306AB31460093484630
S21400A75008ABCDE90522FFF74BFE06460028DAD106
S21400A760059BA4B1AB4215D853EA0504D1D1069B8C
S21400A7700B48C8F8004000943A46079900682B44F6
S21400A7801AF072FC002818BF6FF09106C3E7AB42C0
S21400A790EDD2BEE75B1B9C4228BF1C46E7E700BF26
S21400A7A0200C002030B58DB00C4605461022002146
S21400A7B008A830F0F7FB002207AB029305AB019325
S21400A7C006AB21460093284608ABCDE90522FFF7E5
S21400A7D00FFE0446D8B9099B012B1BD0079D104BD2
S21400A7E0294618681AF0D8FCB8B90122A5F5062340
S21400A7F00C49A3F550635B0905F01F00824051F831
S21400A80023004240284641F82320FFF7CDFD20468E
S21400A8100DB030BD6FF08404F9E76FF09104F6E7F1
S21400A820200C0020A01E00202DE9F04F89B007461E
S21400A8300E46FFF7C5F8C00709D40424012023F00C
S21400A84086FF80B3013CF9D16FF0920028E0102219
S21400A85000210DEB020030F0A5FB04A8FFF712F96B
S21400A860049B002BE9D0059B002BE6D0069B002B13
S21400A870E3D0079B002BE0D00025DFF8808008F1AE
S21400A8800409B54219D34FF48A74FFF793F800F021
S21400A8900E03062B2DD1C30501D5FFF7BDF800200A
S21400A8A009B0BDE8F08FFFF785F810F00E03FAD078
S21400A8B0022BF8D04105DFD5C4E7FFF775F8A6EB05
S21400A8C0050A8400544528BF544699E8030000232F
S21400A8D08DE80300CDE9054307EB050BCDF810B076
S21400A8E0029404AAD8F8003007CA23F029FE2544AB
S21400A8F0C7E724FA03F3DA07A6D5C6E7D0BD0300F8
S21400A9001FB504A800E90E0011460198FFF78CFF5A
S21400A91070B1FFF721FBBFF34F8F0749074BCA689B
S21400A92002F4E0621343CB60BFF34F8F00BFFDE736
S21400A93005B05DF804FB00BF00ED00E00400FA057A
S21400A9402DE9F0438BB01746DDE91545DDE9132602
S21400A9509C46DDE91738894621B96FF086000BB0B2
S21400A960BDE8F083002FF8D00EB9002CF5D112996F
S21400A97009B9002AF1D10DB9002BEED1B8F1000FBC
S21400A980EBD0244A944541D10288B2F5105F3DD100
S21400A9904288B7EBD20FE0D322F04001802902D0E4
S21400A9A0B2F5807FD9D16CB3AE421CD23219954233
S21400A9B019D29C42D1D831462246284630F0D8FAE1
S21400A9C02E4614F00F03C8D1CDE90197CDE9033622
S21400A9D0CDE90543CDE907540993FFF7B1FC38B13B
S21400A9E06FF09200BBE79C42EBD96FF08900B6E7A8
S21400A9F007AA04A901A8FFF709F90546FFF7ACFC6A
S21400AA000543EDD10020C8F80040A8E76FF08500A8
S21400AA10A5E700BF004440042DE9F04FA9B08346E7
S21400AA2017469A460E46DDF8C890DDF8D88029B954
S21400AA306FF08603184629B0BDE8F08F002AF7D0DD
S21400AA40B9F1000FF4D0349B002BF1D0B8F1000F11
S21400AA50EED00024424B0CAD93E8070085E80700D3
S21400AA603C22214619A8189430F09CFA3388728844
S21400AA7003F4E040B0F5804FDAD03A4E3A480BEA9D
S21400AA80060646F01066864263D1B2F5807F60D136
S21400AA9047F2121293425CD10620344ABAF11F0FD5
S21400AAA0D3680E940B931369126800FB03F3CDE989
S21400AAB00C23BDD9339B402BBAD9359B1F2B4BD9C2
S21400AAC009F1010220261292402299F800300F97D1
S21400AAD0042B18AFCDE91324CDE915721096119406
S21400AAE01794A5D1FFF72CFC03460028A2D10B9B98
S21400AAF015AACDE9086305AB07CA83E8070002ABD1
S21400AB0012AA07CA83E80700DDE910018DE80300F2
S21400AB100F9B95E80700FFF753F90546FFF71CFC67
S21400AB2055EA000384D13D46349A20AE2C4603CC29
S21400AB30B44210605160254602F10802F6D10022A8
S21400AB401146B9540132402AFBD12022C8F8002011
S21400AB5070E76FF085036DE76FF089036AE700BF63
S21400AB605CBC03000000FFF60000020970BC030096
S21400AB70F0B50E461D468BB0002853D0002951D0A4
S21400AB80002A4FD0002B4DD0048804F44F43B3F571
S21400AB90824F03D06FF085000BB0F0BDE3B224F017
S21400ABA0FF04B4F5E24FB0F802C0F3D1122B01D087
S21400ABB0172BEFD10CF10701B2EBD10F4FEAD107FB
S21400ABC033D31D4A04ACBCF5807F07CA84E807006F
S21400ABD0E0D1122B07D1194B1A691B681344CDE933
S21400ABE00432002306930023CDE907670993FFF795
S21400ABF0A7FB0028D0D1124A02AB92E8030083E8F4
S21400AC0003000AAB13E903008DE80300079B94E8F2
S21400AC10070023F01AFC0446FFF79EFB204307D1EB
S21400AC202F60B9E76FF08600B6E76FF08900B3E7EC
S21400AC306FF09200B0E700BF5CBC030070BC03007E
S21400AC40C8BD03002DE9F0438FB01D46DDE916C6EA
S21400AC5000285CD000295AD0002A58D0002B56D0A5
S21400AC60BCF1000F53D0002E51D0038803F44F449C
S21400AC70B4F5824F51D1DCB223F0FF03B3F5824F17
S21400AC8040884AD0122C01D0172C46D1C31DB2EBF7
S21400AC90D30F4FEAD3083AD34FEA4802571C67450A
S21400ACA038D8B0F5807F38D1122C18BF4FF0000985
S21400ACB04FF0000308BF1C4CCDE9081805F1010150
S21400ACC014BF4C46D4F80C90CDE90B120A930D93A2
S21400ACD0FFF736FBC0B9CDE9058902AB08AA07CA5B
S21400ACE083E807000EAB13E903008DE803000B9B17
S21400ACF094E8070023F0C8FB0446FFF72DFB20432B
S21400AD000ED104232B7037600FB0BDE8F0836FF0D0
S21400AD108600F9E76FF08900F6E76FF08500F3E745
S21400AD206FF09200F0E700BF70BC03002DE9F0431F
S21400AD3089B00E4615461F46DDF8488020B96FF0EC
S21400AD40860009B0BDE8F0830029F8D0002AF6D0C6
S21400AD50B8F1000FF3D0038803F44F42B2F5824FE8
S21400AD6002D06FF08500ECE7DAB2122A01D0172A7B
S21400AD70F7D123F0FF03B3F5E24F41D14488C8F87A
S21400AD80004044B9EB00B3F5807FC8F80030E8D146
S21400AD90122A0DD108E0E31DB5EBD30FCFD1B4F5E1
S21400ADA0807FDED1122A29D1354B1C681B691C44D2
S21400ADB00023194670192C4414F801CD10F8012D03
S21400ADC01143B2EB0C020CBF4FF0FF3C4FF0000CEF
S21400ADD086420CEA030343EA0203EDD10029AED013
S21400ADE0002BACDA109B9D4246D82A4631463846A0
S21400ADF030F0E2F8119B00201D60A2E70024D7E7A0
S21400AE003378042B9BD16B1EDB005B08B3F5807F89
S21400AE10C8F80030A5D1122A06F1010318BF4FF07A
S21400AE2000094FF0400205934FF000030ABF144C90
S21400AE304C46D4F80C90CDE90623FFF781FA00289B
S21400AE407FF47FAFCDF80C90D8F800300733DB08DE
S21400AE50029308AB13E903008DE80300059B94E812
S21400AE60070023F0BEFB0446FFF776FA00287FF4BF
S21400AE7068AF002CB6D062E76FF0890061E700BFCC
S21400AE8070BC03000388B3F5105F0ED14388DB085F
S21400AE90103B102B0CD8084A22FA03F313F0010FCC
S21400AEA014BF00206FF0860070476FF08500704773
S21400AEB06FF08600704700BF010101002DE9F04FDA
S21400AEC08FB01546DDE918A91E46DDF868801C9F80
S21400AED009B300B3B8F1000F1DD0E7B1BAF1000F07
S21400AEE002D1B9F1000F16D1274B26F47E129A42F2
S21400AEF0B0F802B044D1FFF7C5FF0446A8BBB5EBD7
S21400AF00DB0F4FEADB0306D316F47C1FC6F30545BA
S21400AF1004D0102D03D96FF0860426E010251B9A66
S21400AF2095422AD8CDE9011300231022CDE90593D6
S21400AF300DF12809CDE9033ACDE90823CDF81C9098
S21400AF40FFF7FEF9044680B907AA04A901A8FEF790
S21400AF5071FE0646FFF700FA044656B958B92A4667
S21400AF604946404630F028F83D6020460FB0BDE820
S21400AF70F08F6FF092040025F6E76FF08904F4E78F
S21400AF806FF08504F1E700BF0002C0032DE9F04131
S21400AF90069F0C461646054610B309B302B9FBB920
S21400AFA06288B3EBD20F4FEAD20819D34C220021A5
S21400AFB028462FF0F7FF0D4B27F47E129A4212D147
S21400AFC02046FFF75FFF044638B942463146281D43
S21400AFD02FF0F2FFC5F824802F602046BDE8F081F0
S21400AFE06FF08604F9E76FF08504F6E70002C00309
S21400AFF02DE9F0410E4614460546002840D00029AB
S21400B0003ED092B10368214823F47E1383423AD19E
S21400B010AF6BF7B1C7F1100807F128004245284486
S21400B02006D227442FF0C8FFAF630020BDE8F081AA
S21400B03042462FF0C1FF1022103C3C19AA63F4D000
S21400B040284605F1280123F075FC0028EED1464479
S21400B050A863102C0CD9671E27F00F073A46314616
S21400B060284623F067FC0028E0D1E41BDDD03E44F0
S21400B0702246314605F128002FF09EFFAC63D4E748
S21400B0806FF08600D2E76FF08800CFE70002C003BB
S21400B0902DE9F04388461F4605468BB070B169B16E
S21400B0A063B10368234923F47E1088423ED113F42B
S21400B0B07C1FC3F3054604D0102E03D96FF0860418
S21400B0C02AE0102696422BD8FFF73AF9044618BB1A
S21400B0D0AB6B05F12802CDE901236B6A2A1DCDE989
S21400B0E004231023CDE9083007AB1A4603900690D8
S21400B0F005F13C0901A904A8CDF81C90FEF7BEFD99
S21400B1000546FFF729F904466DB928B9324649467F
S21400B11040462FF051FF3E6020460BB0BDE8F0835E
S21400B1206FF08904F8E76FF09204F5E76FF0850496
S21400B130F2E700BF0002C00307B56B46054A106879
S21400B140516803C36846FDF75BFF002003B05DF857
S21400B15004FB00BFDCBD030013B50024064A6846A6
S21400B160536F43F00103536700948DF80440FDF7D6
S21400B1707FFE204602B010BD0040005030B58BB0B8
S21400B1806C46174D0FCD0FC40FCD0FC495E80300C6
S21400B19084E80300134BD3F84C2112031CD5A3F507
S21400B1A0FE431C884FF6FF739C4208BF8C248DF824
S21400B1B01940FDF75DFC204480F308008DF8180068
S21400B1C00948FBF7EFFE6846FDF772FB3220FDF7F5
S21400B1D087FC00200BB030BDD3F85041E4B2E6E760
S21400B1E0E4BD03000080E00F00F049026FF00403A6
S21400B1F0502110B50A480B4C13F0800F03F10102E2
S21400B20007D12344402A83F800131346F4D10020C4
S21400B21010BD03F00F03043B034419761346EBE717
S21400B22000ED00E000E100E0BFF35F8F074B5A6AD5
S21400B23022F480325A62D3F8942022F00102C3F836
S21400B2409420BFF34F8FBFF36F8F704700ED00E081
S21400B25070B52948294CFFF7E7FF8442284D294955
S21400B26019D1D5F8C03023F0FF0343F0A003C5F88A
S21400B270C0304FF080430A68214D234EC5F8982011
S21400B28043F0010301328442C5F89C60C5F8A03043
S21400B2900A601ED00DE0D5F8C02020F01F03203B2A
S21400B2A022F0FF0242F0A002B3F1005FC5F8C02012
S21400B2B0E1D2164B0A68124823F01F0343F003033B
S21400B2C0C0F89820C0F89C30114B0132C0F8A0306E
S21400B2D00A60BFF35F8F0522094BC3F894205A6AB1
S21400B2E042F480325A62BFF34F8FBFF36F8FBFF3C3
S21400B2F04F8FBFF36F8F70BDD80D0020B00F0020AA
S21400B30000ED00E0B41E002003000020CF0F002058
S21400B310E1FFFF3FF8B51446FFF786FF1F2C27D93D
S21400B3200027C2062A4D1CBF20F01F0020302A68C6
S21400B330CB06284B18BF21F01F01FCB2A2422BD827
S21400B340D3F8C04020F01F0024F47F4444F48074F7
S21400B35021F01F01C3F8C04040F00300C3F8982056
S21400B36041F003010132C3F89C00C3F8A0102A6024
S21400B3700020BFF35F8F0522164BC3F894205A6A4D
S21400B38042F480325A62BFF34F8FBFF36F8FBFF322
S21400B3904F8FBFF36F8FF8BDC3F89840D3F89C402B
S21400B3A0D3F8A06024F01F04A04226F01F0601D1A7
S21400B3B0B142DDD0B04201D8A14207D2D3F89840BE
S21400B3C0013724F0FF04C3F89840B6E72820D0E7FA
S21400B3D0B41E002000ED00E0BFF34F8F0549064B7A
S21400B3E0CA6802F4E0621343CB60BFF34F8F00BF1E
S21400B3F0FDE700BF00ED00E00400FA05054B1A78F3
S21400B4002AB95B78002B0CBF03200220704701206E
S21400B410704700BFB63100200329F8B598BF124B1D
S21400B42005460E468CBF00245C5C032805D8DFE882
S21400B43000F002080B0E44F002040C4B1F684FB9D4
S21400B440F8BD44F00804F8E744F02004F5E744F0BB
S21400B4508004F2E77B681A68144203D03146284617
S21400B4605B6898473F68EAE70CBE0300E41E0020CE
S21400B47038B5104D2B78ABB10F4C23781BB100F0CC
S21400B480B7FB00232370002023F0A7FA0B4C50B123
S21400B49000F000FC0023012120782B70FFF7BCFF92
S21400B4A00123237038BD0122054B1A702278054B04
S21400B4B01A70F7E7B1310020AF310020B831002014
S21400B4C0B2310020B331002010B522F015FD064B36
S21400B4D004461B781BB1BDE8104022F011BDFFF7F3
S21400B4E0C7FF2046F7E700BFAE310020094A1378B1
S21400B4F030B101331370084B1B78012B03D870470B
S21400B500013B13707047054B1B780BB9FFF7B0BFB4
S21400B510704700BFB6310020B8310020B23100209D
S21400B52070B522F0E9FC124E054633789BB900F060
S21400B530EDFC044620B1284622F0E2FC204670BD11
S21400B5400C4822F048FA00F089FF0B4B1C6000F014
S21400B550A9FD0A4B186000F02BFA23F040FA084BBE
S21400B5600024186001232846337022F0C9FCE5E762
S21400B570B9310020E41E0020B81E0020E01E002086
S21400B580BC1E00202DE9F843284A0138135C39B167
S21400B590274F013339781354012904D8BDE8F883BE
S21400B5A0013B1354FAE7FFF729FF0128044635D874
S21400B5B022F0A2FCDFF88480054698F8003013B32A
S21400B5C01C4E33781BB9012232701B4A1370DFF809
S21400B5D0709099F8003023B100F00AFB002389F838
S21400B5E00030284622F08CFC012023F0F6F922F0E9
S21400B5F083FC337805461BB100F04CFB0023337008
S21400B600002388F80030284622F07AFC3878A042DA
S21400B610C4D02146FFF700FF3C70BFE70329F5D1F1
S21400B6200228F3D123F0DFF9F0E700BFB63100209F
S21400B630B8310020AE310020B2310020B1310020F8
S21400B640AF31002010B5044622F056FC002C0CBF8B
S21400B650FF210121064A13780B44DBB21370B3FABC
S21400B66083F3BDE81040034A5B09137022F048BC20
S21400B670B5310020B431002038B522F03DFC094B2E
S21400B68005461B78012B04D822F03AFC00242046FD
S21400B69038BD054B1C6800F047FB0444284622F0E2
S21400B6A02FFCF4E7B8310020B81E002038B5416002
S21400B6B0044622F021FC05462146044822F08EF975
S21400B6C02846BDE8384022F01BBC00BFE41E002020
S21400B6D0054B1B685843054B00F5742000F23F20CD
S21400B6E0B0FBF3F0704700BFE01E002040420F00A2
S21400B6F02DE9F04F85B0EFF3108772B6AFF30080F8
S21400B70022F09FF800286FD0804EDFF82C82337826
S21400B71023B10020FFF7EAFE00233370FFF76EFE2A
S21400B7200446002867D0841EE4B2012C6AD9FFF7CD
S21400B73065FE01280546764CDFF8009200F28C8004
S21400B7402078854240F0C680207800F0D7FA99F835
S21400B750003013B16F4B1B782370AFF3008007B92E
S21400B76062B6EFF3108772B66B4B1A7852B10022AE
S21400B7701A70684B20781B78984203D101212170FB
S21400B780FFF74AFE654800F0FBFB22F06EF8054620
S21400B7900028BCD1624BDFF89481187098F800300E
S21400B7A0ABB189F80000DFF88C9199F800301BB136
S21400B7B000F01EFA89F80050002023F00EF9002849
S21400B7C000F09B8000F066FA002388F8003033789B
S21400B7D023B10020FFF78AFE002333700021207873
S21400B7E0FFF71AFE00232370AFF3008007B962B696
S21400B7F005B0BDE8F08F3378002B98D0FFF776FEC3
S21400B800347094E7002003A900F008FC04460028E2
S21400B8108DD1D8F80030039A9A4205D80120FFF758
S21400B82065FE0123337082E73E4B1D6800F07CFA0C
S21400B830039B05449D42F1D200F08EFA82000399E4
S21400B84042F0020292B2CDE900422346364A491B34
S21400B850324823F0C9F86AE7344BDFF8C4A093F8FF
S21400B86000B0BBF1000F25D100F046F920788542E4
S21400B87030D19AF800307BB92C4D2B78002B7FF412
S21400B88063AF2B4B1B7823B900F0ACF90122294B90
S21400B8901A7001232B7057E7022DEDD18AF800B0FD
S21400B8A015E02378022B25D100238AF800302EF0ED
S21400B8B0AEFF1FE0207885420CD19AF80030002BAE
