S02B00005361695F4546523332424732324332323246333532474D33325F7261696C5F736F635F7261696C7451
S21400000000080020451500000FC101000FC10100C7
S2140000107FDC01000FC101000FC101000FC101000C
S2140000200FC101000FC101000FC101000FC1010087
S2140000300FC101000FC101000FC101000FC1010077
S2140000400FC101000FC101000FC101000FC1010067
S2140000500FC101000FC101000FC101000FC1010057
S2140000600FC101000FC101000FC101000FC1010047
S214000070B1030100F1110000E11100000FC1010001
S2140000800FC101000FC101000FC101000FC1010027
S2140000900FC10100D91C00000FC101000FC10100F3
S2140000A00FC10100151E0000ED1D00000FC101006C
S2140000B00FC10100A19201000FC10100E99C0100DF
S2140000C031FE01002DFE0100D99401003DFE010025
S2140000D035FE0100C19C010039FE0100299D01008A
S2140000E0697A0100757C0100999D01000FC101002D
S2140000F00FC101000FC101000FC101000FC10100B7
S2140001000FC101000FC101000FC101000FC10100A6
S2140001100FC101000FC101000FC101000FC1010096
S2140001200FC101000FC101000FC101000FC1010086
S2140001300FC101000FC101000FC101000FC1010076
S2140001402DE9F04F2DED028B93B082460C46934678
S2140001501D4657EC106B8DED080B32463B4630467D
S21400016039461AF0FDFA002800F009814FF0FF32F8
S214000170B14B304639461AF01BFB002840F0FF8092
S2140001804FF0FF326FF48013304639461AF0F2FA19
S214000190002840F0F48000220023DDE9086730469E
S2140001A039461AF0E7FA002840F0FC809DED087BFF
S2140001B08DED067B209B13F48063119301D10623FB
S2140001C01E93DDE906010246C1F30A50C1F313038C
S2140001D0904643F07F5949F44019A0F2FF3019F0D9
S2140001E0EDFF83A3D3E900231AF052F882A3D3E9E4
S2140001F0002319F097FE06460F4600228F4B404616
S214000200494619F08DFE7EA3D3E900231AF040F884
S21400021002460B463046394619F084FE1AF0D2FAEA
S214000220064619F0CBFF8046894677A3D3E900231C
S2140002301AF02EF80022824B19F074FE1AF0C2FA59
S214000240074673A3D3E90023404649461AF020F830
S21400025080468946384619F0B1FF6FA3D3E90023DC
S2140002601AF016F802460B464046494619F058FE64
S2140002708046894602460B461AF00AF8CDE90C017C
S21400028007F2FF3700210022CDE90A123B050B9347
S21400029000230A9342464B464046494619F042FE22
S2140002A0CDE90E0142464B4600204FF0804119F042
S2140002B037FE804689460022624BDDE90C011AF0C3
S2140002C011F90022604B19F02DFE02460B46DDE9BF
S2140002D00C011AF007F900225C4B19F023FE0246C7
S2140002E00B46DDE90C011AF0FDF802460B464046C7
S2140002F0494619F017FE02460B46DDE90E011AF0D4
S214000300F1F80022524B19F00DFEDDE90A2319F030
S214000310BFFF8046894649EC188BDDE906231AF0B4
S21400032047FA40B1013E0022474B404649461AF084
S214000330D9F841EC180B06F16303C62B3BD804270B
S214000340209B13F4006F40D035A3D3E90023DDE9EA
S2140003500689404649461AF021FA00283BD032A3C7
S214000360D3E90023404649461AF004FA002832D062
S2140003701E9BB34221DD9E1B731E1E931FE0209B17
S21400038002931F9B01931E9B00939DED080B2B462B
S2140003905A462146504600F0CBF813B0BDEC028B0F
S2140003A0BDE8F08F9FED227B8DED067B069607F16C
S2140003B000430793FEE60527C2E700231E93209B13
S2140003C043F48063209300273E461F9B9F4241D202
S2140003D0A3EB070840E01E9B002BF6D0119B002BDA
S2140003E0F3D01E9B013B1E93EFE700BFAFF30080E8
S2140003F0FB799F501344D33FB3C8608B288AC63F0F
S21400040061436F63A787D23F71A379094F930A4070
S2140004101655B5BBB16B0240EF39FAFE422EE63FE9
S2140004202D431CEBE2361A3F0000000080842E416C
S2140004300000000000000000FFFFEF7F0000F83F14
S2140004400000E03F00002C40000024400000184060
S2140004500000F03F4FF00008209B13F0020902D086
S2140004600FB14FF000083EB153EC182BDDE9060142
S2140004701AF038F8CDE9060100220023DDE908016C
S2140004801AF078F900283BD1209B23F400630293EE
S214000490CDF804801E9B00939DED060B2B465A4616
S2140004A02146504600F044F8002F3FF476AF209BDC
S2140004B013F0200F2CD04FF0450C00F101082B460E
S2140004C0024621466046D04786EAE672A2EBE6720E
S2140004D005230593013F0497002303930A23029301
S2140004E0F30F019300922B464246214650461DF0DC
S2140004F054FEB9F1000F3FF450AF02461F9F10E0C4
S214000500DDE90601024601F10043CDE90623BBE71B
S2140005104FF0650CD1E7561C2B4621462020D047CD
S2140005203246A2EB0B03BB42F5D3104635E700BFBD
S2140005302DE9F04F2DED028B93B005900891924671
S2140005409B4659EC108B1E9D42464B4640464946FC
S2140005501AF006F9002840D04FF0FF326FF48013EF
S214000560404649461AF006F9002845D14FF0FF32BA
S214000570B14B404649461AF01BF900284BD1AAA3B6
S214000580D3E90023404649461AF012F900285AD10A
S214000590A7A3D3E90023404649461AF0EBF8002803
S2140005A051D100220023404649461AF0E3F80028BD
S2140005B057D100230993209B13F4806F5CD000244E
S2140005C01F2C5BD8092D59D904F148036B443022FF
S2140005D003F8202C013D0134F2E7209B03931F9B78
S2140005E0029303230193954B00935B46524608996A
S2140005F005981DF0F8FC10E1209B03931F9B0293C7
S214000600042301938E4B00935B4652460899059847
S2140006101DF0E9FC01E1209B13F004030FD0894A8A
S2140006207BB10423209903911F99029101930092B4
S2140006305B465246089905981DF0D5FCEDE0824AC7
S214000640EEE70323EEE7209B02931F9B01930095A2
S21400065049EC108B5B46524608990598FFF770FDEB
S214000660DBE042464B460020002119F059FC80464C
S2140006708946012309939EE70625A0E7404649469A
S2140006801AF0A0F8064619F099FD02460B464046B9
S214000690494619F045FC6D4B03EBC50393ED008B03
S2140006A053EC182B19F0F4FD02460B46CDE9062351
S2140006B01AF0B0F8074619F071FD02460B46DDE960
S2140006C0060119F02DFC02460B46CDE90623002252
S2140006D05F4B1AF06DF850B30137384619F05EFDDF
S2140006E002460B4651EC180B1AF04EF808B10136CC
S2140006F0002755BB304619F061FD02460B464046C2
S214000700494619F00DFC804689460022504B1AF0E7
S21400071031F838B100224E4B404649461AF048F8A8
S214000720002842D016F0010F3FD001363DE00022EF
S214000730474BDDE906011AF01DF80028D9D117B19C
S21400074017F0010FD5D00137D3E71F2C17D8013D7E
S214000750404BA3FB0723DB08194603EB8303A7EBF9
S2140007604303621C303304F148000DEB000404F828
S214000770203C092F02D90F461446E6E714461F2CE4
S2140007800AD86B1E45B104F148026A44302102F8CB
S214000790201C1D460134F2E71F2C06D804F148033E
S2140007A06B442E2203F8202C01341F2C17D82A4A1B
S2140007B082FB0632F317C3EBA2031A4603EB83034E
S2140007C0A6EB4303611C303304F148000DEB000434
S2140007D004F8203C16460AB10C46E6E70C46209B79
S2140007E003F00303012B39D01F2C09D8099B002BDB
S2140007F051D004F148036B442D2203F8202C013419
S214000800209B03931F9B029301940AAB00935B46C5
S2140008105246089905981DF0E6FB13B0BDEC028B16
S214000820BDE8F08FAFF300800000000065CDCD413D
S2140008300000000065CDCDC1FFFFEF7FB0EF0200E6
S214000840B4EF0200A4EF0200ACEF0200C0EF02001B
S2140008500000E03FCDCCCCCC676666661F9BB3B18C
S214000860099B1BB9209B13F00C0F12D01F9B013B5A
S2140008701F93194606E004F148036B44302203F840
S214000880202C01348C42AFD21F2CF4D9ACE71F9930
S214000890F8E71F99F6E7209B13F0040F07D004F142
S2140008A048036B442B2203F8202C0134A8E7209B36
S2140008B013F0080FA4D004F148036B44202203F879
S2140008C0202C01349CE700BF38B508462DED028B7E
S2140008D0154619F063FC1FA3D3E9002319F002FEA6
S2140008E002460B4643EC182B0022002319F04CFF5F
S2140008F0044648BBB0EE480AF0EE680A00F03CF842
S21400090016A3D3E9002351EC100B19F00BFB02469B
S2140009100B4614A1D1E9000119F0E4FD13A3D3E9B5
S214000920002319F0FDFA0022094B19F0B1FC41EC46
S214000930100B1BF0DDFA51EC100B19F043FF28806A
S2140009402046BDEC028B38BD0120FAE7AFF30080ED
S2140009500000204000000000006AF8409679D01899
S2140009607A2C2C40000000000068B0406666666680
S214000970661271400000000038B555EC104B2DEDA6
S214000980028B00F045F822462B4620462946B0EE5C
S214000990408AF0EE608A1BF0F9FA98B9002200232C
S2140009A02046294619F004FF60B90022002320469D
S2140009B0294619F0D5FE60B11AF09EFE22239FED5F
S2140009C00C8B0360B0EE480AF0EE680ABDEC028BB2
S2140009D038BD1AF091FE212203460748BDEC028B73
S2140009E01A60BDE8384000F00BB800BFAFF30080D7
S2140009F0000000000000F0FFECEE02000000000027
S214000A009FED010B704700BF000000000000F87F5C
S214000A1053EC102BB3F5801F2DE9F04F1C4687B022
S214000A2058DA23F000411046114300F0F780002BFF
S214000A301946C0F234810022D94B19F029FC0C4625
S214000A400B46D84902466FF035008C4246DC251529
S214000A50D549C4F31304A5F2FF3521440544D34811
S214000A6001F48011484005EB115540EA0403104696
S214000A7000221946CD4B19F053FAA31C82468B462A
S214000A80C3F31303022B32DC0022002319F068FEA6
S214000A90002800F0CE80002D00F09281284619F044
S214000AA08DFB06460F46AAA3D3E9002319F0F0FBF8
S214000AB004460D4630463946A7A3D3E9002319F06D
S214000AC0E7FB02460B462046294619F02BFA41EC76
S214000AD0100B09E0B34900208C42B8DD10461946D9
S214000AE019F020FA41EC100B07B0BDE8F08F002299
S214000AF04FF0804319F016FA02460B465046594608
S214000B00DFF8B88219F0EEFC06460F46284619F0C4
S214000B1055FB32463B46A044CDE9040130463946F3
S214000B20CDE9026719F0B4FB02460B46CDE9002377
S214000B3019F0AEFB06460F4689A3D3E9002319F049
S214000B40A7FB89A3D3E9002319F0ECF932463B460C
S214000B5019F09EFB86A3D3E9002319F0E3F9324689
S214000B603B4619F095FB84A3D3E9002319F0DAF984
S214000B70DDE9002319F08CFB81A3D3E90023CDE93E
S214000B8000013046394619F083FB7FA3D3E90023E2
S214000B9019F0C8F932463B4619F07AFB7CA3D3E934
S214000BA0002319F0BFF932463B4619F071FB0B469D
S214000BB00246DDE9000119F0B5F97D4B06460F4601
S214000BC01B1B43EA0803002B5BDD0022794B5046D3
S214000BD0594619F05DFB52465B4619F059FB8046B4
S214000BE08946002D64D142464B463046394619F0B8
S214000BF099F9DDE9022319F04BFB02460B46404605
S214000C00494619F08DF902460B465046594619F0EA
S214000C1087F941EC100B07B0BDE8F08F00220023E7
S214000C200020654919F05EFC41EC100B07B0BDE8EA
S214000C30F08F59A3D3E900235046594619F028FBF4
S214000C4002460B4600205B4919F06AF906460F4635
S214000C5052465B465046594619F01AFB02460B466A
S214000C603046394619F014FB06460F46002D56D17D
S214000C7002460B465046594619F052F941EC100B05
S214000C8032E7002D40F09F8002460B4650465946FC
S214000C9019F046F9DDE9022319F0FAFAB3E719F07C
S214000CA03FF90022002319F01DFC41EC100B1BE756
S214000CB027A3D3E90023DDE9040119F0E9FA424647
S214000CC04B4604460D463046394619F02BF9DDE909
S214000CD0022319F0DDFA06460F461FA3D3E90023C8
S214000CE0DDE9040119F0D4FA02460B4630463946CF
S214000CF019F018F902460B464046494619F010F915
S214000D0052465B4619F00CF902460B462046294629
S214000D1019F006F941EC100B07B0BDE8F08F284635
S214000D2019F04CFA8046894609A3D3E9002319F046
S214000D30AFFA04460D464046494607A3D3E90023CA
S214000D4019F0A6FA02460B4630463946D6E700BFEB
S214000D500000E0FE422EE63F763C7935EF39EA3D6C
S214000D6044523EDF12F1C23FDE03CB966446C73FD5
S214000D70599322942449D23F935555555555E53FEE
S214000D809FC678D0099AC33FAF788E1DC571CC3FF9
S214000D9004FA97999999D93F555555555555D53FC4
S214000DA000005043FFFFEF7F645F09000000F03F44
S214000DB051B806000000E03F000050C386EBF9FF84
S214000DC09FED0D0B90E6DDE904890DA3D3E9002322
S214000DD04046494619F05CFA32463B4604460D4604
S214000DE05046594619F09CF8DDE9022319F050FAEE
S214000DF006460F469FE700BF000000000000000008
S214000E000000E0FE422EE63F0348044B834202D039
S214000E10034B03B118477047140E0020140E002031
S214000E2000000000064B0749C91A891048BF013167
S214000E30491003D0044B0BB101481847704700BF58
S214000E40140E0020140E00200000000010B5064C02
S214000E50237843B9FFF7D8FF044B13B10448AFF328
S214000E6000800123237010BD4464002000000000B1
S214000E70AC48030008B5054B1BB105490548AFF360
S214000E800080BDE80840FFF7CDBF00BF00000000AF
S214000E9028110020AC480300A3F5803A704700BF35
S214000EA0174B002B08BF134B9D46FFF7F5FF00219D
S214000EB08B460F461348144A121A1FF060F80E4B62
S214000EC0002B00D098470D4B002B00D098470020F1
S214000ED0002104000D000D48002802D00C48AFF396
S214000EE000801AF00FFC200029001BF067F819F0AC
S214000EF091FE00BF00000800000000000000000097
S214000F0000080020140E0020B4640020000000003A
S214000F100000000000B585B0094B1868094B186042
S214000F20094B0A4A13600A4A01920A4A1268029258
S214000F30039301A91BF06FFE05B05DF804FB00BF2C
S214000F401C080020644A002010080020604A002088
S214000F50A08C02002408002008B5024B18681BF07D
S214000F6072FE08BD1C08002038B50DF055FE04467C
S214000F70064D2B68D3F8B0020DF042FE28681BF031
S214000F807FFE20460DF03CFE38BD00BF1C0800204A
S214000F90044B1B68834202D0034B18687047014815
S214000FA0704700BF201900204019002008B50948E6
S214000FB0094B1860094B1B6803600A23C360084B83
S214000FC04361084B8360084B4360002303761CF0A4
S214000FD079FB08BD20190020401900201C080020BD
S214000FE020140020B48C0200C08C020008B501F06A
S214000FF0B7F91BF0E8FA224A136F23F0070343F011
S2140010000303136701F0B4FB1E4B9B6A13F0020F39
S21400101002D11D4B01229A62194BD3F8202122F0EF
S214001020030242F00202C3F82021D3F8242122F062
S214001030070242F00202C3F82421D3F8402122F02E
S214001040030242F00102C3F84021D3F8602122F0E7
S214001050030242F00102C3F86021D3F8402222F0D6
S214001060030242F00102C3F84022D3F8002222F025
S214001070070242F00102C3F80022002008BD00BFAC
S2140010800080005000C0005000E0005008B502F09C
S21400109067F8012800D008BD094B5A6E03F5805347
S2140010A04FF48021596603F510430421196212F4A7
S2140010B0802FF0D1A3F500434FF480225A66EAE76A
S2140010C00080005010B596B0214C0DF13C0CA646A1
S2140010D0BEE80F00ACE80F009EE807008CE80700AB
S2140010E000230A930B930C930D930E93194A0A92BE
S2140010F028220B9205228DF8312006228DF8332007
S21400110008AA1C3494E8030082E803000DF1080CDA
S2140011100293039304930593069307938CE80300C6
S2140011200D238DF810300E238DF811300A4B0593E1
S2140011302023069301238DF81C30084B00930AAB3E
S2140011400FAA614606480DF0C3FF16B010BD00BFDB
S214001150D08C020000C005504419002064190020FD
S214001160B819002010B50C46831EDBB2012B06D939
S214001170A31EDBB2012B0ED9012C18D910BD0129F4
S214001180F6D80F4B1B69C3F3401304220521002039
S21400119001F0A4FDF0E70128EED8094B1B69C3F364
S2140011A0401300220521104601F098FDE4E7054BA8
S2140011B01B6818680028E1D0436A9847DEE700BF3E
S2140011C000C003502008002008B5034903480EF06D
S2140011D05FFAFFF777FF08BD28080020DC1900201B
S2140011E008B502481CF0DDFC08BD00BFB819002099
S2140011F008B502481CF0D5FC08BD00BFB819002091
S21400120008B5024B1A6A1868904708BDB81900203E
S21400121030B58BB000230693079308930993944B3D
S2140012200693944906A80FF05BFF934B186038B3FB
S2140012300023059305A91DF033FC054600283ED083
S2140012408E4C8F4920681CF090FA8E4920681CF05E
S2140012508CFA1AF05AFF1AF059FF8B4B009376233C
S2140012608A4A8B4920681CF080FA8A4A8A49206894
S2140012701CF07BFA2A46894920681CF076FAFEE7BD
S2140012807E4C7F4920681CF070FA7E4920681CF06E
S2140012906CFA1AF03AFF1AF039FF7B4B00936B2377
S2140012A07A4A7B4920681CF060FA7D4A7A492068B1
S2140012B01CF05BFA7B4920681CF057FAFEE76E4C80
S2140012C0794A7A4B1968206810F0ECF900212068FA
S2140012D01BF05FFC0546F8B1684C694920681CF0B5
S2140012E044FA684920681CF040FA1AF00EFF1AF01B
S2140012F00DFF654B00938B23644A654920681CF0FC
S21400130034FA644A644920681CF02FFA2A46684971
S21400131020681CF02AFAFEE76649574B186810F05A
S21400132055FA0546F8B1554C554920681CF01DFA8B
S214001330544920681CF019FA1AF0E7FE1AF0E6FE87
S214001340514B00939723514A514920681CF00DFADF
S214001350504A514920681CF008FA2A465649206827
S2140013601CF003FAFEE7554A40F23F23CDE900237E
S2140013704FF0FF324FF0FF333F4908681DF02EF95B
S2140013800546F8B13D4C3E4920681CF0EEF93D4953
S21400139020681CF0EAF91AF0B8FE1AF0B7FE3A4BCD
S2140013A00093A023394A3A4920681CF0DEF9394AEE
S2140013B0394920681CF0D9F92A46414920681CF0B2
S2140013C0D4F9FEE73F4B1B88ADF81030ADF80C3073
S2140013D004A9294B18681DF0DEF80546F8B1274C1D
S2140013E0274920681CF0C1F9264920681CF0BDF981
S2140013F01AF08BFE1AF08AFE234B0093B023234A82
S214001400234920681CF0B1F9224A234920681CF0C1
S214001410ACF92A462C4920681CF0A7F9FEE703A978
S214001420154B18681DF0CFF8054608B90BB030BD4F
S214001430124C134920681CF098F9124920681CF0D9
S21400144094F91AF062FE1AF061FE0F4B0093B52372
S2140014500E4A0F4920681CF088F90E4A0E4920688B
S2140014601CF083F92A46194920681CF07EF9FEE72D
S214001470EDC00100D1C0010030080020E4190020B2
S2140014809C9F0200F48C0200DC8E0200FC8C0200A2
S2140014901C8D0200908D0200508D0200C48D02004B
S2140014A0288D0200688D0200D9C0010000080020C7
S2140014B0F08D020007001100288E0200EFFFF3FFF8
S2140014C0508E0200F48E02007C8E0200AC8E02006B
S2140014D082B0054B019302AB03EB800050F8043C4E
S2140014E0186802B0704700BF3008002008B5084BE7
S2140014F001221A70074B00221A70074B04221A703A
S214001500064B1F221A700DF087FB054B186008BDAE
S214001510CA0D002045640020C90D0020C80D00201B
S214001520E419002008B50448044A121A9210044927
S2140015301AF0EEFD08BD00BFD44E0300D44E0300E3
S214001540B464002008B500F02FF8FFF7EBFF124A4E
S2140015500AE01068516850F8230041F82300013370
S21400156091688B42F5D30C320C4B9A4201D2002381
S214001570F6E70B4A08E01168002041F82300013323
S21400158051688B42F7D30832064B9A4201D20023A9
S214001590F6E7FFF785FC00BFB4480300C048030029
S2140015A0C0480300C048030010B4154B154A9A60A3
S2140015B0D3F8882042F47002C3F88820124A4FF409
S2140015C00041916601F1884101F500524FF0FF306D
S2140015D010664FF6DF7050660220C3F8D000BFF3E7
S2140015E04F8FBFF36F8F09480824C0F880414FF42F
S2140015F04033D36004600B615DF8044B704700BF56
S21400160000ED00E0000000000090005000E100E067
S214001610014B1868704700BF3808002008B5094B12
S2140016201B6F03F00703022B04D0032B05D0012BFE
S21400163006D0FEE7FFF7ECFF03E0034B186800E078
S214001640024808BD0080005040080020002D3101EF
S21400165008B5FFF7E3FF054B1B6FC3F303330133F6
S214001660B0FBF3F0024B186008BD00BF00800050CE
S214001670340800200048704700B4C404014B1868C2
S214001680704700BF4008002008B5064B1860064BA0
S2140016901B6F03F00703032B00D008BDFFF7D8FF2E
S2140016A0FBE700BF4008002000800050004870475D
S2140016B0002D3101014B1868704700BF3C08002020
S2140016C0F0B18446F1B110B409E004F120000FE057
S2140016D02033C01A18D1BCB10CF1010C01319CF8B2
S2140016E000400B4B1B5D03F00303012BEDD020469F
S2140016F00B78074AD25C02F00302012AE9D1E7E739
S21400170001207047012070475DF8044B704700BF0A
S2140017103B4703000346064A10680344054A9342C3
S21400172002D8034A136070474FF0FF30704700BF7F
S214001730440800200080002008B501213A2000F06F
S21400174045FD012304220321002001F0C7FA0020F2
S2140017501AF072FF224B0122C3F844244FF4607043
S2140017601AF099FD1F4BD3F8F02042F00102C3F89F
S214001770F020D3F8FC2042F08072C3F8FC20A3F5DA
S2140017805D43194A1A6000F5D52000F2FC40C008F7
S214001790164BA3FB0030800A0138154B1861022255
S2140017A0C3F8F0204FF48072C3F804234FF0604370
S2140017B0104AC3F8B02F104AC3F8802ED3F8002E74
S2140017C042F48072C3F8002EFF2283F82020D3F85C
S2140017D0002E22F48072C3F8002E002008BD00BF41
S2140017E000D0035000ED00E0FF03004017916502B3
S2140017F0000004E055CEACC5090001004FF0604380
S214001800D3F8803E13F0010F01D1112070470E4A25
S214001810D2F8FC3043F08073C2F8FC304FF06043DF
S214001820D3F8002E4FF0010C0CFA00FC42EA0C0232
S214001830C3F8002E53F82030002BE8D04FF060435A
S21400184003F820100020704700ED00E0F0B585B0EA
S2140018500C4694469DF83410664A1278002A00F02A
S214001860BD800546BCF1070F00F2BA800A9A002A2E
S21400187000F0B8800B9A002A00F0B6800E9AB2F5F7
S214001880006F00F3B38001285BD05B4A02EB0C12BA
S214001890127B002A00F0AC80002200920192029295
S2140018A00392564A02EB4C1E002C4FD14FEA4C16C0
S2140018B000209051CEF80400CEF80800CEF80C00B8
S2140018C09EF8020040F010008EF802009EF803001A
S2140018D040F030008EF8030021B9C1B241F0030198
S2140018E08EF8031000930E9B013B444A4FEA4C10BF
S2140018F002EB4C11165A63F30E1616520A9B8B60B7
S2140019000B9B4B60CB789DF83C2062F38303CB7037
S214001910012D36D0109B002B56D0374A4FEA0C11BB
S21400192002EB0C1310985050119A5A6000249C60D9
S2140019305D7372466946604601F08EFA204605B031
S214001940F0BD0C9A002AA0D12D48F8E72B4F4FEA9D
S2140019504C1607EB4C120020B85150609060D060D7
S214001960907840F010009070D07840F00300D0706F
S2140019700029B7D107EB4C12C1B241F03001D1704B
S214001980B0E70E460A7B42F001020A73D2B242F07A
S21400199002020A73CA68042161F39F02F26006F12C
S2140019A0100796E80F0087E80F00F2696FF0030152
S2140019B061F39F02F2610C9B7361012CAAD10B9A12
S2140019C0B2610C9A7260A5E7002DA6D10B4B03EB13
S2140019D04C139A786FF304129A709EE70948AEE7A4
S2140019E00748ACE70648AAE70548A8E70448A6E77C
S2140019F00548A4E746640020E81A0020E8190020FD
S214001A00018000F0028000F0078000F0134B1B7886
S214001A10FBB110B50446F0B11AF0E8FD0023072B21
S214001A2013D80F4A02EB0312127B0AB10133F6E712
S214001A3023600B4A190102EB031301241C730024D4
S214001A4054501AF0D9FD204602E01AF0D5FD05489C
S214001A5010BD054870470548FAE700BF46640020F9
S214001A60E81A0020048000F0028000F0018000F0F8
S214001A7038B51AF0BBFD04460023072B06DC0C4ADB
S214001A8002EB0312127B12B90133F6E7002222B1F1
S214001A9020461AF0B1FD074838BD01F07FF9002551
S214001AA0054B1D7020461AF0A7FD2846F4E700BF38
S214001AB0E81A0020058000F0466400200F4B1B78D3
S214001AC0BBB110B50446072815D81AF08FFD0C4B8D
S214001AD003EB04131B7B1BB91AF08EFD09480BE0C1
S214001AE0074B03EB041300241C731AF085FD2046F5
S214001AF002E005487047054810BD00BF4664002058
S214001B00E81A0020068000F0028000F0018000F055
S214001B1000B583B0134B1B68019300238DF8043087
S214001B201AF064FD104B1B7833B90F4B01221A7064
S214001B301AF062FD002309E01AF05EFD0B480EE085
S214001B400B4A02EB0312002111730133072BF7DD5A
S214001B5008238DF8073001A801F04CF9002003B0E7
S214001B605DF804FBF88E020046640020038000F057
S214001B70E81A002008B50A4B1B785BB107280BD87B
S214001B80084B03EB00131B7B43B1002101F024F943
S214001B90002008BD0448FCE70448FAE70448F8E7D4
S214001BA046640020E81A0020028000F0018000F061
S214001BB0078000F008B50A4B1B785BB107280BD8E6
S214001BC0084B03EB00131B7B43B1012101F004F922
S214001BD0002008BD0448FCE70448FAE70448F8E794
S214001BE046640020E81A0020028000F0018000F021
S214001BF0078000F008B50A4B1B7853B107280AD8AF
S214001C00084B03EB00131B7B3BB101F06DF9002082
S214001C1008BD0548FCE70548FAE70548F8E700BFB1
S214001C2046640020E81A0020028000F0018000F0E0
S214001C30078000F0104B1B78ABB1072815D8B1B160
S214001C400E4B03EB00131B7B9BB10D4B1B6D012250
S214001C50824013EA020003D001230B700020704775
S214001C6000230B70704707487047074870470648C0
S214001C7070470648704700BF46640020E81A0020F8
S214001C8000000450028000F0018000F0078000F0A1
S214001C900C4B1B7873B110B50C4607280CD869B1ED
S214001CA0094B03EB00131B7B53B101F02FF9207097
S214001CB0002010BD054870470548FAE70448F8E7D5
S214001CC00448F6E746640020E81A0020028000F088
S214001CD0018000F0078000F0F8B5194B1F6D5B6DB2
S214001CE01F4002D40125002402E0FEE701346D0007
S214001CF0072C24D83D42F9D0124B1D652301124A09
S214001D00D358002BF2D002EB0416B1680131B16053
S214001D1072682046984780F00100C0B2737B012BA2
S214001D20E4D10028E2D0094B03EB44131A7B6FF38F
S214001D3041021A731A7F6FF341021A77D6E7F8BD8D
S214001D400000045000200450E81A0020E819002083
S214001D5010B5044602E0202007E09047DCB194FA74
S214001D60A4F00028F7D0B0FA80F00123834024EADC
S214001D700304094B03EB00135A68002AEED0064B07
S214001D8003EB00131B7B002BE7D0034B03EB001386
S214001D9099689047E2E710BD681B002008B5192037
S214001DA000F004FD28B1084B4FF00072C3F8802104
S214001DB01A601A2000F0FAFC28B1034B4FF080623C
S214001DC0C3F880211A6008BD00E100E038B505467A
S214001DD00C461AF00BFC044B03EB05135C60002268
S214001DE01A731AF009FC38BD681B002008B5084BAA
S214001DF0D3F82404D3F82024104000F0553020F007
S214001E00502003F50053C3F82004FFF7A1FF08BDD8
S214001E1000C0035008B5084BD3F82404D3F8202498
S214001E20104000F0AA3020F0A02003F50053C3F8BD
S214001E302004FFF78DFF08BD00C00350024B4FF48F
S214001E4080321A67704700BF0090005038B50546CC
S214001E500C46104BD3F8200100F00300032815D8D9
S214001E60DFE800F002080C10012305B1286004B179
S214001E70236038BDFFF7CCFB0523F6E7FFF7FEFB34
S214001E800323F2E7FFF712FC0223EEE700231846CF
S214001E90EBE700BF0080005070B582B006460D46E6
S214001EA0002301930D4BD3F8804104F00304012C6A
S214001EB009D0022C0DD000240EB1019B336005B171
S214001EC02C6002B070BD002101A8FFF7BFFF0F24F1
S214001ED0F2E7FFF7EBFB0190EEE700BF0080005053
S214001EE038B505460C46174BD3F8240100F007001A
S214001EF0062823D8DFE800F0040A121A1E0E160081
S214001F00012305B1286004B1236038BDFFF780FBCC
S214001F100523F6E7FFF77CFB0623F2E7FFF7AEFBA9
S214001F200323EEE7FFF7AAFB0423EAE7FFF7BEFB6F
S214001F300223E6E71AF0F8F80723E2E7002318463C
S214001F40DFE700BF0080005038B505460C46104B52
S214001F50D3F8000100F00300032815D8DFE800F0EE
S214001F6002080C10012305B1286004B1236038BDB7
S214001F70FFF784FB0323F6E7FFF79CFB0823F2E753
S214001F801AF0D2F80723EEE700231846EBE700BF67
S214001F900080005038B505460C46104BD3F840017B
S214001FA000F00300032815D8DFE800F002080C1044
S214001FB0012305B1286004B1236038BD1AF0B6F8D5
S214001FC00923F6E7FFF776FB0823F2E71AF0B1F8E5
S214001FD00B23EEE700231846EBE700BF0080005017
S214001FE008B50B4BD3F8203203F00303012B08D0BF
S214001FF0022B09D008B10023036021B100230B6037
S21400200001E0FFF723FF08BDFFF7C4FFFBE700BFB3
S2140020100080005038B505460C46134BD3F8000236
S21400202000F0070004281BD8DFE800F003090D11B4
S2140020301500012305B1286004B1236038BD1AF0ED
S21400204075F80923F6E7FFF735FB0823F2E71AF0E1
S21400205070F80B23EEE7FFF7FBFA800A0E23E9E79A
S21400206000231846E6E700BF0080005038B5054656
S2140020700C460F4BD3F8403203F00303022B0ED06E
S214002080032B10D0012B06D00023184605B128607C
S21400209004B1236038BD1AF049F80923F6E7FFF7C4
S2140020A009FB0823F2E71AF044F80B23EEE700BF1B
S2140020B00080005038B505460C46104BD3F860013A
S2140020C000F00300032815D8DFE800F002080C1023
S2140020D0012305B1286004B1236038BD1AF026F844
S2140020E00923F6E7FFF7E6FA0823F2E71AF021F8E5
S2140020F00B23EEE700231846EBE700BF00800050F6
S214002100B0F5207F20D00ED8B0F5007F16D020D8AE
S21400211010B1B0F5C07F04D10F4B186FC0F3033079
S21400212018E0002016E0B0F5607F05D10A4BD3F822
S2140021308000C0F301100DE000200BE0064BD3F842
S2140021409000C0F3046005E0034B186FC0F38020D6
S21400215000E00020013070470080005038B505468A
S2140021600C46174B4FF400329A660020FFF7C8FF64
S21400217005FB00F0134BDA6902F4803241F6713148
S214002180D9639B6823F440136CB90F49884207D87B
S21400219000210B430B498B600AB10022CA6338BD8D
S2140021A04FF48011F5E7002C07DD0749884201D877
S2140021B00021EEE74FF48011EBE74FF44011E8E71B
S2140021C00090005000000350005A6202430907D0F6
S2140021D0012B0FD0022B01D0094A02E0094A00E089
S2140021E0002200F01F0039B102F58052012383401F
S2140021F013607047044AF4E702F50052F6E700BFA2
S21400220060820050688000506480005008B58020CE
S2140022101AF041F8034B984203D8034B4FF4803230
S2140022201A6708BD005A620200A0005000B583B0CD
S21400223000230193B0F5807F7CD00FD9B0F5D06F26
S2140022407DD039D9B0F5006F4BD04FD9B0F5086FB7
S21400225067D101A90020FFF777FE62E052281ED85A
S21400226024285ED324382E285BD8DFE800F05E5E94
S2140022705E5E5A5A565A2F685A5A5A5A5A5A5A5AD2
S2140022805A5A6D5A5A5A5A45725A5A5A5A5A5A5A93
S2140022905A5A5A5A5A5A5A5A5A5A5A5A5E008028FB
S2140022A03FD12E4B1B6F03F00703013B032B38D89F
S2140022B0DFE803F030272A2DB0F5A06F44D00AD906
S2140022C0B0F5B06F29D0B0F5C06F2AD101A90020B3
S2140022D0FFF760FE25E0B0F5806F26D0B0F5906F72
S2140022E01FD101A90020FFF7FBFD1AE0B0F5E06F53
S2140022F02FD0B0F5F06F14D101A90020FFF7DAFE59
S2140023000FE0052301930CE00323019309E0072364
S214002310019306E00223019303E001A90020FFF7E2
S214002320BBFD019803B05DF804FB01A90020FFF790
S2140023308DFDF6E701A9002019F07AFFF1E701A963
S2140023400020FFF767FEECE701A90020FFF748FE34
S214002350E7E701A90020FFF789FEE2E700800050CA
S214002360044B4FF400225A6603F5804301229A621A
S214002370704700BF0090005010B504468020FFF75D
S21400238055FF032800F09E804F4B4FF400225A66FC
S21400239003F5405345F60E02C3F8802003F580523D
S2140023A00221916203F5005301229A62474B9B6D0E
S2140023B013F4803FFAD1226863681B0543EA026380
S2140023C0227B43EA0243627B43EA0233A27B43EA70
S2140023D08213E27B13433D4A1361936903F0004383
S2140023E0216943EA8163616943EA0163217E43EA26
S2140023F00143617E43EA0123A17E0B439361136A86
S21400240023F00D03E269002A43D111460B43E17E17
S21400241043EA81031A432D4B1A62E369002B3AD133
S2140024202A4A936A23F0330394F8201043EA4113B0
S21400243094F8211043EA011343F001039362234BFF
S2140024409A6D234B9343FAD1204B03F58051022219
S2140024508A621A651D4B9B6D13F0804FFAD11B4B99
S2140024601A6922F47002A16842EA01521A6103F561
S21400247080534FF000429A6194F8223013B9154BFE
S21400248002229A6294F82330ABB9124B01229A6268
S21400249011E00821BAE70D4A936A23F0330394F853
S2140024A0201043EA411394F8221043EA410394F8BB
S2140024B023100B43936294F824301BB1034B064A57
S2140024C0C3F8802010BD00BF0090005000C0005030
S2140024D00300014000E00050F1A7FFFF70B51A4B63
S2140024E09E6A9B6D13F4803F02D0184B01229A62BD
S2140024F0154B03F58052022191629B6D13F4803FC9
S21400250004D0114B9B6D13F0020FFAD00F4B022232
S2140025101A650D4B9B6D13F0804FFAD10A4DAC69CE
S214002520C4F3072432460221094819F09FFEAB6D1A
S21400253013F4803F01D1204670BD32460121044885
S21400254019F094FEF7E700BF00C0005000D000501E
S21400255028C00050014B1870704700BF4764002029
S214002560014B93F90000704747640020F8B5254BEF
S2140025709E6AFF2843D805469B6D13F4803F02D021
S214002580214B01229A621F4B03F580520221916271
S2140025909B6D13F4803F04D01A4B9B6D13F0020F13
S2140025A0FAD0194B02221A65164B9C6D14F0804423
S2140025B0FAD1FFF7D5FF401903D4FF2802DDFF202C
S2140025C000E000200F4FBB6923F47F0323F47F4312
S2140025D043EA00432D02ADB22B43BB6132460221D3
S2140025E00A4819F043FEB86D10F4803000D1F8BDEB
S2140025F032460121054819F039FE2046F7E721202A
S214002600F5E700BF00C0005000D0005028C00050C2
S21400261008B51A4B9A6A03F5805301219962174B45
S2140026209B6D03F00303032BF9D1154B022199622E
S2140026301965124B9B6D13F0804FFAD10F4B996DB5
S214002640104B8B43FAD10E4B012119650B4B9B6D3A
S21400265013F0020FFAD1094B9B6D13F0020FFAD05C
S214002660074B02211965054B9B6D13F0020FFAD03C
S2140026700321054819F0FAFD08BD00BF00C0005050
S21400268000D000500300010028C00050014B188005
S214002690704700BFB40D0020B0F5207F48D02DD87D
S2140026A0B0F5007F39D04CD810B1B0F5C07F24D13A
S2140026B010B54C1E19F0E8FD19F07EFFFFF7BEFBC3
S2140026C0204A136F23F4704343EA04331367FEF77C
S2140026D0BFFF1D4BD3F8843013F0100FF9D11A4BFF
S2140026E0D3F88410C1F38111C1F1020119F059FF2A
S2140026F000F02CF8FFF78AFD10BD7047B0F5607F3C
S2140027000AD101390F4AD2F8803023F0300343EA69
S2140027100113C2F88030704770470139094AD2F871
S214002720903023F0F85343EA0163C2F890307047C4
S2140027300139044A136F23F4806343EA8123136745
S21400274070477047008000500040005008B54FF4B6
S214002750C07019F0A0FD054B984205D902214FF430
S2140027602070FFF799FF08BD0121F8E780F0FA0214
S21400277008B5FEF76DFF0C4BD3F8843013F0100F3E
S214002780F9D1094BD3F88410C1F38111C1F10201CC
S21400279019F007FF0121002000F022F9FFF7D6FF0D
S2140027A0FFF734FD08BD00BF004000504209064B4D
S2140027B053F8223000F01F0023FA00F080F00100EA
S2140027C000F00100704700BF00E100E090B9254B23
S2140027D000221A60244B4FF400325A6603F59833F1
S2140027E05B68012B00D07047204BD3F800211D4BAF
S2140027F01A6070471B4B1B68002BF4D01C4A5268AB
S214002800012AF0D010B5194AC2F800318020FFF72F
S2140028100DFD052803D0174B01225A6010BD4FF45A
S214002820C070FFF76DFC0446012815D0104B03F569
S21400283000520721116103F5805301225A600C4BA8
S2140028401B6913F0010FFAD0012CE7D101214FF4D8
S214002850C070FFF721FFE1E702214FF4C070FFF7D9
S2140028601BFFE3E7681D002000900050008000502A
S21400287000C0015000D00150044A536F23F4407347
S214002880417843EA01235367704700BF0040005079
S21400289038B50546E0B9124A136943F004031361DC
S2140028A00DF026F919F0ABFE0E4B0F4AC3F82024A4
S2140028B019F095FE04461DF02FFE204619F093FEF3
S2140028C019F09EFE0DF03EF935B9FEF7C1FE38BD93
S2140028D00020FFF77BFFDEE70120FFF777FFF6E734
S2140028E000ED00E000E003500000FF0F38B505469D
S2140028F0C0B9104A136943F0040313610E4B0F4A24
S214002900C3F820240DF0F4F819F069FE04461DF013
S21400291003FE204619F067FE0DF014F935B9FEF7F0
S21400292097FE38BD0020FFF751FFE2E70120FFF7D2
S2140029304DFFF6E700ED00E000E003500000FF0F5B
S214002940034AD36E23F0300301790B43D3667047F6
S21400295000400050F8B50446204BD3F8843013F0FE
S214002960100FF9D11D4BD3F88430C3F381139C426A
S2140029702DD0FEF753FE0646012C11D019F02FFE7F
S2140029800546164F07F500534FF000725A6620466C
S21400299019F043FE621E4FF4806393403B6706E0E7
S2140029A0012119F0FEFDE9E70C4BD3F884300B4B00
S2140029B05B6E13F0007F05D1084BD3F8843013F01C
S2140029C0200FF1D0284619F00EFE022C00D0F8BDDC
S2140029D00021304619F0E5FDF9E700BF0040005041
S2140029E010B50C46034650B1094A127812B1094A8E
S2140029F0934208D921460220FFF7ACFF10BDFEF730
S214002A000DFE0346F0E721460120FFF7A3FFF5E79A
S214002A106C1D0020005A620208B50278034B1A703B
S214002A2001210020FFF7DCFF08BD00BF6C1D002061
S214002A3010B5304B4FF000425A6603F50B2303F5F2
S214002A40805201215160596C01F001014AF6CD32E5
S214002A501A6418BB9C6814F0010412D003F50053E6
S214002A6001229A600023244AD26A12F0010F04D190
S214002A70224A934201D80133F5E7204A93420BD805
S214002A8000241F4B01225A6011B11B4B1D4A1A64C9
S214002A901BF0F9FD204610BD0724F2E70023164A76
S214002AA0D26A12F0080F04D0144A934201D80133B8
S214002AB0F5E7124A934218D80F4B03F50052202030
S214002AC0506203F5805301229A60002300E0013330
S214002AD0094A526A12F0200F02D1084A9342F6D9E8
S214002AE0064A934203D80024CEE70724CCE70724FF
S214002AF0CAE700BF00900050004009503F420F0058
S214002B00006009503254FFFF70B51B4BDC6E24F09A
S214002B10030444F00204DD6E45F003054AF6E8526D
S214002B201A6619F05CFD064619F04DFD134A136F40
S214002B3023F0070343F001031367FFF719FE002095
S214002B40FFF776FF19F067FD19F066FD0C4B0D4A8E
S214002B50C3F82024002303E0074AD466D566013371
S214002B60032BF9DD044BDC6603F510235B6A304665
S214002B7019F039FD70BD00BF0040005000800050C5
S214002B8000E003500000FF0F10B51B4B4FF0004253
S214002B905A661A4A02F5805301215960546C0C405B
S214002BA04AF6CD33136443788B400B431449CB630A
S214002BB0936823F07403827843EA0213C278C2B1A2
S214002BC0042213430D4A93600179837943EA012373
S214002BD013614179C37943EA012353610078FFF713
S214002BE027FF14B1054B074A1A641BF04CFD012061
S214002BF010BD0022E5E700BF0090005000400950DD
S214002C00004000503254FFFF2DE9F8430D461446AD
S214002C101E469DF820809DF82470072A29D8930028
S214002C2000FA03F203219940214819F0F7FC4FF00F
S214002C300009072C29D8A10005F003028A400323C7
S214002C4003FA01F11B4819F0E9FC5EB31A4A0123A6
S214002C50A3401360B8F1000F26D0184A1360012273
S214002C60A2401749C1F8202407B3164A1360BDE8EE
S214002C70F883A2F108094FEA890300FA03F2032158
S214002C809940114819F0CAFCD3E74FEA890905F0C4
S214002C90030202FA09F2032101FA09F10B4819F0BE
S214002CA0BDFCD2E70A4AD2E70A4AD7E70A4ADDE776
S214002CB000C4035008C4035010D4035014D4035067
S214002CC000E0035024D4035004C403500CC4035043
S214002CD010E4035014E4035024E40350F8B504460B
S214002CE00D461E46174662B14BB301228A4000EBE2
S214002CF040031B0103F1A04303F5703341F21001BA
S214002D005A50072D28D8A90004EB44031B0107FAE4
S214002D1001F20F2000FA01F11E48184419F07EFC5B
S214002D2067B94EB30123AB4004EB4404240104F11D
S214002D30A04404F5703441F21002A350F8BD0122FD
S214002D408A4000EB40031B0103F1A04303F57033F8
S214002D5042F210015A50D4E7A5F108039B0004EB99
S214002D60440C4FEA0C1C07FA03F20F2199400A485C
S214002D70604419F053FCD3E70123AB4004EB440452
S214002D80240104F1A04404F5703442F21002A3506A
S214002D90D4E700BF04C003500CC0035010B50C4B62
S214002DA04FF40012C3F88020BFF34F8FBFF36F8F2E
S214002DB0084B00245C65FF229A625C602146202056
S214002DC0FFF704FA21462120FFF700FA10BD00BFE6
S214002DD000E100E00000045029B9044A012303FA88
S214002DE000F010607047024AF8E700BF4010045039
S214002DF04020045010B5044601212020FFF7E6F9D4
S214002E0001212120FFF7E2F9114B01225A602278B6
S214002E1012069A606178A27842EA01429A61FF221D
S214002E209A6200229A631A644FF000425A6503F5CC
S214002E3000534FF0FF321A65064A4FF40011C2F8ED
S214002E408011E3781B01DBB282F81533116010BDE8
S214002E500000045000E100E070B50C46C3B2012546
S214002E609D40204E06F500531D65096803F5005386
S214002E7043F82010637B00EB400106EB01110B6664
S214002E8094F80AC0E37A1B0543EA0C4394F80CC096
S214002E9043EA4C53CB6522F003020A6719F0A6FBFF
S214002EA0736D2B437365237A13B1336C2B433364F2
S214002EB0637A1BB10B4A936B2B4393632379A279F6
S214002EC042EA0342074B03F500518A616679E279CC
S214002ED042EA064203F58054A2614D639D6419F0F0
S214002EE08BFB70BD0000045010B5C0B201248440B6
S214002EF019F07CFB044B5A6D22EA04025A659C6268
S214002F0019F07AFB10BD00BF0000045010B5C0B227
S214002F100124844019F06AFB084BDB6A234205D182
S214002F20064B5B6B9C4306D0002400E0002419F09F
S214002F3063FB204610BD0124F9E700BF00000450E3
S214002F4041B90630084B53F8200020F0F800400442
S214002F50400C70471230044B53F8200020F0F80065
S214002F604004400C704700BF0080035070B5044614
S214002F70C2F3062602F0070241B942EA062242F4EC
S214002F8040220634094B43F8242070BD11463046D3
S214002F9019F07DFB0546304619F04FFB45EA002543
S214002FA01234024B43F82450EFE700BF0080035072
S214002FB010B40C4681B90E4942EA034241F820207B
S214002FC064B90C49D1F83435012282401343C1F864
S214002FD034355DF8044B70470749EDE70549D1F8ED
S214002FE034350C30012282401343C1F83435F0E703
S214002FF038C5035000C0035068C50350014BD3F8D2
S21400300094007047004000500B784A7843EA8203E9
S214003010CA7843EA42130A7943EA021300EB4002F5
S214003020920002F1B04213630B78012B00D0704778
S2140030308A78024B43F82020F9E700BFE880035067
S2140030404FF0B0435B680BB9002837D04FF0B04361
S2140030505B6843B14FF0B0435B6823B14FF0B043B9
S2140030609B6A002BF6D180B1154B01225A604FF0B7
S214003070B0435B6823B14FF0B0439B6A002BF6D198
S2140030804FF0B0430122DA6070474FF0B0435B6800
S21400309023B14FF0B0439B6A002BF6D14FF0B043FC
S2140030A00222DA604FF0B0435B6823B14FF0B043C2
S2140030B09B6A002BF6D1034B01225A60704700BF73
S2140030C000100058002000584FF0B0435B6843B132
S2140030D04FF0B0435B6823B14FF0B0439B6A002BC0
S2140030E0F6D1154B01225A604378E3B11346827835
S2140030F0DAB102221343C278CAB10422134302791A
S21400310043EA0213427943EAC2034FF0B0429360A7
S21400311002F5805201235360037853B101224FF029
S214003120B043DA6070470023E1E70022E2E70022BE
S214003130E4E70222F3E700BF00200058074B4FF4F5
S21400314080325A6603F5E6235B69C3F38512827004
S21400315003F03F0242701B0B037070470090005054
S214003160024B1868C0F30740704700BF0080E00FAE
S2140031700A4B984207D00A4B984209D0C36D43F0D9
S2140031808003C3657047A3F51033C3F88C11F5E7C9
S214003190A3F52033C3F89C11F0E700BF00C005502C
S2140031A00000065070B5054616461C460846D1B1C6
S2140031B0402C21D01CD80CB3202C13D1082306FB9E
S2140031C003F2530803EB4013B3FBF2F3203B0C4A25
S2140031D002EAC303AA6822F06002AA60AA6814433F
S2140031E0AC60EB6170BD4FF4207019F054F8DFE767
S2140031F0602CF7D10423E2E70623E0E71023DEE79E
S214003200F8FF7F0000F5805301225A6040F6AA635B
S214003210436100238360C36541F20502C260036117
S214003220C361C36400F500520C49916483650C4B7E
S214003230984206D00B4B98420CD00A4B984204D1C9
S21400324001E0002303650023436500F500500123D9
S2140032504360704700230365EFE700BFFFFF0100F0
S21400326000C005500000065038B505460C46FFF76E
S214003270C9FF05F5805301225A60A37C1BB1AB68D9
S21400328043F08043AB60E37C002B42D1637B228A11
S2140032901343E2891343EB60237BA26861682846E8
S2140032A0FFF780FF637D1BB1AB6843F48033AB60F0
S2140032B0A37D1BB1AB6843F40043AB60E37D1B0703
S2140032C003F0E043227E120502F4E0021343AB65EE
S2140032D0637E023BDBB2012B20D9214B9D4236D0C8
S2140032E003F580439D4230D04FF0FF335B0103F17E
S2140032F0A04303F5703342F21C6202219950637EAC
S214003300012B26D0032B24D005F500530422DA65C2
S21400331023E0217D2846FFF72BFFB7E7104B9D42A1
S21400332011D003F580439D420BD04FF0FF335B0175
S21400333003F1A04303F5703341F21C620221995059
S214003340DDE70123F3E70023F1E70123CEE70023BF
S214003350CCE705F580530422DA6523786B6138BD27
S21400336000C0055038B50546054C204619F06DFBE3
S214003370A5702146034B18681BF036F938BD00BF10
S214003380701D00202039002038B50446836819686F
S21400339001200AF02FF900B938BDA368E26853F897
S2140033A022301D68E8B2FFF7DDFFA3682A4602490F
S2140033B018680DF04FF9EFE7FC8E020010B50446D2
S2140033C019F00DF9084B1B7853B9B4F5A05F09D86E
S2140033D0054B01221A70054C19F005F9204610BD60
S2140033E00024F9E70024F7E748640020781D002051
S2140033F0184B1B680BB10120704710B5044641F20C
S2140034007430FFF7DBFF0346124A1060C8B100F1C4
S214003410680100F58052C2F8EC120021C2F8F012E2
S21400342000F594500830C2F8F4020120C2F8F80201
S214003430C2F8FC12C2F8881203F59453C2F89C3204
S21400344010BDA368044A862118680DF05BF90020B9
S214003450F6E700BF78310020088F02000C2A0AD851
S2140034600C2A60D8DFE802F014175F1B20255F5F88
S2140034702A30363C4100FF2A08D1002302283AD0E1
S214003480032849D0002840D001207047012070470B
S214003490294B1B68F2E7284B1B684C33EEE7264B9C
S2140034A01B6803F66803E9E7234B1B6803F507630D
S2140034B0E4E7214B1B6803F50863DFE71E4B1B6838
S2140034C003F595530C33D9E71B4B1B6803F598534C
S2140034D00433D3E7184B1B6803F598530933CDE73D
S2140034E0154B1B6803F59B53C8E7134B1B6803F586
S2140034F09B530C33C2E7B1F5007F16D20E4A126812
S2140035001A3142F821300020704712290FD80A4A93
S214003510126842F82130704759B9074A1268C2F853
S214003520683800207047012070470120704701204E
S21400353070470120704700BF7831002038B5044638
S2140035401AF0ECFE012802D00225284638BD0020DD
S21400355006F0D6FB05460028F7D120461BF087F874
S214003560084B1968084A01F597510C3120460EF0B1
S21400357099F80022054B1A60032120461AF0D2FE65
S214003580E3E700BF78310020D9C00100004A0020E0
S21400359000B50C286FD8DFE800F00712181E252C9F
S2140035A0333A6E424A525900354800684FF04C0E86
S2140035B001EB020CF44560D80144104653E0304855
S2140035C000684C304FF01A0EF2E72D48006868305D
S2140035D04FF4006EECE72A48006800F668004FF0EB
S2140035E0080EE5E72648006800F507604FF0100E65
S2140035F0DEE72348006800F508604FF4206ED7E742
S2140036001F48006800F594504FF0080ED0E71C489D
S214003610006800F5945008304FF0240EC8E71848AC
S214003620006800F5985004304FF0050EC0E71448C7
S214003630006800F5985009304FF0560EB8E710486D
S214003640006800F59B504FF00C0EB1E70C48006880
S21400365000F59B500C304FF0050EA9E713F8012B30
S21400366001F8012B604600F1FF3C5FFA8CFC002855
S214003670F4D15DF804FB0120FBE70120F9E700BF69
S21400368078310020F0B585B004468268C3680233FE
S21400369052F823301D78FFF7ABFE002839D0636858
S2140036A0E6689B1BEA1C93420BD10A2D10D8A36830
S2140036B053F826201078721C53F8223019880023FD
S2140036C01BE0A368174A802118680DF01BF820E05D
S2140036D0A368154A812118680DF014F819E0DA1C61
S2140036E03244A76857F8222092F800C003F110026F
S2140036F06A4402F80CCC0133DBB2AB42EFD301AB29
S2140037002A46FFF745FF30B9A368084918680CF049
S214003710A1FF05B0F0BDA368054A822118680CF029
S214003720F1FFF6E7288F02005C8F0200A88F0200E8
S2140037308C8F020010B50446FFF75AFE50B162683F
S214003740E368D21A032A06D0A368114A83211868B0
S2140037500CF0D8FF10BDA26852F82300591C52F88E
S2140037602110023352F823301A7809880078FFF7C0
S21400377075FE28B9A368074918680CF06BFFE9E7DF
S214003780A368054A842118680CF0BCFFE2E700BF76
S214003790C08F0200A88F0200E08F020010B504461A
S2140037A0FFF726FE00B910BD084B1868FFF7C6FEE7
S2140037B028B9A368064918680CF04CFFF3E7A3681D
S2140037C0044A852118680CF09DFFECE7203900209C
S2140037D0A88F0200FC8F0200F0B599B004468368FB
S2140037E01968012009F006FF002800F089800DF115
S2140037F0440C574D0FCDACE80F0095E807008CE859
S21400380007000025069501238DF81C304FF4287319
S214003810ADF81E3002238DF820308DF821308DF85B
S21400382022308DF823300DF1240C0DF1440EBEE845
S2140038300F00ACE80F009EE807008CE807000B239B
S2140038408DF840308DF841508DF842508DF8435039
S214003850A768E56857F8256004223E4930461CF004
S21400386064FB002839D101238DF820308DF82230F2
S214003870A168013551F825301B880B930993E3683E
S2140038809A1C51F8222012880C920A3A0A92DA1CE4
S21400389051F822201288ADF81E206268D21A042A37
S2140038A00ADD043351F823301B78003B18BF012390
S2140038B0294A13708DF84330082006F021FAC8B95B
S2140038C006A9264B18680EF073F90146D0B1A36816
S2140038D0234A18680CF016FF12E0022221493046EF
S2140038E01CF023FB0028C3D01F4A202138680CF0A8
S2140038F009FF05E0A3681D4A222118680CF002FFA4
S21400390019B0F0BD154B1A68194B1A60A3681D68EC
S2140039109DF8220009F0CAFD04469DF8200009F033
S214003920C5FD0B9B0C9ABDF81E109DF8436066B152
S214003930104E0496039102920193009023460E4A7D
S2140039400E4928460CF086FEDAE70D4EF1E700BF7A
S214003950D49602003C9002004964002020390020E2
S21400396084900200A40A02004490020064900200C0
S2140039707C3100202C900200B4900200BC90020023
S2140039803490020010B5836818680CF001FE00241D
S21400399008E0084B53F83420214607480CF07AFE1E
S2140039A00134E4B2082CF4D90022214602480CF077
S2140039B08DFE10BD8C9602003491020038B5044688
S2140039C083681968012009F015FE00B938BD082083
S2140039D006F096F90246002836D16368E1685B1A5D
S2140039E0002B07DDA06850F821201278012B01DD9E
S2140039F0012A30D8012B08DDA0684D1C50F82500A0
S214003A00007810B142F00202D2B2022B08DDA368A1
S214003A10023153F821301B7813B142F00402D2B2BF
S214003A20082A1ED8174B03EBC2035B68CBB1164AB5
S214003A30106898470546D8B1A3681868FDB1134AC0
S214003A4013490CF007FEC1E7A368124A2221186842
S214003A500CF058FEBAE7104A222100680CF052FE1D
S214003A60B4E7A3680D4A012118680CF04BFEADE7D9
S214003A700B4B01221A700B2007F048FFDCE7094ABF
S214003A80DEE700BF8C960200203900203C91020041
S214003A90AC91020064900200489102008C910200F2
S214003AA0CB0D0020B490020038B504468368196830
S214003AB0012009F09FFD00B938BD082006F020F966
S214003AC068B9154B18681BF0FDF9054670B1A36878
S214003AD01868FDB1114A12490CF0BCFDECE7A3686A
S214003AE0104A222118680CF00DFEE5E70E4B022264
S214003AF01A70802007F00AFF0C4B1B88102BE6D1AB
S214003B000B4B1B780F2BE2D1094B18221A70702230
S214003B105A70DCE7074ADEE7203900203C910200B5
S214003B20AC91020064900200CB0D0020B60D002080
S214003B30C8080020B490020038B5044683681968A7
S214003B40012009F057FD00B938BD082006F0D8F866
S214003B5068B9154B18681BF0B7F9054670B1A3682D
S214003B601868FDB1114A12490CF074FDECE7A36821
S214003B70104A222118680CF0C5FDE5E70E4B02221C
S214003B801A70E02007F0C2FE0C4B1B88102BE6D103
S214003B900B4B1B780F2BE2D1094B18221A707022A0
S214003BA05A70DCE7074ADEE7203900203C91020025
S214003BB0AC91020064900200CB0D0020B60D0020F0
S214003BC0C8080020B49002002DE9F04385B00446F2
S214003BD08268C36852F823100D78591C52F82110D9
S214003BE091F80080991C52F821100F78D91C52F8D1
S214003BF021100E784168C91A04293ADD043352F8B8
S214003C00233093F80090B9F1000918BF4FF001096E
S214003C10002D31D12946B8F1000F01D041F0040142
S214003C200FB141F002010EB141F00101B9F1000FF0
S214003C3001D041F020011A4B18681BF098F9E8B93A
S214003C40A36818680DB3174AB8F1000F1FD0154BBC
S214003C50FFB11449FEB1134CB9F1000F1DD0114D40
S214003C6002950194009110490CF0F4FC05B0BDE8F3
S214003C70F0834FF00009CBE70821CCE7A3680B4A96
S214003C80232118680CF03EFDF0E7094ADCE7084BF4
S214003C90DEE70749DEE7064CDEE7054DE0E700BF56
S214003CA020390020B4900200E0910200B891020092
S214003CB03C91020038B504468368C26853F8223047
S214003CC01D78291E18BF01210A4B18681BF02FF912
S214003CD038B9A36818685DB1074A08490CF0BAFC01
S214003CE038BDA368064A242118680CF00BFDF7E7D8
S214003CF0044AF2E720390020B490020054920200F1
S214003D00309202003C91020038B504468368C268CF
S214003D1053F822301D78291E18BF01210A4B186857
S214003D201BF0F7F838B9A36818685DB1074A084968
S214003D300CF090FC38BDA368064A242118680CF0E5
S214003D40E1FCF7E7044AF2E720390020B4900200CD
S214003D508C920200689202003C91020010B5044664
S214003D608068E36850F8232011886268D21A012A16
S214003D7011DD013350F823301A78084B18681BF011
S214003D80B6F8A3681C6803F06BFA0246044920469E
S214003D900CF060FC10BD0022EFE700BF20390020C9
S214003DA0A092020010B504468068E36850F823200D
S214003DB011886268D21A012A11DD013350F82330C7
S214003DC01A78084B18681BF098F8A3681C6803F06C
S214003DD047FA0246044920460CF03CFC10BD00227F
S214003DE0EFE700BF20390020B492020010B582B081
S214003DF0044600230BE0A168E2681A4451F822202A
S214003E00117803F108026A4402F8081C0133072BF4
S214003E10F1DD6368E2689B1A082B14DDA36808329C
S214003E2053F822301A786946084B18681BF06BF86E
S214003E30A3681C6803F014FA0246054920460CF0F5
S214003E4009FC02B010BD0022EDE700BF20390020BB
S214003E50CC9202002DE9F0418AB0044601AD474EEF
S214003E600FCE0FC50FCE0FC533682B6000273E461A
S214003E7038E0A06873180022114650F8230017F0A7
S214003E803BFA83B23DE0A0680B440022114650F88E
S214003E90230017F031FA83B247E0A0680B440022F3
S214003EA0114650F8230017F027FA80468E4652E057
S214003EB0EB00C3F1200CA3F1200028FA03F20EFA5F
S214003EC00CFC42EA0C022EFA00F0024328336B4444
S214003ED00B4403F8182C01310729E9DD0336F6B246
S214003EE00137FFB2022F38D832466368E1685B1AA2
S214003EF09E4232DA012EBCD8A3680A4453F8223018
S214003F001B883D460AAA02EB470222F8243C731C93
S214003F10DBB26268E168521A93421EDA012BB2D80D
S214003F20A2680B4452F823301B880AAA02EB45020B
S214003F3022F81E3CB31CDBB26268E168521A934258
S214003F400BDA012BA9D8A2680B4452F82330B3F839
S214003F5000804FF0000E0021BEE701A9084B18684C
S214003F601AF0C3FFA3681C6803F07AF902460549F5
S214003F7020460CF06FFB0AB0BDE8F081F096020018
S214003F8020390020E492020008B58368C26853F81E
S214003F902220126803490A60034918680CF05AFB8D
S214003FA008BD00BF80310020FC92020030B583B00F
S214003FB004468368C26853F822301D682A464FF0CC
S214003FC0FF31154B18681AF0C0FFB8B905F00201AA
S214003FD0C5F34003114A1370A368186815F0010F63
S214003FE013D00F4A99B10E4B15F0040F11D00C499F
S214003FF000910C490CF02EFB03B030BDA3680A4AB2
S2140040001F2118680CF07EFBF6E7084AEAE7074B24
S214004010EAE70649ECE700BF203900204A640020A2
S2140040202C900200249302001093020034900200A9
S21400403030B583B004468368C26853F822301D68E2
S2140040402A464FF0FF31164B18681AF08EFFB8B9A3
S21400405015F001031BD00221124A1170A2681068E5
S214004060BBB1114A15F0020F15D00F4B15F0040F17
S21400407013D00D4900910D490CF0ECFA03B030BD99
S214004080A3680B4A1F2118680CF03CFBF6E70121D9
S214004090E2E7084AE6E7074BE8E70649EAE700BF33
S2140040A020390020CB0D00202C90020074930200D3
S2140040B06093020034900200F8B504468268C36834
S2140040C052F823100E78013352F823301D782F1E35
S2140040D018BF0127311E18BF01210F4B18681AF0B0
S2140040E054FF10B95EB10D4E00E00D4E39460A4B36
S2140040F018681AF058FF20B95DB1084B02E0094E67
S214004100F4E7074BA0683246074900680CF0A2FAAD
S214004110F8BD044BF6E700BF20390020B49002003B
S214004120AC9302003C910200B893020038B50446F6
S2140041308068E36850F82320117805291CD80025EC
S214004140AC4661B16268D21A022A1CDD5A1C50F8CD
S21400415022201578023350F8233093F800C0C1B9F6
S2140041604A4B1B88013303F07F030122002A00F02C
S21400417087804FF0000C78E00B46454A1F21006808
S2140041800CF0C0FA7BE0434A1F2100680CF0BAFA34
S21400419075E001290BD03D4B1A88043AC2F30A0297
S2140041A08B1E032B4ED8DFE803F01F2E3849B5F1DF
S2140041B0000E18BF4FF0010EBCF1000218BF01221E
S2140041C085B10221314B1B88023B11FA83F3C3F3FE
S2140041D00A03D20242EA0E32134393FAA3F31B0CED
S2140041E00222C3E70421EDE705F01F050CF0030CDF
S2140041F0D20142EAC54242EACC03052924D093FA0A
S214004200A3F30422B2E7003D18BF01250CF0030318
S2140042105B0343EAC5331343EFE7B5F1000E18BF5F
S2140042204FF0010EBCF1000C18BF4FF0010C4FEA26
S214004230CC2C4CEA0E3C42EA0C03DEE7120602F0F7
S214004240FE43DAE70023DAE704228FE74FEACC0ED4
S214004250FF2101FA0EF1194021FA0EF10E4800F87E
S2140042600C100CF1010C5FFA8CFC6245EED8A068CD
S2140042700A4900680CF0EEF9204604F099F838BDBB
S214004280074A1F2100680CF03DFAF8E7B60D00203B
S214004290D0930200E8930200C808002004940200AD
S2140042A01894020008B5C36843608368024A1F2159
S2140042B018680CF027FA08BD2C94020008B5C368ED
S2140042C043608368024A1F2118680CF01BFA08BD79
S2140042D02C9402002DE9F04F9BB00446BA4B1868A8
S2140042E0002874D1B94B1E78002E00F04882B84BD7
S2140042F01F780BA920461AF001FCBDF82E30BA1C18
S214004300934267D3192B0BD91923ADF82E30BDF87D
S2140043103030182B04D91923ADF8303000230E9313
S2140043200BA910A818F0FBF97B1CDBB207F168029A
S2140043306A4412F8285C2A4605F0070105294ED083
S2140043400237FFB268336B4413F8283C45EA03256E
S214004350019505F44050AB0A03F038036A0A02F0F0
S21400436006021343C5F3801213439A4A32F8131019
S2140043704FF6FF73994269D0B0F5005F6BD07B1C97
S214004380DBB207F168020DEB020717F828ACB0F5B0
S214004390005F67D0080B00F0E88101F00F02C1F360
S2140043A003152A44C1F303210A4453FA82F3DBB20D
S2140043B01844BDF82E20904200F3DC8168336B442D
S2140043C013F8283CAA2B14BF00230123E5E11AF0BA
S2140043D05AFC87E7804A936A01339362E1E115F05D
S2140043E0080F31D00237FFB268336B4413F8282C1D
S2140043F045EA0222930903F40273D10901F0100181
S2140044000B43510A01F020010B43910801F4A071FF
S2140044100B43910101F440610B43120202F4404247
S214004420134343F4005545F0050513F44C438FD071
S214004430B3F5084F8CD0B3F50C4F89D0B3F5484F81
S21400444086D085F0400583E71F46D3E7624A936A25
S21400445001339362A5E115F4807F90D03B464FF080
S214004460000A94E75D4AB2F84020ADF80820002222
S2140044708DF80A2001F00F098DF80890184609EB10
S2140044800302BDF82EC062451BDCB9F1000F0FD049
S2140044905A1C6830684410F8280C8DF8090002335E
S2140044A0DBB21AA850FA82F212F8282C8DF80A20ED
S2140044B0C1F303128DF814201A44944506DB01223A
S2140044C016E0454A936A013393626AE1424A936A68
S2140044D00133936265E1581C68336B4413F8287CFB
S2140044E002F168036B4403F8547C0132D2B2C3B2C3
S2140044F09DF814709742EED2C1F3032B8DF80CB0E2
S21400450018460BEB030294451ADBBBF1000F0FD0E5
S2140045105A1C6830684410F8280C8DF80D000233D9
S214004520DBB21AA850FA82F212F8282C8DF80E2068
S214004530090B8DF8201019448C4506DB012216E085
S214004540254A936A013393622BE1234A936A013327
S214004550936226E1591C68336B4413F8280C02F169
S21400456068036B4403F8480C0132D2B2CBB29DF814
S21400457020809045EED210AB0493194B1B78BBB944
S21400458005F4A072019B1B0903F440631A432B0138
S21400459003F440431A4342F4005343F00203B8F1D5
S2140045A0000F1FD09DF82110AA2907D000261AE078
S2140045B0002204A920461AF05DFAE1E742F400530F
S2140045C043F012030FE000BF803100204A64002051
S2140045D0CB0D002008950200300E0020D496020075
S2140045E04B64002000267E4A117801F1010C5FFA28
S2140045F08CFC049A53548A1CD2B24FEA132E0498A9
S21400460000F80CE015F4807F04D10331049800F81C
S21400461002A0CAB2990A01F03801580A00F0060052
S2140046200143C3F380130B436E4931F813C04FF6B2
S214004630FF739C452AD01CF00F0F0ED0BBF1000F65
S21400464029D0531CDBB29DF80D0004998854023221
S214004650D2B29DF80E000499C8541CF0F00F3DD15C
S2140046601CF4706F48D0B9F1000F39D1BBF1000FC0
S21400467058D0531CDBB29DF80D00049988540232C2
S214004680D2B29DF80E000499C85435E0564A936A93
S2140046900133936285E0B9F1000F0CD0531CDBB2F6
S2140046A09DF80900049988540232D2B29DF80A0097
S2140046B00499C854D1E74C4A936A0133936270E078
S2140046C0511C03F16800684410F8485C049885544F
S2140046D00133DBB2CAB29845F2D2C1E70123FAE74A
S2140046E0531CDBB29DF80900049988540232D2B2FA
S2140046F09DF80A000499C854BCF5805F17D2384B61
S2140047001B78022B22D0531C04990B700499204668
S2140047101AF05CFC18BB002E43D0334A136A0133F0
S21400472013623EE0304A936A0133936239E0012314
S2140047309F42E4D3511C03F16800684410F8545CAF
S214004740049885540133DBB2CAB2F1E7049B182102
S214004750197092FAA2F3CB4004994B70D6E706B3D1
S214004760214A536A013353621BE01F4A936A01339E
S214004770936216E01C4A936A0133936211E017A90C
S21400478020461AF020FC78B99DF86430032B10D030
S2140047909DF85C30AA2B12D00023144A12789A4255
S2140047A00FD11BB0BDE8F08F0F4A936A01339362B6
S2140047B0F7E79DF85C30AA2BEAD10123EDE7012349
S2140047C0EBE720461AF0FDFB20B9074A136A0133CF
S2140047D01362E6E7044A536A01335362E1E700BF17
S2140047E0CB0D002008950200300E00204964002002
S2140047F038B504468368C26853F822301D782946C7
S214004800084B18681AF00BFC30B9A3682A4606490C
S21400481018680BF01FFF38BDA368044918680BF032
S21400482019FFF8E7203900206C9402007894020003
S21400483008B58368024918680BF00CFF08BD00BF76
S2140048409094020008B58368024918680BF002FFCE
S21400485008BD00BFB094020010B582B0044683685D
S214004860C26853F822301B68019301A9094B1868E7
S21400487019F00FFE38B9A368019A074918680BF0BB
S214004880E9FE02B010BD0146A368044A18680BF0A2
S21400489039FFF6E720390020DC940200EC94020091
S2140048A0F8B505467AB9002303700BE0325D084977
S2140048B028460CF071FB05440134A742F6DC0023C1
S2140048C005F8013CF8BD0E4617460024F5E700BF84
S2140048D01897020010B50446074B18681AF099F9A5
S2140048E0A3681B6828B1054A054918460BF0B2FEB6
S2140048F010BD044AF8E700BF20390020B49002003B
S214004900209702003C91020010B504468368C268F6
S21400491053F822301968003918BF0121044B186873
S2140049201AF073F9E36863602046FFF7D3FF10BD03
S214004930203900202DE9F04184B083681D491868AD
S2140049400BF03EFE002425E01B4A03921B4A02920F
S2140049501B4A019200912A46214616480BF058FE43
S2140049600135032D15DC4FEA840805EB8401154F4D
S2140049703E19B278144B03EBC1011148FFF790FFC4
S2140049803B5DB178114A4244525D002ADCD0104AA1
S214004990DBE70134012C0ADC0A4B23449A780D49E4
S2140049A001EBC4010548FFF77BFF0025D9E704B0FB
S2140049B0BDE8F081349702003C910200843100206B
S2140049C0B4310020E4310020F4310020EC31002026
S2140049D0B49002004808002070B50446402200212A
S2140049E028481BF0CCFA284B00221A605A60274B46
S2140049F04FF0FF321A605A609A60DA60A668E5687F
S214004A0056F825301A68224B5A606068401B042806
S214004A1002DC013800230FE00420FBE75A1C2A447E
S214004A2056F8222003EBD37192F800C0184A02EB26
S214004A30610282F802C0013383420FDA13F0010FDD
S214004A40ECD15A1C2A4456F8221003EBD3725210AB
S214004A5091F800C00E4901F802C0ECE70C490D4B76
S214004A6018681AF0D4F828B9E36863602046FFF7A0
S214004A7061FF70BDA368084A302118680BF042FE3B
S214004A80F7E700BFF4310020EC3100204808002092
S214004A90E4310020203900207897020070B582B0FB
S214004AA08668C16856F821301D78012D0AD804465C
S214004AB043685B1A092B0BDC4FF0FF33009301931E
S214004AC0002215E01B4A312130680BF01BFE28E05F
S214004AD0194A322130680BF015FE22E0531CC81824
S214004AE056F82000007808326A4402F8080C1A4685
S214004AF063685B1A013B9342F0DC6A4629460F4B1B
S214004B0018681AF076F870B90D4B03EBC50302AAC5
S214004B1012E9030083E80300E36863602046FFF7BA
S214004B2009FF02B070BDA368064A332118680BF06F
S214004B30E9FDF6E7A4970200C0970200203900209E
S214004B4048080020E097020070B584B004468668E6
S214004B50C06856F820301978431C56F823301A7867
S214004B6002EB810501290AD8032A08D863681B1AB4
S214004B700A2B0BDC0023029303939C461AE0204A80
S214004B80312130680BF0BEFD04B070BD1D4A3221E5
S214004B9030680BF0B7FDF7E70CF10203034456F854
S214004BA0233093F800E00CF110036B4403F808EC94
S214004BB00CF1010C63681B1A023B6345ECDC124BDC
S214004BC003EB81039B5C009302AB104800681AF06D
S214004BD012F868B90E4B03EBC50304AA12E90300EA
S214004BE083E80300E36863602046FFF7A3FECBE795
S214004BF0A368084A332118680BF084FDC4E700BF99
S214004C0000980200C0970200EC31002020390020F6
S214004C10F4310020E0970200F0B585B004468268C3
S214004C20C36852F823100E78591C52F821100F78DA
S214004C30023352F823301D78003D18BF01253B464D
S214004C40324629461248006819F0DDFFB8B9114B04
S214004C5003EB8603DD55A36818680F4B9A5D334453
S214004C609B789DB10D4903910D49029101930092E5
S214004C703B4632460B490BF0EDFC05B0F0BDA36891
S214004C80094A342118680BF03DFDF6E70749EAE7C4
S214004C9020390020EC310020E4310020B4900200DE
S214004CA0B43100204C980200289802003C91020083
S214004CB070B58CB004460120384B1870A36819688C
S214004CC008F098FC00283FD0A668E36856F8235002
S214004CD00422334928461BF028F9002836D12F4BEA
S214004CE001221A719A71002305930693079308937D
S214004CF009930A930B93A268E368591C52F8211093
S214004D00098807910591023352F823301B880893CF
S214004D100A2B01D90A3B0693A268E368033352F8CC
S214004D2023301B881D4E73801E4D05A928680CF085
S214004D305DFB3146286819F087FE0146B8B1A368C6
S214004D40194A18680BF0DEFC0CB070BD0222174939
S214004D5028461BF0EAF820B9104B02221A719A7105
S214004D60C1E7134A202130680BF0CCFCECE7A368BF
S214004D701E680A4D287908F099FB0446A87908F0C1
S214004D8095FB03466A880292089A0192079A009257
S214004D902246084930460BF05DFCD5E73432002049
S214004DA03C9002002039002088980200A40A0200E5
S214004DB044900200B8980200F0B583B00646104F43
S214004DC0386819F04FFE0546386819F063FE044649
S214004DD0386819F063FE0146B368186855B1094A89
S214004DE054B1094B51B10849009108490BF032FC07
S214004DF003B0F0BD064AF3E7064BF3E70549F3E7D1
S214004E0020390020B49002000C990200209902007C
S214004E103C9102001499020010B584B00446104B71
S214004E201B88ADF80C3000228DF80420ADF8062063
S214004E30ADF80830ADF80A3001A90A4B186819F029
S214004E4003FE30B9E36863602046FFF7B5FF04B0A1
S214004E5010BD0146A368044A18680BF053FCF1E73E
S214004E6098990200203900205499020070B5044633
S214004E708268C36852F823100978013352F8233049
S214004E801E78094D003918BF0121286819F000FE68
S214004E90311E18BF0121286819F0FEFDE368636023
S214004EA02046FFF789FF70BD2039002008B58168CD
S214004EB0C36851F823201278013351F823301B7849
S214004EC0003A18BF01220A480270003B18BF0123AF
S214004ED008480370086832B1074A33B1064B0749E1
S214004EE00BF0B8FB08BD064AF7E7054BF7E700BF2F
S214004EF06A640020696400202C9002006C9902000D
S214004F003490020008B58268C36852F823301B78D4
S214004F10003B18BF012305490B70106823B1044AF3
S214004F2004490BF097FB08BD034AF9E74B640020E1
S214004F30B4900200889902003C91020010B5044625
S214004F40074B18681AF08DF8A3681B6828B1054A45
S214004F50054918460BF07EFB10BD044AF8E700BF73
S214004F6020390020B49002009C9902003C91020077
S214004F7010B504468368C26853F822301B787BB1AC
S214004F80032004F0BDFE20B90A4B18681AF058F842
S214004F900AE0A368084A222118680BF0B3FB08E071
S214004FA0044B18681AF05BF8E36863602046FFF766
S214004FB0C5FF10BD203900206490020010B50446DD
S214004FC04368C2689B1A012B04D1836853F82230C9
S214004FD01B786BB9094B18680CF05AFEA3681C685E
S214004FE002F03EF90246064920460BF033FB10BDA0
S214004FF0024B18680CF046FEF0E700BF2039002090
S214005000A499020010B504464368C2689B1A012B97
S21400501004D1836853F822301B786BB9094B1868A3
S2140050200CF042FEA3681C6802F01AF90246064914
S21400503020460BF00FFB10BD024B18680CF02EFE3E
S214005040F0E700BF20390020A499020010B50446FE
S2140050500F4B18681AF005F890B1A368E26853F889
S214005060223019780A4B18681AF000F8A3681C68F2
S21400507002F0F6F80246074920460BF0EBFA10BDA0
S214005080A368054A312118680BF03CFBF7E700BF20
S21400509020390020A4990200B099020010B50446F9
S2140050A00C4B186819F0DDFF68B10A4B186819F048
S2140050B0E3FFA3681C6802F0D3F8024606492046C0
S2140050C00BF0C8FA10BDA368044A312118680BF02B
S2140050D019FBF7E720390020A4990200B0990200D6
S2140050E02DE9F04182B004462D4B186819F0B9FF3F
S2140050F0B8B16168E068091A002919DDA36853F899
S21400510020301D78012915DDA368421C53F8223093
S2140051101E68022910DDA368821C53F822301F681F
S2140051200BE0A3681F4A312118680BF0EBFA2BE05E
S2140051302525E7E71C4EECE71C4F03290BDDA3688B
S214005140033053F8203093F80080B8F1000818BFF9
S2140051504FF0010801E04FF00008CDF800802B4624
S214005160324639460E48006819F0AAFF88B9A36887
S21400517018682A46B8F1000F09D00D4B0193009726
S21400518033460C490BF066FA02B0BDE8F0810A4BD4
S214005190F4E7A368094A322118680BF0B3FAF3E77C
S2140051A020390020B0990200D6BE898E555555008C
S2140051B03C910200C8990200B4900200109A0200C6
S2140051C070B582B004468368C26853F822301D78F2
S2140051D02B4B186819F045FF002830D0A5F12503A1
S2140051E0DBB2022B32D8002300932B46254A2649F1
S2140051F02348006819F064FF00282ED1252D33D0EF
S214005200262D35D0272D37D0A3682A461F49186883
S2140052100BF020FA1E4E1F4D0FCD30607160B2604D
S214005220F36007CD30617161B2611B4B1C221A809E
S214005230E3686360204603F0BBF802B070BDA36865
S214005240164A312118680BF05DFAF6E7A368144A8F
S214005250302118680BF056FAEFE7A368114A32219E
S21400526018680BF04FFAE8E7002006F04FFBCBE794
S2140052700C2006F04BFBC7E7272006F047FBC3E7EA
S21400528020390020D6BE898E55555500509A02000A
S214005290C8080020689A0200B60D0020B0990200E7
S2140052A0349A0200109A020010B58368C26853F858
S2140052B022301B78003B18BF0123404A5370002B56
S2140052C071D00021D17091804FF47A7494603C4C78
S2140052D0D4603C4C14614FF0250CA2F806C09170C7
S2140052E011704168C268891A012909DD846802F1D3
S2140052F0010C54F82C4094F800C0304C84F803C0DD
S214005300022906DD8168941C51F824100C682B498C
S2140053108C604168891A032906DD8168D41C51F81F
S21400532024100C8825498C804168891A042906DDDA
S2140053308168141D51F824100C882049CC804168DF
S214005340891A052906DD8168053251F82220116880
S2140053501A4A11614268C168521A062A06DD826836
S214005360063152F821201168144AD1604268C1689B
S214005370521A072A0EDD846801F1070C54F82C40F7
S21400538094F800C0BCF1000C18BF4FF0010C0B4C99
S21400539084F802C0082A06DD8268083152F8212007
S2140053A01178064A117033B1074A836807491868AE
S2140053B00BF050F910BD064AF7E700BF3C3200205C
S2140053C055555500D6BE898EB4900200889A0200C4
S2140053D03C91020008B58368024918680BF03AF958
S2140053E008BD00BF9094020070B582B00446836882
S2140053F01968012008F0FEF8002870D03A4B1A68A9
S2140054003A4B1A606268E3689A4201D0002322E0B1
S214005410A368374A122118680BF074F95FE0354A22
S214005420162130680BF06EF959E005EB850132481D
S21400543000EB8100CCF80400A068E168013A114452
S21400544050F8212011682D4A02EB051291600021C8
S21400545011730133DBB26268E168501A1D4603F12E
S214005460010C4FEA8C02B0EB8C0F26DBA66801EB32
S214005470830156F821100868B0F5803FCFD21F4E42
S214005480290106EB051C7052A068E168D61E31445F
S21400549050F8211009688CF8021001F07F010529E8
S2140054A0C3D0A068E168961E314450F82110086801
S2140054B0124901EB05114860BEE70C4EB371314648
S2140054C00F4B186819F0C3FB0246A36818683368C8
S2140054D03AB90C4A00922A460B490BF0BBF802B0C8
S2140054E070BD0A4AF6E700BFC80C00205808002026
S2140054F09C9A0200DC9A020084320020FC320020D3
S214005500203900202C900200FC9A02003490020001
S21400551030B583B0044683681968012008F06AF83D
S21400552028B3A068E36850F823201278052A20D80C
S214005530013350F823301B78114901EB021191F921
S2140055400E504B736168E068091A022909DDA168EC
S214005550023051F8201091F90050094901EB021170
S2140055608D73A1680868009506490BF073F803B0C0
S21400557030BD0623044A162100680BF0C3F8F6E790
S214005580FC3200203C9B0200289B0200F0B585B050
S214005590044683681968012008F02CF8002830D0EB
S2140055A0A068E36850F823201278052A2BD8013328
S2140055B050F823301B68174802EB820500EB850184
S2140055C040F82530A568E068023055F820000568E8
S2140055D04D60A668E068033056F8200006688E60C6
S2140055E0E0680430A76857F820000768CF600020FE
S2140055F00861A168086802970196009506490BF0B5
S21400560029F805B0F0BD0623044A172100680BF000
S21400561079F8F6E784320020649B0200289B02009B
S21400562010B5044683681968012007F0E3FFF0B15F
S214005630A068E36850F823201178003918BF0121CC
S2140056406268D21A012A13DD013350F823301A7823
S214005650003A18BF0122084B186819F0FAFAA36836
S2140056601B6838B9054A064918460AF0F3FF10BD0C
S2140056700022F0E7034AF6E7203900202C900200CB
S2140056801C9B02003490020010B584B00446836868
S214005690C26853F822301978114B186819F0DBFAF3
S2140056A010F5007F14D007EE900AF8EEE77A022293
S2140056B0B5EE000A27EE800A0A2101A80BF05AF878
S2140056C0A36801AA074918680AF0C4FF04B010BD11
S2140056D0A368054A082118680BF014F8F6E700BF1F
S2140056E020390020549D0200AC9B02002DE9F047B3
S2140056F08CB0044683681968012007F07BFF0028F9
S21400570069D00023089309930A930B936168E368B2
S214005710C91AA06850F823201268D5B202F07F0C90
S214005720BCF1050F5AD0032652B2002A58DB8E422F
S21400573058D85E1C50F8266036680896BCF1050FEF
S21400574056D04FF0020E0EF1010703EB0E0850F88C
S2140057502880D8F80080002A5BDB6FF07F0E4FF0C1
S21400576000098F4274D131463E4A1660099B536049
S2140057700A9B93600B9BD3600023136104930593ED
S214005780069307938DF81050BCF1050F66D005916F
S214005790CDF818808DF81D908DF81EE0324BC3F8BA
S2140057A0008004A9314B186819F057FA0346A2681E
S2140057B01068002B54D12E4A9DF81D309DF91E10FE
S2140057C003910293069B0193059B00939DF810306E
S2140057D028490AF03FFF0CB0BDE8F0870626A3E78D
S2140057E00136A4E7244A122100680AF08BFFF2E78C
S2140057F09F1C50F827703F680997DF1C50F82770E9
S2140058003F680A971F1D50F827703F680B97E646BB
S21400581099E70EF1020A1F4450F8272012685FFA33
S21400582082F912F0040F0FD0514507D90EF1030785
S214005830534450F8233093F900E092E70F4A1321BF
S21400584000680AF05FFFC6E757466FF07F0E88E7EE
S2140058500B4A142100680AF055FFBCE7114696E78C
S214005860084AA9E784320020803200202039002030
S2140058702C9002008C9C0200F49B0200209C0200EC
S214005880549C02003490020010B588B004460023F1
S214005890049305930693079304A90E4B186819F012
S2140058A0E1F90346A26810688BB90B4A9DF81D30D3
S2140058B09DF91E1003910293069B0193059B00938E
