S02B00005361695F4546523332424732324332323446353132474D33325F7261696C5F736F635F7261696C7451
S2140000000008002011130000D7BA0100D7BA01007B
S214000010F5D50100D7BA0100D7BA0100D7BA01005A
S214000020D7BA0100D7BA0100D7BA0100D7BA010083
S214000030D7BA0100D7BA0100D7BA0100D7BA010073
S214000040D7BA0100D7BA0100D7BA0100D7BA010063
S214000050D7BA0100D7BA0100D7BA0100D7BA010053
S214000060D7BA0100D7BA0100D7BA0100D7BA010043
S21400007019FF0000F1110000E1110000D7BA0100DD
S214000080D7BA0100D7BA0100D7BA0100D7BA010023
S214000090D7BA010091190000D7BA0100D7BA0100FB
S2140000A0D7BA0100CD1A0000A51A0000D7BA010081
S2140000B0D7BA0100E58D0100D7BA01002D980100DE
S2140000C099F7010095F701001D900100A5F70100C2
S2140000D09DF7010005980100A1F701006D98010049
S2140000E0AD750100B9770100DD980100D7BA0100AF
S2140000F0D7BA0100D7BA0100D7BA0100D7BA0100B3
S214000100D7BA0100D7BA0100D7BA0100D7BA0100A2
S214000110D7BA0100D7BA0100D7BA0100D7BA010092
S214000120D7BA0100D7BA0100D7BA0100D7BA010082
S214000130D7BA0100D7BA0100D7BA0100D7BA010072
S2140001402DE9F04F2DED028B93B082460C46934678
S2140001501D4657EC106B8DED080B32463B4630467D
S21400016039461AF09FF8002800F009814FF0FF3258
S214000170B14B304639461AF0BDF8002840F0FF80F3
S2140001804FF0FF326FF48013304639461AF094F879
S214000190002840F0F48000220023DDE9086730469E
S2140001A039461AF089F8002840F0FC809DED087B5F
S2140001B08DED067B209B13F48063119301D10623FB
S2140001C01E93DDE906010246C1F30A50C1F313038C
S2140001D0904643F07F5949F44019A0F2FF3019F0D9
S2140001E08FFD83A3D3E9002319F0F4FD82A3D3E99E
S2140001F0002319F039FC06460F4600228F4B404676
S214000200494619F02FFC7EA3D3E9002319F0E2FD3E
S21400021002460B463046394619F026FC1AF074F8AA
S214000220064619F06DFD8046894677A3D3E900237C
S21400023019F0D0FD0022824B19F016FC1AF064F873
S214000240074673A3D3E900234046494619F0C2FD8A
S21400025080468946384619F053FD6FA3D3E900233C
S21400026019F0B8FD02460B464046494619F0FAFB1F
S2140002708046894602460B4619F0ACFDCDE90C01D6
S21400028007F2FF3700210022CDE90A123B050B9347
S21400029000230A9342464B464046494619F0E4FB83
S2140002A0CDE90E0142464B4600204FF0804119F042
S2140002B0D9FB804689460022624BDDE90C0119F025
S2140002C0B3FE0022604B19F0CFFB02460B46DDE979
S2140002D00C0119F0A9FE00225C4B19F0C5FB024682
S2140002E00B46DDE90C0119F09FFE02460B46404620
S2140002F0494619F0B9FB02460B46DDE90E0119F036
S21400030093FE0022524B19F0AFFBDDE90A2319F0E9
S21400031061FD8046894649EC188BDDE9062319F015
S214000320E9FF40B1013E0022474B4046494619F0DE
S2140003307BFE41EC180B06F16303C62B3BD8042763
S214000340209B13F4006F40D035A3D3E90023DDE9EA
S21400035006894046494619F0C3FF00283BD032A321
S214000360D3E900234046494619F0A6FF002832D0BC
S2140003701E9BB34221DD9E1B731E1E931FE0209B17
S21400038002931F9B01931E9B00939DED080B2B462B
S2140003905A462146504600F0CBF813B0BDEC028B0F
S2140003A0BDE8F08F9FED227B8DED067B069607F16C
S2140003B000430793FEE60527C2E700231E93209B13
S2140003C043F48063209300273E461F9B9F4241D202
S2140003D0A3EB070840E01E9B002BF6D0119B002BDA
S2140003E0F3D01E9B013B1E93EFE700BFAFF30080E8
S2140003F0FB799F501344D33FB3C8608B288AC63F0F
S21400040061436F63A787D23F71A379094F930A4070
S2140004101655B5BBB16B0240EF39FAFE422EE63FE9
S2140004202D431CEBE2361A3F0000000080842E416C
S2140004300000000000000000FFFFEF7F0000F83F14
S2140004400000E03F00002C40000024400000184060
S2140004500000F03F4FF00008209B13F0020902D086
S2140004600FB14FF000083EB153EC182BDDE9060142
S21400047019F0DAFDCDE9060100220023DDE90801C6
S21400048019F01AFF00283BD1209B23F40063029347
S214000490CDF804801E9B00939DED060B2B465A4616
S2140004A02146504600F044F8002F3FF476AF209BDC
S2140004B013F0200F2CD04FF0450C00F101082B460E
S2140004C0024621466046D04786EAE672A2EBE6720E
S2140004D005230593013F0497002303930A23029301
S2140004E0F30F019300922B464246214650461DF0DC
S2140004F008FBB9F1000F3FF450AF02461F9F10E013
S214000500DDE90601024601F10043CDE90623BBE71B
S2140005104FF0650CD1E7561C2B4621462020D047CD
S2140005203246A2EB0B03BB42F5D3104635E700BFBD
S2140005302DE9F04F2DED028B93B005900891924671
S2140005409B4659EC108B1E9D42464B4640464946FC
S21400055019F0A8FE002840D04FF0FF326FF4801349
S2140005604046494619F0A8FE002845D14FF0FF3214
S214000570B14B4046494619F0BDFE00284BD1AAA310
S214000580D3E900234046494619F0B4FE00285AD164
S214000590A7A3D3E900234046494619F08DFE00285C
S2140005A051D1002200234046494619F085FE002816
S2140005B057D100230993209B13F4806F5CD000244E
S2140005C01F2C5BD8092D59D904F148036B443022FF
S2140005D003F8202C013D0134F2E7209B03931F9B78
S2140005E0029303230193954B00935B46524608996A
S2140005F005981DF0ACF910E1209B03931F9B029316
S214000600042301938E4B00935B4652460899059847
S2140006101DF09DF901E1209B13F004030FD0894AD9
S2140006207BB10423209903911F99029101930092B4
S2140006305B465246089905981DF089F9EDE0824A16
S214000640EEE70323EEE7209B02931F9B01930095A2
S21400065049EC108B5B46524608990598FFF770FDEB
S214000660DBE042464B460020002119F0FBF98046AD
S2140006708946012309939EE70625A0E7404649469A
S21400068019F042FE064619F03BFB02460B46404672
S214000690494619F0E7F96D4B03EBC50393ED008B64
S2140006A053EC182B19F096FB02460B46CDE90623B1
S2140006B019F052FE074619F013FB02460B46DDE919
S2140006C0060119F0CFF902460B46CDE906230022B3
S2140006D05F4B19F00FFE50B30137384619F000FB98
S2140006E002460B4651EC180B19F0F0FD08B1013626
S2140006F0002755BB304619F003FB02460B46404622
S214000700494619F0AFF9804689460022504B19F049
S214000710D3FD38B100224E4B4046494619F0EAFD5B
S214000720002842D016F0010F3FD001363DE00022EF
S214000730474BDDE9060119F0BFFD0028D9D117B1F6
S21400074017F0010FD5D00137D3E71F2C17D8013D7E
S214000750404BA3FB0723DB08194603EB8303A7EBF9
S2140007604303621C303304F148000DEB000404F828
S214000770203C092F02D90F461446E6E714461F2CE4
S2140007800AD86B1E45B104F148026A44302102F8CB
S214000790201C1D460134F2E71F2C06D804F148033E
S2140007A06B442E2203F8202C01341F2C17D82A4A1B
S2140007B082FB0632F317C3EBA2031A4603EB83034E
S2140007C0A6EB4303611C303304F148000DEB000434
S2140007D004F8203C16460AB10C46E6E70C46209B79
S2140007E003F00303012B39D01F2C09D8099B002BDB
S2140007F051D004F148036B442D2203F8202C013419
S214000800209B03931F9B029301940AAB00935B46C5
S2140008105246089905981DF09AF813B0BDEC028B65
S214000820BDE8F08FAFF300800000000065CDCD413D
S2140008300000000065CDCDC1FFFFEF7F10E702008E
S21400084014E7020004E702000CE7020020E70200BB
S2140008500000E03FCDCCCCCC676666661F9BB3B18C
S214000860099B1BB9209B13F00C0F12D01F9B013B5A
S2140008701F93194606E004F148036B44302203F840
S214000880202C01348C42AFD21F2CF4D9ACE71F9930
S214000890F8E71F99F6E7209B13F0040F07D004F142
S2140008A048036B442B2203F8202C0134A8E7209B36
S2140008B013F0080FA4D004F148036B44202203F879
S2140008C0202C01349CE700BF38B508462DED028B7E
S2140008D0154619F005FA1FA3D3E9002319F0A4FB67
S2140008E002460B4643EC182B0022002319F0EEFCC0
S2140008F0044648BBB0EE480AF0EE680A00F03CF842
S21400090016A3D3E9002351EC100B19F0ADF80246FC
S2140009100B4614A1D1E9000119F086FB13A3D3E915
S214000920002319F09FF80022094B19F053FA41EC06
S214000930100B1AF0CBFF51EC100B19F0E5FC2880D9
S2140009402046BDEC028B38BD0120FAE7AFF30080ED
S2140009500000204000000000006AF8409679D01899
S2140009607A2C2C40000000000068B0406666666680
S214000970661271400000000038B555EC104B2DEDA6
S214000980028B00F045F822462B4620462946B0EE5C
S214000990408AF0EE608A1AF0E7FF98B9002200233A
S2140009A02046294619F0A6FC60B9002200232046FE
S2140009B0294619F077FC60B11AF08CFB22239FEDD4
S2140009C00C8B0360B0EE480AF0EE680ABDEC028BB2
S2140009D038BD1AF07FFB212203460748BDEC028B88
S2140009E01A60BDE8384000F00BB800BFAFF30080D7
S2140009F0000000000000F0FF4CE6020000000000CF
S214000A009FED010B704700BF000000000000F87F5C
S214000A1053EC102BB3F5801F2DE9F04F1C4687B022
S214000A2058DA23F000411046114300F0F780002BFF
S214000A301946C0F234810022D94B19F0CBF90C4686
S214000A400B46D84902466FF035008C4246DC251529
S214000A50D549C4F31304A5F2FF3521440544D34811
S214000A6001F48011484005EB115540EA0403104696
S214000A7000221946CD4B18F0F5FFA31C82468B4684
S214000A80C3F31303022B32DC0022002319F00AFC06
S214000A90002800F0CE80002D00F09281284619F044
S214000AA02FF906460F46AAA3D3E9002319F092F9B8
S214000AB004460D4630463946A7A3D3E9002319F06D
S214000AC089F902460B462046294618F0CDFF41EC30
S214000AD0100B09E0B34900208C42B8DD10461946D9
S214000AE018F0C2FF41EC100B07B0BDE8F08F0022F3
S214000AF04FF0804318F0B8FF02460B465046594662
S214000B00DFF8B88219F090FA06460F46284619F024
S214000B10F7F832463B46A044CDE904013046394654
S214000B20CDE9026719F056F902460B46CDE90023D7
S214000B3019F050F906460F4689A3D3E9002319F0A9
S214000B4049F989A3D3E9002318F08EFF32463B46C5
S214000B5019F040F986A3D3E9002318F085FF324642
S214000B603B4619F037F984A3D3E9002318F07CFF3D
S214000B70DDE9002319F02EF981A3D3E90023CDE99E
S214000B8000013046394619F025F97FA3D3E9002342
S214000B9018F06AFF32463B4619F01CF97CA3D3E9ED
S214000BA0002318F061FF32463B4619F013F90B4656
S214000BB00246DDE9000118F057FF7D4B06460F465A
S214000BC01B1B43EA0803002B5BDD0022794B5046D3
S214000BD0594619F0FFF852465B4619F0FBF8804676
S214000BE08946002D64D142464B463046394618F0B9
S214000BF03BFFDDE9022319F0EDF802460B464046BE
S214000C00494618F02FFF02460B465046594618F044
S214000C1029FF41EC100B07B0BDE8F08F002200233F
S214000C200020654919F000FA41EC100B07B0BDE84A
S214000C30F08F59A3D3E900235046594619F0CAF855
S214000C4002460B4600205B4918F00CFF06460F468E
S214000C5052465B465046594619F0BCF802460B46CB
S214000C603046394619F0B6F806460F46002D56D1DE
S214000C7002460B465046594618F0F4FE41EC100B5F
S214000C8032E7002D40F09F8002460B4650465946FC
S214000C9018F0E8FEDDE9022319F09CF8B3E718F037
S214000CA0E1FE0022002319F0BFF941EC100B1BE710
S214000CB027A3D3E90023DDE9040119F08BF84246A7
S214000CC04B4604460D463046394618F0CDFEDDE963
S214000CD0022319F07FF806460F461FA3D3E9002328
S214000CE0DDE9040119F076F802460B46304639462F
S214000CF018F0BAFE02460B464046494618F0B2FEC9
S214000D0052465B4618F0AEFE02460B462046294683
S214000D1018F0A8FE41EC100B07B0BDE8F08F28468F
S214000D2018F0EEFF8046894609A3D3E9002319F0A0
S214000D3051F804460D464046494607A3D3E900232A
S214000D4019F048F802460B4630463946D6E700BF4B
S214000D500000E0FE422EE63F763C7935EF39EA3D6C
S214000D6044523EDF12F1C23FDE03CB966446C73FD5
S214000D70599322942449D23F935555555555E53FEE
S214000D809FC678D0099AC33FAF788E1DC571CC3FF9
S214000D9004FA97999999D93F555555555555D53FC4
S214000DA000005043FFFFEF7F645F09000000F03F44
S214000DB051B806000000E03F000050C386EBF9FF84
S214000DC09FED0D0B90E6DDE904890DA3D3E9002322
S214000DD04046494618F0FEFF32463B4604460D465E
S214000DE05046594618F03EFEDDE9022318F0F2FFA1
S214000DF006460F469FE700BF000000000000000008
S214000E000000E0FE422EE63F0348044B834202D039
S214000E10034B03B118477047080E0020080E002049
S214000E2000000000064B0749C91A891048BF013167
S214000E30491003D0044B0BB101481847704700BF58
S214000E40080E0020080E00200000000010B5064C1A
S214000E50237843B9FFF7D8FF044B13B10448AFF328
S214000E6000800123237010BD1864002000000000DD
S214000E700C40030008B5054B1BB105490548AFF308
S214000E800080BDE80840FFF7CDBF00BF00000000AF
S214000E90181100200C400300A3F5803A704700BFED
S214000EA0174B002B08BF134B9D46FFF7F5FF00219D
S214000EB08B460F461348144A121A1EF014FD0E4BAA
S214000EC0002B00D098470D4B002B00D098470020F1
S214000ED0002104000D000D48002802D00C48AFF396
S214000EE000801AF0FDF8200029001AF055FD19F0D0
S214000EF033FC00BF000008000000000000000000F7
S214000F0000080020080E0020886400200000000072
S214000F100000000000B585B0094B1868094B186042
S214000F20094B0A4A13600A4A01920A4A1268029258
S214000F30039301A91BF047FB05B05DF804FB00BF57
S214000F401C080020504A0020100800204C4A0020B0
S214000F50008602002408002008B5024B18681BF023
S214000F604AFB08BD1C08002038B50DF0B1FC04464D
S214000F70064D2B68D3F8B0020DF09EFC28681BF0D7
S214000F8057FB20460DF098FC38BD00BF1C0800201B
S214000F90044B1B68834202D0034B18687047014815
S214000FA0704700BF101900203019002008B5094806
S214000FB0094B1860094B1B6803600A23C360084B83
S214000FC04361084B8360084B4360002303761CF0A4
S214000FD051F808BD10190020301900201C08002008
S214000FE010140020148602002086020008B501F0C6
S214000FF013F81AF0C1FF224A136F23F0070343F0D9
S2140010000303136701F010FA1E4B9B6A13F0020FDE
S21400101002D11D4B01229A62194BD3F8202122F0EF
S214001020030242F00202C3F82021D3F8242122F062
S214001030070242F00202C3F82421D3F8402122F02E
S214001040030242F00102C3F84021D3F8602122F0E7
S214001050030242F00102C3F86021D3F8402222F0D6
S214001060030242F00102C3F84022D3F8002222F025
S214001070070242F00102C3F80022002008BD00BFAC
S2140010800080005000C0005000E0005008B501F09D
S214001090C3FE012800D008BD094B5A6E03F58053E5
S2140010A04FF48021596603F510430421196212F4A7
S2140010B0802FF0D1A3F500434FF480225A66EAE76A
S2140010C00080005010B596B0214C0DF13C0CA646A1
S2140010D0BEE80F00ACE80F009EE807008CE80700AB
S2140010E000230A930B930C930D930E93194A0A92BE
S2140010F028220B9205228DF8312006228DF8332007
S21400110008AA1C3494E8030082E803000DF1080CDA
S2140011100293039304930593069307938CE80300C6
S2140011200D238DF810300E238DF811300A4B0593E1
S2140011302023069301238DF81C30084B00930AAB3E
S2140011400FAA614606480DF077FD16B010BD00BF29
S2140011503086020000C005503419002054190020C3
S214001160A819002010B50C46831EDBB2012B06D949
S214001170A31EDBB2012B0ED9012C18D910BD0129F4
S214001180F6D80F4B1B69C3F3401304220521002039
S21400119001F000FCF0E70128EED8094B1B69C3F309
S2140011A0401300220521104601F0F4FBE4E7054B4E
S2140011B01B6818680028E1D0436A9847DEE700BF3E
S2140011C000C003502008002008B5034903480EF06D
S2140011D013F8FFF777FF08BD28080020CC19002079
S2140011E008B502481CF098F908BD00BFA8190020F1
S2140011F008B502481CF090F908BD00BFA8190020E9
S21400120008B5024B1A6A1868904708BDA81900204E
S21400121010B58AB000230693079308930993254BCD
S2140012200693254906A80FF0FDFC244B186030B144
S2140012300023059305A91DF0E7F808B1FEE7FEE7D1
S2140012401E4C1F4A1F4B196820680FF0CDFF002167
S21400125020681BF076F900B1FEE71B49174B1868AB
S21400126010F056F800B1FEE7184A40F23F23CDE9E9
S21400127000234FF0FF324FF0FF33104908681CF090
S21400128061FE00B1FEE7124B1B88ADF81030ADF8DA
S2140012900C3004A9094B18681CF031FE00B1FEE7BB
S2140012A003A9064B18681CF042FE00B1FEE70AB020
S2140012B010BD00BFB9BA01009DBA01003008002079
S2140012C0A5BA01000008002007001100EFFFF3FF99
S2140012D05486020082B0054B019302AB03EB8000FC
S2140012E050F8043C186802B0704700BF3008002071
S2140012F008B50448044A121A921004491AF0ECFB86
S21400130008BD00BF28460300284603008864002066
S21400131008B500F02FF8FFF7EBFF124A0AE0106856
S214001320516850F8230041F82300013391688B423E
S214001330F5D30C320C4B9A4201D20023F6E70B4A47
S21400134008E01168002041F82300013351688B4201
S214001350F7D30832064B9A4201D20023F6E7FFF78E
S2140013609FFD00BF14400300204003002040030000
S2140013702040030010B4154B154A9A60D3F8882015
S21400138042F47002C3F88820124A4FF40041916676
S21400139001F1884101F500524FF0FF3010664FF61C
S2140013A0DF7050660220C3F8D000BFF34F8FBFF344
S2140013B06F8F09480824C0F880414FF44033D3604B
S2140013C004600B615DF8044B704700BF00ED00E061
S2140013D0000000000090005000E100E0014B18689B
S2140013E0704700BF3808002008B5094B1B6F03F094
S2140013F00703022B04D0032B05D0012B06D0FEE7F3
S214001400FFF7ECFF03E0034B186800E0024808BD56
S2140014100080005040080020002D310108B5FFF77D
S214001420E3FF054B1B6FC3F303330133B0FBF3F04D
S214001430024B186008BD00BF008000503408002032
S2140014400048704700B4C404014B1868704700BFDA
S2140014504008002008B5064B1860064B1B6F03F0CB
S2140014600703032B00D008BDFFF7D8FFFBE700BF3C
S214001470400800200080005000487047002D3101D1
S214001480014B1868704700BF3C080020F0B1844646
S214001490F1B110B409E004F120000FE02033C01AC7
S2140014A018D1BCB10CF1010C01319CF800400B4B7B
S2140014B01B5D03F00303012BEDD020460B78074A93
S2140014C0D25C02F00302012AE9D1E7E70120704767
S2140014D0012070475DF8044B704700BF9B3E030039
S2140014E00346064A10680344054A934202D8034A54
S2140014F0136070474FF0FF30704700BF440800206D
S21400150000800020F0B585B00C4694469DF8341057
S214001510664A1278002A00F0BD800546BCF1070F27
S21400152000F2BA800A9A002A00F0B8800B9A002AC5
S21400153000F0B6800E9AB2F5006F00F3B380012873
S2140015405BD05B4A02EB0C12127B002A00F0AC80E8
S21400155000220092019202920392564A02EB4C1E1F
S214001560002C4FD14FEA4C1600209051CEF80400C4
S214001570CEF80800CEF80C009EF8020040F01000EE
S2140015808EF802009EF8030040F030008EF803004C
S21400159021B9C1B241F003018EF8031000930E9BEF
S2140015A0013B444A4FEA4C1002EB4C11165A63F3C7
S2140015B00E1616520A9B8B600B9B4B60CB789DF8E1
S2140015C03C2062F38303CB70012D36D0109B002B9A
S2140015D056D0374A4FEA0C1102EB0C1310985050B5
S2140015E0119A5A6000249C605D7372466946604694
S2140015F001F08EFA204605B0F0BD0C9A002AA0D164
S2140016002D48F8E72B4F4FEA4C1607EB4C120020FC
S214001610B85150609060D060907840F010009070A4
S214001620D07840F00300D0700029B7D107EB4C12F9
S214001630C1B241F03001D170B0E70E460A7B42F0ED
S21400164001020A73D2B242F002020A73CA68042187
S21400165061F39F02F26006F1100796E80F0087E834
S2140016600F00F2696FF0030161F39F02F2610C9BB9
S2140016707361012CAAD10B9AB2610C9A7260A5E72D
S214001680002DA6D10B4B03EB4C139A786FF3041284
S2140016909A709EE70948AEE70748ACE70648AAE70F
S2140016A00548A8E70448A6E70548A4E7196400200B
S2140016B0D41A0020D4190020018000F0028000F027
S2140016C0078000F0134B1B78FBB110B50446F0B151
S2140016D01AF065FC0023072B13D80F4A02EB0312FF
S2140016E0127B0AB10133F6E723600B4A190102EBBD
S2140016F0031301241C73002454501AF056FC204691
S21400170002E01AF052FC054810BD0548704705482F
S214001710FAE700BF19640020D41A0020048000F005
S214001720028000F0018000F038B51AF038FC04465C
S2140017300023072B06DC0C4A02EB0312127B12B9BD
S2140017400133F6E7002222B120461AF02EFC0748A5
S21400175038BD01F07FF90025054B1D7020461AF0B4
S21400176024FC2846F4E700BFD41A0020058000F0C9
S214001770196400200F4B1B78BBB110B50446072830
S21400178015D81AF00CFC0C4B03EB04131B7B1BB98F
S2140017901AF00BFC09480BE0074B03EB041300247C
S2140017A01C731AF002FC204602E005487047054804
S2140017B010BD00BF19640020D41A0020068000F077
S2140017C0028000F0018000F000B583B0134B1B6868
S2140017D0019300238DF804301AF0E1FB104B1B78C0
S2140017E033B90F4B01221A701AF0DFFB002309E011
S2140017F01AF0DBFB0B480EE00B4A02EB031200214B
S21400180011730133072BF7DD08238DF8073001A885
S21400181001F04CF9002003B05DF804FB5886020086
S21400182019640020038000F0D41A002008B50A4B83
S2140018301B785BB107280BD8084B03EB00131B7B08
S21400184043B1002101F024F9002008BD0448FCE75C
S2140018500448FAE70448F8E719640020D41A002080
S214001860028000F0018000F0078000F008B50A4B07
S2140018701B785BB107280BD8084B03EB00131B7BC8
S21400188043B1012101F004F9002008BD0448FCE73B
S2140018900448FAE70448F8E719640020D41A002040
S2140018A0028000F0018000F0078000F008B50A4BC7
S2140018B01B7853B107280AD8084B03EB00131B7B91
S2140018C03BB101F06DF9002008BD0548FCE705486E
S2140018D0FAE70548F8E700BF19640020D41A00208C
S2140018E0028000F0018000F0078000F0104B1B78AB
S2140018F0ABB1072815D8B1B10E4B03EB00131B7B19
S2140019009BB10D4B1B6D0122824013EA020003D0EF
S21400191001230B700020704700230B7070470748A8
S214001920704707487047064870470648704700BF2C
S21400193019640020D41A002000000450028000F031
S214001940018000F0078000F00C4B1B7873B110B5D7
S2140019500C4607280CD869B1094B03EB00131B7B18
S21400196053B101F02FF92070002010BD05487047D4
S2140019700548FAE70448F8E70448F6E71964002043
S214001980D41A0020028000F0018000F0078000F0EA
S214001990F8B5194B1F6D5B6D1F4002D4012500245E
S2140019A002E0FEE701346D00072C24D83D42F9D052
S2140019B0124B1D652301124AD358002BF2D002EBBE
S2140019C00416B1680131B16072682046984780F00D
S2140019D00100C0B2737B012BE4D10028E2D0094B92
S2140019E003EB44131A7B6FF341021A731A7F6FF3EB
S2140019F041021A77D6E7F8BD0000045000200450D4
S214001A00D41A0020D419002010B5044602E0202085
S214001A1007E09047DCB194FAA4F00028F7D0B0FABB
S214001A2080F00123834024EA0304094B03EB0013F0
S214001A305A68002AEED0064B03EB00131B7B002BE4
S214001A40E7D0034B03EB001399689047E2E710BD1D
S214001A50541B002008B5192000F004FD28B1084BDF
S214001A604FF00072C3F880211A601A2000F0FAFCCA
S214001A7028B1034B4FF08062C3F880211A6008BD7E
S214001A8000E100E038B505460C461AF088FA044B2B
S214001A9003EB05135C6000221A731AF086FA38BD51
S214001AA0541B002008B5084BD3F82404D3F8202490
S214001AB0104000F0553020F0502003F50053C3F8D6
S214001AC02004FFF7A1FF08BD00C0035008B5084B6F
S214001AD0D3F82404D3F82024104000F0AA3020F0D5
S214001AE0A02003F50053C3F82004FFF78DFF08BDC0
S214001AF000C00350024B4FF480321A67704700BF95
S214001B000090005038B505460C46104BD3F820011F
S214001B1000F00300032815D8DFE800F002080C10D8
S214001B20012305B1286004B1236038BDFFF756FCD9
S214001B300523F6E7FFF788FC0323F2E7FFF79CFC94
S214001B400223EEE700231846EBE700BF00800050B4
S214001B5070B582B006460D46002301930D4BD3F8B0
S214001B60804104F00304012C09D0022C0DD000247F
S214001B700EB1019B336005B12C6002B070BD002130
S214001B8001A8FFF7BFFF0F24F2E7FFF775FC0190EF
S214001B90EEE700BF0080005038B505460C46174BF0
S214001BA0D3F8240100F00700062823D8DFE800F069
S214001BB0040A121A1E0E1600012305B1286004B18D
S214001BC0236038BDFFF70AFC0523F6E7FFF706FC9F
S214001BD00623F2E7FFF738FC0323EEE7FFF734FCB3
S214001BE00423EAE7FFF748FC0223E6E719F080FF44
S214001BF00723E2E700231846DFE700BF0080005017
S214001C0038B505460C46104BD3F8000100F003002B
S214001C10032815D8DFE800F002080C10012305B1F0
S214001C20286004B1236038BDFFF70EFC0323F6E7F7
S214001C30FFF726FC0823F2E719F05AFF0723EEE722
S214001C4000231846EBE700BF0080005038B5054675
S214001C500C46104BD3F8400100F00300032815D8BB
S214001C60DFE800F002080C10012305B1286004B17B
S214001C70236038BD19F03EFF0923F6E7FFF700FCA6
S214001C800823F2E719F039FF0B23EEE70023184686
S214001C90EBE700BF0080005008B50B4BD3F82032AE
S214001CA003F00303012B08D0022B09D008B1002350
S214001CB0036021B100230B6001E0FFF723FF08BD9E
S214001CC0FFF7C4FFFBE700BF0080005038B50546AD
S214001CD00C46134BD3F8000200F0070004281BD86C
S214001CE0DFE800F003090D111500012305B1286097
S214001CF004B1236038BD19F0FDFE0923F6E7FFF7AF
S214001D00BFFB0823F2E719F0F8FE0B23EEE7FFF718
S214001D1085FB800A0E23E9E700231846E6E700BFA6
S214001D200080005038B505460C460F4BD3F84032BD
S214001D3003F00303022B0ED0032B10D0012B06D08A
S214001D400023184605B1286004B1236038BD19F099
S214001D50D1FE0923F6E7FFF793FB0823F2E719F015
S214001D60CCFE0B23EEE700BF0080005038B50546DA
S214001D700C46104BD3F8600100F00300032815D87A
S214001D80DFE800F002080C10012305B1286004B15A
S214001D90236038BD19F0AEFE0923F6E7FFF770FBA7
S214001DA00823F2E719F0A9FE0B23EEE700231846F6
S214001DB0EBE700BF00800050B0F5207F20D00ED8A3
S214001DC0B0F5007F16D020D810B1B0F5C07F04D192
S214001DD00F4B186FC0F3033018E0002016E0B0F584
S214001DE0607F05D10A4BD3F88000C0F301100DE0E8
S214001DF000200BE0064BD3F89000C0F3046005E02B
S214001E00034B186FC0F3802000E0002001307047BD
S214001E100080005038B505460C46174B4FF400328C
S214001E209A660020FFF7C8FF05FB00F0134BDA693F
S214001E3002F4803241F67131D9639B6823F4401373
S214001E406CB90F49884207D800210B430B498B60B9
S214001E500AB10022CA6338BD4FF48011F5E7002CA2
S214001E6007DD0749884201D80021EEE74FF48011CC
S214001E70EBE74FF44011E8E70090005000000350F5
S214001E80005A6202430907D0012B0FD0022B01D063
S214001E90094A02E0094A00E0002200F01F0039B1BA
S214001EA002F580520123834013607047044AF4E72A
S214001EB002F50052F6E700BF6082005068800050CE
S214001EC06480005008B5802019F0BEFE034B98428F
S214001ED003D8034B4FF480321A6708BD005A6202DB
S214001EE000A0005000B583B000230193B0F5807FBA
S214001EF07CD00FD9B0F5D06F7DD039D9B0F5006F52
S214001F004BD04FD9B0F5086F67D101A90020FFF775
S214001F1077FE62E052281ED824285ED324382E2866
S214001F205BD8DFE800F05E5E5E5E5A5A565A2F684F
S214001F305A5A5A5A5A5A5A5A5A5A6D5A5A5A5A45FE
S214001F40725A5A5A5A5A5A5A5A5A5A5A5A5A5A5AD4
S214001F505A5A5A5A5E0080283FD12E4B1B6F03F008
S214001F600703013B032B38D8DFE803F030272A2D80
S214001F70B0F5A06F44D00AD9B0F5B06F29D0B0F54F
S214001F80C06F2AD101A90020FFF760FE25E0B0F55A
S214001F90806F26D0B0F5906F1FD101A90020FFF703
S214001FA0FBFD1AE0B0F5E06F2FD0B0F5F06F14D15E
S214001FB001A90020FFF7DAFE0FE0052301930CE0ED
S214001FC00323019309E00723019306E0022301930C
S214001FD003E001A90020FFF7BBFD019803B05DF800
S214001FE004FB01A90020FFF78DFDF6E701A90020FC
S214001FF019F0F7FDF1E701A90020FFF767FEECE70F
S21400200001A90020FFF748FEE7E701A90020FFF737
S21400201089FEE2E700800050044B4FF400225A6627
S21400202003F5804301229A62704700BF009000507B
S21400203010B504468020FFF755FF032800F09E8069
S2140020404F4B4FF400225A6603F5405345F60E02F6
S214002050C3F8802003F580520221916203F50053F5
S21400206001229A62474B9B6D13F4803FFAD1226897
S21400207063681B0543EA0263227B43EA0243627BF2
S21400208043EA0233A27B43EA8213E27B13433D4AD0
S2140020901361936903F00043216943EA8163616930
S2140020A043EA0163217E43EA0143617E43EA01235A
S2140020B0A17E0B439361136A23F00D03E269002AA5
S2140020C043D111460B43E17E43EA81031A432D4B6D
S2140020D01A62E369002B3AD12A4A936A23F0330343
S2140020E094F8201043EA411394F8211043EA0113B0
S2140020F043F001039362234B9A6D234B9343FAD12B
S214002100204B03F5805102228A621A651D4B9B6D97
S21400211013F0804FFAD11B4B1A6922F47002A168A3
S21400212042EA01521A6103F580534FF000429A6169
S21400213094F8223013B9154B02229A6294F8233091
S214002140ABB9124B01229A6211E00821BAE70D4A98
S214002150936A23F0330394F8201043EA411394F86B
S214002160221043EA410394F823100B43936294F839
S21400217024301BB1034B064AC3F8802010BD00BFB5
S2140021800090005000C000500300014000E00050E6
S214002190F1A7FFFF70B51A4B9E6A9B6D13F4803F44
S2140021A002D0184B01229A62154B03F58052022189
S2140021B091629B6D13F4803F04D0114B9B6D13F01E
S2140021C0020FFAD00F4B02221A650D4B9B6D13F0CF
S2140021D0804FFAD10A4DAC69C4F307243246022177
S2140021E0094819F01CFDAB6D13F4803F01D1204661
S2140021F070BD32460121044819F011FDF7E700BF13
S21400220000C0005000D0005028C00050014B18708D
S214002210704700BF1A640020014B93F90000704716
S2140022201A640020F8B5254B9E6AFF2843D8054659
S2140022309B6D13F4803F02D0214B01229A621F4B04
S21400224003F58052022191629B6D13F4803F04D007
S2140022501A4B9B6D13F0020FFAD0194B02221A6527
S214002260164B9C6D14F08044FAD1FFF7D5FF401949
S21400227003D4FF2802DDFF2000E000200F4FBB69DB
S21400228023F47F0323F47F4343EA00432D02ADB2D9
S2140022902B43BB61324602210A4819F0C0FCB86DD8
S2140022A010F4803000D1F8BD32460121054819F0FF
S2140022B0B6FC2046F7E72120F5E700BF00C0005037
S2140022C000D0005028C0005008B51A4B9A6A03F593
S2140022D0805301219962174B9B6D03F00303032B78
S2140022E0F9D1154B022199621965124B9B6D13F0BB
S2140022F0804FFAD10F4B996D104B8B43FAD10E4B92
S214002300012119650B4B9B6D13F0020FFAD1094B97
S2140023109B6D13F0020FFAD0074B02211965054B8F
S2140023209B6D13F0020FFAD00321054819F077FCD5
S21400233008BD00BF00C0005000D0005003000100E0
S21400234028C00050014B1880704700BFAC0D00201D
S214002350B0F5207F48D02DD8B0F5007F39D04CD8C6
S21400236010B1B0F5C07F24D110B54C1E19F065FC35
S21400237019F0FBFDFFF7BEFB204A136F23F47043F2
S21400238043EA04331367FFF749F81D4BD3F884304C
S21400239013F0100FF9D11A4BD3F88410C1F3811142
S2140023A0C1F1020119F0D6FD00F02CF8FFF78AFD06
S2140023B010BD7047B0F5607F0AD101390F4AD2F8D8
S2140023C0803023F0300343EA0113C2F880307047B0
S2140023D070470139094AD2F8903023F0F85343EA9F
S2140023E00163C2F8903070470139044A136F23F432
S2140023F0806343EA8123136770477047008000506C
S2140024000040005008B54FF4C07019F01DFC054B95
S214002410984205D902214FF42070FFF799FF08BDB6
S2140024200121F8E780F0FA0208B5FEF7F7FF0C4B3B
S214002430D3F8843013F0100FF9D1094BD3F8841079
S214002440C1F38111C1F1020119F084FD01210020C0
S21400245000F022F9FFF7D6FFFFF734FD08BD00BFF6
S214002460004000504209064B53F8223000F01F008F
S21400247023FA00F080F0010000F00100704700BF72
S21400248000E100E090B9254B00221A60244B4FF47F
S21400249000325A6603F598335B68012B00D070470C
S2140024A0204BD3F800211D4B1A6070471B4B1B684E
S2140024B0002BF4D01C4A5268012AF0D010B5194AF5
S2140024C0C2F800318020FFF70DFD052803D0174B1A
S2140024D001225A6010BD4FF4C070FFF76DFC044631
S2140024E0012815D0104B03F500520721116103F5A2
S2140024F0805301225A600C4B1B6913F0010FFAD06F
S214002500012CE7D101214FF4C070FFF721FFE1E76E
S21400251002214FF4C070FFF71BFFE3E7541D0020B5
S214002520009000500080005000C0015000D00150C4
S214002530044A536F23F44073417843EA01235367F8
S214002540704700BF0040005038B50546E0B9124A53
S214002550136943F0040313610DF07EF819F028FDAB
S2140025600E4B0F4AC3F8202419F012FD04461DF046
S21400257083FC204619F010FD19F01BFD0DF096F8AF
S21400258035B9FEF74BFF38BD0020FFF77BFFDEE7CF
S2140025900120FFF777FFF6E700ED00E000E00350CC
S2140025A00000FF0F38B50546C0B9104A136943F05E
S2140025B0040313610E4B0F4AC3F820240DF04CF8A9
S2140025C019F0E6FC04461DF057FC204619F0E4FC22
S2140025D00DF06CF835B9FEF721FF38BD0020FFF787
S2140025E051FFE2E70120FFF74DFFF6E700ED00E0C0
S2140025F000E003500000FF0F034AD36E23F03003C1
S21400260001790B43D366704700400050F8B5044686
S214002610204BD3F8843013F0100FF9D11D4BD3F8AC
S2140026208430C3F381139C422DD0FEF7DDFE0646B0
S214002630012C11D019F0ACFC0546164F07F50053D7
S2140026404FF000725A66204619F0C0FC621E4FF426
S214002650806393403B6706E0012119F07BFCE9E7C5
S2140026600C4BD3F884300B4B5B6E13F0007F05D118
S214002670084BD3F8843013F0200FF1D0284619F019
S2140026808BFC022C00D0F8BD0021304619F062FC0D
S214002690F9E700BF0040005010B50C46034650B1A5
S2140026A0094A127812B1094A934208D921460220F3
S2140026B0FFF7ACFF10BDFEF797FE0346F0E7214696
S2140026C00120FFF7A3FFF5E7581D0020005A62021D
S2140026D008B50278034B1A7001210020FFF7DCFFD3
S2140026E008BD00BF581D002010B5304B4FF000420B
S2140026F05A6603F50B2303F5805201215160596C8D
S21400270001F001014AF6CD321A6418BB9C6814F039
S214002710010412D003F5005301229A600023244AD4
S214002720D26A12F0010F04D1224A934201D8013333
S214002730F5E7204A93420BD800241F4B01225A602B
S21400274011B11B4B1D4A1A641BF051FC204610BDEC
S2140027500724F2E70023164AD26A12F0080F04D0C4
S214002760144A934201D80133F5E7124A934218D827
S2140027700F4B03F500522020506203F580530122D0
S2140027809A60002300E00133094A526A12F0200FD3
S21400279002D1084A9342F6D9064A934203D8002447
S2140027A0CEE70724CCE70724CAE700BF0090005016
S2140027B0004009503F420F00006009503254FFFFAE
S2140027C070B51B4BDC6E24F0030444F00204DD6E8F
S2140027D045F003054AF6E8521A6619F0D9FB064694
S2140027E019F0CAFB134A136F23F0070343F00103E3
S2140027F01367FFF719FE0020FFF776FF19F0E4FBDA
S21400280019F0E3FB0C4B0D4AC3F82024002303E029
S214002810074AD466D5660133032BF9DD044BDC6624
S21400282003F510235B6A304619F0B6FB70BD00BF97
S214002830004000500080005000E003500000FF0FF2
S21400284010B51B4B4FF000425A661A4A02F58053E9
S21400285001215960546C0C404AF6CD33136443781A
S2140028608B400B431449CB63936823F07403827840
S21400287043EA0213C278C2B1042213430D4A93609E
S2140028800179837943EA012313614179C37943EAE5
S214002890012353610078FFF727FF14B1054B074A61
S2140028A01A641BF0A4FB012010BD0022E5E700BF60
S2140028B00090005000400950004000503254FFFF86
S2140028C02DE9F8430D4614461E469DF820809DF8D7
S2140028D02470072A29D8930000FA03F203219940AE
S2140028E0214819F074FB4FF00009072C29D8A100E5
S2140028F005F003028A40032303FA01F11B4819F08E
S21400290066FB5EB31A4A0123A3401360B8F1000FBA
S21400291026D0184A13600122A2401749C1F8202485
S21400292007B3164A1360BDE8F883A2F108094FEA18
S214002930890300FA03F203219940114819F047FB76
S214002940D3E74FEA890905F0030202FA09F20321E8
S21400295001FA09F10B4819F03AFBD2E70A4AD2E726
S2140029600A4AD7E70A4ADDE700C4035008C4035002
S21400297010D4035014D4035000E0035024D4035062
S21400298004C403500CC4035010E4035014E4035072
S21400299024E40350F8B504460D461E46174662B1B9
S2140029A04BB301228A4000EB40031B0103F1A04316
S2140029B003F5703341F210015A50072D28D8A900AC
S2140029C004EB44031B0107FA01F20F2000FA01F1A1
S2140029D01E48184419F0FBFA67B94EB30123AB4002
S2140029E004EB4404240104F1A04404F5703441F2DD
S2140029F01002A350F8BD01228A4000EB40031B01E1
S214002A0003F1A04303F5703342F210015A50D4E7A5
S214002A10A5F108039B0004EB440C4FEA0C1C07FAD4
S214002A2003F20F2199400A48604419F0D0FAD3E720
S214002A300123AB4004EB4404240104F1A04404F554
S214002A40703442F21002A350D4E700BF04C0035013
S214002A500CC0035010B50C4B4FF40012C3F8802086
S214002A60BFF34F8FBFF36F8F084B00245C65FF22C8
S214002A709A625C6021462020FFF704FA2146212056
S214002A80FFF700FA10BD00BF00E100E000000450B0
S214002A9029B9044A012303FA00F010607047024A7D
S214002AA0F8E700BF401004504020045010B504461C
S214002AB001212020FFF7E6F901212120FFF7E2F9A6
S214002AC0114B01225A60227812069A606178A27829
S214002AD042EA01429A61FF229A6200229A631A64CD
S214002AE04FF000425A6503F500534FF0FF321A6567
S214002AF0064A4FF40011C2F88011E3781B01DBB2DE
S214002B0082F81533116010BD0000045000E100E0AB
S214002B1070B50C46C3B201259D40204E06F5005305
S214002B201D65096803F5005343F82010637B00EB2E
S214002B30400106EB01110B6694F80AC0E37A1B0508
S214002B4043EA0C4394F80CC043EA4C53CB6522F09E
S214002B5003020A6719F023FA736D2B437365237A11
S214002B6013B1336C2B433364637A1BB10B4A936BFC
S214002B702B4393632379A27942EA0342074B03F57A
S214002B8000518A616679E27942EA064203F580548A
S214002B90A2614D639D6419F008FA70BD00000450F0
S214002BA010B5C0B20124844019F0F9F9044B5A6DEF
S214002BB022EA04025A659C6219F0F7F910BD00BFBC
S214002BC00000045010B5C0B20124844019F0E7F9A3
S214002BD0084BDB6A234205D1064B5B6B9C4306D051
S214002BE0002400E0002419F0E0F9204610BD01247E
S214002BF0F9E700BF0000045041B90630084B53F80F
S214002C00200020F0F8004004400C70471230044BBF
S214002C1053F8200020F0F8004004400C704700BF36
S214002C200080035070B50446C2F3062602F0070281
S214002C3041B942EA062242F440220634094B43F8E0
S214002C40242070BD1146304619F0F9F90546304685
S214002C5019F0CBF945EA00251234024B43F824500C
S214002C60EFE700BF0080035010B40C4681B90E4950
S214002C7042EA034241F8202064B90C49D1F83435C1
S214002C80012282401343C1F834355DF8044B704787
S214002C900749EDE70549D1F834350C30012282406A
S214002CA01343C1F83435F0E738C5035000C003506D
S214002CB068C50350014BD3F894007047004000509D
S214002CC00B784A7843EA8203CA7843EA42130A79C1
S214002CD043EA021300EB4002920002F1B042136393
S214002CE00B78012B00D070478A78024B43F82020DF
S214002CF0F9E700BFE88003504FF0B0435B680BB9BC
S214002D00002837D04FF0B0435B6843B14FF0B04374
S214002D105B6823B14FF0B0439B6A002BF6D180B1BD
S214002D20154B01225A604FF0B0435B6823B14FF059
S214002D30B0439B6A002BF6D14FF0B0430122DA6015
S214002D4070474FF0B0435B6823B14FF0B0439B6AC7
S214002D50002BF6D14FF0B0430222DA604FF0B043BA
S214002D605B6823B14FF0B0439B6A002BF6D1034B50
S214002D7001225A60704700BF00100058002000581B
S214002D804FF0B0435B6843B14FF0B0435B6823B18C
S214002D904FF0B0439B6A002BF6D1154B01225A60C8
S214002DA04378E3B113468278DAB102221343C2783D
S214002DB0CAB104221343027943EA0213427943EA72
S214002DC0C2034FF0B042936002F580520123536075
S214002DD0037853B101224FF0B043DA607047002306
S214002DE0E1E70022E2E70022E4E70222F3E700BF81
S214002DF000200058074B4FF480325A6603F5E6234E
S214002E005B69C3F38512827003F03F0242701B0BAE
S214002E100370704700900050024B1868C0F30740DC
S214002E20704700BF0080E00F0A4B984207D00A4B5D
S214002E30984209D0C36D43F08003C3657047A3F57D
S214002E401033C3F88C11F5E7A3F52033C3F89C11B3
S214002E50F0E700BF00C005500000065070B50546FC
S214002E6016461C460846D1B1402C21D01CD80CB3BF
S214002E70202C13D1082306FB03F2530803EB401360
S214002E80B3FBF2F3203B0C4A02EAC303AA6822F023
S214002E906002AA60AA681443AC60EB6170BD4FF490
S214002EA0207018F0D1FEDFE7602CF7D10423E2E7AC
S214002EB00623E0E71023DEE7F8FF7F0000F58053E7
S214002EC001225A6040F6AA63436100238360C3650B
S214002ED041F20502C2600361C361C36400F500529B
S214002EE00C49916483650C4B984206D00B4B984274
S214002EF00CD00A4B984204D101E00023036500235E
S214002F00436500F5005001234360704700230365C6
S214002F10EFE700BFFFFF010000C0055000000650AD
S214002F2038B505460C46FFF7C9FF05F58053012264
S214002F305A60A37C1BB1AB6843F08043AB60E37C74
S214002F40002B42D1637B228A1343E2891343EB6052
S214002F50237BA26861682846FFF780FF637D1BB16C
S214002F60AB6843F48033AB60A37D1BB1AB6843F41E
S214002F700043AB60E37D1B0703F0E043227E1205AF
S214002F8002F4E0021343AB65637E023BDBB2012B27
S214002F9020D9214B9D4236D003F580439D4230D048
S214002FA04FF0FF335B0103F1A04303F5703342F2A9
S214002FB01C6202219950637E012B26D0032B24D05D
S214002FC005F500530422DA6523E0217D2846FFF745
S214002FD02BFFB7E7104B9D4211D003F580439D426F
S214002FE00BD04FF0FF335B0103F1A04303F57033C2
S214002FF041F21C6202219950DDE70123F3E700232A
S214003000F1E70123CEE70023CCE705F58053042241
S214003010DA6523786B6138BD00C0055038B50546C3
S214003020054C204619F0E9F9A5702146034B1868AF
S2140030301AF08EFF38BD00BF5C1D00200C39002042
S21400304038B504468368196801200AF02FF900B9DC
S21400305038BDA368E26853F822301D68E8B2FFF76F
S214003060DDFFA3682A46024918680DF0A7F8EFE7C7
S2140030705C86020010B5044618F08AFF084B1B78E1
S21400308053B9B4F5A05F09D8054B01221A70054C58
S21400309018F082FF204610BD0024F9E70024F7E769
S2140030A01B640020641D0020184B1B680BB1012018
S2140030B0704710B5044641F27430FFF7DBFF034655
S2140030C0124A1060C8B100F1680100F58052C2F8DB
S2140030D0EC120021C2F8F01200F594500830C2F845
S2140030E0F4020120C2F8F802C2F8FC12C2F88812F4
S2140030F003F59453C2F89C3210BDA368044A862197
S21400310018680DF0B3F80020F6E700BF6431002021
S214003110688602000C2A0AD80C2A60D8DFE802F07B
S21400312014175F1B20255F5F2A30363C4100FF2ABC
S21400313008D1002302283AD0032849D0002840D0DE
S2140031400120704701207047294B1B68F2E7284B87
S2140031501B684C33EEE7264B1B6803F66803E9E76B
S214003160234B1B6803F50763E4E7214B1B6803F555
S2140031700863DFE71E4B1B6803F595530C33D9E74E
S2140031801B4B1B6803F598530433D3E7184B1B6897
S21400319003F598530933CDE7154B1B6803F59B538E
S2140031A0C8E7134B1B6803F59B530C33C2E7B1F516
S2140031B0007F16D20E4A12681A3142F821300020DB
S2140031C0704712290FD80A4A126842F82130704711
S2140031D059B9074A1268C2F86838002070470120BB
S2140031E0704701207047012070470120704700BFDC
S2140031F06431002038B504461AF044FD012802D098
S2140032000225284638BD002006F0D6FB05460028D5
S214003210F7D120461AF0DFFE084B1968084A01F578
S21400322097510C3120460DF0DFFF0022054B1A6047
S214003230032120461AF02AFDE3E700BF6431002090
S214003240A5BA0100EC49002000B50C286FD8DFE8CD
S21400325000F00712181E252C333A6E424A525900C7
S214003260354800684FF04C0E01EB020CF44560D870
S2140032700144104653E0304800684C304FF01A0EB8
S214003280F2E72D48006868304FF4006EECE72A48F5
S214003290006800F668004FF0080EE5E7264800686C
S2140032A000F507604FF0100EDEE72348006800F5D3
S2140032B008604FF4206ED7E71F48006800F594506A
S2140032C04FF0080ED0E71C48006800F59450083010
S2140032D04FF0240EC8E71848006800F598500430F0
S2140032E04FF0050EC0E71448006800F59850093006
S2140032F04FF0560EB8E71048006800F59B504FF0A8
S2140033000C0EB1E70C48006800F59B500C304FF0EF
S214003310050EA9E713F8012B01F8012B604600F112
S214003320FF3C5FFA8CFC0028F4D15DF804FB01201A
S214003330FBE70120F9E700BF64310020F0B585B057
S21400334004468268C368023352F823301D78FFF7BC
S214003350ABFE002839D06368E6689B1BEA1C9342E4
S2140033600BD10A2D10D8A36853F826201078721CAB
S21400337053F82230198800231BE0A368174A8021DF
S21400338018680CF073FF20E0A368154A81211868BE
S2140033900CF06CFF19E0DA1C3244A76857F82220BC
S2140033A092F800C003F110026A4402F80CCC013314
S2140033B0DBB2AB42EFD301AB2A46FFF745FF30B98D
S2140033C0A368084918680CF0F9FE05B0F0BDA368BC
S2140033D0054A822118680CF049FFF6E78886020045
S2140033E0BC86020008870200EC86020010B5044680
S2140033F0FFF75AFE50B16268E368D21A032A06D075
S214003400A368114A832118680CF030FF10BDA2682B
S21400341052F82300591C52F82110023352F8233078
S2140034201A7809880078FFF775FE28B9A368074957
S21400343018680CF0C3FEE9E7A368054A84211868FB
S2140034400CF014FFE2E700BF2087020008870200A6
S2140034504087020010B50446FFF726FE00B910BDEF
S214003460084B1868FFF7C6FE28B9A368064918680F
S2140034700CF0A4FEF3E7A368044A852118680CF054
S214003480F5FEECE70C390020088702005C87020096
S214003490F0B599B0044683681968012009F006FF64
S2140034A0002800F089800DF1440C574D0FCDACE894
S2140034B00F0095E807008CE8070000250695012315
S2140034C08DF81C304FF42873ADF81E3002238DF8AB
S2140034D020308DF821308DF822308DF823300DF114
S2140034E0240C0DF1440EBEE80F00ACE80F009EE879
S2140034F007008CE807000B238DF840308DF841500C
S2140035008DF842508DF84350A768E56857F8256057
S21400351004223E4930461CF0BCF9002839D101236C
S2140035208DF820308DF82230A168013551F825300D
S2140035301B880B930993E3689A1C51F82220128883
S2140035400C920A3A0A92DA1C51F822201288ADF838
S2140035501E206268D21A042A0ADD043351F823308A
S2140035601B78003B18BF0123294A13708DF843309F
S214003570082006F021FAC8B906A9264B18680EF0EE
S214003580B9F80146D0B1A368234A18680CF06EFE5D
S21400359012E00222214930461CF07BF90028C3D0F5
S2140035A01F4A202138680CF061FE05E0A3681D4A1A
S2140035B0222118680CF05AFE19B0F0BD154B1A6897
S2140035C0194B1A60A3681D689DF8220009F0CAFD11
S2140035D004469DF8200009F0C5FD0B9B0C9ABDF82B
S2140035E01E109DF8436066B1104E04960391029239
S2140035F00193009023460E4A0E4928460CF0DEFD45
S214003600DAE70D4EF1E700BF348E02009C87020019
S2140036101C6400200C390020E48702000404020029
S214003620A4870200C4870200683100208C8702004D
S214003630148802001C8802009487020010B5836874
S21400364018680CF059FD002408E0084B53F83420A5
S214003650214607480CF0D2FD0134E4B2082CF4D918
S2140036600022214602480CF0E5FD10BDEC8D02005C
S2140036709488020038B5044683681968012009F06A
S21400368015FE00B938BD082006F096F90246002857
S21400369036D16368E1685B1A002B07DDA06850F836
S2140036A021201278012B01DD012A30D8012B08DDFC
S2140036B0A0684D1C50F82500007810B142F00202B8
S2140036C0D2B2022B08DDA368023153F821301B78F2
S2140036D013B142F00402D2B2082A1ED8174B03EBED
S2140036E0C2035B68CBB1164A106898470546D8B146
S2140036F0A3681868FDB1134A13490CF05FFDC1E7D3
S214003700A368124A222118680CF0B0FDBAE7104AE6
S214003710222100680CF0AAFDB4E7A3680D4A012137
S21400372018680CF0A3FDADE70B4B01221A700B20B6
S21400373007F048FFDCE7094ADEE700BFEC8D020031
S2140037400C3900209C8802000C890200C487020005
S214003750A8880200EC880200BE0D00201488020033
S21400376038B5044683681968012009F09FFD00B942
S21400377038BD082006F020F968B9154B18681BF00C
S21400378055F8054670B1A3681868FDB1114A12498C
S2140037900CF014FDECE7A368104A222118680CF020
S2140037A065FDE5E70E4B02221A70802007F00AFF3F
S2140037B00C4B1B88102BE6D10B4B1B780F2BE2D142
S2140037C0094B18221A7070225A70DCE7074ADEE7A7
S2140037D00C3900209C8802000C890200C487020075
S2140037E0BE0D0020AE0D0020C80800201488020080
S2140037F038B5044683681968012009F057FD00B9FA
S21400380038BD082006F0D8F868B9154B18681BF0C4
S2140038100FF8054670B1A3681868FDB1114A124941
S2140038200CF0CCFCECE7A368104A222118680CF0D8
S2140038301DFDE5E70E4B02221A70E02007F0C2FEDF
S2140038400C4B1B88102BE6D10B4B1B780F2BE2D1B1
S214003850094B18221A7070225A70DCE7074ADEE716
S2140038600C3900209C8802000C890200C4870200E4
S214003870BE0D0020AE0D0020C808002014880200EF
S2140038802DE9F04385B004468268C36852F82310D9
S2140038900D78591C52F8211091F80080991C52F8A6
S2140038A021100F78D91C52F821100E784168C91AD9
S2140038B004293ADD043352F8233093F80090B9F126
S2140038C0000918BF4FF00109002D31D12946B8F183
S2140038D0000F01D041F004010FB141F002010EB11A
S2140038E041F00101B9F1000F01D041F020011A4B5F
S2140038F018681AF0F0FFE8B9A36818680DB3174AFD
S214003900B8F1000F1FD0154BFFB11449FEB1134C90
S214003910B9F1000F1DD0114D029501940091104988
S2140039200CF04CFC05B0BDE8F0834FF00009CBE787
S2140039300821CCE7A3680B4A232118680CF096FCF4
S214003940F0E7094ADCE7084BDEE70749DEE7064C06
S214003950DEE7054DE0E700BF0C39002014880200C2
S21400396040890200188902009C88020038B5044687
S2140039708368C26853F822301D78291E18BF0121BB
S2140039800A4B18681AF087FF38B9A36818685DB143
S214003990074A08490CF012FC38BDA368064A2421E1
S2140039A018680CF063FCF7E7044AF2E70C390020CD
S2140039B014880200B4890200908902009C880200E4
S2140039C038B504468368C26853F822301D78291E2D
S2140039D018BF01210A4B18681AF04FFF38B9A368C0
S2140039E018685DB1074A08490CF0E8FB38BDA368C3
S2140039F0064A242118680CF039FCF7E7044AF2E777
S214003A000C39002014880200EC890200C8890200E4
S214003A109C88020010B504468068E36850F82320AE
S214003A2011886268D21A012A11DD013350F823305A
S214003A301A78084B18681AF00EFFA3681C6803F083
S214003A406BFA0246044920460CF0B8FB10BD002273
S214003A50EFE700BF0C390020008A020010B50446CC
S214003A608068E36850F8232011886268D21A012A19
S214003A7011DD013350F823301A78084B18681AF015
S214003A80F0FEA3681C6803F047FA02460449204685
S214003A900CF094FB10BD0022EFE700BF0C390020AD
S214003AA0148A020010B582B0044600230BE0A16819
S214003AB0E2681A4451F82220117803F108026A4499
S214003AC002F8081C0133072BF1DD6368E2689B1AD5
S214003AD0082B14DDA368083253F822301A7869469A
S214003AE0084B18681AF0C3FEA3681C6803F014FAA3
S214003AF00246054920460CF061FB02B010BD0022CC
S214003B00EDE700BF0C3900202C8A02002DE9F041B9
S214003B108AB0044601AD474E0FCE0FC50FCE0FC577
S214003B2033682B6000273E4638E0A06873180022F2
S214003B30114650F8230017F081F983B23DE0A068E3
S214003B400B440022114650F8230017F077F983B291
S214003B5047E0A0680B440022114650F8230017F0F7
S214003B606DF980468E4652E0EB00C3F1200CA3F1BF
S214003B70200028FA03F20EFA0CFC42EA0C022EFA97
S214003B8000F0024328336B440B4403F8182C013131
S214003B900729E9DD0336F6B20137FFB2022F38D81F
S214003BA032466368E1685B1A9E4232DA012EBCD860
S214003BB0A3680A4453F822301B883D460AAA02EB43
S214003BC0470222F8243C731CDBB26268E168521A92
S214003BD093421EDA012BB2D8A2680B4452F8233067
S214003BE01B880AAA02EB450222F81E3CB31CDBB275
S214003BF06268E168521A93420BDA012BA9D8A268D0
S214003C000B4452F82330B3F800804FF0000E00212A
S214003C10BEE701A9084B18681AF01BFEA3681C68CB
S214003C2003F07AF90246054920460CF0C7FA0AB0B6
S214003C30BDE8F081508E02000C390020448A020054
S214003C4008B58368C26853F82220126803490A60E0
S214003C50034918680CF0B2FA08BD00BF6C310020AA
S214003C605C8A020030B583B004468368C26853F8A5
S214003C7022301D682A464FF0FF31154B18681AF09F
S214003C8018FEB8B905F00201C5F34003114A1370D7
S214003C90A368186815F0010F13D00F4A99B10E4BA0
S214003CA015F0040F11D00C4900910C490CF086FA5F
S214003CB003B030BDA3680A4A1F2118680CF0D6FA74
S214003CC0F6E7084AEAE7074BEAE70649ECE700BFEB
S214003CD00C3900201D6400208C870200848A0200B4
S214003CE0708A02009487020030B583B00446836869
S214003CF0C26853F822301D682A464FF0FF31164B33
S214003D0018681AF0E6FDB8B915F001031BD00221B9
S214003D10124A1170A2681068BBB1114A15F0020F62
S214003D2015D00F4B15F0040F13D00D4900910D4917
S214003D300CF044FA03B030BDA3680B4A1F21186884
S214003D400CF094FAF6E70121E2E7084AE6E7074BAB
S214003D50E8E70649EAE700BF0C390020BE0D002060
S214003D608C870200D48A0200C08A02009487020070
S214003D70F8B504468268C36852F823100E780133FB
S214003D8052F823301D782F1E18BF0127311E18BF8A
S214003D9001210F4B18681AF0ACFD10B95EB10D4E3C
S214003DA000E00D4E39460A4B18681AF0B0FD20B9EF
S214003DB05DB1084B02E0094EF4E7074BA0683246B7
S214003DC0074900680CF0FAF9F8BD044BF6E700BFA7
S214003DD00C390020148802000C8B02009C8802001C
S214003DE0188B020038B504468068E36850F8232034
S214003DF0117805291CD80025AC4661B16268D21A34
S214003E00022A1CDD5A1C50F822201578023350F87E
S214003E10233093F800C0C1B94A4B1B88013303F026
S214003E207F030122002A00F087804FF0000C78E024
S214003E300B46454A1F2100680CF018FA7BE0434AFF
S214003E401F2100680CF012FA75E001290BD03D4BDB
S214003E501A88043AC2F30A028B1E032B4ED8DFE8F8
S214003E6003F01F2E3849B5F1000E18BF4FF0010EB3
S214003E70BCF1000218BF012285B10221314B1B881C
S214003E80023B11FA83F3C3F30A03D20242EA0E326C
S214003E90134393FAA3F31B0C0222C3E70421EDE7B6
S214003EA005F01F050CF0030CD20142EAC54242EAB7
S214003EB0CC03052924D093FAA3F30422B2E7003DED
S214003EC018BF01250CF003035B0343EAC533134315
S214003ED0EFE7B5F1000E18BF4FF0010EBCF1000C75
S214003EE018BF4FF0010C4FEACC2C4CEA0E3C42EACD
S214003EF00C03DEE7120602F0FE43DAE70023DAE7F9
S214003F0004228FE74FEACC0EFF2101FA0EF119408A
S214003F1021FA0EF10E4800F80C100CF1010C5FFAB5
S214003F208CFC6245EED8A0680A4900680CF046F999
S214003F30204604F099F838BD074A1F2100680CF0A7
S214003F4095F9F8E7AE0D0020308B0200488B020092
S214003F50C8080020648B0200788B020008B5C3688E
S214003F6043608368024A1F2118680CF07FF908BD79
S214003F708C8B020008B5C36843608368024A1F2121
S214003F8018680CF073F908BD8C8B02002DE9F04F11
S214003F909BB00446BA4B1868002874D1B94B1E78FB
S214003FA0002E00F04882B84B1F780BA920461AF066
S214003FB059FABDF82E30BA1C934267D3192B0BD989
S214003FC01923ADF82E30BDF83030182B04D919233C
S214003FD0ADF8303000230E930BA910A818F077F830
S214003FE07B1CDBB207F168026A4412F8285C2A469A
S214003FF005F0070105294ED00237FFB268336B443F
S21400400013F8283C45EA0325019505F44050AB0A11
S21400401003F038036A0A02F006021343C5F380125F
S21400402013439A4A32F813104FF6FF73994269D039
S214004030B0F5005F6BD07B1CDBB207F168020DEBBE
S214004040020717F828ACB0F5005F67D0080B00F041
S214004050E88101F00F02C1F303152A44C1F30321DE
S2140040600A4453FA82F3DBB21844BDF82E2090427D
S21400407000F3DC8168336B4413F8283CAA2B14BF8A
S21400408000230123E5E11AF0B2FA87E7804A936A33
S21400409001339362E1E115F0080F31D00237FFB229
S2140040A068336B4413F8282C45EA0222930903F47C
S2140040B00273D10901F010010B43510A01F02001EF
S2140040C00B43910801F4A0710B43910101F4406188
S2140040D00B43120202F44042134343F4005545F0EA
S2140040E0050513F44C438FD0B3F5084F8CD0B3F5C9
S2140040F00C4F89D0B3F5484F86D085F0400583E74E
S2140041001F46D3E7624A936A01339362A5E115F42A
S214004110807F90D03B464FF0000A94E75D4AB2F8A5
S2140041204020ADF8082000228DF80A2001F00F0983
S2140041308DF80890184609EB0302BDF82EC06245BC
S2140041401BDCB9F1000F0FD05A1C6830684410F819
S214004150280C8DF809000233DBB21AA850FA82F256
S21400416012F8282C8DF80A20C1F303128DF81420BB
S2140041701A44944506DB012216E0454A936A013349
S21400418093626AE1424A936A0133936265E1581C7E
S21400419068336B4413F8287C02F168036B4403F819
S2140041A0547C0132D2B2C3B29DF814709742EED25C
S2140041B0C1F3032B8DF80CB018460BEB03029445A5
S2140041C01ADBBBF1000F0FD05A1C6830684410F899
S2140041D0280C8DF80D000233DBB21AA850FA82F2D2
S2140041E012F8282C8DF80E20090B8DF82010194493
S2140041F08C4506DB012216E0254A936A013393625A
S2140042002BE1234A936A0133936226E1591C6833F3
S2140042106B4413F8280C02F168036B4403F8480C4F
S2140042200132D2B2CBB29DF820809045EED210ABD0
S2140042300493194B1B78BBB905F4A072019B1B09AC
S21400424003F440631A432B0103F440431A4342F439
S214004250005343F00203B8F1000F1FD09DF8211061
S214004260AA2907D000261AE0002204A920461AF040
S214004270B5F8E1E742F4005343F012030FE000BF45
S2140042806C3100201D640020BE0D0020688C0200EA
S214004290200E0020348E02001E64002000267E4A77
S2140042A0117801F1010C5FFA8CFC049A53548A1CB5
S2140042B0D2B24FEA132E049800F80CE015F4807F73
S2140042C004D10331049800F802A0CAB2990A01F09A
S2140042D03801580A00F006000143C3F380130B436D
S2140042E06E4931F813C04FF6FF739C452AD01CF078
S2140042F00F0F0ED0BBF1000F29D0531CDBB29DF878
S2140043000D00049988540232D2B29DF80E0004992A
S214004310C8541CF0F00F3DD11CF4706F48D0B9F1B2
S214004320000F39D1BBF1000F58D0531CDBB29DF8FB
S2140043300D00049988540232D2B29DF80E000499FA
S214004340C85435E0564A936A0133936285E0B9F162
S214004350000F0CD0531CDBB29DF80900049988545A
S2140043600232D2B29DF80A000499C854D1E74C4AEA
S214004370936A0133936270E0511C03F1680068444D
S21400438010F8485C049885540133DBB2CAB29845ED
S214004390F2D2C1E70123FAE7531CDBB29DF809000D
S2140043A0049988540232D2B29DF80A000499C8547F
S2140043B0BCF5805F17D2384B1B78022B22D0531CDB
S2140043C004990B70049920461AF0B4FA18BB002E14
S2140043D043D0334A136A013313623EE0304A936A8D
S2140043E00133936239E001239F42E4D3511C03F169
S2140043F06800684410F8545C049885540133DBB2B6
S214004400CAB2F1E7049B1821197092FAA2F3CB40C6
S21400441004994B70D6E706B3214A536A01335362B8
S2140044201BE01F4A936A0133936216E01C4A936AA4
S2140044300133936211E017A920461AF078FA78B98A
S2140044409DF86430032B10D09DF85C30AA2B12D058
S2140044500023144A12789A420FD11BB0BDE8F08FA1
S2140044600F4A936A01339362F7E79DF85C30AA2BF4
S214004470EAD10123EDE70123EBE720461AF055FACF
S21400448020B9074A136A01331362E6E7044A536AFF
S21400449001335362E1E700BFBE0D0020688C0200C6
S2140044A0200E00201C64002038B504468368C268CD
S2140044B053F822301D782946084B18681AF063FA1C
S2140044C030B9A3682A46064918680BF077FE38BD4F
S2140044D0A368044918680BF071FEF8E70C39002051
S2140044E0CC8B0200D88B020008B583680249186896
S2140044F00BF064FE08BD00BFF08B020008B58368B1
S214004500024918680BF05AFE08BD00BF108C020066
S21400451010B582B004468368C26853F822301B6820
S214004520019301A9094B186819F067FC38B9A3680C
S214004530019A074918680BF041FE02B010BD01460B
S214004540A368044A18680BF091FEF6E70C390020C1
S2140045503C8C02004C8C0200F8B505467AB9002364
S21400456003700BE0325D084928460CF0C9FA054492
S2140045700134A742F6DC002305F8013CF8BD0E46E0
S21400458017460024F5E700BF788E020010B50446F3
S214004590074B186819F0F1FFA3681B6828B1054A95
S2140045A0054918460BF00AFE10BD044AF8E700BF9E
S2140045B00C39002014880200808E02009C880200BD
S2140045C010B504468368C26853F82230196800396B
S2140045D018BF0121044B186819F0CBFFE36863602D
S2140045E02046FFF7D3FF10BD0C3900202DE9F0411F
S2140045F084B083681D4918680BF096FD002425E0FA
S2140046001B4A03921B4A02921B4A019200912A46B9
S214004610214616480BF0B0FD0135032D15DC4FEA98
S214004620840805EB8401154F3E19B278144B03EB52
S214004630C1011148FFF790FF3B5DB178114A424433
S214004640525D002ADCD0104ADBE70134012C0ADC7C
S2140046500A4B23449A780D4901EBC4010548FFF73D
S2140046607BFF0025D9E704B0BDE8F081948E0200F8
S2140046709C88020070310020A0310020D03100203C
S214004680E0310020D83100201488020048080020BD
S21400469070B504464022002128481BF024F9284B18
S2140046A000221A605A60274B4FF0FF321A605A6099
S2140046B09A60DA60A668E56856F825301A68224BD4
S2140046C05A606068401B042802DC013800230FE0B3
S2140046D00420FBE75A1C2A4456F8222003EBD37129
S2140046E092F800C0184A02EB610282F802C0013359
S2140046F083420FDA13F0010FECD15A1C2A4456F805
S214004700221003EBD372521091F800C00E4901F844
S21400471002C0ECE70C490D4B186819F02CFF28B9BD
S214004720E36863602046FFF761FF70BDA368084A30
S214004730302118680BF09AFDF7E700BFE031002043
S214004740D831002048080020D03100200C39002045
S214004750D88E020070B582B08668C16856F82130DF
S2140047601D78012D0AD8044643685B1A092B0BDC1A
S2140047704FF0FF3300930193002215E01B4A3121CE
S21400478030680BF073FD28E0194A322130680BF0D0
S2140047906DFD22E0531CC81856F820000078083239
S2140047A06A4402F8080C1A4663685B1A013B934297
S2140047B0F0DC6A4629460F4B186819F0CEFE70B931
S2140047C00D4B03EBC50302AA12E9030083E80300BE
S2140047D0E36863602046FFF709FF02B070BDA36878
S2140047E0064A332118680BF041FDF6E7048F0200F5
S2140047F0208F02000C39002048080020408F02005D
S21400480070B584B004468668C06856F820301978BB
S214004810431C56F823301A7802EB810501290AD882
S214004820032A08D863681B1A0A2B0BDC00230293A2
S21400483003939C461AE0204A312130680BF016FD9F
S21400484004B070BD1D4A322130680BF00FFDF7E74B
S2140048500CF10203034456F8233093F800E00CF101
S21400486010036B4403F808EC0CF1010C63681B1A88
S214004870023B6345ECDC124B03EB81039B5C00932D
S21400488002AB1048006819F06AFE68B90E4B03EBDD
S214004890C50304AA12E9030083E80300E368636023
S2140048A02046FFF7A3FECBE7A368084A3321186823
S2140048B00BF0DCFCC4E700BF608F0200208F020014
S2140048C0D83100200C390020E0310020408F020053
S2140048D0F0B585B004468268C36852F823100E7897
S2140048E0591C52F821100F78023352F823301D78E5
S2140048F0003D18BF01253B4632462946124800684F
S21400490019F035FEB8B9114B03EB8603DD55A368E5
S21400491018680F4B9A5D33449B789DB10D490391FF
S2140049200D490291019300923B4632460B490BF02B
S21400493045FC05B0F0BDA368094A342118680BF0A1
S21400494095FCF6E70749EAE70C390020D831002045
S214004950D031002014880200A0310020AC8F020065
S214004960888F02009C88020070B58CB00446012037
S214004970384B1870A368196808F098FC00283FD0D8
S214004980A668E36856F823500422334928461AF0EE
S21400499080FF002836D12F4B01221A719A7100230E
S2140049A0059306930793089309930A930B93A268BB
S2140049B0E368591C52F821100988079105910233C3
S2140049C052F823301B8808930A2B01D90A3B06931A
S2140049D0A268E368033352F823301B881D4E7380A9
S2140049E01E4D05A928680CF0A3FA3146286819F070
S2140049F0DFFC0146B8B1A368194A18680BF036FC0C
S214004A000CB070BD0222174928461AF042FF20B9A2
S214004A10104B02221A719A71C1E7134A202130689E
S214004A200BF024FCECE7A3681E680A4D287908F012
S214004A3099FB0446A87908F095FB03466A8802921B
S214004A40089A0192079A00922246084930460BF0CF
S214004A50B5FBD5E7203200209C8702000C390020E9
S214004A60E88F020004040200A487020018900200E7
S214004A70F0B583B00646104F386819F0A7FC054617
S214004A80386819F0BBFC0446386819F0BBFC0146D0
S214004A90B368186855B1094A54B1094B51B1084971
S214004AA0009108490BF08AFB03B0F0BD064AF3E715
S214004AB0064BF3E70549F3E70C390020148802009B
S214004AC06C900200809002009C88020074900200A5
S214004AD010B584B00446104B1B88ADF80C3000228D
S214004AE08DF80420ADF80620ADF80830ADF80A3091
S214004AF001A90A4B186819F05BFC30B9E3686360DB
S214004B002046FFF7B5FF04B010BD0146A368044A6F
S214004B1018680BF0ABFBF1E7F89002000C390020A8
S214004B20B490020070B504468268C36852F8231039
S214004B300978013352F823301E78094D003918BF22
S214004B400121286819F058FC311E18BF0121286879
S214004B5019F056FCE36863602046FFF789FF70BDD6
S214004B600C39002008B58168C36851F823201278F4
S214004B70013351F823301B78003A18BF01220A4847
S214004B800270003B18BF012308480370086832B162
S214004B90074A33B1064B07490BF010FB08BD064A1F
S214004BA0F7E7054BF7E700BF3D6400203C640020B4
S214004BB08C870200CC9002009487020008B58268B9
S214004BC0C36852F823301B78003B18BF0123054901
S214004BD00B70106823B1044A04490BF0EFFA08BDC5
S214004BE0034AF9E71E64002014880200E8900200D9
S214004BF09C88020010B50446074B186819F0E5FEBD
S214004C00A3681B6828B1054A054918460BF0D6FA72
S214004C1010BD044AF8E700BF0C39002014880200D3
S214004C20FC9002009C88020010B504468368C268A7
S214004C3053F822301B787BB1032004F0BDFE20B968
S214004C400A4B186819F0B0FE0AE0A368084A222149
S214004C5018680BF00BFB08E0044B186819F0B3FE5D
S214004C60E36863602046FFF7C5FF10BD0C390020DF
S214004C70C487020010B504464368C2689B1A012B1D
S214004C8004D1836853F822301B786BB9094B186837
S214004C900CF0A0FDA3681C6802F03EF90246064927
S214004CA020460BF08BFA10BD024B18680CF08CFDFA
S214004CB0F0E700BF0C3900200491020010B504464E
S214004CC04368C2689B1A012B04D1836853F82230CC
S214004CD01B786BB9094B18680CF088FDA3681C6834
S214004CE002F01AF90246064920460BF067FA10BD94
S214004CF0024B18680CF074FDF0E700BF0C3900207A
S214004D000491020010B504460F4B186819F05DFEBA
S214004D1090B1A368E26853F8223019780A4B1868F5
S214004D2019F058FEA3681C6802F0F6F80246074918
S214004D3020460BF043FA10BDA368054A31211868D7
S214004D400BF094FAF7E700BF0C390020049102003C
S214004D501091020010B504460C4B186819F035FE89
S214004D6068B10A4B186819F03BFEA3681C6802F08D
S214004D70D3F80246064920460BF020FA10BDA36879
S214004D80044A312118680BF071FAF7E70C39002055
S214004D9004910200109102002DE9F04182B0044611
S214004DA02D4B186819F011FEB8B16168E068091A51
S214004DB0002919DDA36853F820301D78012915DD78
S214004DC0A368421C53F822301E68022910DDA3682F
S214004DD0821C53F822301F680BE0A3681F4A31215B
S214004DE018680BF043FA2BE02525E7E71C4EECE7A6
S214004DF01C4F03290BDDA368033053F8203093F8CB
S214004E000080B8F1000818BF4FF0010801E04FF02D
S214004E100008CDF800802B46324639460E4800681A
S214004E2019F002FE88B9A36818682A46B8F1000F80
S214004E3009D00D4B0193009733460C490BF0BEF991
S214004E4002B0BDE8F0810A4BF4E7A368094A3221B4
S214004E5018680BF00BFAF3E70C39002010910200EB
S214004E60D6BE898E555555009C88020028910200B2
S214004E70148802007091020070B582B00446836800
S214004E80C26853F822301D782B4B186819F09DFD28
S214004E90002830D0A5F12503DBB2022B32D8002340
S214004EA000932B46254A26492348006819F0BCFD86
S214004EB000282ED1252D33D0262D35D0272D37D0BE
S214004EC0A3682A461F4918680BF078F91E4E1F4D36
S214004ED00FCD30607160B260F36007CD30617161F4
S214004EE0B2611B4B1C221A80E3686360204603F005
S214004EF0BBF802B070BDA368164A312118680BF0E3
S214004F00B5F9F6E7A368144A302118680BF0AEF935
S214004F10EFE7A368114A322118680BF0A7F9E8E713
S214004F20002006F04FFBCBE70C2006F04BFBC7E754
S214004F30272006F047FBC3E70C390020D6BE898E33
S214004F4055555500B0910200C8080020C8910200CF
S214004F50AE0D0020109102009491020070910200A4
S214004F6010B58368C26853F822301B78003B18BF20
S214004F700123404A5370002B71D00021D1709180DC
S214004F804FF47A7494603C4CD4603C4C14614FF0FF
S214004F90250CA2F806C0917011704168C268891A83
S214004FA0012909DD846802F1010C54F82C4094F8BC
S214004FB000C0304C84F803C0022906DD8168941CCA
S214004FC051F824100C682B498C604168891A032913
S214004FD006DD8168D41C51F824100C8825498C8085
S214004FE04168891A042906DD8168141D51F82410C9
S214004FF00C882049CC804168891A052906DD81681D
S214005000053251F8222011681A4A11614268C168B7
S214005010521A062A06DD8268063152F821201168E7
S214005020144AD1604268C168521A072A0EDD8468A5
S21400503001F1070C54F82C4094F800C0BCF1000CA9
S21400504018BF4FF0010C0B4C84F802C0082A06DD8E
S2140050508268083152F821201178064A117033B15F
S214005060074A8368074918680BF0A8F810BD064A77
S214005070F7E700BF2832002055555500D6BE898E6A
S21400508014880200E89102009C88020008B5836834
S214005090024918680BF092F808BD00BFF08B0200BA
S2140050A070B582B0044683681968012008F0FEF8DF
S2140050B0002870D03A4B1A683A4B1A606268E36868
S2140050C09A4201D0002322E0A368374A12211868CA
S2140050D00BF0CCF85FE0354A162130680BF0C6F8C6
S2140050E059E005EB8501324800EB8100CCF804005E
S2140050F0A068E168013A114450F8212011682D4A51
S21400510002EB05129160002111730133DBB2626875
S214005110E168501A1D4603F1010C4FEA8C02B0EB11
S2140051208C0F26DBA66801EB830156F82110086871
S214005130B0F5803FCFD21F4E290106EB051C7052FA
S214005140A068E168D61E314450F8211009688CF832
S214005150021001F07F010529C3D0A068E168961E01
S214005160314450F821100868124901EB05114860D7
S214005170BEE70C4EB37131460F4B186819F01BFA98
S2140051800246A368186833683AB90C4A00922A4661
S2140051900B490BF013F802B070BD0A4AF6E700BFE1
S2140051A0C80C002058080020FC9102003C92020027
S2140051B070320020E83200200C3900208C87020074
S2140051C05C9202009487020030B583B00446836880
S2140051D01968012008F06AF828B3A068E36850F858
S2140051E023201278052A20D8013350F823301B7864
S2140051F0114901EB021191F90E504B736168E0689A
S214005200091A022909DDA168023051F8201091F927
S2140052100050094901EB02118D73A16808680095DA
S21400522006490AF0CBFF03B030BD0623044A162118
S21400523000680BF01BF8F6E7E83200209C920200AC
S21400524088920200F0B585B004468368196801208C
S21400525008F02CF8002830D0A068E36850F8232027
S2140052601278052A2BD8013350F823301B681748CC
S21400527002EB820500EB850140F82530A568E06862
S214005280023055F8200005684D60A668E0680330D7
S21400529056F8200006688E60E0680430A76857F865
S2140052A020000768CF6000200861A16808680297A0
S2140052B00196009506490AF081FF05B0F0BD062369
S2140052C0044A172100680AF0D1FFF6E77032002082
S2140052D0C49202008892020010B5044683681968DA
S2140052E0012007F0E3FFF0B1A068E36850F8232040
S2140052F01178003918BF01216268D21A012A13DD1D
S214005300013350F823301A78003A18BF0122084BB0
S214005310186819F052F9A3681B6838B9054A064997
S21400532018460AF04BFF10BD0022F0E7034AF6E7E6
S2140053300C3900208C8702007C92020094870200C1
S21400534010B584B004468368C26853F822301978D2
S214005350114B186819F033F910F5007F14D007EEDA
S214005360900AF8EEE77A0222B5EE000A27EE800AE7
S2140053700A2101A80AF0B2FFA36801AA0749186823
S2140053800AF01CFF04B010BDA368054A082118687F
S2140053900AF06CFFF6E700BF0C390020B494020058
S2140053A00C9302002DE9F0478CB004468368196818
S2140053B0012007F07BFF002869D00023089309939B
S2140053C00A930B936168E368C91AA06850F8232013
S2140053D01268D5B202F07F0CBCF1050F5AD0032636
S2140053E052B2002A58DB8E4258D85E1C50F826600F
S2140053F036680896BCF1050F56D04FF0020E0EF137
S214005400010703EB0E0850F82880D8F80080002A21
S2140054105BDB6FF07F0E4FF000098F4274D1314690
S2140054203E4A1660099B53600A9B93600B9BD360B1
S2140054300023136104930593069307938DF8105089
S214005440BCF1050F66D00591CDF818808DF81D903B
S2140054508DF81EE0324BC3F8008004A9314B186863
S21400546019F0AFF80346A2681068002B54D12E4AF4
S2140054709DF81D309DF91E1003910293069B019323
S214005480059B00939DF8103028490AF097FE0CB053
S214005490BDE8F0870626A3E70136A4E7244A1221D2
S2140054A000680AF0E3FEF2E79F1C50F827703F689A
S2140054B00997DF1C50F827703F680A971F1D50F8A1
S2140054C027703F680B97E64699E70EF1020A1F44DD
S2140054D050F8272012685FFA82F912F0040F0FD0F6
S2140054E0514507D90EF10307534450F8233093F97A
S2140054F000E092E70F4A132100680AF0B7FEC6E7FD
S21400550057466FF07F0E88E70B4A142100680AF0B2
S214005510ADFEBCE7114696E7084AA9E770320020C0
S2140055206C3200200C3900208C870200EC930200BD
S2140055305493020080930200B49302009487020002
S21400554010B588B00446002304930593069307938A
S21400555004A90E4B186819F039F80346A2681068BB
S2140055608BB90B4A9DF81D309DF91E1003910293CE
S214005570069B0193059B00939DF8103005490AF0A1
S2140055801DFE08B010BD044AECE700BF0C39002031
S2140055908C870200EC9302009487020010B5044644
S2140055A083681968012007F081FE28B30023144A97
S2140055B01370144A1370A068E36850F8232011781B
S2140055C0003918BF01216268D21A012A08DD0133AA
S2140055D050F823301B78003B18BF0123084A13708D
S2140055E0094B186818F0EFFFA3681B6828B9074A2C
S2140055F0074918460AF0E2FD10BD064AF8E700BF64
S2140056001F6400202D6400200C3900208C870200C7
S2140056107C9202009487020010B5044616F0B8FC8F
S21400562044B1054B1B682360044B1C7816F0B4FC91
S214005630204610BD0024F9E76C3200201F640020CD
S2140056402DE9F0438DB0044683681968012007F001
S2140056502DFE002800F0CD800623ADF82E306268BF
S214005660E168521A012A2CDDA368481C53F8203042
S2140056701B88022A27DDA268023152F821201288F0
S21400568000920DF12E028C498C48006818F06AFCD6
S214005690BDF82EC0BCF1000F18D06368E2689B1AF4
S2140056A0002B1ADDA36853F822301D78003D18BF82
S2140056B00125022813D06746062F28BF0627002399
S2140056C026E00023D5E74FF6FF72D9E7A3687C4AA9
S2140056D0012118680AF0CAFD8BE00025E9E7A368F7
S2140056E0784A202118680AF0C1FD82E0724A32F832
S2140056F033607549180101EB03120E5201219170B7
S21400570042F21071516000219160117301339BB217
S214005710FAB29342EAD36D4981F806C06C4B1B6817
S2140057200B60664E306818F046FF0122114630685E
S21400573018F043FF0022604B198830680BF038FBE6
S2140057405E4B186818F09EFA0228F9D1BDF82E3084
S214005750053342F2107003FB00F018F048FFA36810
S2140057605C4918680AF0E0FC00245B4E47F6FF78B8
S2140057701FE010F5007F1AD007EE900AF8EEE77AE1
S2140057800DF108090222B5EE000A27EE800A0A216A
S21400579048460AF0A3FD484A02EBC703CDF800903E
S2140057A05B6832F8372039464A480AF0E5FC01348F
S2140057B0A4B2BDF82E30A34211D92746E1B23F4B22
S2140057C0186818F0FCFE0CAB03EB440323F8100C2F
S2140057D0B04200DD06464045CBDA8046C9E73F4B7F
S2140057E000221A6001220321344B186818F04EFA82
S2140057F015B90DB0BDE8F08339480BF06BF9394C9C
S21400580020460BF067F938480BF064F920460BF099
S21400581061F9002748E035480BF05CF90134E4B242
S214005820032C1AD80CAB03EB450333F9101CA6EB7C
S21400583008032F4A82FB0302DB17C3EBE20303FBDA
S21400584017639942E7DB2B480BF044F9E6E71A4B5F
S21400585033F8351028480BF03DF90135EDB2BDF8A8
S2140058602E30AB4203D9142FF1D00024D8E7A6EB94
S21400587008031F4A82FB0312DB17C3EBE20303FB9A
S214005880176307EE903AF8EEE77A0222B5EE000AC2
S21400589027EE800A0A2105A80AF020FD05A9174868
S2140058A00BF018F90137FFB2142F01D80025D6E700
S2140058B013480BF00FF99CE73C3200200C3900200F
