S01A0000424C455F4D6F64756C655F7365727665725F322E733337BB
S214012000C00A00205532010041B0020041B0020072
S21401201017C0020041B0020041B0020041B0020008
S21401202041B0020041B0020041B0020041B00200DE
S21401203041B00200F03D0300F9AE020041B00200DB
S21401204041B0020041B0020041B0020041B00200BE
S21401205041B0020041B0020041B0020041B00200AE
S21401206041B0020041B0020041B0020041B002009E
S214012070657B0100CD2C0100A7AF020041B0020034
S21401208041B0020041B0020041B0020041B002007E
S21401209041B002007539010041B0020041B00200B2
S2140120A041B00200513B01002D3B010041B002004E
S2140120B041B00200098A020041B0020051940200B8
S2140120C0D9290300D5290300418C0200E529030024
S2140120D0DD29030029940200E129030091940200FE
S2140120E01D6E0200E16F02000195020041B0020080
S2140120F041B0020041B0020041B0020041B002000E
S21401210041B0020041B0020041B0020041B00200FD
S21401211041B0020041B0020041B0020041B00200ED
S21401212041B0020041B0020041B0020041B00200DD
S21401213041B0020041B0020041B0020041B00200CD
S214012140002370B5404C05468AB0E36318B1008899
S21401215023600AF043FC3D481FF09DFF3C4E3D4B7B
S214012160304633603C4B73601DF0ECF8002130467E
S21401217010F0D8FD32A3D3E90023A062C4E90623F8
S2140121801DF0EBF8D4E9062319431043C4E9060110
S214012190CDE900014FF0FF334FF0FF32A06A1FF088
S2140121A0F5FF02224FF0FF31A06A1FF0F4FF012075
S2140121B00AF096F94FF4007300222849A06A20F02D
S2140121C03DF8B0F5007F38D100239422CDE90733DE
S2140121D009933C23CDE9033205939623A06A03A90C
S2140121E0069310F0BDFE35B3287C0AF075FD054652
S2140121F0F0B9A06A20F003F90AF01CFD0AF052F9C2
S21401220020B14FF48070002108F0C4F90AF05AF9A1
S21401221020B14FF40060002108F0BCF91DF060F910
S214012220012010F0D3FD0E4A0E49A06A1DF088F871
S21401223028460AB070BDFF20D7E70725F8E700BF9C
S2140122400DD5015520000000680F0020690345ECFC
S214012250A022002065C30100B0220020A02000209B
S214012260E9F2020029F302000348044B834202D03C
S214012270034B03B118477047F40E0020F40E0020FC
S21401228000000000064B0749C91A891048BF0131F2
S214012290491003D0044B0BB101481847704700BFE3
S2140122A0F40E0020F40E00200000000010B5064CCD
S2140122B0237843B9FFF7D8FF044B13B10448AFF3B3
S2140122C000800123237010BD282A00200000000092
S2140122D0A486030008B5054B1BB105490548AFF3B5
S2140122E00080BDE80840FFF7CDBF00BF000000003A
S2140122F0C8110020A4860300A3F5803A704700BFEA
S214012300174B002B08BF134B9D46FFF7F5FF002127
S2140123108B460F461348144A121A20F018FC0E4B2F
S214012320002B00D098470D4B002B00D0984700207B
S214012330002104000D000D48002802D00C48AFF320
S214012340008017F079FD2000290018F0C9FD17F06C
S214012350F3FA00BF000008000000000000000000C3
S214012360C00A0020F40E0020382B002000000000D8
S21401237000000000154B37B5186818F081FE08B14B
S214012380012820D18DF80700012200211D200DF122
S21401239007030CF02DFF044690B9032000F0C6FD9C
S2140123A070B10B4D0B49286819F07DFC18F046FEFC
S2140123B018F045FE9DF807200749286819F073FCB8
S2140123C0204603B030BD0124FAE700BFCC0A002046
S2140123D098120020C0380300C538030030B585B018
S2140123E00DF10B05012200211D20009503AB0CF019
S2140123F0CDFE044668B92A4601211D200CF026FFB1
S214012400044630B9044B9DF80B200449186819F0AE
S2140124104AFC204605B030BD98120020DF38030084
S214012420014B186818F035BECC0A002038B5154B9C
S2140124301A782AB300221A70FFF79CFF044618B9CF
S214012440FFF7CCFF0446D8B1012000F06FFDB8B10C
S2140124500D4D0E49286819F026FC18F0EFFD18F00E
S214012460EEFD23460A490B4A286819F01CFC204653
S21401247000F0A2FD28680849BDE8384019F013BCF1
S21401248038BD00BF292A002098120020FB3803001F
S2140124900339030000390300CC3903007FB5036814
S2140124A0AC4A23F47F4323F00703934200F0A38151
S2140124B00AD8A2F5102293422AD002F5A02293420E
S2140124C000F0FA8004B070BDA34A934200F0068182
S2140124D002F101729342F5D1B0F805301D2BF1D10E
S2140124E003890320DB0740F1F98100F01FFD002876
S2140124F000F0BD80994C9A49206819F0D4FB18F079
S2140125009DFD18F09CFD9749206819F0CCFBAEE0C4
S214012510954E30460CF0C6FD054610B38F4C9349D8
S214012520206819F0C0FB9249206819F0BCFB18F02E
S21401253085FD18F084FD8F4B8F4A00938F496B23DE
S214012540206819F0B0FB8E492B468E4A206819F098
S214012550AAFB284600F030FD8B49206819F0A3FB42
S214012560FEE7022130780CF0D7FD044610B37B4D10
S2140125707E49286819F097FB7D49286819F093FB76
S21401258018F05CFD18F05BFD7A4B7B4A00937B49A3
S2140125907023286819F087FB79492346794A286809
S2140125A019F081FB204600F007FD7749286819F0ED
S2140125B07AFBFEE7A02200900346114630780CF025
S2140125C089FD054610B3654C6849206819F06BFB18
S2140125D06749206819F067FB18F030FD18F02FFDE9
S2140125E0644B654A009365497923206819F05BFBC3
S2140125F063492B46634A206819F055FB284600F0CC
S214012600DBFC6149206819F04EFBFEE702213078B9
S2140126100CF096FD054610B3504C5449206819F04D
S21401262042FB5349206819F03EFB18F007FD18F0ED
S21401263006FD504B504A009350497E23206819F0FE
S21401264032FB4F492B464F4A206819F02CFB28468F
S21401265000F0B2FC4C49206819F025FBFEE74B4B15
S214012660186818F012FDFFF785FE044628B9FFF733
S214012670B5FE044600283FF425AF012000F056FCC5
S21401268000283FF41FAF354D4149286819F00BFB70
S21401269018F0D4FC18F0D3FC39492346394A286887
S2140126A019F001FB204600F087FC3A49286804B07F
S2140126B0BDE8704019F0F7BA032000F037FC002897
S2140126C03FF400AF254C2649206819F0ECFA18F0C3
S2140126D0B5FC18F0B4FC30492068E8E7032000F0A8
S2140126E025FC60B11D4C1E49206819F0DCFA18F073
S2140126F0A5FC18F0A4FC2949206819F0D4FA1A4C54
S214012700022120780CF008FD0546002848D0134C1D
S2140127101649206819F0C7FA1549206819F0C3FA56
S21401272018F08CFC18F08BFC124B134A00931349DB
S2140127309C23206819F0B7FA11492B46114A2068E4
S21401274019F0B1FA284600F037FC0F49206819F055
S214012750AAFAFEE7A0000A00A000060198120020CF
S214012760C03803009F390300F20C0020CB39030068
S21401277018390300CD3903001D390300263903003B
S214012780033903000039030032390300CC0A002064
S214012790FB380300CC3903004339030057390300E3
S2140127A0022120780CF0CCFC054600283FF48AAEC6
S2140127B0524C5349206819F076FA5249206819F0AC
S2140127C072FA18F03BFC18F03AFC4F4B4F4A009354
S2140127D04F49A123206819F066FA4E492B464E4A06
S2140127E0206819F060FA284600F0E6FB4B4920689D
S2140127F019F059FAFEE7B0F805001B287FF462AE1F
S2140128000DF10B0300930122002103AB0CF0BEFC7B
S2140128100446C8B99DF80B30002B32D1404B1868DE
S21401282018F0AFFC032000F081FB00283FF44AAE0D
S214012830324C3C49206819F036FA18F0FFFB18F0C4
S214012840FEFB3949206819E0012000F06FFB0028E3
S2140128503FF438AE294D3549286819F024FA18F0A6
S214012860EDFB18F0ECFB2B4923462B4A286819F0A0
S2140128701AFA204600F0A0FB2D49286819F013FA31
S21401288020E6012B14D1264B186818F077FC03209C
S21401289000F04CFB00283FF415AE184C2149206887
S2140128A019F001FA18F0CAFB18F0C9FB2149C9E76B
S2140128B0012000F03BFB00283FF404AE0F4C1B49FF
S2140128C0206819F0F0F918F0B9FB18F0B8FB9DF87C
S2140128D00B201949206819F0E6F9F3E500F026FB0C
S2140128E000283FF4EFAD054C0E49206819F0DBF9DE
S2140128F018F0A4FB18F0A3FB1049EDE6981200208F
S214012900CB39030018390300CD3903001D39030004
S2140129102639030003390300003903003239030066
S214012920D00A0020C03803006B390300FB380300CF
S214012930CC390300753903007E390300B53903002D
S214012940034B1B68834202BF0122024B1A70704779
S214012950CC0A0020292A002030B50368514A23F406
S2140129607F4323F00703934289B040F09880052205
S214012970002116204C4B0CF03BFC054610B34B4C8B
S2140129804B49206819F08FF94A49206819F08BF9EC
S21401299018F054FB18F053FB474B484A009348493C
S2140129A05923206819F07FF946492B46464A206884
S2140129B019F079F9284600F0FFFA4449206819F021
S2140129C072F9FEE70DF10F0104A80CF055FC044660
S2140129D010B3364D3649286819F065F93549286827
S2140129E019F061F918F02AFB18F029FB324B334A2B
S2140129F0009333496423286819F055F93149234671
S214012A00314A286819F04FF9204600F0D5FA2F49C7
S214012A10286819F048F9FEE7BDF8143001465BBA9C
S214012A20ADF818309DF8133008228DF81A30FF23C0
S214012A308DF81B30FE238DF81C309DF812301820BF
S214012A408DF81D30BDF810305BBAADF81E3006AB00
S214012A500CF0CEFB054610B3144C1549206819F04E
S214012A6022F91449206819F01EF918F0E7FA18F04F
S214012A70E6FA114B114A009311497423206819F0A4
S214012A8012F910492B46104A206819F00CF928460D
S214012A9000F092FA0D49206819F005F9FEE709B031
S214012AA030BD00BFA0000100DC39030098120020F1
S214012AB0CB390300183903000A3A0300E239030050
S214012AC026390300033903000039030032390300B5
S214012AD010B5234C01F01EFB01F0FAFC236F23F026
S214012AE0070343F00303236718F0A1FC1D4B0020E6
S214012AF09B6A9B075EBF01221B4B9A62D4F820316A
S214012B0023F0030343F00203C4F82031D4F8243140
S214012B1023F0070343F00203C4F82431D4F840310C
S214012B2023F0030343F00103C4F84031D4F86031C5
S214012B3023F0030343F00103C4F86031D4F84032B4
S214012B4023F0030343F00103C4F84032D4F8003203
S214012B5023F0070343F00103C4F8003210BD00BFA1
S214012B600080005000C0005000E0005008B502F0A0
S214012B70F7F801280ED1114B04205A6E4FF480232A
S214012B800F49520358BF0F4A4B6601F510410862C0
S214012B9058BF536603F0F6FB03F09AFB03F0BAFB4B
S214012BA019F030F8FFF794FF03F0A2FB00F00CFCDD
S214012BB000F0E0FFBDE8084004F050B80080005087
S214012BC00090005000A0005030B51C4D95B00DACE3
S214012BD00FCD0FC495E80700282384E80700184A9C
S214012BE00021CDE9022305230E24CDE904118DF839
S214012BF01130062322460DF1260006918DF813307A
S214012C001FF0A5FF4FF480210E4B0DAACDE9071347
S214012C100D238DF824300C4B07A90A9320230B9320
S214012C2001238DF83130094B0948009302AB8DF82A
S214012C30254003F0D5FD15B030BD00BFF83C0300BC
S214012C4000C0055024C005502A2A0020E0110020AB
S214012C5034120020831E012B10B512D8012922D868
S214012C60114B04221B6905210020C3F3401301F018
S214012C707BFE0E4B1B681868A8B1BDE81040436A7E
S214012C8018478B1E012B0CD801280CD8BDE8104024
S214012C900022054B05211B691046C3F3401301F0C2
S214012CA063BE0129E5D910BD00C00350C00A00204B
S214012CB008B50449044804F097F8BDE80840FFF752
S214012CC083BF00BFC40A002058120020014819F033
S214012CD058B900BF34120020014B1A6A1868104711
S214012CE034120020014818F0C6B900BF143D030095
S214012CF0014818F040BA00BF2C3D0300184B37B509
S214012D0083422AD1174B1B783BB3C8B20CF02CFA7E
S214012D10054610B3144C1549206818F0C4FF144931
S214012D20206818F0C0FF18F089F918F088F9114BDF
S214012D30114A009311498523206818F0B4FF104901
S214012D402B46104A206818F0AEFF284600F034F9EA
S214012D500D49206818F0A7FFFEE703B030BD00BF9D
S214012D60601200204A2A002098120020CB39030066
S214012D7018390300B73D0300443D0300263903001C
S214012D8003390300003903003239030030B500254A
S214012D900368584A23F47F4323F0070385B0934220
S214012DA004460295ADF80C507ED002F5802293427F
S214012DB00ED0A2F18272934240F09A804E4B1B785D
S214012DC0002B00F0958005B0BDE8304019F00CBA34
S214012DD0B0F80530212B40F08B80FF2304A91A465A
S214012DE011E9030018F023F9012814BF41F2FC157C
S214012DF0414B05F0FC0208BF1870212120790CF028
S214012E000DFA054610B33D4C3D49206818F04BFFBE
S214012E103C49206818F047FF18F010F918F00FF930
S214012E20394B3A4A00933A495923206818F03BFF38
S214012E3038492B46384A206818F035FF284600F0F6
S214012E40BBF83649206818F02EFFFEE7344900909B
S214012E502379344A0968344800F008F90546002801
S214012E6046D0264C2649206818F01DFF25492068C3
S214012E7018F019FF18F0E2F818F0E1F8224B234A8F
S214012E80009323496223206818F00DFF21492B4641
S214012E90214A206818F007FF284600F08DF81F49E0
S214012EA0206818F000FFFEE7B0F80530B7EE047AA8
S214012EB007EE903AF8EE677AB0F8073067EE877A51
S214012EC0013307EE103AB8EEC77A67EE877AB1EEAD
S214012ED0047A67EE877AFAFE677AFCEEE77A17EEEF
S214012EE0903AB3F57A7F38BF4FF47A730C4A136081
S214012EF005B030BDA00006024A2A00209812002024
S214012F00CB39030018390300C63D0300443D0300D6
S214012F102639030003390300003903003239030060
S214012F20D40A0020FD2C0100601200200B4B024643
S214012F301B7883B10A4B1B78834234BF00200120E3
S214012F40084B1B7833B1084B1B78134113F0010F64
S214012F5008BF002070470120F2E700BFF80C0020F0
S214012F60F70C00204B2A0020F60C0020012208B5A1
S214012F70074B1A700022074B1A700422064B1A7070
S214012F801F22064B1A7003F027FA054B186008BD7E
S214012F90F80C00204B2A0020F70C0020F60C00202D
S214012FA098120020024B0349186818F07CBE00BF37
S214012FB098120020E63D030070B50C4C0C490646FD
S214012FC0206818F070FE03F007FA0546206803F043
S214012FD0F7F93046FFF7E6FF284603F0F1F92068D7
S214012FE00449BDE8704018F05EBE00BF981200208C
S214012FF0E83D0300EA3D030038B5054618F033FA0C
S21401300000230B4A14685CB1AC4206D1A96A6BB1C5
S214013010996218F02EFA012007E02346A46AF2E727
S214013020002DF3D018F025FA204638BD1160F0E7E0
S2140130309C12002010B5044698B104F03FFB2046D0
S214013040FFF7DAFF10B194F82C300BB9002010BD51
S21401305018F009FA044A1368013B136018F009FADC
S214013060F4E72220F3E700BFA01200202DE9F04389
S21401307085B00546914698460E469DF8307009B9CA
S214013080002F5CD12846FFF7D5FF0446002836D12D
S21401309085F82C00686304F003FC864233D904F0FB
S2140130A09FFB2146844640F2E7304FF47A720023B4
S2140130B0E6FB0C0116F0A8FA4FF0FF32002316F0DB
S2140130C0A3FA2B46E88611462846CDE900441D4A58
S2140130D019F017F8044690B9C5E9089885F82D70D7
S2140130E02E6318F0C0F9184A136833B31A469B6A60
S2140130F0002BFBD195620023AB6218F0BAF920468B
S21401310005B0BDE8F08347B12B4631462846CDE9E8
S21401311000440C4A04F088FBDCE7304603A904F0BF
S21401312065FB04460028EAD12B462846CDE9007700
S214013130044A039918F0C1FFCCE71560DBE72124A8
S214013140DDE700BF4D3101009C12002091F82C30C4
S21401315013B50C4683B98B8ECA8E93420ED243B9F1
S214013160CDE9003320460B46104A4FF0FF3118F0E8
S21401317088FFA38E0133A38602B010BD52B191F829
S2140131802D307BB101230093D1E908232046096B3A
S214013190FFF76CFF0123064A84F82C3013680133CD
S2140131A01360E9E7084604F089FAF3E74D310100B8
S2140131B0A01200202DE9F041144E336823B34FF0DE
S2140131C00008134F18F04FF905463C6824B9284605
S2140131D0BDE8F04118F04DB994F82C3093B133683E
S2140131E084F82C80013B336094F82D3013B92046C7
S2140131F0FFF702FF284618F03CF9D4E908312046CB
S2140132009847DFE7A46AE1E7BDE8F081A012002055
S2140132109C120020034B1B68002B14BF04200120C6
S214013220704700BFA0120020024B1868B0FA80F069
S21401323040097047A01200200348044A0449121AA4
S214013240921017F0FEBE00BFEC8A0300EC8A030062
S214013250382B002008B500F02FF8FFF7EDFF124BD2
S21401326012498B4212D30020114B12498B4218D3BC
S214013270FFF746F8186850F82240586840F8224090
S214013280013298688242F5D30C33EAE70022F8E768
S2140132901C6844F8220001325C68A242F8D3083365
S2140132A0E4E70022F8E700BFAC860300B886030017
S2140132B0B8860300B88603004FF400414FF0FF3094
S2140132C0124B134A10B59A60D3F8882042F4700264
S2140132D0C3F888200F4A916601F1884101F5005232
S2140132E010664FF6DF7050660220C3F8D000BFF3B9
S2140132F04F8FBFF36F8F08244FF440330648C0F852
S2140133008041D36004600B6110BD00BF00ED00E09A
S214013310002001000090005000E100E0014B186819
S214013320704700BFDC0A0020084B1B6F03F0070341
S214013330022B04D0032B05D0012B05D0FEE7044B4E
S21401334018687047034BFBE703487047008000503E
S214013350DC0A0020E40A0020002D310108B5FFF741
S214013360E3FF054B1B6FC3F303330133B0FBF3F0ED
S214013370024B186008BD00BF00800050D80A00202C
S2140133800048704700B4C404014B1868704700BF7A
S214013390E40A0020054B1860054B1B6F03F007037A
S2140133A0032B01D1FFF7DABF704700BFE40A002004
S2140133B00080005000487047002D3101014B18680D
S2140133C0704700BFE00A002000239B6A10B5B3F5E2
S2140133D0903F11D219680A4A91420DD1094C2278C0
S2140133E012F0FD0F01D0002010BDDB6998470028C0
S2140133F0FAD101232370F6E74FF48170F4E700BF9A
S21401340007B0CD5E4C2A00204FF00053074A1A60E1
S214013410BFF34F8F0649074BCA6802F4E0621343B5
S214013420CB60BFF34F8F00BFFDE700BF02020FF076
S21401343000ED00E00400FA050346054A0549106858
S21401344003448B428CBF4FF0FF301360704700BFC0
S214013450E80A002000800020F7B50468012105462F
S2140134603A2000F07DFD002301226179207901F0E8
S2140134707BFA14233021227911FB023101F1A0419C
S21401348001F5703109686379D940C943A37901F020
S2140134900101022B217017D100F0C2FA164A2B4601
S2140134A06179207900F0E6FAFF28024660790ED1AC
S2140134B02A46114900F008FB01230246617920796A
S2140134C0CDE9003301F0F6F9002003B0F0BD012686
S2140134D02779002301460096384601F0ADFA2A46C0
S2140134E00549607900F0F0FA0023617902462079F7
S2140134F0009301963346E5E79BB0020010B5012222
S21401350043780178847830209A40054B00FB0133DC
S2140135101CB942F210015A5010BD41F21001FAE7EF
S21401352000C0035010B5012243780178847830201A
S2140135309A40054B00FB01331CB941F210015A5069
S21401354010BD42F21001FAE700C003502DE9F04F1A
S2140135509A46564B85B01B7806460F461546DDF84B
S2140135603C909DF844B0DDF85080002B00F0978029
S214013570072A00F296800E9B002B00F09280B9F18C
S214013580000F00F08E80129BB3F5006F00F3898068
S214013590012803D1109B002B00F08380444B03EBE2
S2140135A005131B7B002B7ED0424C1022002168465F
S2140135B01FF0CDFA04EB45141022A7BB394620466E
S2140135C01FF0C5FA43F210036380BBF1000F03D16D
S2140135D0E37843F00303E370364A0E9B02EB451C87
S2140135E0CCE90193129B6901581E9DF84C30C0F33B
S2140135F00A0003F003039B0643EA001E53582E48B5
S214013600012E00EA03004EEA0003CDF800A0535055
S21401361017D0B8F1000F2ED19CF8023068F30413CE
S2140136208CF8023027E0002120461FF090FA4FF474
S21401363044736380BBF1000FCED1E37843F03003CF
S214013640C9E713230CF1100ECCF80C309CE80F00E0
S2140136508EE80F006FF00301DCF81C20109B61F36D
S2140136609F02012FCCF81C20CCF8143003D1CCF8E3
S2140136701890CCF8043000270D4A290102EB0513F7
S21401368042F80180159A28465A60694622469F608C
S2140136905E7301F04DFA384605B0BDE8F08F074875
S2140136A0FAE70748F8E70748F6E700BF4D2A002083
S2140136B0A4130020A41200200F80FFF3028000F064
S2140136C0018000F0078000F038B5124B05461B78E4
S2140136D0DBB1E0B117F0C7FE0F4A00231146147B99
S2140136E054B92B6001251A0101EB03131D738C508D
S2140136F017F0BFFE204638BD0133082B02F1100239
S214013700EDD117F0B6FE0548F5E70548F3E705489D
S214013710F1E700BF4D2A0020A4130020048000F02A
S214013720028000F0018000F038B517F09CFE0023FF
S21401373005460B4A147B6CB90133082B02F11002C3
S214013740F8D101F097F9074B28461C7017F091FE47
S214013750204603E0284617F08CFE034838BD00BF1C
S214013760A41300204D2A0020058000F00D4B10B553
S2140137701B78044693B1072812D817F074FE0A4B3B
S21401378003EB04131A7B2AB100241C7317F071FE95
S214013790204610BD17F06DFE0448FAE70448F8E726
S2140137A00448F6E74D2A0020A4130020068000F006
S2140137B0028000F0018000F0154B13B51868002355
S2140137C001908DF8043017F04EFE124B1C7824B190
S2140137D017F04FFE104802B010BD01221A7017F004
S2140137E048FE0E4B01A81C731C7783F82C4083F807
S2140137F03C4083F84C4083F85C4083F86C4083F887
S2140138007C4008238DF8073001F060F92046E2E796
S214013810403E03004D2A0020038000F0A413002040
S2140138200A4A08B512785AB107280BD8084A02EB9B
S21401383000131B7B43B1002101F03AF9002008BDBB
S2140138400448FCE70448FAE70448F8E74D2A002054
S214013850A4130020028000F0018000F0078000F031
S2140138600A4A08B512785AB107280BD8084A02EB5B
S21401387000131B7B43B1012101F01AF9002008BD9A
S2140138800448FCE70448FAE70448F8E74D2A002014
S214013890A4130020028000F0018000F0078000F0F1
S2140138A00A4A08B5127852B107280AD8084A02EB24
S2140138B000131B7B3BB101F087F9002008BD0548CA
S2140138C0FCE70548FAE70548F8E700BF4D2A00205F
S2140138D0A4130020028000F0018000F0078000F0B1
S2140138E00D4B1B7893B1072812D889B10B4B03EB0C
S2140138F000131B7B73B10A4B1A6D012383401342DD
S21401390014BF0123002300200B7070470548704741
S21401391005487047054870474D2A0020A41300202B
S21401392000000450028000F0018000F0078000F0E3
S2140139300B4A10B512780C4662B107280CD859B15B
S214013940084A02EB00131B7B43B101F04FF92070CC
S214013950002010BD0448FCE70448FAE70448F8E7ED
S2140139604D2A0020A4130020028000F0018000F000
S214013970078000F0184B2DE9F0411F6D5B6D1F406D
S21401398000D5FEE701260025144CDFF858803742A3
S21401399018D02368C8F85060A3B1A1682846013141
S2140139A06268A1609847637B012B0BD150B90C4B21
S2140139B003EB45131A7B60F341021A731A7F60F317
S2140139C041021A770135082D4FEA460604F1100424
S2140139D0DDD1BDE8F08100BF00000450A413002033
S2140139E0A41200200020045070B5044601250B4E99
S2140139F004B970BD94FAA4F0B0FA80F005FA00F3A9
S214013A0006EB001224EA03045368002BF0D0117B66
S214013A1011B191689847EBE79847E9E7241400202D
S214013A2008B5192000F080FD28B14FF00072074B51
S214013A30C3F880211A601A2000F076FD28B14FF0F5
S214013A408062024BC3F880211A6008BD00E100E0E5
S214013A5038B505460C4617F006FD0022044B03EB6D
S214013A6005135C601A73BDE8384017F002BD00BF4D
S214013A7024140020F8B504460D4617461E4617F0D6
S214013A80F2FC1CB9052D0DD0FF2414E0012C03D146
S214013A90012DF9D1032405E0022CF5D17DB1052DC8
S214013AA0F2D10724074904F1100301EB03110123A6
S214013AB0C1E901760B7317F0DCFC2046F8BD06243D
S214013AC0F0E700BF24140020F8B505460E46174659
S214013AD017F0C9FC134B2C46D3F8242405F0FC013F
S214013AE022FA05F3DB0712D500230133DBB2042BE0
S214013AF004D1FF2417F0BDFC2046F8BDEC1804F0F5
S214013B0003040C4422FA04FC1CF0010FEDD1FF2C37
S214013B10F0D00122044B03EB0413C3E901671A73C7
S214013B20E8E700BF00C0035024140020074BD3F879
S214013B302404D3F8202403F50053104000F0553038
S214013B4020F05020C3F82004FFF74EBF00C00350FA
S214013B50074BD3F82404D3F8202403F50053104070
S214013B6000F0AA3020F0A020C3F82004FFF73CBFE5
S214013B7000C00350024B1968024B18680EF0E4BCF3
S214013B80EC0A00200C0B002070B594002246054676
S214013B900E461FF079FE431C0AD058B9224631461C
S214013BA028461EF0AAFF0028034808BF002070BD63
S214013BB00248FCE70248FAE710E000F021E000F0D6
S214013BC024E000F010B504461FF056FE431C10D04A
S214013BD088B901F0CDF8234620F00300204498422E
S214013BE001D1002010BD53F8042B0132F7D0034851
S214013BF0F8E70348F6E70348F4E700BF0EE000F0F5
S214013C0021E000F024E000F008B517F025FC014B98
S214013C10186008BD141D0020014B186817F020BC61
S214013C20141D0020044BD3F88420D206FBD4D3F80D
S214013C308400C0F3811070470040005038B5104B27
S214013C400546D3F820310C4603F00303022B0BD0B4
S214013C50032B0DD0012B0FD1FFF760FB052305B118
S214013C60286004B1236038BDFFF78EFB0323F6E717
S214013C70FFF7A0FB0223F2E701230020EFE700BFD6
S214013C800080005073B50D4600210E4B0191D3F80C
S214013C908041064604F00304012C09D0022C0CD006
S214013CA00C460EB1019B336005B12C6002B070BDAD
S214013CB001A8FFF7C3FF0F24F3E7FFF77BFB019093
S214013CC0EFE700BF0080005038B5184B0546D3F823
S214013CD024010C4600F00700062823D8DFE800F090
S214013CE0040A121A1E0E1600012305B1286004B13B
S214013CF0236038BDFFF712FB0523F6E7FFF70EFB3F
S214013D000623F2E7FFF740FB0323EEE7FFF73CFB52
S214013D100423EAE7FFF74EFB0223E6E717F09CF9D8
S214013D200723E2E700231846DFE700BF00800050C4
S214013D3038B5104B0546D3F840310C4603F0030363
S214013D40022B0BD0032B0DD0012B0FD117F086F9C8
S214013D50092305B1286004B1236038BDFFF72EFBA7
S214013D600823F6E717F07DF90B23F2E7012300207D
S214013D70EFE700BF0080005038B5144B0546D3F876
S214013D8000020C4600F0070004281BD8DFE800F00C
S214013D9003090D111500012305B1286004B1236044
S214013DA038BD17F05BF90923F6E7FFF707FB082391
S214013DB0F2E717F056F90B23EEE7FFF7CFFA0E23DB
S214013DC0800AE9E700231846E6E700BF00800050B6
S214013DD038B5104B0546D3F840320C4603F00303C2
S214013DE0022B0BD0032B0DD0012B0FD117F036F978
S214013DF0092305B1286004B1236038BDFFF7DEFA58
S214013E000823F6E717F02DF90B23F2E700231846EF
S214013E10EFE700BF0080005038B5104B0546D3F8D9
S214013E2060310C4603F00303022B0BD0032B0DD09D
S214013E30012B0FD117F012F9092305B1286004B13F
S214013E40236038BDFFF7BAFA0823F6E717F009F939
S214013E500B23F2E701230020EFE700BF00800050AC
S214013E6010B40D4C0B46D4F8204204F00304012C88
S214013E700AD0022C0CD008B1002101600BB100223F
S214013E801A605DF8044B70475DF8044BFFF7D6BE29
S214013E905DF8044BFFF74CBF0080005038B50C4668
S214013EA0054617F0D9FA054B9A6A54402C405440FF
S214013EB09C62BDE8384017F0D3BA00BF00C000507E
S214013EC0B0F5207F1FD009D8B0F5007F15D003D8F4
S214013ED068B1B0F5C07F0AD000200CE0B0F5607F75
S214013EE0FAD10B4BD3F88000C0F3011003E0084B66
S214013EF0186FC0F3033001307047054BD3F89000BC
S214013F00C0F30460F7E7024B186FC0F38020F2E7B6
S214013F10008000504FF400320E4B014610B50020D1
S214013F209A66FFF7CDFF484341F671320A490B4BBB
S214013F30884294BF00200120DC69DA639A6822F483
S214013F40401242EA00529A60E20344BF0022DA635A
S214013F5010BD00BF00900050005A620200000350DE
S214013F60420910B50FD0012A0FD00A4B0A4C022A7B
S214013F7018BF234600F01F0049B103F58053012204
S214013F8082401A6010BD1346F4E7044BF2E703F5CE
S214013F900053F4E76880005060820050648000504F
S214013FA008B5802017F07AF9034B98429EBF4FF46C
S214013FB08032024B1A6708BD005A620200A0005008
S214013FC01FB50023B0F5807F019377D028D8382815
S214013FD000F094800BD82438092810D809280ED868
S214013FE0DFE800F0676767670D0D620D377D5228C1
S214013FF05FD008D83D283BD03E2800F08480019849
S21401400005B05DF804FB8028F9D1414B1B6F03F026
S2140140100703013B032BF2D8DFE803F044413F6C72
S214014020B0F5D06F5BD019D8B0F5A06F66D00AD8BE
S214014030B0F5806F3DD0B0F5906FE0D1002001A9BA
S214014040FFF742FEDBE7B0F5B06F2DD0B0F5C06FDD
S214014050D5D1002001A9FFF76BFED0E7B0F5006FC0
S214014060ECD00AD8B0F5E06F4DD0B0F5F06FC6D100
S214014070002001A9FFF7D0FEC1E7B0F5086FBED159
S214014080234BD3F8003103F00303022B2CD0032B70
S2140140902ED0012B30D1FFF777F9032300E005235B
S2140140A00193ACE70223FBE7002001A9FFF7EAFD35
S2140140B0A5E7002001A9FFF7C1FDA0E702934FF095
S2140140C0E0231B695B0705D5FFF748F90C2303932B
S2140140D0039BE5E703A902A8FFF72AFEF8E70020FD
S2140140E001A9FFF749FE8AE7FFF768F90823D7E732
S2140140F016F0B2FF0723D3E70123D1E7002001A979
S214014100FFF7AEFE7BE7002001A9FFF761FE76E729
S214014110008000504FF40022034B5A66012203F53B
S21401412080439A62704700BF0090005008B5FFF7C1
S21401413047FF082811D00938012802D94FF6FF7029
S21401414008BD4FF40012064B5A6603F5D8335B6A76
S214014150DB07F3D54FF4FA70F2E7024B1888EFE766
S21401416000900050E00C0020F8B504468020FFF7D0
S21401417027FF032800F087804FF40022424B0221DC
S2140141805A6645F60E03414AC2F88030404B9962A2
S214014190012103F580539962936DD903FCD4D4E9C8
S2140141A000131B0543EA0163E17B94F820500B439F
S2140141B0217BE77E43EA0143617B6D0143EA0133DC
S2140141C0A17B43EA811313619169D4E904031B06B9
S2140141D043EA806301F000410B43A17E94F823007B
S2140141E00B43217E43EA0143617E43EA0123936147
S2140141F0136AE66923F00D0394F8221043EA870355
S214014200002E2DD11362966A94F8213045EA0313E5
S21401421026F033052B4343F0010393621D4D1B4BE0
S2140142209A6D35EA0202FBD10222194DAA621A657D
S2140142309A6D5200FCD41A69A56822F4700242EA0B
S21401424005521A614FF00042114B9A6119B90222C8
S21401425003F580539A6278B901220F4B9A620BE0FC
S214014260334343F008031362936A23F03303034393
S2140142702B4343EA4103936294F824301BB1034B6A
S214014280064AC3F88020F8BD0090005000C00050D8
S21401429000D000500300014000E00050F1A7FFFFEE
S2140142A01E4BFF2870B59E6A35D89A6D12F4803F72
S2140142B018BF01211A4A18BF9162022191629B6DB3
S2140142C0DC0303D5154A936D9907FCD50222144BDE
S2140142D0124D1A65AC6D14F08044FBD1114AAB69DE
S2140142E092F9002023F47F03024423F47F4382F3F0
S2140142F0080243EA002343EA0243AB613146022047
S214014300FFF7CCFDAB6DDB0303D531460120FFF78C
S214014310C5FD204670BD2124FBE700BF00C000504C
S21401432000D000504E2A0020014B93F90000704740
S2140143304E2A002001221548154B816A9A62826D29
S21401434002F00302032AFAD102229A621A650F4A80
S214014350936D5B00FCD40F48936D30EA0303FBD1E9
S21401436001220B4B1A65A3F580539A6D9007FCD476
S2140143709A6D9207FCD50222054B1A65034A936D86
S2140143809B07FCD50320FFF789BD00BF00C0005086
S21401439000D0005003000100014B1880704700BF99
S2140143A0DE0C00204FF4001208B5184B5A660223A3
S2140143B0174A5360936813F48033FBD1012822D146
S2140143C0FEF7E2FF134B984215D003F5122303F5CF
S2140143D0F863984213D0104B00EB8002400AB3FBFF
S2140143E0F0F3520A0A49CA620B6301234B620022A8
S2140143F0074B5A6008BD45F67A13084AF2E745F6B8
S2140144001A03074AEEE75362F1E700BF0090005037
S2140144100040025000F0490264666666D8B805009E
S214014420BBCF0500B0F5207F10B50C4642D008D8AA
S214014430B0F5007F33D003D888B1B0F5C07F0ED079
S21401444010BDB0F5607FFBD11F4A4C1ED2F88030FC
S21401445023F0300343EA0413C2F88030F0E716F085
S21401446015FF16F0DFFF4FF48031184B164A196717
S214014470136F013C23F4704343EA04331367FEF7DA
S2140144806DFF0446FFF7CEFBC0F10201204616F091
S214014490C3FF00F02DF8BDE81040FFF781BD0A4AC2
S2140144A04C1ED2F8903023F0F85343EA0463C2F866
S2140144B09030C5E7044A4C1E136F23F4806343EA29
S2140144C084231367BCE700BF0080005000900050B3
S2140144D008B50121022000F0F5F816F0D7FE16F017
S2140144E0A1FF4FF48032014B1A6708BD00900050BF
S2140144F008B54FF4C07016F0D1FEBDE80840044977
S214014500884294BF012102214FF42070FFF78ABF31
S21401451080F0FA02034B5868C0F30800003818BF51
S2140145200120704700ED00E0054B420953F82230A8
S21401453000F01F0023FA00F0C04300F001007047AE
S21401454000E100E010B5224B70B94FF40031214A6A
S2140145501860516602F598325268012A03D11E4A44
S214014560D2F800211A6010BD1B68002BFBD01B4A35
S2140145705268012AF7D0184A8020C2F80031FFF7A6
S2140145801FFD05281FD14FF4C070FFF799FC0128C5
S214014590044604D102214FF4C070FFF743FF0722FF
S2140145A00F4B1A610122A3F580535A600B4A136917
S2140145B0DB07FCD5012CD6D12146BDE810404FF4CF
S2140145C0C070FFF72FBF0122064B5A60CBE700BF32
S2140145D0181D0020009000500080005000C00150BF
S2140145E000E0015000D00150044A4178536F23F493
S2140145F0407343EA01235367704700BF00400050F1
S21401460010B5044610B10020FFF79CFF104A13694D
S21401461043F00403136102F023FE16F02DFF0D4B49
S2140146200D4AC3F8202416F017FF1FF029F916F0DB
S21401463017FF16F022FF02F03BFE1CB9BDE8104042
S214014640FEF78CBE0120BDE81040FFF77BBF00BF20
S21401465000ED00E000E003500000FF0F10B5044637
S21401466010B10020FFF76EFF0E4A136943F00403F2
S21401467013610D4B0D4AC3F8202402F0F1FD16F02C
S214014680EBFE1FF0FDF816F0EBFE02F011FE1CB972
S214014690BDE81040FEF762BE0120BDE81040FFF7FE
S2140146A051BF00BF00ED00E000E003500000FF0F27
S2140146B0034A0179D36E23F030030B43D366704768
S2140146C000400050F8B504461C4BD3F88420D106B0
S2140146D0FBD4D3F88430C3F381139C422CD0FEF76D
S2140146E023FE012C064602D1214616F095FE16F051
S2140146F0B3FE4FF00072124B07465A66204616F07C
S214014700C3FE4FF480630D4D621E93402B676B6EA4
S2140147109A0103D4D5F884309B060AD5384616F09C
S2140147209FFE022C08D13046BDE8F840002116F065
S21401473073BED5F88430EAE7F8BD00BF00400050EC
S2140147400060005010B50C4608B9FEF7EDFD074BAA
S21401475021461B783BB1064B984204D80120BDE8A0
S2140147601040FFF7AFBF0220F9E700BF4F2A002035
S214014770005A62020278034B012100201A70FFF7EB
S214014780E1BF00BF4F2A00204FF0004238B5264B4C
S21401479026495A6601224A604AF6CD3103F50B23B3
S2140147A05D6C1964154030BB9968C9070BD40024A9
S2140147B001221F4B5A6015B11E4B1F4A1A641DF089
S2140147C0FDFC204638BD1A498A601C4AD96ACC07C6
S2140147D005D4904201D10724EAE70130F6E790427A
S2140147E0E5D1F8E70132DC6A14F0080406D08A4203
S2140147F0F8D10724DFE700221049F4E78A42F8D00F
S21401480020220B4B0B495A620122A3F580539A6072
S21401481023460A4A486A800603D49342E9D0013304
S214014820F8E79342C7D1E4E70090005000500950E2
S21401483000600950004009503254FFFF40420F000B
S2140148404FF0004238B5174B174C5A66012203F554
S2140148500C235A604AF6CD33656C23644378934043
S2140148601343124AD363C3788178A2689B0043EA54
S214014870011322F074021343A3600279837943EA99
S214014880022323614279C37943EA022363610078F4
S214014890FFF77AFFEB0744BF054B23641DF08EFC40
S2140148A0012038BD009000500040095000400050E3
S2140148B03254FFFF072A2DE9F041154698464FF07E
S2140148C0030401F003072DD89600B44000FA06F25F
S2140148D021461C4816F0D9FD21461B4807FA06F268
S2140148E016F0D3FD194B1A499DF81800B8F1000FC0
S2140148F018BF1946012303FA05F50D60154B164935
S214014900002818BF0B461D60144B9DF81C00C3F809
S2140149102054103103F22443002818BF0B461D60B3
S214014920BDE8F081A2F10806B600B44000FA06F22E
S21401493021460B4816F0A9FD21460A4807FA06F259
S214014940CEE700BF00C4035008C4035010D4035080
S21401495010E4035014E4035014D4035000E0035051
S21401496004C403500CC40350F8B504460D461F4654
S21401497016464AB101238B403021184A01FB00221A
S214014980F7B141F21001535004EB4403072D4FF0E9
S2140149900F014FEA031316D8A80006FA00F2814069
S2140149A00F48184416F071FD4EB9012330210B4A09
S2140149B0AB4001FB042277B141F210015350F8BD20
S2140149C042F21001DFE7A5F10800800006FA00F2C6
S2140149D081400448E5E742F21001EFE700C00350CA
S2140149E004C003500CC00350104B0140D3F83024D0
S2140149F022EA0002C3F83024D3F830241143C3F866
S214014A003014D3F82C240243C3F82C24084AD36E5E
S214014A1003F03003202B1FBFD36E23F0300343F087
S214014A201003D366034BC3F82004704700C003503D
S214014A300040005000E0035038B514461D460322DE
S214014A4083F00103FFF790FF012004F11001884075
S214014A5005FA01F1FFF7C8FF9DF81010034B044A51
S214014A60002918BF1346186038BD00BF24E4035060
S214014A7024D403504FF400120B4B10B5C3F880201A
S214014A80BFF34F8FBFF36F8F0024FF22074B2146E2
S214014A905C6520209A625C60FFF762FA2146BDE8F9
S214014AA010402120FFF75CBA00E100E0000004504E
S214014AB0044A054B002908BF1346012282401A60AA
S214014AC0704700BF401004504020045010B501212B
S214014AD004462020FFF744FA01212120FFF740FA7F
S214014AE00122114B5A60227812069A606178A278E8
S214014AF042EA01429A61FF229A6200229A631A648C
S214014B004FF000425A654FF0FF324FF4001103F5A3
S214014B1000531A65054AC2F88011E3781B01DBB21F
S214014B2082F81533116010BD0000045000E100E06A
S214014B30F8B50125C3B2DFF888C0D1F800E09D4082
S214014B408F7ACB7A0C46097BCCF850500CF5005C7A
S214014B504CF820E04FF0300E184E1B050EFB00609F
S214014B6094F80DC043EA074343EA415322F0030297
S214014B70C0F860C0C365026716F075FC736D2B4301
S214014B807365237A13B1336C2B433364637A13B1A1
S214014B90B36B2B43B3632279A37943EA0243084AF2
S214014BA093616179E37943EA014306498B61034BDB
S214014BB055639D64BDE8F84016F05BBC00000450E8
S214014BC0002004500010045010B50124C0B28440E7
S214014BD016F049FC044B5A6D22EA04025A659C629F
S214014BE0BDE8104016F045BC0000045010B5012485
S214014BF0C0B2844016F037FC074BDA6A224208D16D
S214014C005B6B9C430CBF0124002416F032FC20464B
S214014C1010BD0024F9E700BF000004504FF4003235
S214014C20054B9A6641F6713203F51C33DA630122AD
S214014C3003F50053DA6070470090005041F6713278
S214014C400121064BDA6303F50052D1600022DA63D4
S214014C504FF40032A3F518339A66704700000350EC
S214014C60CB784A7810B55B010C7843EA82030A795F
S214014C70234343EA02130C22424302F1B042136378
S214014C80012C02BF8A78024B43F8202010BD00BFDA
S214014C90E880035008B54FF0B0435A686AB958B176
S214014CA05B680BB116F000FC01210D4B596016F044
S214014CB0FBFB4FF0B043D96008BD5B680BB116F043
S214014CC0F3FB0028F0D116F0EFFB4FF0B0430222C1
S214014CD0DA6016F0E9FB0122024B5A60ECE700BFEE
S214014CE000100058002000584FF0B0414B6810B536
S214014CF00BB116F0D9FB01220B4BC4785A608378AE
S214014D00934043EA840344782343047943EA041333
S214014D10447943EAC4038B60044B5A600378C3F1B9
S214014D200203CB6010BD00BF0020005800100058E1
S214014D304FF48032064B5A6603F5E6235B69C3F3EC
S214014D408512827003F03F021B0B4270037070479E
S214014D5000900050014B986CD96C70470080E00FB2
S214014D60024B1868C0F30740704700BF0080E00F91
S214014D700120034B9B680A3303F01F0398407047DA
S214014D800080E00F70B5054616461C4621B94FF463
S214014D90207016F083FA0146402C1BD003D8DCB1F4
S214014DA0202C1BD070BD602CFCD1042303FB06F223
S214014DB0530803EB4113B3FBF2F3094A203B02EA23
S214014DC0C303AA6822F06002AA60AA681443AC6012
S214014DD0EB61E7E70623E9E71023E7E70823E5E7C2
S214014DE0F8FF7F00012200F580535A6040F6AA635F
S214014DF041F20502436100230B498360C365C2602B
S214014E0000F500520361C361C36491640749836579
S214014E10884203D103650023436502E004498842C2
S214014E20F8D0012353607047FFFF010000C0055012
S214014E300000065070B50D46FFF7D4FF012300F5BC
S214014E4080567360AB7C04461BB1836843F0804395
S214014E508360EB7C5BB1354A2B7D944245D1A2F54C
S214014E601032C2F88C31E36D43F08003E3652A8A81
S214014E706B7B20461343EA891343E3602B7BD5E91A
S214014E800112FFF77FFF6B7D1BB1A36843F48033EC
S214014E90A360AB7D1BB1A36843F40043A360EB7D25
S214014EA02A7E1B07120502F4E00203F0E0431343D7
S214014EB0A365697E1D4A8B1E012B1D4B1FD894428C
S214014EC01BD002F5804294420CBF01224FF0FF3204
S214014ED003EB4213022041F21C620329985020D1B1
S214014EE00423F3652B78636170BD124A944204BFB4
S214014EF0A2F52032C2F89C31B5E70022E8E79442D9
S214014F000DD00C4A94420CBF01224FF0FF3203EB46
S214014F104213022042F21C6201299850DFE7002268
S214014F20F5E7042204F50053DA65DBE700C0055017
S214014F3000C003500000065038B50446054D1DF06C
S214014F4061F90FCC0FC594E8030085E80300002043
S214014F5038BD00BF1C1D002047F6FF739A42F0B50E
S214014F606FD002296FD8394B5B5C012B6BD8384D5B
S214014F70DF0005EBC30415F83330A178012B13D1FC
S214014F800025E078401AA84202D80844C0B2F0BD15
S214014F90431B6668A0EB530336F913609642D4BFF1
S214014FA01D4603F1FF30EEE760680028EFD0B0F948
S214014FB00040944204DBB0F902409442B8BF144664
S214014FC083883D44FF2B19BFC8224FF0280CB0F947
S214014FD00620B0F908C0A2EB04030CBF0126002688
S214014FE093FBFCF333446E781BB29E4201DD002B2B
S214014FF001DA731E1BB24FF47A7C01339BB2071D94
S2140150005D1E2DB24FEAC50E00EBC505EA88AD68F8
S2140150109E4214FB025222EAE27202F15C02B2FBE9
S214015020FCF204DD37F8335001339542E8D200EB49
S2140150300E039888904228BF1046884238BF08461B
S214015040A4E7FF20A3E70020A1E700BF653E030019
S2140150501C1D00200229F0B555D82C4B585C0128A0
S21401506051D82B4C04EBC00114F830004B680128D2
S2140150700FD1C8788C78904294BFC4EB0001C4EB82
S2140150800201001BCAB28242C8BF002233F91200D5
S214015090F0BD002B37D08878904202D3B3F90200D6
S2140150A0F6E7CC78B3F900009442F1D94C789988A8
S2140150B0013CA1F1FF06714203F10405E4B271411E
S2140150C003F10C07CEB2B44216D805EBC1014FF47A
S2140150D07A756A43B1F902404968521A04EBD471F1
S2140150E002EB610292FBF4F29042D1DBB3F90200CB
S2140150F09042CDDC10B2CBE737F831C04E1C944558
S214015100E3D33146DEE70348C2E700BF653E03004E
S2140151101C1D00200080FFFF08B50448FFF70CFFA8
S214015120BDE8084001201DF071B800BF683E0300CD
S21401513000487047E20C00207FB51422002101A828
S2140151401DF005FD044B01A94FF0FF3002931DF041
S21401515092F807B05DF804FB006A18001B0603F01E
S214015160706300F00F000902034301F4706112043A
S21401517002F470220B431343014A1360704700BFC9
S2140151800020025C60B5054619B10139B1F5806FA2
S2140151900FD2094EF06810F48030FBD143EA0123A8
S2140151A012072B4302F08052134343F0004373600F
S2140151B060BD0120FCE700BF0020025C0122054B18
S2140151C09A60DA68D203FCD4D86820F00F00000495
S2140151D0000C70470020025C014B1868704700BF46
S2140151E00040025C014B5868704700BF0010025C2B
S2140151F0014B186B704700BF0010025C014B18682A
S214015200704700BF0010025C014B9860704700BFFA
S2140152100010025C014B1864704700BF0010025C6E
S214015220014B5864704700BF0010025C014B586385
S214015230704700BF0010025C0022014B1A607047E5
S2140152400010025C024A136843F0010313607047C2
S2140152500010025C024A136823F0010313607047D2
S2140152600010025C43F20402014B1A60704700BF53
S2140152700010025C024A136843F030031360704763
S2140152800010025C044B1A6842F480721A601A68B5
S21401529022F480721A6070470010025C024A13689A
S2140152A043F48063136070470010025C034A13687E
S2140152B023F4702343EA0043136070470010025C36
S2140152C0044B1A6902605A6942609A698260DB6916
S2140152D0C36070470010025C0268044B1A614268A2
S2140152E05A6182689A61C268DA6170470010025C8E
S2140152F0024B1A6BD207FCD4186270470010025C8E
S2140153000322024B186019615A6370470000025C61
S21401531082B01FB507930A9B04AC8B4228BF0B468D
S21401532004E907001048D100079948BF033301601C
S214015330099948BF23F0030323F0704301F0E041CD
S214015340194341F000518160002102F0E042019CC6
S2140153501A4342F00052C16004618261416304B0A5
S214015360BDE8104002B070470000025C3F22034BCC
S2140153701A631022DA6103229A6370470000025C06
S214015380024AD36B9B07FCD4704700BF0000025C47
S214015390044B9B6A13F0240F14BF012000208000E9
S2140153A0704700BF0000025C08B5FFF7F1FF064B2F
S2140153B0DB6B23F47F4323F0EF0303431EBF01227D
S2140153C0024BC3F8FC2F08BD0000025C00F0FF3F53
S2140153D04368182B0AD0202B1DD0102B2BD1174B2E
S2140153E0D3F80434DB010AD401207047134BD3F8F9
S2140153F004349A01F8D50B6843F008030B60036880
S2140154000F4A934210D10B6843F040030B60002310
S214015410436000207047094BD3F804345B01E3D5A1
S2140154200B6843F00403E9E7064A9342F1D10B689F
S21401543043F08003EAE70720704700BF0000025CE4
S214015440512A0020502A002013B5084CD4F80444F1
S214015450E40508D5009313460A460146002000F0ED
S2140154601BF802B010BD0120FBE700BF0000025C84
S21401547013B5084CD4F80444E40508D50093134644
S2140154800A460146002000F02BF802B010BD0120AC
S214015490FBE700BF0000025CF0B516465A688DB007
S2140154A0102A0D46129F15D17A68102A12D10A4A7F
S2140154B009AC07CA84E8070022462946CDE9054714
S2140154C0CDE90344CDE901440448009616F000F9FD
S2140154D00DB0F0BD0720FBE7EC3E030030000100F5
S2140154E0F0B516465A688DB0102A0D46129F15D192
S2140154F07A68102A12D10A4A09AC07CA84E807005A
S21401550022462946CDE90574CDE90344CDE9014497
S2140155100448009616F0DCF80DB0F0BD0720FBE756
S214015520EC3E03001000010070B598B0002843D08F
S2140155302C4C08AD0FCC0FC50FCC0FC50FCC0FC52B
S21401554094E80F0085E80F006D4604AE04F11003E1
S21401555020340FCB85E80F0094E80F0086E80F0093
S214015560FFF790FE0420FFF7A1FEFFF77BFE304613
S214015570FFF7B2FE002408AE56F8040B0134FFF71D
S214015580B7FE102CF8D1FFF72DFE0328FBD9002417
S214015590FFF752FE2646FFF71FFE55F8043B01367D
S2140155A05840042E44EA0004F5D12CB1012206200D
S2140155B00D4B1A7018B070BDFFF764FE0820FFF798
S2140155C023FE0020FFF726FE0720FFF729FE4FF4F3
S2140155D00070FFF72BFE0820FFF768FEFFF732FE8C
S2140155E00020E7E7CC3F0300532A002008B5FFF769
S2140155F049FE0122014B1A7008BD00BF522A002045
S2140156001FB516F0C2F9044630B1012206240D4B2F
S2140156101A70204604B010BDFFF7DEFD0090FFF7BC
S214015620DBFD0190FFF7D8FD0290FFF7D5FD039053
S2140156306846FFF751FEFFF7D9FFFFF71BFEFFF79E
S2140156402DFEE6E7532A002006289ABF014B185C78
S214015650002070472C40030030B5154B87B00293ED
S214015660144B0390049346F611030D46059300F080
S21401567077F91428044616D1684616F030FA4FF02A
S214015680A843032202A95A6319601D619A63DA6B63
S2140156909207FCD1142C02D1684616F02EFA00F0BF
S2140156A093F9044601E00028E9D0204607B030BD52
S2140156B0341D0020040000202DE9F04FB1B005464E
S2140156C08C469E46E8466F4EDDF8EC90409C06F10F
S2140156D0100A474630687168083603C75645B8460B
S2140156E0F7D13E9B03EB0208C8F1000A0AF00F0A45
S2140156F0B9F1000F00F09D80C9F1000707F00F0710
S2140157000121DDF8FCB044F00050C4F11006CDF8DC
S21401571010B005910690300200F4F85040F02100D8
S2140157200790B9F1000F40F08680CDF820D047F001
S2140157300050002D00F08480099121210A9041EA51
S21401574007210B9142F00050CDF830C03D9B08A9CF
S2140157504FEA0A2C0D910E904CF041000F901093D9
S214015760002A75D13E9B119143F0005312933C9B46
S2140157701390149310AB1593434B444A169340F67B
S21401578011031793424B0021002D08BF13461893AF
S21401579014AB19933F4B10221A9311231B931CAB86
S2140157A018461DF0D4F901221D92002246F08046CB
S2140157B003461E96239205B9EB46102CCDF880B011
S2140157C024AE4BD101232246002130462193229458
S2140157D01DF0BDF920AB002125938F4218BF33463B
S2140157E047F0804226923A9A2CA828922993B2FA38
S2140157F082F35B0949EA837310222B912A931DF0E9
S214015800A6F9B9F1000F00D028AED04448F0804385
S2140158102CA918A82D962E93FFF71EFF30B92DB987
S2140158200346A34225D1002818BF2C2031B0BDE87D
S214015830F08F102764E7CDF820E049F0005078E7B4
S214015840002C3FF479AF04A9099101210A9076E76B
S2140158503E9B0CAA11924120129388E71022002148
S2140158603046219322941DF072F9002CB2D1012307
S214015870B1E703F1C0026A4412F8C02C01331043A9
S214015880CFE700BF3340030010000020484003006C
S2140158904C40030004000020F0B5C0299FB0DDE9AC
S2140158A0244557D0B1F5807F04D0802948D02920DF
S2140158B01FB0F0BD01265CB140F2344702941024BB
S2140158C003960494212401970594069502AC0AE0F8
S2140158D040F214470294102403960494212405945C
S2140158E0012401970695079401251024089409952B
S2140158F00A9221220B950C940D92174A0AAD0E922C
S214015900164A0F95109242F61102119212931395B0
S2140159101494159201AA1692D3B112AB17930423CD
S21401592018931123199316AB1A901B9340F6110383
S214015930C9081C911AA806A91D93FFF78DFEB7E7A3
S214015940012614B94FF48267C4E74FF48667B5E7BA
S2140159500EABE3E70F20ABE7444003001000001056
S21401596038B5164B5A6E42F004025A66D3F88022B6
S21401597042F00102C3F88022114B5B68C3F30803AF
S21401598043B14FF0A842D36B13F0430FFBD114245D
S214015990204638BD4FF0A843DC6B14F04304FBD11E
S2140159A0084D2B681BB90421284602F021FB2B6801
S2140159B0013343F000432B60EAE700BF008000504C
S2140159C000ED00E0341D0020014B00205B687047AD
S2140159D000ED00E04FF40052034B00209A660322CC
S2140159E0C3F86022704700BF009000504FF4005289
S2140159F0034B00209A660322C3F86022704700BF5B
S214015A0000A00050012300F01F02A0F5062009495E
S214015A10A0F550604009934051F820201A4341F800
S214015A202020054951F8202022EA030241F82020CF
S214015A30704700BF4C1D0020381D00200121A0F535
S214015A4006230E4AA3F550635B0900F01F00814050
S214015A5052F82300014342F823100949D1E90030E6
S214015A60034488680344C868096903445B1802BF95
S214015A70C2E90033C2E9023313617047381D0020C2
S214015A804C1D00202DE9F04FA9B003921D46044697
S214015A900822339ECDE90401414021FA02F34B402E
S214015AA0980702F1080218BF9B00202A1C44F4D173
S214015AB08123B4FBF3F303EBC313E41A734B04F52E
S214015AC006241B7804F55064002B3ED1FEF752F8ED
S214015AD0074620B16FF0910029B0BDE8F08F01466E
S214015AE0402208A81DF033F84022394618A81DF0B8
S214015AF02EF8DFF8B481DFF8B491C3460BF10F0A34
S214015B00CDF800A0102208A95B46D9F800001CF0C9
S214015B1008F90022014608F1100808AF914246D163
S214015B20CDF800A05B461022D9F8000018A91CF099
S214015B3001F94FF0000A834618AFD34541D1544BC3
S214015B409845DAD10122514B1A704FF0810A4FF075
S214015B500008DFF85CB1A4F50627A7F550635B09DA
S214015B605BF8232004F01F01CA40D2073DD4494AFE
S214015B7052F82330CB40DB072AD5B8F1000F08BF17
S214015B80A0468123A7F6FF47B7FBF3F303EBC31346
S214015B90FF1A07F50624BAF1010A04F55064DAD1B2
S214015BA0039BBBB1B8F1000F14D0444619E057F877
S214015BB0040BCDE90612FFF725FF079A0699013275
S214015BC0ACE757F8040BFFF739FF0AF1010AB4E70F
S214015BD0039B13B96FF08B007EE7B8F1000F18BF77
S214015BE04446349B00201C6076E7329B13B10023A9
S214015BF0329A13600EB1002333601023DFF8AC90A5
S214015C0000932A4600232146D9F800000CF00EFE28
S214015C1060BB32992A68204BC9B99A4206D0214600
S214015C20D9F800000CF09AFE0028D3D1D5E902235A
S214015C30DDE90410834208BF8A42A2D1039B002BF0
S214015C40CFD06B68012BCCD16FF0840044E71020D5
S214015C5032999A420860E2D1002EE7D033462146B7
S214015C60D9F8000018AA0CF035FE48B10B4B984243
S214015C70D5D00B4B9842D2D00A4B9842D6D029E7C2
S214015C80329A336812689B1A3360CFE7542A002091
S214015C9000710800381D0020105D175EFFDF00F060
S214015CA011E000F0FEDF00F0006D08000C0B002094
S214015CB04C1D00202DE9F04F87B082468946984654
S214015CC01646DDF840B02AB1002B4FD040F26C7377
S214015CD09A424ED8BBF1010F4ED8002406F11007A8
S214015CE039460120059416F098FA0546002846D054
S214015CF021463A461CF02BFF05ABCDE90143009443
S214015D002B46012250464946FFF7BCFE044680B1A9
S214015D1010F18C0F08BF6FF08D043A46002128461B
S214015D201CF015FF284616F088FA204607B0BDE895
S214015D30F08F144BC5E902A92B60C5F804B02EB14B
S214015D403246414605F110001CF00CFF059E0E4838
S214015D503B462A46314600680CF0D0FC18B930465E
S214015D60FFF750FED9E76FF09104D6E76FF086048F
S214015D70DBE76FF09104D8E76FF08504D5E76FF0A5
S214015D808C04D2E7105D175E0C0B00202DE9F04362
S214015D908DB08146DDE914780E4615461C469BB14A
S214015DA0B8F1000F05D16FF0860630460DB0BDE89C
S214015DB0F083002FF7D0B7F1005FF4D3C3F100539F
S214015DC003F500439F42EED81022002108A81CF0DC
S214015DD0BEFE002207AB029305AB019306AB31462C
S214015DE00093484608ABCDE90522FFF74BFE064671
S214015DF00028DAD1059BA4B1AB4215D853EA0504B5
S214015E00D1D1069B0B48C8F8004000943A46079942
S214015E1000682B440CF00AFD002818BF6FF09106AD
S214015E20C3E7AB42EDD2BEE75B1B9C4228BF1C46D4
S214015E30E7E700BF0C0B002030B58DB00C460546D9
S214015E401022002108A81CF082FE002207AB029354
S214015E5005AB019306AB21460093284608ABCDE976
S214015E600522FFF70FFE0446D8B9099B012B1BD06C
S214015E70079D104B294618680CF070FDB8B9012231
S214015E80A5F506230C49A3F550635B0905F01F0031
S214015E90824051F823004240284641F82320FFF76C
S214015EA0CDFD20460DB030BD6FF08404F9E76FF0EC
S214015EB09104F6E70C0B00204C1D00202DE9F04F55
S214015EC089B007460E46FFF799F9C00709D404249E
S214015ED0012015F067FD80B3013CF9D16FF0920007
S214015EE028E0102200210DEB02001CF030FE04A871
S214015EF0FFF7E6F9049B002BE9D0059B002BE6D0C3
S214015F00069B002BE3D0079B002BE0D00025DFF893
S214015F10808008F10409B54219D34FF48A74FFF75B
S214015F2067F900F00E03062B2DD1C30501D5FFF747
S214015F3091F9002009B0BDE8F08FFFF759F910F08C
S214015F400E03FAD0022BF8D04105DFD5C4E7FFF7E0
S214015F5049F9A6EB050A8400544528BF544699E83A
S214015F60030000238DE80300CDE9054307EB050B8D
S214015F70CDF810B0029404AAD8F8003007CA15F07C
S214015F807DFC2544C7E724FA03F3DA07A6D5C6E75E
S214015F90504003002DE9F04389B00E4615461F46D2
S214015FA0DDF8488020B96FF0860009B0BDE8F083BF
S214015FB00029F8D0002AF6D0B8F1000FF3D00388F4
S214015FC003F44F42B2F5824F02D06FF08500ECE742
S214015FD0DAB2122A01D0172AF7D123F0FF03B3F55C
S214015FE0E24F41D14488C8F8004044B9EB00B3F50C
S214015FF0807FC8F80030E8D1122A0DD108E0E31DF1
S214016000B5EBD30FCFD1B4F5807FDED1122A29D1DB
S214016010354B1C681B691C440023194670192C4417
S21401602014F801CD10F8012D1143B2EB0C020CBF90
S2140160304FF0FF3C4FF0000C86420CEA030343EAA4
S2140160400203EDD10029AED0002BACDA109B9D42A5
S21401605046D82A46314638461CF084FD119B00205E
S2140160601D60A2E70024D7E73378042B9BD16B1E73
S214016070DB005B08B3F5807FC8F80030A5D1122A93
S21401608006F1010318BF4FF000094FF040020593D7
S2140160904FF000030ABF144C4C46D4F80C90CDE9DF
S2140160A00623FFF797FC00287FF47FAFCDF80C900E
S2140160B0D8F800300733DB08029308AB13E9030076
S2140160C08DE80300059B94E8070015F028FC0446BC
S2140160D0FFF78CFC00287FF468AF002CB6D062E78F
S2140160E06FF0890061E700BFF83E03000388B3F54F
S2140160F0105F0ED14388DB08103B102B0CD8084AE2
S21401610022FA03F313F0010F14BF00206FF086008C
S21401611070476FF0850070476FF08600704700BFCC
S214016120010101002DE9F041069F0C461646054681
S21401613010B309B302B9FBB96288B3EBD20F4FEAC9
S214016140D20819D34C22002128461CF000FD0D4B25
S21401615027F47E129A4212D12046FFF7C7FF044663
S21401616038B942463146281D1CF0FCFCC5F824808F
S2140161702F602046BDE8F0816FF08604F9E76FF0E6
S2140161808504F6E70002C0032DE9F0410E461446E9
S2140161900546002840D000293ED092B10368214828
S2140161A023F47E1383423AD1AF6BF7B1C7F11008DF
S2140161B007F128004245284406D227441CF0D2FCA9
S2140161C0AF630020BDE8F08142461CF0CBFC1022F4
S2140161D0103C3C19AA63F4D0284605F1280115F0B5
S2140161E0D4FC0028EED14644A863102C0CD9671EB7
S2140161F027F00F073A463146284615F0C6FC002818
S214016200E0D1E41BDDD03E442246314605F12800AC
S2140162101CF0A8FCAC63D4E76FF08600D2E76FF001
S2140162208800CFE70002C0032DE9F04388461F46E9
S21401623005468BB070B169B163B10368234923F495
S2140162407E1088423ED113F47C1FC3F3054604D06A
S214016250102E03D96FF086042AE0102696422BD81A
S214016260FFF7B8FB044618BBAB6B05F12802CDE976
S21401627001236B6A2A1DCDE904231023CDE90830DA
S21401628007AB1A460390069005F13C0901A904A83C
S214016290CDF81C90FFF7ECF80546FFF7A7FB044680
S2140162A06DB928B93246494640461CF05BFC3E6053
S2140162B020460BB0BDE8F0836FF08904F8E76FF075
S2140162C09204F5E76FF08504F2E700BF0002C00311
S2140162D007B56B46054A1068516803C36846FEF762
S2140162E0AFFA002003B05DF804FB00BF5C4003007A
S2140162F013B50024064A6846536F43F001035367FB
S21401630000948DF80440FEF7D3F9204602B010BD84
S2140163100040005030B58BB06C46174D0FCD0FC402
S2140163200FCD0FC495E8030084E80300134BD3F8A0
S2140163304C2112031CD5A3F5FE431C884FF6FF73B0
S2140163409C4208BF8C248DF81940FDF7EDFF2044D0
S21401635080F308008DF818000948FDF71BF8684619
S214016360FDF702FF3220FEF717F800200BB030BD14
S214016370D3F85041E4B2E6E7644003000080E00F42
S21401638000F049026FF00403502110B50A480B4C87
S21401639013F0800F03F1010207D12344402A83F84A
S2140163A000131346F4D1002010BD03F00F03043B85
S2140163B0034419761346EBE700ED00E000E100E048
S2140163C010B5044615F048F8024B1C6015F048F865
S2140163D0002010BD601D002010B515F03DF8034BE0
S2140163E01C6815F03DF8204610BD00BF601D00205A
S2140163F0034B0222186800238068194613F008BC74
S214016400080C002030B51446054687B0104615F036
S21401641094FC6369024683423CBFD4E903315B18AE
S2140164201B1A7BB10F49049403910021CDE9013178
S214016430012300932846D4E9001314F0D8FE002067
S21401644007B030BD0122627694F82D20002AF6D0DE
S21401645084F835301321E369204698472046636A5D
S2140164609847ECE7056401002DE9F04788B004463B
S2140164700F461646984614F0F6FF8146002E7AD04F
S214016480237E03F0FF02002B00F0A280204615F0C9
S21401649054FC6569A84205D1637ED4E903321344EE
S2140164A05D1B01E0F9D9451BB54228BF354614F0FE
S2140164B0DAFF94F82D308246002B6DD12A463846F5
S2140164C061691CF04FFB63692E462B44636121E032
S2140164D0037803F0FD0111295BD1216B814205D1BF
S2140164E0A3F111014B424B4184F83430013E6369FC
S2140164F0216B01328B4203F1010308BF2363636101
S21401650095426069E4D1D4E90323216B134499428F
S21401651000D122630025D4E903236169134499421B
S21401652008BF6261207A6576FDF77AF9204615F094
S21401653004FC6369834232D1257694F82D30E568F0
S214016540656103B125632046636A9847214B04942D
S21401655003930023029323692A46019301230093A0
S21401656063682168207A14F042FE207AFDF778F9F4
S214016570504614F07EFF4846C8F8006014F079FFD4
S214016580D8F80030002B0CBF1B20002008B0BDE857
S214016590F08707F8013BAAE72E460022B0E7012361
S2140165A0207A23760DF11E01FDF7C2F99DF81E3003
S2140165B0002BDAD00DF11F01207AFDF791F99DF835
S2140165C01F100029D1D12246207AFFF71BFFCCE706
S2140165D01646D0E705640100002807DB01234109C0
S2140165E0034A00F01F00834042F82130704700BF85
S2140165F000E100E0002808DB01224309034900F01E
S2140166001F008240603341F82320704700E100E01C
S21401661070B504460568FFF7DFFE844202D100200C
S214016620FFF7CEFE95F936603046FFF7E3FF002E02
S2140166300CDB01221949730906F01F06B24020330C
S21401664041F82320BFF34F8FBFF36F8F95F9376063
S2140166503046FFF7CFFF002E0CDB01220F497309EE
S21401666006F01F06B240203341F82320BFF34F8FB8
S214016670BFF36F8F287AFDF713F9287AFDF776F8BE
S214016680FDF752F800232846C4E90033C4E9043371
S214016690A360AB6ABDE87040184700BF00E100E0A8
S2140166A02DE9F0430C461546064687B040220021E8
S2140166B020461F461CF04BFA95E8030000232A6982
S2140166C02376EB6884E80300C4E904232A7DE360AB
S2140166D084F82C20AA7D2363012384F8343084F8BF
S2140166E035300E9B84F82D2023620F9BE761636291
S2140166F0109BA3622B7A84F836306B7A84F8373095
S2140167002D4B346073602D4BB3602D4B33612D4B95
S21401671073612D4BF360FDF74FF838B12B4B984260
S21401672004D01024204607B0BDE8F083002104F110
S2140167300800FCF7C9FF07460028F2D14FF0010810
S214016740234B3362234B84F83C80B361224BF361C5
S2140167509DF8483084F8390084F83B309DF8443081
S214016760204684F83A30697D84F8388015F0F5FAC9
S21401677095F909904846FFF73DFF4846FFF72CFF7D
S214016780164B0494CDE902732369CDE9008363684F
S214016790E2682168207A14F02AFD04460028C0D158
S2140167A095F908502846FFF725FF2846FFF714FFFE
S2140167B03046FFF705FEB5E7ABBD02006964010090
S2140167C029BD02002FBD020011660100038000F002
S2140167D003BD02005BBD020035BD02000564010079
S2140167E02DE9F04101271C46584B86B00293584BC1
S2140167F00C9D0193574B904600930A46CDE90377CB
S2140168002946554BFFF74CFF0646002840F0968078
S214016810236839462B6463683A206B64637A85F88B
S2140168204930237A85F84830E37A85F84B30A37AE5
S21401683085F84A30637B85F84D30237B85F84C30EC
S214016840E37B85F84F30A37B85F84E30FDF788FB58
S2140168503B460422617A207AFEF786F83B460222FE
S214016860E17AA07AFEF780F839466068FDF778FB92
S21401687088F8006041462068FEF7DCFA1422637C43
S2140168805B0103F1A04303F57033C3F81C26617A5C
S214016890227A42EA0142C3F83426E17AA27A42EA2F
S2140168A00142C3F82C2685F8506098F81930032B5E
S2140168B04AD8DFE803F03447021C022385F850303B
S2140168C000230422E17BA07BFEF74EF8022741F26B
S2140168D01C61627C214B03EB42104750E07BA17B9D
S2140168E0B13241EA004103EB4213996017E00127F8
S2140168F085F8503002220023617B207BFEF734F8B6
S214016900637B227B617C42EA0342154B49015A5064
S2140169100422236803F58053DA65002FD0D1237A49
S2140169202A6C85F84830637A052185F84930D36C9E
S214016930206843F00403D36414F0BEFD304606B06D
S214016940BDE8F0810027D3E72326F7E7D9BE02008A
S214016950CDBE020065BF020059BF020000C0035051
S21401696024D60350BFF35F8F074B5A6A22F4803256
S2140169705A62D3F8942022F00102C3F89420BFF3A0
S2140169804F8FBFF36F8F704700ED00E070B5294859
S214016990294CFFF7E7FF8442284D294919D1D5F83C
S2140169A0C03023F0FF0343F0A003C5F8C0304FF01A
S2140169B080430A68214D234EC5F8982043F0010311
S2140169C001328442C5F89C60C5F8A0300A601ED02A
S2140169D00DE0D5F8C02020F01F03203B22F0FF0277
S2140169E042F0A002B3F1005FC5F8C020E1D2164B19
S2140169F00A68124823F01F0343F00303C0F89820E7
S214016A00C0F89C30114B0132C0F8A0300A60BFF3C9
S214016A105F8F0522094BC3F894205A6A42F48032EC
S214016A205A62BFF34F8FBFF36F8FBFF34F8FBFF322
S214016A306F8F70BD140D0020EC0E002000ED00E0FD
S214016A40641D0020030000200B0F0020E1FFFF3F24
S214016A50F8B51446FFF786FF1F2C27D90027C20674
S214016A602A4D1CBF20F01F0020302A68CB06284B79
S214016A7018BF21F01F01FCB2A2422BD8D3F8C040A8
S214016A8020F01F0024F47F4444F4807421F01F0199
S214016A90C3F8C04040F00300C3F8982041F003015A
S214016AA00132C3F89C00C3F8A0102A600020BFF38F
S214016AB05F8F0522164BC3F894205A6A42F480323F
S214016AC05A62BFF34F8FBFF36F8FBFF34F8FBFF382
S214016AD06F8FF8BDC3F89840D3F89C40D3F8A060F8
S214016AE024F01F04A04226F01F0601D1B142DDD0DA
S214016AF0B04201D8A14207D2D3F89840013724F01A
S214016B00FF04C3F89840B6E72820D0E7641D0020AC
S214016B1000ED00E0BFF34F8F0549064BCA6802F44B
S214016B20E0621343CB60BFF34F8F00BFFDE700BFAA
S214016B3000ED00E00400FA05054B1A782AB95B78E7
S214016B40002B0CBF0320022070470120704700BFB6
S214016B505F2A00200329F8B598BF124B05460E465A
S214016B608CBF00245C5C032805D8DFE800F002082F
S214016B700B0E44F002040C4B1F684FB9F8BD44F0ED
S214016B800804F8E744F02004F5E744F08004F2E74F
S214016B907B681A68144203D0314628465B689847DA
S214016BA03F68EAE78C400300941D002038B5104D7D
S214016BB02B78ABB10F4C23781BB100F0B7FB002349
S214016BC02370002015F037FA0B4C50B100F000FC92
S214016BD00023012120782B70FFF7BCFF01232370CF
S214016BE038BD0122054B1A702278054B1A70F7E75B
S214016BF05A2A0020582A0020612A00205B2A0020F9
S214016C005C2A002010B514F027FC064B04461B78BE
S214016C101BB1BDE8104014F023BCFFF7C7FF2046A8
S214016C20F7E700BF572A0020094A137830B101332D
S214016C301370084B1B78012B03D87047013B137068
S214016C407047054B1B780BB9FFF7B0BF704700BF05
S214016C505F2A0020612A00205B2A002070B514F00C
S214016C60FBFB124E054633789BB900F0EDFC04465B
S214016C7020B1284614F0F4FB204670BD0C4814F0F1
S214016C80F3F900F089FF0B4B1C6000F0A9FD0A4BDD
S214016C90186000F02BFA15F0D0F9084B00241860A4
S214016CA001232846337014F0DBFBE5E7622A002057
S214016CB0941D0020681D0020901D00206C1D0020E2
S214016CC02DE9F843284A0138135C39B1274F0133BF
S214016CD039781354012904D8BDE8F883013B1354CD
S214016CE0FAE7FFF729FF0128044635D814F0B4FB6C
S214016CF0DFF88480054698F8003013B31C4E3378CD
S214016D001BB9012232701B4A1370DFF8709099F894
S214016D10003023B100F00AFB002389F80030284632
S214016D2014F09EFB012015F086F914F095FB3378DC
S214016D3005461BB100F04CFB00233370002388F896
S214016D400030284614F08CFB3878A042C4D0214687
S214016D50FFF700FF3C70BFE70329F5D10228F3D106
S214016D6015F06FF9F0E700BF5F2A0020612A0020C6
S214016D70572A00205B2A00205A2A0020582A002081
S214016D8010B5044614F068FB002C0CBFFF2101214E
S214016D90064A13780B44DBB21370B3FA83F3BDE8EB
S214016DA01040034A5B09137014F05ABB5E2A002098
S214016DB05D2A002038B514F04FFB094B05461B78B9
S214016DC0012B04D814F04CFB0024204638BD054B9B
S214016DD01C6800F047FB0444284614F041FBF4E726
S214016DE0612A0020681D002038B54160044614F071
S214016DF033FB05462146044814F039F92846BDE818
S214016E00384014F02DBB00BF941D0020054B1B68B5
S214016E105843054B00F5742000F23F20B0FBF3F019
S214016E20704700BF901D002040420F002DE9F04F33
S214016E3085B0EFF3108772B6AFF3008014F0B9F89F
S214016E4000286FD0804EDFF82C82337823B10020E3
S214016E50FFF7EAFE00233370FFF76EFE04460028B4
S214016E6067D0841EE4B2012C6AD9FFF765FE0128BB
S214016E700546764CDFF8009200F28C802078854239
S214016E8040F0C680207800F0D7FA99F8003013B1A8
S214016E906F4B1B782370AFF3008007B962B6EFF330
S214016EA0108772B66B4B1A7852B100221A70684B73
S214016EB020781B78984203D101212170FFF74AFE02
S214016EC0654800F0FBFB14F083F805460028BCD1AA
S214016ED0624BDFF89481187098F80030ABB189F8EE
S214016EE00000DFF88C9199F800301BB100F01EFA13
S214016EF089F80050002015F09EF8002800F09B80CD
S214016F0000F066FA002388F80030337823B10020B9
S214016F10FFF78AFE0023337000212078FFF71AFE60
S214016F2000232370AFF3008007B962B605B0BDE851
S214016F30F08F3378002B98D0FFF776FE347094E705
S214016F40002003A900F008FC044600288DD1D8F8DB
S214016F500030039A9A4205D80120FFF765FE012307
S214016F60337082E73E4B1D6800F07CFA039B0544B4
S214016F709D42F1D200F08EFA8200039942F002029D
S214016F8092B2CDE900422346364A491B324815F0F3
S214016F9059F86AE7344BDFF8C4A093F800B0BBF1A8
S214016FA0000F25D100F046F92078854230D19AF8B5
S214016FB000307BB92C4D2B78002B7FF463AF2B4B25
S214016FC01B7823B900F0ACF90122294B1A70012372
S214016FD02B7057E7022DEDD18AF800B015E0237823
S214016FE0022B25D100238AF800301BF047FA1FE058
S214016FF0207885420CD19AF80030002B3FF442AF3E
S214017000022DD7D100238AF800301BF037FAD1E7DA
S2140170100023DFF848A08AF8003099F8003013B949
S2140170202946FFF797FD9AF800302570002BD6D138
S214017030012DBFD826E7012000F0FEF907B962B698
S214017040EFF3108772B655E7592A0020612A00200F
S2140170505C2A0020552A0020701D00205D2A002091
S214017060681D0020056C01005A2A00205E2A0020B7
S214017070582A00206C1D00205B2A002010B514F051
S214017080EBF90022044B1C781A7014F0E9F900F0B1
S214017090C9FC2043C0B210BD562A002073B5114E5C
S2140170A00446337883420FD04FF400730E4DADF88B
S2140170B0043058B101A8FDF797FA4020FFF7A6FE65
S2140170C02B68181A2860347002B070BD8DF8050060
S2140170D001A8FDF789FA4020FFF798FE2B681844AF
S2140170E0F0E700BFF90C0020CC1D002073B500248A
S2140170F001A88DF80440FDF73DFB2046FFF7CEFFC3
S214017100404A4149136F414803F007030B60D2F828
S21401711000113F4D01F0030101604FF400203D498D
S214017120032B48664FF40030486601F598318969AB
S214017130C1F3400129705DD0D2F8203103F003037A
S214017140981E43424341D2F82421334C02F00702F1
S214017150022A08BF43F001034FF4C8702370FFF7FB
S21401716055FE00222D4B2E4918602E4E0B6801321B
S214017170D2B20A2A46F8040BF9D1034400EBC00048
S21401718003440B602B78284D63B323781D4A3BB923
S214017190D2F8003103F00303591E4B424B412370D2
S2140171A0D2F8003103F00303022B25D0032B26D09F
S2140171B0012B17D1FCF7E8F8024698B11B4B1C4E81
S2140171C0DC6800231946C4F30B04013404EB840481
S2140171D00138E4FB060112F017FAFFF717FE2B68D9
S2140171E003442B601F20FFF711FE2B6803442B601E
S2140171F002B070BD0123A6E7FCF7E0F8DCE713F068
S2140172002BFFD9E700800050D01D0020D41D0020A0
S214017210662A002000900050672A0020981D002052
S2140172209C1D0020A01D0020CC1D002000C0015088
S21401723040420F00074A0849D2F8203103F0030301
S2140172400B60D2F82431054A03F00703136014F0EB
S21401725015B900BF00800050DC1D0020D81D00209D
S21401726008B5104B1A78C2B100221A700E4B1A6F6D
S21401727022F0070242F001021A67D3F8202142F0F9
S2140172800302C3F82021D3F8242122F0070242F09A
S2140172900302C3F82421FCF761F80122034B5A6765
S2140172A008BD00BF652A00200080005000E00050A5
S2140172B00122154B10B55A67144B154C1B7813B3A6
S2140172C0022014F064FFF0B100F076FAD8B1A36D95
S2140172D0D90302D5E36D9A0715D40D4B9B6DDB07D9
S2140172E011D401220B4B1A7014F030FFBDE8104088
S2140172F0094B0A4A1860136F23F0070343F0030390
S2140173001367FCF72BB810BD00D00050672A002089
S21401731000C00050642A0020C81D002000800050D4
S2140173200122014B1A707047652A0020F8B51F4BE1
S2140173301B78002B39D01E4C2378B3B91D4B9A6DA0
S214017340D10302D5DA6D92072FD49B6DDB072CD4BF
S21401735014F0FCFE184B194A1860136F23F007034C
S21401736043F003031367FBF7F9FF14F0EFFE124B2C
S214017370134D1B68134EC01A2B78134F56F8232053
S21401738046F82300111A3A681048521A0A213A6040
S2140173900932B2FBF1F20133DBB20260B3FBF1F268
S2140173A001FB12332B7000232370F8BD672A0020DF
S2140173B0642A002000C00050C81D00200080005034
S2140173C0632A0020A01D00209C1D0020981D00207F
S2140173D008B514F056F8124B12491A6F096822F0D4
S2140173E007020A431A671049D3F82021096822F0D8
S2140173F003020A43C3F820210C49D3F82421096863
S21401740022F007020A43C3F82421094B1B7813B163
S2140174100122084B9A62BDE80840FBF79FBF00BFF8
S21401742000800050D01D0020DC1D0020D81D00204B
S214017430672A002000E0005002280AD003280BD05B
S21401744001280CD1064A136923F00403136130BFE7
S21401745070470020FDF7D4B80020FDF7FFB870474D
S21401746000ED00E0054B187818B1054B186800EBE5
S214017470D000044B1B681844704700BF672A0020E1
S214017480981D0020CC1D00200122014B1A70704768
S214017490672A0020014B1878704700BF672A002032
S2140174A038B514F061FE0025084B094C1A682368AC
S2140174B0C31A2AB123B15169994203D3C91A51613A
S2140174C0206038BD55615B1A9268F2E7E81D00201E
S2140174D0E41D0020C38870B504460D463BB9FFF78E
S2140174E069FC8542064602D214F099FD35460E49DE
S2140174F065610B688BB90C60A3600DE0AD1A9A68E4
S214017500184665616AB113465A69AA42F6D930B17E
S2140175108460521BA3605A6170BD0020F4E70C60C2
S214017520F7E79C60A260F7E7E81D002038B5134D29
S2140175302B685B6993B1124A022014681C4414F04C
S2140175401AFE204600F0BCFA00230E492A680B708A
S214017550D088800709D501230B7038BD022014F0AE
S2140175600AFE022000F0F6FAEEE79268002AF4D04E
S21401757050690344012BEBD9EFE700BFE81D00205B
S214017580E41D0020692A002070B516469DF81420D7
S214017590C0E903360271049ABDF818300260002271
S2140175A004460D468260C380EEB914F0DDFD284422
S2140175B0A0619DB12E4613F04FFF0546FFF770FF01
S2140175C031462046FFF786FF104B1B68A34201D1C8
S2140175D0FFF7ACFF284613F043FF02E0E36865615E
S2140175E07BB9002070BD14F0BFFD3044A061002DB2
S2140175F0E0D1E3686561002BDDD02046216898471D
S214017600D9E7204621689847EBE700BFE81D002030
S21401761000220C490B687BB183420AD183687AB198
S214017620936083681BB15A6941690A445A61002014
S21401763070471A469B68EEE70028EFD00220704795
S2140176400B60EEE7E81D002070B513F00CFF144E3A
S21401765005463478FCB9134B1C60134B1C60134B66
S2140176601C8000F0EBF9012014F085FD14F09EFD5E
S2140176700F4B0246186020B9284613F0FAFE232065
S21401768070BD234640F2E7310A4811F0BDFF0A4BB0
S214017690186001233370284613F0EBFE0020EFE755
S2140176A06A2A0020E81D0020E41D0020D4290020BD
S2140176B0EC1D002018FCFFFFE01D002070B50446FD
S2140176C040B313F0C9FE144E0546FFF7E9FE3068D5
S2140176D0A04209D02046FFF79BFF0446B0B12846DA
S2140176E013F0BEFE204670BDFFF792FF0446002849
S2140176F0F5D133683BB9022000F014FA284613F09E
S214017700AFFE0024EEE7FFF711FFF7E73368002B23
S214017710F4D1F0E72224E5E7E81D002038B50C4651
S2140177200546A8B1A1B100230B7013F09CFE012100
S214017730084B1B6833B913F09CFE002038BD9D42F0
S21401774004D121702278002AF9D0F4E79B68F1E78A
S2140177502220F3E7E81D0020F8B506460F4613F091
S21401776082FE00250446124B1B6823B9204613F0FF
S21401777080FE1B2011E05A691544DA88B2420DD109
S21401778014F0F2FC0B4E3368C01AA8420AD3002349
S21401779020463B6013F06DFE0020F8BDFF2EEFD0B3
S2140177A09B68E2E714F0E0FC33682B441B1AEFE712
S2140177B0E81D0020E41D002008B5074B187848B1E5
S2140177C014F0C4FC054B1B689B69C01A02288CBFC9
S2140177D00020012008BD00BF692A0020E81D002006
S2140177E0014B1868704700BFEC1D0020F8B50C4B24
S2140177F005461B680E4683420FD3002440F2E7304D
S2140178002146084B4FF47A721F680023E5FB0701F7
S21401781011F0FAFE30602046F8BD2120FCE700BFDB
S214017820E01D0020EC1D0020F0B51F46002387B0A8
S2140178300C46164605468DF8133050B30DF113016C
S214017840FFF76CFF9DF813302BBB204605A9FFF709
S214017850CDFFE0B9114BE8831B6828465C434FF423
S2140178607A73B4FBF3F203FB1244191B89B29942F3
S21401787008BF0021BDF83430A983059A02939DF80C
S21401788030301146CDE900733346FFF77DFE07B071
S214017890F0BD2220FBE70220F9E700BFEC1D002027
S2140178A0014B1868704700BFE01D00200F4B10B554
S2140178B01A689AB14FF47A71531E1342A0FB010164
