S0170000424C455F4D6F64756C655F42617369632E73333704
S214006000C00A0020ED6C00009F4D02009F4D02006C
S2140060103F6002009F4D02009F4D02009F4D020010
S2140060209F4D02009F4D02009F4D02009F4D0200B3
S2140060309F4D020058FF0200894C02009F4D02004F
S2140060409F4D02009F4D02009F4D0200C17100004F
S2140060509F4D02009F4D02009F4D02009F4D020083
S2140060609F4D02009F4D02009F4D02009F4D020073
S214006070A9BF00008D6B00002F4D02009F4D02004F
S2140060809F4D02009F4D02009F4D02009F4D020053
S2140060909F4D0200997700009F4D02009F4D020021
S2140060A09F4D020075790000517900009F4D020057
S2140060B09F4D0200992702009F4D0200E131020029
S2140060C03BEA020037EA0200D129020047EA020052
S2140060D03FEA0200B931020043EA02002132020020
S2140060E0AD0B0200710D0200913202009F4D0200BE
S2140060F09F4D02009F4D02009F4D02009F4D0200E3
S2140061009F4D02009F4D02009F4D02009F4D0200D2
S2140061109F4D02009F4D02009F4D02009F4D0200C2
S2140061209F4D02009F4D02009F4D02009F4D0200B2
S2140061309F4D02009F4D02009F4D02009F4D0200A2
S214006140002370B5404C05468AB0E36318B100885A
S21400615023600CF05FF83D4827F0CEFF3C4E3D4BE9
S214006160304633603C4B736023F056FD00213046CA
S21400617016F090FC32A3D3E90023A062C4E90623FC
S21400618023F055FDD4E9062319431043C4E906015C
S214006190CDE900014FF0FF334FF0FF32A06A28F040
S2140061A026F802224FF0FF31A06A28F025F80120D9
S2140061B00BF0B2FD4FF4007300222849A06A28F0C5
S2140061C06EF8B0F5007F38D100239422CDE907336E
S2140061D009933C23CDE9033205939623A06A03A9CD
S2140061E0069316F075FD35B3287C0CF0CBF9054602
S2140061F0F0B9A06A28F034F90CF072F90BF06EFDD5
S21400620020B14FF48070002108F0F8FC0BF076FD0A
S21400621020B14FF40060002108F0F0FC23F0CBFD25
S214006220012016F08BFC0E4A0E49A06A23F0F2FC01
S21400623028460AB070BDFF20D7E70725F8E700BF5D
S2140062400DD5015520000000900F0020690345EC95
S214006250742300209D1B010084230020742100204D
S214006260BD9B0200FD9B02000348044B834202D004
S214006270034B03B1184770471C0F00201C0F00206B
S21400628000000000064B0749C91A891048BF0131B3
S214006290491003D0044B0BB101481847704700BFA4
S2140062A01C0F00201C0F00200000000010B5064C3C
S2140062B0237843B9FFF7D8FF044B13B10448AFF374
S2140062C000800123237010BD342B00200000000046
S2140062D0A849030008B5054B1BB105490548AFF3AF
S2140062E00080BDE80840FFF7CDBF00BF00000000FB
S2140062F0F0110020A8490300A3F5803A704700BFBC
S214006300174B002B08BF134B9D46FFF7F5FF0021E8
S2140063108B460F461348144A121A28F049FC0E4BB7
S214006320002B00D098470D4B002B00D0984700203C
S214006330002104000D000D48002802D00C48AFF3E1
S21400634000801DF041FC200029001EF091FC1DF08D
S214006350BBF900BF000008000000000000000000BD
S214006360C00A00201C0F0020702C00200000000037
S2140063700000000010B5042000F044FC70B1084C8A
S214006380084920681FF0A3FC1EF007FD1EF006FD5E
S21400639020680549BDE810401FF099BC10BD00BF3D
S2140063A08812002080FA020085FA020010B5042048
S2140063B000F028FC70B1084C084920681FF087FCE4
S2140063C01EF0EBFC1EF0EAFC20680549BDE8104014
S2140063D01FF07DBC10BD00BF8812002080FA0200AE
S2140063E09BFA020070B56A4D04466B68834217D16B
S2140063F01EF036FD00286AD166481EF0A7FD042070
S21400640000F000FC60B1644E644930681FF05FFC29
S2140064101EF0C3FC1EF0C2FC614930681FF057FC3A
S2140064202B68A34218D120461EF01AFD002866D11C
S2140064305C481EF08BFD042000F0E4FB60B1564E75
S214006440564930681FF043FC1EF0A7FC1EF0A6FC61
S214006450554930681FF03BFCEB68A34218D1204634
S2140064601EF0FEFC002862D150481EF06FFD04208E
S21400647000F0C8FB60B1484E484930681FF027FC62
S2140064801EF08BFC1EF08AFC494930681FF01FFC8A
S214006490AB68A3427AD120461EF0E2FC00285ED10B
S2140064A044481EF053FD042000F0ACFB00286DD0DD
S2140064B0394C3A4920681FF00AFC1EF06EFC1EF0AC
S2140064C06DFC3D492068BDE870401FF000BC2046CA
S2140064D01EF0C6FC0128A3D12E481EF03AFD04206B
S2140064E000F090FB00289BD02B4E2C4930681FF004
S2140064F0EEFB1EF052FC1EF051FC30498DE72046A4
S2140065001EF0AEFC0128A7D126481EF022FD04206E
S21400651000F078FB00289FD01F4E204930681FF0FF
S214006520D6FB1EF03AFC1EF039FC254991E72046C2
S2140065301EF096FC0128ABD11C481EF00AFD042074
S21400654000F060FB0028A3D0134E144930681FF0FB
S214006550BEFB1EF022FC1EF021FC1A4995E72046E1
S2140065601EF07EFC012811D112481EF0F2FC042019
S21400657000F048FB50B1084C084920681FF0A7FB04
S2140065801EF00BFC1EF00AFC0F499BE770BD00BF17
S214006590CC0A002038FF02008812002080FA020091
S2140065A0B1FA020020FF0200FAFA020008FF020019
S2140065B04BFB0200F0FE02009AFB0200D5FA020036
S2140065C022FB020072FB0200C1FB02000368864A3F
S2140065D023F47F4323F00703934273B505D0834A21
S2140065E0934200F0AB8002B070BD814E30460EF094
S2140065F019FE054610B37F4C7F4920681FF067FBE5
S2140066007E4920681FF063FB1EF0C7FB1EF0C6FB2A
S2140066107B4B7C4A00937C49952320681FF057FBF0
S2140066207A492B467A4A20681FF051FB284600F02C
S2140066302FFB784920681FF04AFBFEE702213078DE
S2140066400EF02AFE044610B36A4D6B4928681FF008
S2140066503EFB6A4928681FF03AFB1EF09EFB1EF0C0
S2140066609DFB674B674A009367499A2328681FF08B
S2140066702EFB66492346664A28681FF028FB2046FC
S21400668000F006FB634928681FF021FBFEE7A02206
S21400669000900346114630780EF0DCFD054610B338
S2140066A0544C554920681FF012FB544920681FF0CF
S2140066B00EFB1EF072FB1EF071FB514B514A00930D
S2140066C05149A32320681FF002FB50492B46504A2D
S2140066D020681FF0FCFA284600F0DAFA4D492068D8
S2140066E01FF0F5FAFEE7022130780EF0E9FD0546C8
S2140066F000283FF478AF3F4C3F4920681FF0E7FA88
S2140067003E4920681FF0E3FA1EF047FB1EF046FBEA
S2140067103B4B3C4A00933C49A72320681FF0D7FA1E
S2140067203A492B463A4A20681FF0D1FA284600F02C
S214006730AFFA384920681FF0CAFAFEE72C4C02214F
S21400674020780EF0A9FD054610B32A4C2A49206889
S2140067501FF0BDFA294920681FF0B9FA1EF01DFB8C
S2140067601EF01CFB264B274A00932749B5232068BA
S2140067701FF0ADFA25492B46254A20681FF0A7FAD8
S214006780284600F085FA234920681FF0A0FAFEE7A5
S214006790022120780EF094FD054600283FF423AF32
S2140067A0144C154920681FF092FA144920681FF00F
S2140067B08EFA1EF0F2FA1EF0F1FA114B114A00930F
S2140067C01149BA2320681FF082FA10492B46104A56
S2140067D020681FF07CFA284600F05AFA0D49206817
S2140067E01FF075FAFEE700BFA0000100A00006013A
S2140067F0120D00208812002099FA0200E9FB020020
S2140068002CFC0200EEFB0200F7FB020006FC020076
S21400681003FC02001BFC020030B50368514A23F457
S2140068207F4323F00703934289B040F09880052207
S214006830002116204C4B0EF057FD054610B34B4C6E
S2140068404B4920681FF043FA4A4920681FF03FFA78
S2140068501EF0A3FA1EF0A2FA474B484A0093484996
S214006860592320681FF033FA46492B46464A2068CB
S2140068701FF02DFA284600F00BFA444920681FF056
S21400688026FAFEE70DF10F0104A80EF043FD0446BC
S21400689010B3364D364928681FF019FA354928686E
S2140068A01FF015FA1EF079FA1EF078FA324B334ACA
S2140068B000933349642328681FF009FA31492346B8
S2140068C0314A28681FF003FA204600F0E1F92F4904
S2140068D028681FF0FCF9FEE7BDF8143001465BBAE5
S2140068E0ADF818309DF8133008228DF81A30FF23C3
S2140068F08DF81B30FE238DF81C309DF812301820C2
S2140069008DF81D30BDF810305BBAADF81E3006AB02
S2140069100EF0EAFC054610B3144C154920681FF02B
S214006920D6F9144920681FF0D2F91EF036FA1EF088
S21400693035FA114B114A00931149742320681FF051
S214006940C6F910492B46104A20681FF0C0F92846A1
S21400695000F09EF90D4920681FF0B9F9FEE709B06E
S21400696030BD00BFA00001003BFC020088120020E2
S21400697099FA0200E9FB020069FC020041FC0200F1
S214006980F7FB020006FC020003FC02001BFC0200F0
S21400699010B5234C01F0D0FA01F0ACFC236F23F0C5
S2140069A0070343F0030323671EF029FC1D4B00205A
S2140069B09B6A9B075EBF01221B4B9A62D4F820316C
S2140069C023F0030343F00203C4F82031D4F8243143
S2140069D023F0070343F00203C4F82431D4F840310F
S2140069E023F0030343F00103C4F84031D4F86031C8
S2140069F023F0030343F00103C4F86031D4F84032B7
S214006A0023F0030343F00103C4F84032D4F8003205
S214006A1023F0070343F00103C4F8003210BD00BFA3
S214006A200080005000C0005000E0005008B502F0A2
S214006A30A9F801280ED1114B04205A6E4FF480237A
S214006A400F49520358BF0F4A4B6601F510410862C2
S214006A5058BF536603F0FAFE03F09EFE03F0BEFE38
S214006A601FF0E4F8FFF794FF03F0A6FE00F06CFBBF
S214006A7000F092FFBDE8084004F054BB00800050D0
S214006A800090005000A0005030B51C4D95B00DACE5
S214006A900FCD0FC495E80700282384E80700184A9E
S214006AA00021CDE9022305230E24CDE904118DF83B
S214006AB01130062322460DF1260006918DF813307C
S214006AC028F076F84FF480210E4B0DAACDE9071377
S214006AD00D238DF824300C4B07A90A9320230B9323
S214006AE001238DF83130094B0948009302AB8DF82D
S214006AF0254004F0D9F815B030BD00BF74FE020082
S214006B0000C0055024C00550352B00200812002078
S214006B105C120020831E012B10B512D8012922D842
S214006B20114B04221B6905210020C3F3401301F01A
S214006B302DFE0E4B1B681868A8B1BDE81040436ACE
S214006B4018478B1E012B0CD801280CD8BDE8104026
S214006B500022054B05211B691046C3F3401301F0C4
S214006B6015BE0129E5D910BD00C00350C00A00209B
S214006B7008B50449044804F09BFBBDE80840FFF74D
S214006B8083BF00BFC40A00208012002001481FF007
S214006B900CBA00BF5C120020014B1A6A1868104736
S214006BA05C12002008B507481EF055F906481EF08E
S214006BB052F906481EF04FF9BDE8084004481EF09A
S214006BC04AB900BFD8FE0200C0FE0200A8FE0200BE
S214006BD090FE020008B507481EF0B5F906481EF0FC
S214006BE0B2F906481EF0AFF9BDE8084004481EF0AA
S214006BF0AAB900BF38FF020020FF020008FF02000B
S214006C00F0FE02000B4B02461B7883B10A4B1B7842
S214006C10834234BF00200120084B1B7833B1084B59
S214006C201B78134113F0010F08BF002070470120A6
S214006C30F2E700BF210D0020200D0020552B00207C
S214006C401F0D0020012208B5074B1A700022074BC3
S214006C501A700422064B1A701F22064B1A7003F095
S214006C601FFE054B186008BD210D0020552B002087
S214006C70200D00201F0D002088120020024B034923
S214006C8018681FF024B800BF8812002050FF0200CA
S214006C9070B50C4C0C49064620681FF018F803F037
S214006CA0FFFD0546206803F0EFFD3046FFF7E6FFE0
S214006CB0284603F0E9FD20680449BDE870401FF04F
S214006CC006B800BF8812002052FF020054FF0200E0
S214006CD00348044A0449121A92101EF061B800BF15
S214006CE0184E0300184E0300702C002008B500F064
S214006CF02FF8FFF7EDFF124B12498B4212D30020FC
S214006D00114B12498B4218D3FFF7FAFA186850F85D
S214006D102240586840F82240013298688242F5D3F3
S214006D200C33EAE70022F8E71C6844F82200013238
S214006D305C68A242F8D30833E4E70022F8E700BF15
S214006D40B0490300BC490300BC490300BC4903002A
S214006D504FF400414FF0FF30124B134A10B59A60C3
S214006D60D3F8882042F47002C3F888200F4A916650
S214006D7001F1884101F5005210664FF6DF7050664B
S214006D800220C3F8D000BFF34F8FBFF36F8F0824E5
S214006D904FF440330648C0F88041D36004600B616E
S214006DA010BD00BF00ED00E0006000000090005045
S214006DB000E100E0014B1868704700BFE00A0020C1
S214006DC0084B1B6F03F00703022B04D0032B05D0E0
S214006DD0012B05D0FEE7044B18687047034BFBE712
S214006DE00348704700800050E00A0020E80A0020B0
S214006DF0002D310108B5FFF7E3FF054B1B6FC3F30A
S214006E0003330133B0FBF3F0024B186008BD00BF3C
S214006E1000800050DC0A00200048704700B4C4041C
S214006E20014B1868704700BFE80A0020054B186041
S214006E30054B1B6F03F00703032B01D1FFF7DABFE7
S214006E40704700BFE80A00200080005000487047E6
S214006E50002D3101014B1868704700BFE40A00207E
S214006E60BFF34F8F0549064BCA6802F4E06213432E
S214006E70CB60BFF34F8F00BFFDE700BF00ED00E023
S214006E800400FA0500239B6AB3F5C04F03D21968C5
S214006E90064A914203D000230370836070470122A4
S214006EA002709A689B694260F7E700BF07B0CD5E44
S214006EB073B55E4B04461A781AB102221A7002B0F5
S214006EC070BDCDE900220028F9D001261E701EF004
S214006ED0B2F9574D574B186018F052FF2B785BB934
S214006EE000F05AFD40B954480823544A54490068F3
S214006EF015F006FB00B92E70524B5A6E62619B6EFF
S214006F00514AA3614FF40043936603F188435968DE
S214006F10E1614E499960196E2160596E6160D3F83F
S214006F207011A160196CE160596C21614849086CC8
S214006F301864496C5964012151664FF400519166FA
S214006F401A6E56044BD54349CA68D407FCD45B6E08
S214006F505A0449D5404AD36B13F0430FFBD13F4B3D
S214006F601A68531C46D04FF4001393403C4A1366ED
S214006F7004233B4C23664FF4806323661DF03BFFDF
S214006F8001300ED01DF037FF40F20113984208D0B2
S214006F904FF4804323664FF4004323661023C4F85F
S214006FA0703110232E4C684623664FF40053236638
S214006FB04FF0804323664FF4804301A963661DF0BB
S214006FC002FF009B2366019B63662B78002B3FF431
S214006FD076AF1A4B1A6822665B6863666FE72149CC
S214006FE0CA68D007FCD4B2E71F4AD36B13F0430F2E
S214006FF0FBD1B4E71D4B1B78002BB9D14FF4807240
S214007000114B5A661A4A52681AB94FF40011144ABC
S21400701011664FF400725A66164B5B68002BA7D1B8
S2140070204FF480020E4B1A66A2E700BF572B0020D3
S214007030582B0020AC120020140B0020B0120020A9
S21400704000710800008000500090005055CEAC0043
S21400705000C00054000004400000024CEC0A00206F
S21400706000900044000004500000025C562B0020F4
S21400707000C0055000000650F8B5284D04462F788D
S214007080012F02D001232B70F8BD0028FCD01DF084
S214007090B2FE0130224E0AD01DF0ADFE40F20113C2
S2140070A0984204D01F4A7766D368DF07FCD44FF4B3
S2140070B000531D49B366CA6B12F04302FBD1216828
S2140070C01A4B196661685966A168C3F87011E168C1
S2140070D0196421695964E169C80748BF9A60144B6E
S2140070E01A6801320DD1134A127852B9124949680A
S2140070F0C90748BF1A60114A5268D20744BF012226
S2140071001A6062690E4B5A66A2699A6618F040FECB
S2140071100C4B18681EF095F80023B4E7572B002098
S21400712000900040000004400000024C0080004434
S214007130EC0A0020562B002000C005500000065028
S21400714000800050AC12002038B500239B6AB3F5CF
S214007150C04F25D21A68144B9A4221D1134D2B7872
S21400716013F0FD0402D00024204638BD1048FFF777
S2140071709FFE08214FF480330E4A0F48C2F8801154
S214007180C36011600D4A1361A36ADB699847044621
S2140071900748FFF771FF002CE6D101232B70E2E7CA
S2140071A04FF48174E0E700BF07B0CD5E562B002099
S2140071B08C12002000E100E000A000440090004493
S2140071C013B5204B1B7803B9FEE700231E4CCDE910
S2140071D000336A4608231D49206815F091F9F0B976
S2140071E01B4AD2F84031D2F840211F2B4FF0010342
S2140071F010D9203A9340019A1A43019208236A460E
S2140072001249206815F032F94FF00053114A1A60FF
S214007210FFF726FE9340009A1A430092EEE70E4BC5
S2140072209842F1D10A4AD2F84031D2F840211F2BB9
S2140072304FF0010385BF203A93409340019398BFD7
S2140072400093DBE7572B0020140B0020007108008A
S214007250008000440B020FF00BE000F00346054AE6
S2140072600549106803448B428CBF4FF0FF30136013
S214007270704700BFF00A002000800020F7B50468C1
S214007280012105463A2000F07DFD002301226179A8
S214007290207901F07BFA14233021227911FB023188
S2140072A001F1A04101F5703109686379D940C943FD
S2140072B0A37901F00101022B217017D100F0C2FA68
S2140072C0164A2B466179207900F0E6FAFF28024636
S2140072D060790ED12A46114900F008FB01230246C8
S2140072E061792079CDE9003301F0F6F9002003B08A
S2140072F0F0BD01262779002301460096384601F0A6
S214007300ADFA2A460549607900F0F0FA0023617963
S21400731002462079009301963346E5E76B4E02005D
S21400732010B5012243780178847830209A40054BC6
S21400733000FB01331CB942F210015A5010BD41F255
S2140073401001FAE700C0035010B501224378017817
S214007350847830209A40054B00FB01331CB941F27B
S21400736010015A5010BD42F21001FAE700C0035057
S2140073702DE9F04F9A46564B85B01B7806460F46C9
S2140073801546DDF83C909DF844B0DDF85080002BA3
S21400739000F09780072A00F296800E9B002B00F0E4
S2140073A09280B9F1000F00F08E80129BB3F5006F4B
S2140073B000F38980012803D1109B002B00F0838006
S2140073C0444B03EB05131B7B002B7ED0424C102254
S2140073D00021684627F0ECFB04EB45141022A7BBFF
S2140073E03946204627F0E4FB43F210036380BBF1E6
S2140073F0000F03D1E37843F00303E370364A0E9B95
S21400740002EB451CCCE90193129B6901581E9DF8BE
S2140074104C30C0F30A0003F003039B0643EA001E49
S21400742053582E48012E00EA03004EEA0003CDF81A
S21400743000A0535017D0B8F1000F2ED19CF80230A0
S21400744068F304138CF8023027E00021204627F06A
S214007450AFFB4FF444736380BBF1000FCED1E378EB
S21400746043F03003C9E713230CF1100ECCF80C30B0
S2140074709CE80F008EE80F006FF00301DCF81C207C
S214007480109B61F39F02012FCCF81C20CCF814301F
S21400749003D1CCF81890CCF8043000270D4A290107
S2140074A002EB051342F80180159A28465A60694691
S2140074B022469F605E7301F04DFA384605B0BDE87F
S2140074C0F08F0748FAE70748F8E70748F6E700BFEF
S2140074D0592B0020B8130020B81200200F80FFF3AD
S2140074E0028000F0018000F0078000F038B5124BF3
S2140074F005461B78DBB1E0B11DF09DFE0F4A002368
S2140075001146147B54B92B6001251A0101EB0313B5
S2140075101D738C501DF095FE204638BD0133082B98
S21400752002F11002EDD11DF08CFE0548F5E7054886
S214007530F3E70548F1E700BF592B0020B8130020F9
S214007540048000F0028000F0018000F038B51DF0E5
S21400755072FE002305460B4A147B6CB90133082BD8
S21400756002F11002F8D101F097F9074B28461C707B
S2140075701DF067FE204603E028461DF062FE034825
S21400758038BD00BFB8130020592B0020058000F03E
S2140075900D4B10B51B78044693B1072812D81DF082
S2140075A04AFE0A4B03EB04131A7B2AB100241C7311
S2140075B01DF047FE204610BD1DF043FE0448FAE7C6
S2140075C00448F8E70448F6E7592B0020B8130020D3
S2140075D0068000F0028000F0018000F0154B13B525
S2140075E01868002301908DF804301DF024FE124B1D
S2140075F01C7824B11DF025FE104802B010BD0122F3
S2140076001A701DF01EFE0E4B01A81C731C7783F823
S2140076102C4083F83C4083F84C4083F85C4083F869
S2140076206C4083F87C4008238DF8073001F060F941
S2140076302046E2E7A8FF0200592B0020038000F056
S214007640B81300200A4A08B512785AB107280BD892
S214007650084A02EB00131B7B43B1002101F03AF904
S214007660002008BD0448FCE70448FAE70448F8E7A9
S214007670592B0020B8130020028000F0018000F093
S214007680078000F00A4A08B512785AB107280BD8C6
S214007690084A02EB00131B7B43B1012101F01AF9E3
S2140076A0002008BD0448FCE70448FAE70448F8E769
S2140076B0592B0020B8130020028000F0018000F053
S2140076C0078000F00A4A08B5127852B107280AD88F
S2140076D0084A02EB00131B7B3BB101F087F9002040
S2140076E008BD0548FCE70548FAE70548F8E700BF87
S2140076F0592B0020B8130020028000F0018000F013
S214007700078000F00D4B1B7893B1072812D889B17B
S2140077100B4B03EB00131B7B73B10A4B1A6D012353
S2140077208340134214BF0123002300200B707047D0
S214007730054870470548704705487047592B002094
S214007740B813002000000450028000F0018000F012
S214007750078000F00B4A10B512780C4662B1072875
S2140077600CD859B1084A02EB00131B7B43B101F059
S2140077704FF92070002010BD0448FCE70448FAE7E3
S2140077800448F8E7592B0020B8130020028000F0C8
S214007790018000F0078000F0184B2DE9F0411F6DC6
S2140077A05B6D1F4000D5FEE701260025144CDFF870
S2140077B05880374218D02368C8F85060A3B1A16833
S2140077C0284601316268A1609847637B012B0BD184
S2140077D050B90C4B03EB45131A7B60F341021A7346
S2140077E01A7F60F341021A770135082D4FEA4606E4
S2140077F004F11004DDD1BDE8F08100BF00000450A4
S214007800B8130020B81200200020045070B50446BB
S21400781001250B4E04B970BD94FAA4F0B0FA80F0BE
S21400782005FA00F306EB001224EA03045368002B63
S214007830F0D0117B11B191689847EBE79847E9E7DC
S2140078403814002008B5192000F080FD28B14FF04C
S2140078500072074BC3F880211A601A2000F076FDEC
S21400786028B14FF08062024BC3F880211A6008BD31
S21400787000E100E038B505460C461DF0DCFC0022B1
S214007880044B03EB05135C601A73BDE838401DF02B
S214007890D8BC00BF38140020F8B504460D4617467D
S2140078A01E461DF0C8FC1CB9052D0DD0FF2414E0A3
S2140078B0012C03D1012DF9D1032405E0022CF5D1CA
S2140078C07DB1052DF2D10724074904F1100301EB21
S2140078D003110123C1E901760B731DF0B2FC2046AB
S2140078E0F8BD0624F0E700BF38140020F8B50546BA
S2140078F00E4617461DF09FFC134B2C46D3F8242447
S21400790005F0FC0122FA05F3DB0712D5002301334C
S214007910DBB2042B04D1FF241DF093FC2046F8BDF7
S214007920EC1804F003040C4422FA04FC1CF0010FCB
S214007930EDD1FF2CF0D00122044B03EB0413C3E976
S21400794001671A73E8E700BF00C003503814002030
S214007950074BD3F82404D3F8202403F50053104033
S21400796000F0553020F05020C3F82004FFF74EBF3B
S21400797000C00350074BD3F82404D3F8202403F5A3
S2140079800053104000F0AA3020F0A020C3F82004D6
S214007990FFF73CBF00C00350024B1968024B186843
S2140079A014F08ABCF40A0020140B002070B5940072
S2140079B0224605460E4628F043F8431C0AD058B91E
S2140079C022463146284627F0C9F80028034808BF53
S2140079D0002070BD0248FCE70248FAE710E000F01D
S2140079E021E000F024E000F010B5044628F024F86A
S2140079F0431C10D088B901F0CDF8234620F00300D0
S214007A002044984201D1002010BD53F8042B0132C7
S214007A10F7D00348F8E70348F6E70348F4E700BF63
S214007A200EE000F021E000F024E000F008B51DF0C4
S214007A30FBFB014B186008BD281D0020014B186891
S214007A401DF0F6BB281D0020044BD3F88420D20678
S214007A50FBD4D3F88400C0F3811070470040005078
S214007A6038B5104B0546D3F820310C4603F0030317
S214007A70022B0BD0032B0DD0012B0FD1FFF79AF959
S214007A80052305B1286004B1236038BDFFF7C8F9A7
S214007A900323F6E7FFF7DAF90223F2E701230020D3
S214007AA0EFE700BF0080005073B50D4600210E4B77
S214007AB00191D3F88041064604F00304012C09D056
S214007AC0022C0CD00C460EB1019B336005B12C6025
S214007AD002B070BD01A8FFF7C3FF0F24F3E7FFF75E
S214007AE0B5F90190EFE700BF0080005038B5184B9D
S214007AF00546D3F824010C4600F00700062823D8D4
S214007B00DFE800F0040A121A1E0E1600012305B163
S214007B10286004B1236038BDFFF74CF90523F6E76B
S214007B20FFF748F90623F2E7FFF77AF90323EEE7B3
S214007B30FFF776F90423EAE7FFF788F90223E6E77A
S214007B401DF039F90723E2E700231846DFE700BFF8
S214007B500080005038B5104B0546D3F840310C462F
S214007B6003F00303022B0BD0032B0DD0012B0FD1F8
S214007B701DF023F9092305B1286004B1236038BD40
S214007B80FFF768F90823F6E71DF01AF90B23F2E76A
S214007B9001230020EFE700BF0080005038B5144BEB
S214007BA00546D3F800020C4600F0070004281BD850
S214007BB0DFE800F003090D111500012305B1286068
S214007BC004B1236038BD1DF0F8F80923F6E7FFF787
S214007BD041F90823F2E71DF0F3F80B23EEE7FFF771
S214007BE009F90E23800AE9E700231846E6E700BFF6
S214007BF00080005038B5104B0546D3F840320C468E
S214007C0003F00303022B0BD0032B0DD0012B0FD157
S214007C101DF0D3F8092305B1286004B1236038BDF0
S214007C20FFF718F90823F6E71DF0CAF80B23F2E76A
S214007C3000231846EFE700BF0080005038B5104B11
S214007C400546D3F860310C4603F00303022B0BD035
S214007C50032B0DD0012B0FD11DF0AFF8092305B172
S214007C60286004B1236038BDFFF7F4F80823F6E770
S214007C701DF0A6F80B23F2E701230020EFE700BF74
S214007C800080005010B40D4C0B46D4F8204204F08F
S214007C900304012C0AD0022C0CD008B1002101608C
S214007CA00BB100221A605DF8044B70475DF8044B78
S214007CB0FFF7D6BE5DF8044BFFF74CBF00800050C0
S214007CC038B50C4605461DF0AFFA054B9A6A544087
S214007CD02C4054409C62BDE838401DF0A9BA00BF55
S214007CE000C00050B0F5207F1FD009D8B0F5007F47
S214007CF015D003D868B1B0F5C07F0AD000200CE0DC
S214007D00B0F5607FFAD10B4BD3F88000C0F30110BA
S214007D1003E0084B186FC0F3033001307047054B83
S214007D20D3F89000C0F30460F7E7024B186FC0F377
S214007D308020F2E7008000504FF400320E4B0146E0
S214007D4010B500209A66FFF7CDFF484341F6713222
S214007D500A490B4B884294BF00200120DC69DA6395
S214007D609A6822F4401242EA00529A60E20344BF44
S214007D700022DA6310BD00BF00900050005A620275
S214007D8000000350420910B50FD0012A0FD00A4B4D
S214007D900A4C022A18BF234600F01F0049B103F51B
S214007DA08053012282401A6010BD1346F4E7044B4C
S214007DB0F2E703F50053F4E7688000506082005055
S214007DC06480005008B580201DF050F9034B98429F
S214007DD09EBF4FF48032024B1A6708BD005A6202FB
S214007DE000A000501FB50023B0F5807F019377D028
S214007DF028D8382800F094800BD82438092810D8C2
S214007E0009280ED8DFE800F0676767670D0D620D7A
S214007E10377D52285FD008D83D283BD03E2800F05A
S214007E208480019805B05DF804FB8028F9D1414BA9
S214007E301B6F03F00703013B032BF2D8DFE803F0C8
S214007E4044413F6CB0F5D06F5BD019D8B0F5A06F49
S214007E5066D00AD8B0F5806F3DD0B0F5906FE0D10F
S214007E60002001A9FFF742FEDBE7B0F5B06F2DD08A
S214007E70B0F5C06FD5D1002001A9FFF76BFED0E7A3
S214007E80B0F5006FECD00AD8B0F5E06F4DD0B0F585
S214007E90F06FC6D1002001A9FFF7D0FEC1E7B0F50C
S214007EA0086FBED1234BD3F8003103F00303022B37
S214007EB02CD0032B2ED0012B30D1FEF7B1FF03239D
S214007EC000E005230193ACE70223FBE7002001A9AD
S214007ED0FFF7EAFDA5E7002001A9FFF7C1FDA0E72F
S214007EE002934FF0E0231B695B0705D5FEF782FF80
S214007EF00C230393039BE5E703A902A8FFF72AFEDA
S214007F00F8E7002001A9FFF749FE8AE7FEF7A2FF7F
S214007F100823D7E71CF04FFF0723D3E70123D1E759
S214007F20002001A9FFF7AEFE7BE7002001A9FFF7BE
S214007F3061FE76E7008000504FF40022034B5A663D
S214007F40012203F580439A62704700BF00900050FC
S214007F5008B5FFF747FF082811D00938012802D9CD
S214007F604FF6FF7008BD4FF40012064B5A6603F535
S214007F70D8335B6ADB07F3D54FF4FA70F2E7024BAF
S214007F801888EFE700900050000D0020F8B5044672
S214007F908020FFF727FF032800F087804FF4002299
S214007FA0424B02215A6645F60E03414AC2F880301B
S214007FB0404B9962012103F580539962936DD90372
S214007FC0FCD4D4E900131B0543EA0163E17B94F873
S214007FD020500B43217BE77E43EA0143617B6D0122
S214007FE043EA0133A17B43EA811313619169D4E923
S214007FF004031B0643EA806301F000410B43A17EA5
S21400800094F823000B43217E43EA0143617E43EA52
S21400801001239361136AE66923F00D0394F8221096
S21400802043EA8703002E2DD11362966A94F8213016
S21400803045EA031326F033052B4343F0010393620E
S2140080401D4D1B4B9A6D35EA0202FBD10222194DDB
S214008050AA621A659A6D5200FCD41A69A56822F4C1
S214008060700242EA05521A614FF00042114B9A61C3
S21400807019B9022203F580539A6278B901220F4B90
S2140080809A620BE0334343F008031362936A23F0CB
S214008090330303432B4343EA4103936294F82430AB
S2140080A01BB1034B064AC3F88020F8BD0090005071
S2140080B000C0005000D000500300014000E0005017
S2140080C0F1A7FFFF1E4BFF2870B59E6A35D89A6D44
S2140080D012F4803F18BF01211A4A18BF916202218C
S2140080E091629B6DDC0303D5154A936D9907FCD509
S2140080F00222144B124D1A65AC6D14F08044FBD16D
S214008100114AAB6992F9002023F47F03024423F45A
S2140081107F4382F3080243EA002343EA0243AB614B
S21400812031460220FFF7CCFDAB6DDB0303D53146AD
S2140081300120FFF7C5FD204670BD2124FBE700BFE8
S21400814000C0005000D000505A2B0020014B93F97D
S214008150000070475A2B002001221548154B816AF3
S2140081609A62826D02F00302032AFAD102229A6210
S2140081701A650F4A936D5B00FCD40F48936D30EA86
S2140081800303FBD101220B4B1A65A3F580539A6DAE
S2140081909007FCD49A6D9207FCD50222054B1A650F
S2140081A0034A936D9B07FCD50320FFF789BD00BFEC
S2140081B000C0005000D0005003000100014B1880A2
S2140081C0704700BFFE0C00204FF4001208B5184B95
S2140081D05A660223174A5360936813F48033FBD120
S2140081E0012822D1FEF71CFE134B984215D003F54A
S2140081F0122303F5F863984213D0104B00EB80026D
S214008200400AB3FBF0F3520A0A49CA620B63012321
S2140082104B620022074B5A6008BD45F67A13084A9F
S214008220F2E745F61A03074AEEE75362F1E700BFA6
S214008230009000500040025000F0490264666666F6
S214008240D8B80500BBCF0500B0F5207F10B50C46AA
S21400825042D008D8B0F5007F33D003D888B1B0F547
S214008260C07F0ED010BDB0F5607FFBD11F4A4C1EFC
S214008270D2F8803023F0300343EA0413C2F880308B
S214008280F0E71CF0EBFE1CF0B5FF4FF48031184B06
S214008290164A1967136F013C23F4704343EA04330C
S2140082A01367FEF7A7FD0446FFF7CEFBC0F10201F9
S2140082B020461CF099FF00F02DF8BDE81040FFF7AF
S2140082C081BD0A4A4C1ED2F8903023F0F85343EA98
S2140082D00463C2F89030C5E7044A4C1E136F23F4BB
S2140082E0806343EA84231367BCE700BF0080005026
S2140082F00090005008B50121022000F0F5F81CF0AF
S214008300ADFE1CF077FF4FF48032014B1A6708BDB4
S2140083100090005008B54FF4C0701CF0A7FEBDE8F2
S21400832008400449884294BF012102214FF420707E
S214008330FFF78ABF80F0FA02034B5868C0F30800C4
S214008340003818BF0120704700ED00E0054B4209D9
S21400835053F8223000F01F0023FA00F0C04300F06C
S2140083600100704700E100E010B5224B70B94FF4F1
S2140083700031214A1860516602F598325268012A87
S21400838003D11E4AD2F800211A6010BD1B68002BCC
S214008390FBD01B4A5268012AF7D0184A8020C2F840
S2140083A00031FFF71FFD05281FD14FF4C070FFF7FF
S2140083B099FC0128044604D102214FF4C070FFF74F
S2140083C043FF07220F4B1A610122A3F580535A6020
S2140083D00B4A1369DB07FCD5012CD6D12146BDE834
S2140083E010404FF4C070FFF72FBF0122064B5A60B3
S2140083F0CBE700BF2C1D00200090005000800050EE
S21400840000C0015000E0015000D00150044A4178FD
S214008410536F23F4407343EA01235367704700BF4A
S2140084200040005010B5044610B10020FFF79CFF36
S214008430104A136943F00403136103F075F91CF046
S21400844003FF0D4B0D4AC3F820241CF0EDFE27F069
S214008450FBFA1CF0EDFE1CF0F8FE03F08DF91CB9DB
S214008460BDE81040FEF7C6BC0120BDE81040FFF78F
S2140084707BBF00BF00ED00E000E003500000FF0FF0
S21400848010B5044610B10020FFF76EFF0E4A1369C0
S21400849043F0040313610D4B0D4AC3F8202403F088
S2140084A043F91CF0C1FE27F0CFFA1CF0C1FE03F022
S2140084B063F91CB9BDE81040FEF79CBC0120BDE87E
S2140084C01040FFF751BF00BF00ED00E000E0035092
S2140084D00000FF0F034A0179D36E23F030030B43ED
S2140084E0D366704700400050F8B504461C4BD3F8DE
S2140084F08420D106FBD4D3F88430C3F381139C4286
S2140085002CD0FEF75DFC012C064602D121461CF05D
S2140085106BFE1CF089FE4FF00072124B07465A663F
S21400852020461CF099FE4FF480630D4D621E93406A
S2140085302B676B6E9A0103D4D5F884309B060AD558
S21400854038461CF075FE022C08D13046BDE8F840CF
S21400855000211CF049BED5F88430EAE7F8BD00BF1C
S214008560004000500060005010B50C4608B9FEF7F9
S21400857027FC074B21461B783BB1064B984204D894
S2140085800120BDE81040FFF7AFBF0220F9E700BFAB
S2140085905B2B0020005A62020278034B0121002068
S2140085A01A70FFF7E1BF00BF5B2B00204FF00042C0
S2140085B038B5264B26495A6601224A604AF6CD311E
S2140085C003F50B235D6C1964154030BB9968C90729
S2140085D00BD4002401221F4B5A6015B11E4B1F4AB4
S2140085E01A6425F01CFE204638BD1A498A601C4ACB
S2140085F0D96ACC0705D4904201D10724EAE70130B6
S214008600F6E79042E5D1F8E70132DC6A14F0080498
S21400861006D08A42F8D10724DFE700221049F4E7A3
S2140086208A42F8D020220B4B0B495A620122A3F54E
S21400863080539A6023460A4A486A800603D49342C7
S214008640E9D00133F8E79342C7D1E4E70090005041
S2140086500050095000600950004009503254FFFF96
S21400866040420F004FF0004238B5174B174C5A6681
S214008670012203F50C235A604AF6CD33656C236459
S214008680437893401343124AD363C3788178A26831
S2140086909B0043EA011322F074021343A36002799D
S2140086A0837943EA022323614279C37943EA0223AA
S2140086B063610078FFF77AFFEB0744BF054B23643E
S2140086C025F0ADFD012038BD009000500040095057
S2140086D0004000503254FFFF072A2DE9F0411546AE
S2140086E098464FF0030401F003072DD89600B440D7
S2140086F000FA06F221461C481CF0AFFD21461B4836
S21400870007FA06F21CF0A9FD194B1A499DF8180045
S214008710B8F1000F18BF1946012303FA05F50D60DE
S214008720154B1649002818BF0B461D60144B9DF8C4
S2140087301C00C3F82054103103F22443002818BF4D
S2140087400B461D60BDE8F081A2F10806B600B440F5
S21400875000FA06F221460B481CF07FFD21460A4827
S21400876007FA06F2CEE700BF00C4035008C4035061
S21400877010D4035010E4035014E4035014D40350F0
S21400878000E0035004C403500CC40350F8B504467C
S2140087900D461F4616464AB101238B403021184A23
S2140087A001FB0022F7B141F21001535004EB4403E1
S2140087B0072D4FF00F014FEA031316D8A80006FA4C
S2140087C000F281400F4818441CF047FD4EB90123C3
S2140087D030210B4AAB4001FB042277B141F2100175
S2140087E05350F8BD42F21001DFE7A5F10800800003
S2140087F006FA00F281400448E5E742F21001EFE78E
S21400880000C0035004C003500CC00350104B01407E
S214008810D3F8302422EA0002C3F83024D3F83024F8
S2140088201143C3F83014D3F82C240243C3F82C2485
S214008830084AD36E03F03003202B1FBFD36E23F0FD
S214008840300343F01003D366034BC3F8200470478D
S21400885000C003500040005000E0035038B51446F6
S2140088601D46032283F00103FFF790FF012004F169
S2140088701001884005FA01F1FFF7C8FF9DF81010B7
S214008880034B044A002918BF1346186038BD00BFC2
S21400889024E4035024D403504FF400120B4B10B5BD
S2140088A0C3F88020BFF34F8FBFF36F8F0024FF22E3
S2140088B0074B21465C6520209A625C60FFF762FAEF
S2140088C02146BDE810402120FFF75CBA00E100E039
S2140088D000000450044A054B002908BF1346012235
S2140088E082401A60704700BF401004504020045079
S2140088F010B5012104462020FFF744FA012121206B
S214008900FFF740FA0122114B5A60227812069A604D
S2140089106178A27842EA01429A61FF229A620022B6
S2140089209A631A644FF000425A654FF0FF324FF4D4
S214008930001103F500531A65054AC2F88011E37862
S2140089401B01DBB282F81533116010BD0000045025
S21400895000E100E0F8B50125C3B2DFF888C0D1F821
S21400896000E09D408F7ACB7A0C46097BCCF85050BD
S2140089700CF5005C4CF820E04FF0300E184E1B054E
S2140089800EFB006094F80DC043EA074343EA4153E8
S21400899022F00302C0F860C0C36502671CF04BFCFF
S2140089A0736D2B437365237A13B1336C2B43336497
S2140089B0637A13B1B36B2B43B3632279A37943EA8B
S2140089C00243084A93616179E37943EA0143064921
S2140089D08B61034B55639D64BDE8F8401CF031BCC9
S2140089E000000450002004500010045010B501246C
S2140089F0C0B284401CF01FFC044B5A6D22EA0402ED
S214008A005A659C62BDE810401CF01BBC0000045078
S214008A1010B50124C0B284401CF00DFC074BDA6A86
S214008A20224208D15B6B9C430CBF012400241CF03F
S214008A3008FC204610BD0024F9E700BF00000450E3
S214008A404FF40032054B9A6641F6713203F51C333B
S214008A50DA63012203F50053DA6070470090005095
S214008A6041F671320121064BDA6303F50052D160FC
S214008A700022DA634FF40032A3F518339A66704783
S214008A8000000350CB784A7810B55B010C7843EAB7
S214008A9082030A79234343EA02130C22424302F17B
S214008AA0B0421363012C02BF8A78024B43F82020A1
S214008AB010BD00BFE880035008B54FF0B0435A68B9
S214008AC06AB958B15B680BB11CF0D6FB01210D4B9F
S214008AD059601CF0D1FB4FF0B043D96008BD5B680D
S214008AE00BB11CF0C9FB0028F0D11CF0C5FB4FF001
S214008AF0B0430222DA601CF0BFFB0122024B5A6030
S214008B00ECE700BF00100058002000584FF0B041BE
S214008B104B6810B50BB11CF0AFFB01220B4BC478B1
S214008B205A608378934043EA840344782343047965
S214008B3043EA0413447943EAC4038B60044B5A6047
S214008B400378C3F10203CB6010BD00BF00200058BD
S214008B50001000584FF48032064B5A6603F5E623A1
S214008B605B69C3F38512827003F03F021B0B4270F1
S214008B700370704700900050014B986CD96C70479A
S214008B800080E00F024B1868C0F30740704700BF34
S214008B900080E00F0120034B9B680A3303F01F039D
S214008BA0984070470080E00F70B5054616461C4694
S214008BB021B94FF420701CF059FA0146402C1BD006
S214008BC003D8DCB1202C1BD070BD602CFCD1042354
S214008BD003FB06F2530803EB4113B3FBF2F3094A17
S214008BE0203B02EAC303AA6822F06002AA60AA68D1
S214008BF01443AC60EB61E7E70623E9E71023E7E7F9
S214008C000823E5E7F8FF7F00012200F580535A604D
S214008C1040F6AA6341F20502436100230B498360D4
S214008C20C365C26000F500520361C361C36491640A
S214008C3007498365884203D103650023436502E044
S214008C4004498842F8D0012353607047FFFF0100B3
S214008C5000C005500000065070B50D46FFF7D4FF63
S214008C60012300F580567360AB7C04461BB1836815
S214008C7043F080438360EB7C5BB1354A2B7D9442A6
S214008C8045D1A2F51032C2F88C31E36D43F0800373
S214008C90E3652A8A6B7B20461343EA891343E36025
S214008CA02B7BD5E90112FFF77FFF6B7D1BB1A36815
S214008CB043F48033A360AB7D1BB1A36843F4004349
S214008CC0A360EB7D2A7E1B07120502F4E00203F088
S214008CD0E0431343A365697E1D4A8B1E012B1D4B83
S214008CE01FD894421BD002F5804294420CBF01224A
S214008CF04FF0FF3203EB4213022041F21C620329BD
S214008D00985020D10423F3652B78636170BD124A16
S214008D10944204BFA2F52032C2F89C31B5E7002287
S214008D20E8E794420DD00C4A94420CBF01224FF063
S214008D30FF3203EB4213022042F21C6201299850D4
S214008D40DFE70022F5E7042204F50053DA65DBE7E7
S214008D5000C0055000C003500000065038B5044659
S214008D60054D25F080FA0FCC0FC594E8030085E882
S214008D700300002038BD00BF301D002047F6FF73FB
S214008D809A42F0B56FD002296FD8394B5B5C012B45
S214008D906BD8384DDF0005EBC30415F83330A178E7
S214008DA0012B13D10025E078401AA84202D80844C7
S214008DB0C0B2F0BD431B6668A0EB530336F91360E0
S214008DC09642D4BF1D4603F1FF30EEE760680028E8
S214008DD0EFD0B0F90040944204DBB0F90240944270
S214008DE0B8BF144683883D44FF2B19BFC8224FF0F6
S214008DF0280CB0F90620B0F908C0A2EB04030CBF9B
S214008E000126002693FBFCF333446E781BB29E4289
S214008E1001DD002B01DA731E1BB24FF47A7C01339E
S214008E209BB2071D5D1E2DB24FEAC50E00EBC505B1
S214008E30EA88AD689E4214FB025222EAE27202F110
S214008E405C02B2FBFCF204DD37F833500133954286
S214008E50E8D200EB0E039888904228BF104688425E
S214008E6038BF0846A4E7FF20A3E70020A1E700BF1D
S214008E70CDFF0200301D00200229F0B555D82C4B3E
S214008E80585C012851D82B4C04EBC00114F8300074
S214008E904B6801280FD1C8788C78904294BFC4EBF9
S214008EA00001C4EB0201001BCAB28242C8BF002206
S214008EB033F91200F0BD002B37D08878904202D3E9
S214008EC0B3F90200F6E7CC78B3F900009442F1D982
S214008ED04C789988013CA1F1FF06714203F1040524
S214008EE0E4B2714103F10C07CEB2B44216D805EBDA
S214008EF0C1014FF47A756A43B1F902404968521AC3
S214008F0004EBD47102EB610292FBF4F29042D1DBE7
S214008F10B3F902009042CDDC10B2CBE737F831C08F
S214008F204E1C9445E3D33146DEE70348C2E700BF54
S214008F30CDFF0200301D00200080FFFF08B504486A
S214008F40FFF70CFFBDE80840012025F090B900BFF0
S214008F50D0FF020000487047020D00207FB51422A3
S214008F60002101A825F024FE044B01A94FF0FF3094
S214008F70029325F0B1F907B05DF804FB006A18000B
S214008F801B0603F0706300F00F000902034301F4B0
S214008F907061120402F470220B431343014A1360FB
S214008FA0704700BF0020025C60B5054619B1013964
S214008FB0B1F5806F0FD2094EF06810F48030FBD107
S214008FC043EA012312072B4302F08052134343F077
S214008FD00043736060BD0120FCE700BF0020025C18
S214008FE00122054B9A60DA68D203FCD4D86820F0D8
S214008FF00F000004000C70470020025C014B18684C
S214009000704700BF0040025C014B5868704700BFC5
S2140090100010025C014B186B704700BF0010025C2A
S214009020014B1868704700BF0010025C014B986047
S214009030704700BF0010025C014B1864704700BF09
S2140090400010025C014B5864704700BF0010025CC1
S214009050014B5863704700BF0010025C0022014BB2
S2140090601A6070470010025C024A136843F001035E
S214009070136070470010025C024A136823F0010375
S214009080136070470010025C43F20402014B1A6042
S214009090704700BF0010025C024A136843F03003BA
S2140090A0136070470010025C044B1A6842F480722A
S2140090B01A601A6822F480721A6070470010025C08
S2140090C0024A136843F48063136070470010025C22
S2140090D0034A136823F4702343EA0043136070477F
S2140090E00010025C044B1A6902605A6942609A6971
S2140090F08260DB69C36070470010025C0268044B44
S2140091001A6142685A6182689A61C268DA61704779
S2140091100010025C024B1A6BD207FCD41862704730
S2140091200010025C0322024B186019615A637047F4
S2140091300000025C82B01FB507930A9B04AC8B420A
S21400914028BF0B4604E907001048D100079948BF1E
S21400915003330160099948BF23F0030323F07043EB
S21400916001F0E041194341F000518160002102F016
S214009170E042019C1A4342F00052C16004618261E1
S214009180416304B0BDE8104002B070470000025CC6
S2140091903F22034B1A631022DA6103229A63704758
S2140091A00000025C024AD36B9B07FCD4704700BFEA
S2140091B00000025C044B9B6A13F0240F14BF0120CE
S2140091C000208000704700BF0000025C08B5FFF773
S2140091D0F1FF064BDB6B23F47F4323F0EF030343DF
S2140091E01EBF0122024BC3F8FC2F08BD0000025C24
S2140091F000F0FF3F4368182B0AD0202B1DD0102B01
S2140092002BD1174BD3F80434DB010AD40120704766
S214009210134BD3F804349A01F8D50B6843F00803CF
S2140092200B6003680F4A934210D10B6843F040036B
S2140092300B600023436000207047094BD3F80434CA
S2140092405B01E3D50B6843F00403E9E7064A934263
S214009250F1D10B6843F08003EAE70720704700BFB0
S2140092600000025C5D2B00205C2B00200B4607B53F
S2140092700749D1F80414C90708D500210092024610
S214009280084600F05BF803B05DF804FB0120FAE73F
S2140092900000025C1346064AD2F80424D20504D520
S2140092A00A46014600201CF005BA0120704700BFA0
S2140092B00000025C13B5084CD4F80444E40508D555
S2140092C0009313460A460146002000F061F802B0FB
S2140092D010BD0120FBE700BF0000025C13B5084C80
S2140092E0D4F80444E40508D5009313460A4601461C
S2140092F0002000F071F802B010BD0120FBE700BFAF
S2140093000000025C70B504460D4616468CB00A4A4C
S21400931009AB07CA83E807001A462146CDE905636C
S214009320CDE90333CDE9013300954FF480301CF0CE
S214009330EDF80CB070BD00BF54000300F0B51C463D
S2140093405B6815468DB01A07129E1AD1CBB17268AB
S214009350934216D10C4B0D4A53F8217009AB07CA3D
S21400936083E807001A462946CDE90533CDE90333DD
S214009370CDE90163009447F480701CF0C7F80DB087
S214009380F0BD0720FBE700BF6000030054000300A9
S214009390F0B516465A688DB0102A0D46129F15D1A4
S2140093A07A68102A12D10A4A09AC07CA84E807006C
S2140093B022462946CDE90547CDE90344CDE90144D7
S2140093C0044800961CF0A2F80DB0F0BD0720FBE79D
S2140093D05400030030000100F0B516465A688DB000
S2140093E0102A0D46129F15D17A68102A12D10A4A01
S2140093F009AC07CA84E8070022462946CDE9057469
S214009400CDE90344CDE90144044800961CF07EF8FB
S2140094100DB0F0BD0720FBE754000300100001006C
S21400942082B070B586B0149D03AE202D86E8070086
S2140094300B9359D805EB85038B4203D006236B4369
S2140094408B4253D10C9BAB4250D10F9BB3EB450FD5
S2140094504CD1129A934249D1012229462220159BCB
S214009460FFF7A2FD044630BB034606220E210C2061
S214009470FFF786FD0123CDE900332B4696E807006B
S2140094801BF0D7FF0E230BAA009307CA2B461BF030
S2140094901BFF0C23164C00930EAA2B4607CA1BF084
S2140094A043FF636823F07F0343F026036360FFF700
S2140094B097FD30B10624204606B0BDE8704002B0E5
S2140094C07047636823F07F0343F022036360FFF76F
S2140094D087FD04460028EDD1062311AA009307CA8B
S2140094E02B461BF054FFE6E70124E4E70724E2E7F7
S2140094F00020025C70B598B0002843D02C4C08AD14
S2140095000FCC0FC50FCC0FC50FCC0FC594E80F00BE
S21400951085E80F006D4604AE04F1100320340FCB2F
S21400952085E80F0094E80F0086E80F00FFF7BCFD03
S2140095300420FFF7CDFDFFF7A7FD3046FFF7DEFD61
S214009540002408AE56F8040B0134FFF7E3FD102C98
S214009550F8D1FFF759FD0328FBD90024FFF77EFD5D
S2140095602646FFF74BFD55F8043B01365840042EBF
S21400957044EA0004F5D12CB1012206200D4B1A70E6
S21400958018B070BDFFF790FD0820FFF74FFD0020D4
S214009590FFF752FD0720FFF755FD4FF40070FFF769
S2140095A057FD0820FFF794FDFFF75EFD0020E7E774
S2140095B03C0103005F2B002008B5FFF775FD012274
S2140095C0014B1A7008BD00BF5E2B00201FB51CF0B3
S2140095D0F0F9044630B1012206240D4B1A702046DD
S2140095E004B010BDFFF70AFD0090FFF707FD0190DD
S2140095F0FFF704FD0290FFF701FD03906846FFF7B2
S2140096007DFDFFF7D9FFFFF747FDFFF759FDE6E7BA
S2140096105F2B002006289ABF014B185C002070477D
S2140096209C01030030B5154B87B00293144B039092
S214009630049346F611030D46059300F077F91428B7
S214009640044616D168461CF05EFA4FF0A843032283
S21400965002A95A6319601D619A63DA6B9207FCD1FE
S214009660142C02D168461CF05CFA00F093F904460C
S21400967001E00028E9D0204607B030BD481D002094
S214009680040000202DE9F04FB1B005468C469E46FA
S214009690E8466F4EDDF8EC90409C06F1100A47460F
S2140096A030687168083603C75645B846F7D13E9B02
S2140096B003EB0208C8F1000A0AF00F0AB9F1000F1E
S2140096C000F09D80C9F1000707F00F070121DDF8C3
S2140096D0FCB044F00050C4F11006CDF810B005916F
S2140096E00690300200F4F85040F021000790B9F1DF
S2140096F0000F40F08680CDF820D047F00050002DB7
S21400970000F08480099121210A9041EA07210B91FB
S21400971042F00050CDF830C03D9B08A94FEA0A2C15
S2140097200D910E904CF041000F901093002A75D1C9
S2140097303E9B119143F0005312933C9B139014935D
S21400974010AB1593434B444A169340F611031793F8
S214009750424B0021002D08BF1346189314AB1993F3
S2140097603F4B10221A9311231B931CAB184625F06F
S2140097701FFA01221D92002246F0804603461E96DE
S214009780239205B9EB46102CCDF880B024AE4BD111
S21400979001232246002130462193229425F008FA20
S2140097A020AB002125938F4218BF334647F08042F6
S2140097B026923A9A2CA828922993B2FA82F35B0949
S2140097C049EA837310222B912A9325F0F1F9B9F117
S2140097D0000F00D028AED04448F080432CA918A82B
S2140097E02D962E93FFF71EFF30B92DB90346A342E0
S2140097F025D1002818BF2C2031B0BDE8F08F1027E7
S21400980064E7CDF820E049F0005078E7002C3FF4FC
S21400981079AF04A9099101210A9076E73E9B0CAA2C
S21400982011924120129388E710220021304621939E
S214009830229425F0BDF9002CB2D10123B1E703F143
S214009840C0026A4412F8C02C01331043CFE700BFB1
S214009850A301030010000020B8010300BC010300B0
S21400986004000020F0B5C0299FB0DDE9244557D09C
S214009870B1F5807F04D0802948D029201FB0F0BDE4
S21400988001265CB140F234470294102403960494F7
S214009890212401970594069502AC0AE040F214478D
S2140098A0029410240396049421240594012401971D
S2140098B00695079401251024089409950A922122FA
S2140098C00B950C940D92174A0AAD0E92164A0F95F8
S2140098D0109242F611021192129313951494159257
S2140098E001AA1692D3B112AB17930423189311232F
S2140098F0199316AB1A901B9340F61103C9081C91D6
S2140099001AA806A91D93FFF78DFEB7E7012614B91E
S2140099104FF48267C4E74FF48667B5E70EABE3E71C
S2140099200F20ABE7B40103001000001038B5164B4B
S2140099305A6E42F004025A66D3F8802242F00102C0
S214009940C3F88022114B5B68C3F3080343B14FF0A2
S214009950A842D36B13F0430FFBD11424204638BD26
S2140099604FF0A843DC6B14F04304FBD1084D2B6882
S2140099701BB90421284602F05DFD2B68013343F035
S21400998000432B60EAE700BF0080005000ED00E0D7
S214009990481D0020014B00205B68704700ED00E08A
S2140099A04FF40052034B00209A660322C3F860224D
S2140099B0704700BF009000504FF40052034B002049
S2140099C09A660322C3F86022704700BF00A00050CA
S2140099D0012300F01F02A0F506200949A0F55060FB
S2140099E04009934051F820201A4341F820200549A9
S2140099F051F8202022EA030241F82020704700BFD9
S214009A00601D00204C1D00200121A0F506230E4AF3
S214009A10A3F550635B0900F01F00814052F8230055
S214009A20014342F823100949D1E90030034488680D
S214009A300344C868096903445B1802BFC2E90033DF
S214009A40C2E90233136170474C1D0020601D0020E0
S214009A502DE9F04FA9B003921D4604460822339E16
S214009A60CDE90401414021FA02F34B40980702F188
S214009A70080218BF9B00202A1C44F4D18123B4FBA3
S214009A80F3F303EBC313E41A734B04F506241B78B5
S214009A9004F55064002B3ED1FDF77EFF074620B14B
S214009AA06FF0910029B0BDE8F08F0146402208A86B
S214009AB025F07EF84022394618A825F079F8DFF818
S214009AC0B481DFF8B491C3460BF10F0ACDF800A0BD
S214009AD0102208A95B46D9F8000024F053F90022AA
S214009AE0014608F1100808AF914246D1CDF800A013
S214009AF05B461022D9F8000018A924F04CF94FF064
S214009B00000A834618AFD34541D1544B9845DAD165
S214009B100122514B1A704FF0810A4FF00008DFF80F
S214009B205CB1A4F50627A7F550635B095BF8232014
S214009B3004F01F01CA40D2073DD4494A52F82330E8
S214009B40CB40DB072AD5B8F1000F08BFA04681231B
S214009B50A7F6FF47B7FBF3F303EBC313FF1A07F5AC
S214009B600624BAF1010A04F55064DAD1039BBBB1AE
S214009B70B8F1000F14D0444619E057F8040BCDE9AD
S214009B800612FFF725FF079A06990132ACE757F849
S214009B90040BFFF739FF0AF1010AB4E7039B13B978
S214009BA06FF08B007EE7B8F1000F18BF4446349B79
S214009BB000201C6076E7329B13B10023329A1360B4
S214009BC00EB1002333601023DFF8AC9000932A46D2
S214009BD000232146D9F8000012F0E0FC60BB329961
S214009BE02A68204BC9B99A4206D02146D9F8000007
S214009BF012F06CFD0028D3D1D5E90223DDE904106C
S214009C00834208BF8A42A2D1039B002BCFD06B6849
S214009C10012BCCD16FF0840044E7102032999A4291
S214009C200860E2D1002EE7D033462146D9F800007E
S214009C3018AA12F007FD48B10B4B9842D5D00B4B33
S214009C409842D2D00A4B9842D6D029E7329A336847
S214009C5012689B1A3360CFE7602B00200071080063
S214009C604C1D0020105D175EFFDF00F011E000F0D5
S214009C70FEDF00F0006D0800140B0020601D0020C1
S214009C802DE9F04F87B08246894698461646DDF89D
S214009C9040B02AB1002B4FD040F26C739A424ED897
S214009CA0BBF1010F4ED8002406F1100739460120FB
S214009CB005941CF085FA0546002846D021463A460B
S214009CC024F076FF05ABCDE9014300942B46012234
S214009CD050464946FFF7BCFE044680B110F18C0F93
S214009CE008BF6FF08D043A460021284624F060FF36
S214009CF028461CF075FA204607B0BDE8F08F144BD6
S214009D00C5E902A92B60C5F804B02EB1324641461B
S214009D1005F1100024F057FF059E0E483B462A46E4
S214009D203146006812F0A2FB18B93046FFF750FE25
S214009D30D9E76FF09104D6E76FF08604DBE76FF0A3
S214009D409104D8E76FF08504D5E76FF08C04D2E76E
S214009D50105D175E140B00202DE9F0438DB0814690
S214009D60DDE914780E4615461C469BB1B8F1000F87
S214009D7005D16FF0860630460DB0BDE8F083002FA3
S214009D80F7D0B7F1005FF4D3C3F1005303F50043F7
S214009D909F42EED81022002108A824F009FF0022D6
S214009DA007AB029305AB019306AB314600934846DA
S214009DB008ABCDE90522FFF74BFE06460028DAD1B0
S214009DC0059BA4B1AB4215D853EA0504D1D1069B36
S214009DD00B48C8F8004000943A46079900682B44A0
S214009DE012F0DCFB002818BF6FF09106C3E7AB4209
S214009DF0EDD2BEE75B1B9C4228BF1C46E7E700BFD0
S214009E00140B002030B58DB00C46054610220021FC
S214009E1008A824F0CDFE002207AB029305AB019301
S214009E2006AB21460093284608ABCDE90522FFF78E
S214009E300FFE0446D8B9099B012B1BD0079D104B7B
S214009E402946186812F042FCB8B90122A5F5062387
S214009E500C49A3F550635B0905F01F00824051F8DA
S214009E6023004240284641F82320FFF7CDFD204638
S214009E700DB030BD6FF08404F9E76FF09104F6E79B
S214009E80140B0020601D00202DE9F04F89B0074616
S214009E900E46FFF7C5F8C00709D4042401201BF0BE
S214009EA095FD80B3013CF9D16FF0920028E01022B6
S214009EB000210DEB020024F07BFE04A8FFF712F948
S214009EC0049B002BE9D0059B002BE6D0069B002BBD
S214009ED0E3D0079B002BE0D00025DFF8808008F158
S214009EE00409B54219D34FF48A74FFF793F800F0CB
S214009EF00E03062B2DD1C30501D5FFF7BDF80020B4
S214009F0009B0BDE8F08FFFF785F810F00E03FAD021
S214009F10022BF8D04105DFD5C4E7FFF775F8A6EBAE
S214009F20050A8400544528BF544699E803000023D8
S214009F308DE80300CDE9054307EB050BCDF810B01F
S214009F40029404AAD8F8003007CA1BF038FC25444F
S214009F50C7E724FA03F3DA07A6D5C6E7C801030065
S214009F601FB504A800E90E0011460198FFF78CFF04
S214009F7070B1FFF721FBBFF34F8F0749074BCA6845
S214009F8002F4E0621343CB60BFF34F8F00BFFDE7E0
S214009F9005B05DF804FB00BF00ED00E00400FA0524
S214009FA02DE9F0438BB01746DDE91545DDE91326AC
S214009FB09C46DDE91738894621B96FF086000BB05C
S214009FC0BDE8F083002FF8D00EB9002CF5D1129919
S214009FD009B9002AF1D10DB9002BEED1B8F1000F66
S214009FE0EBD0244A944541D10288B2F5105F3DD1AA
S214009FF04288B7EBD20FE0D322F04001802902D08E
S21400A000B2F5807FD9D16CB3AE421CD232199542DC
S21400A01019D29C42D1D831462246284624F0AEFDBD
S21400A0202E4614F00F03C8D1CDE90197CDE90336CB
S21400A030CDE90543CDE907540993FFF7B1FC38B1E4
S21400A0406FF09200BBE79C42EBD96FF08900B6E751
S21400A05007AA04A901A8FFF709F90546FFF7ACFC13
S21400A0600543EDD10020C8F80040A8E76FF0850052
S21400A070A5E700BF004440042DE9F04FA9B0834691
S21400A08017469A460E46DDF8C890DDF8D88029B9FE
S21400A0906FF08603184629B0BDE8F08F002AF7D087
S21400A0A0B9F1000FF4D0349B002BF1D0B8F1000FBB
S21400A0B0EED00024424B0CAD93E8070085E807007D
S21400A0C03C22214619A8189424F072FD3388728821
S21400A0D003F4E040B0F5804FDAD03A4E3A480BEA47
S21400A0E0060646F01066864263D1B2F5807F60D1E0
S21400A0F047F2121293425CD10620344ABAF11F0F7F
S21400A100D3680E940B931369126800FB03F3CDE932
S21400A1100C23BDD9339B402BBAD9359B1F2B4BD96B
S21400A12009F1010220261292402299F800300F977A
S21400A130042B18AFCDE91324CDE9157210961194AF
S21400A1401794A5D1FFF72CFC03460028A2D10B9B41
S21400A15015AACDE9086305AB07CA83E8070002AB7A
S21400A16012AA07CA83E80700DDE910018DE803009C
S21400A1700F9B95E80700FFF753F90546FFF71CFC11
S21400A18055EA000384D13D46349A20AE2C4603CCD3
S21400A190B44210605160254602F10802F6D1002252
S21400A1A01146B9540132402AFBD12022C8F80020BB
S21400A1B070E76FF085036DE76FF089036AE700BF0D
S21400A1C0540003000000FFF60000020968000300C8
S21400A1D0F0B50E461D468BB0002853D0002951D04E
S21400A1E0002A4FD0002B4DD0048804F44F43B3F51B
S21400A1F0824F03D06FF085000BB0F0BDE3B224F0C1
S21400A200FF04B4F5E24FB0F802C0F3D1122B01D030
S21400A210172BEFD10CF10701B2EBD10F4FEAD107A4
S21400A22033D31D4A04ACBCF5807F07CA84E8070018
S21400A230E0D1122B07D1194B1A691B681344CDE9DC
S21400A2400432002306930023CDE907670993FFF73E
S21400A250A7FB0028D0D1124A02AB92E8030083E89D
S21400A26003000AAB13E903008DE80300079B94E89C
S21400A27007001BF029FA0446FFF79EFB204307D190
S21400A2802F60B9E76FF08600B6E76FF08900B3E796
S21400A2906FF09200B0E700BF5400030068000300B0
S21400A2A0C00103002DE9F0438FB01D46DDE916C658
S21400A2B000285CD000295AD0002A58D0002B56D04F
S21400A2C0BCF1000F53D0002E51D0038803F44F4446
S21400A2D0B4F5824F51D1DCB223F0FF03B3F5824FC1
S21400A2E040884AD0122C01D0172C46D1C31DB2EBA1
S21400A2F0D30F4FEAD3083AD34FEA4802571C6745B4
S21400A30038D8B0F5807F38D1122C18BF4FF000092E
S21400A3104FF0000308BF1C4CCDE9081805F10101F9
S21400A32014BF4C46D4F80C90CDE90B120A930D934B
S21400A330FFF736FBC0B9CDE9058902AB08AA07CA04
S21400A34083E807000EAB13E903008DE803000B9BC0
S21400A35094E807001BF0D7F90446FFF72DFB2043CF
S21400A3600ED104232B7037600FB0BDE8F0836FF07A
S21400A3708600F9E76FF08900F6E76FF08500F3E7EF
S21400A3806FF09200F0E700BF680003002DE9F0438D
S21400A39089B00E4615461F46DDF8488020B96FF096
S21400A3A0860009B0BDE8F0830029F8D0002AF6D070
S21400A3B0B8F1000FF3D0038803F44F42B2F5824F92
S21400A3C002D06FF08500ECE7DAB2122A01D0172A25
S21400A3D0F7D123F0FF03B3F5E24F41D14488C8F824
S21400A3E0004044B9EB00B3F5807FC8F80030E8D1F0
S21400A3F0122A0DD108E0E31DB5EBD30FCFD1B4F58B
S21400A400807FDED1122A29D1354B1C681B691C447B
S21400A4100023194670192C4414F801CD10F8012DAC
S21400A4201143B2EB0C020CBF4FF0FF3C4FF0000C98
S21400A43086420CEA030343EA0203EDD10029AED0BC
S21400A440002BACDA109B9D4246D82A463146384649
S21400A45024F0B9FB119B00201D60A2E70024D7E77B
S21400A4603378042B9BD16B1EDB005B08B3F5807F33
S21400A470C8F80030A5D1122A06F1010318BF4FF024
S21400A48000094FF0400205934FF000030ABF144C3A
S21400A4904C46D4F80C90CDE90623FFF781FA002845
S21400A4A07FF47FAFCDF80C90D8F800300733DB0888
S21400A4B0029308AB13E903008DE80300059B94E8BC
S21400A4C007001BF0CDF90446FFF776FA00287FF464
S21400A4D068AF002CB6D062E76FF0890061E700BF76
S21400A4E0680003000388B3F5105F0ED14388DB08CD
S21400A4F0103B102B0CD8084A22FA03F313F0010F76
S21400A50014BF00206FF0860070476FF0850070471C
S21400A5106FF08600704700BF010101002DE9F04F83
S21400A5208FB01546DDE918A91E46DDF868801C9F29
S21400A53009B300B3B8F1000F1DD0E7B1BAF1000FB0
S21400A54002D1B9F1000F16D1274B26F47E129A429B
S21400A550B0F802B044D1FFF7C5FF0446A8BBB5EB80
S21400A560DB0F4FEADB0306D316F47C1FC6F3054564
S21400A57004D0102D03D96FF0860426E010251B9A10
S21400A58095422AD8CDE9011300231022CDE9059380
S21400A5900DF12809CDE9033ACDE90823CDF81C9042
S21400A5A0FFF7FEF9044680B907AA04A901A8FEF73A
S21400A5B071FE0646FFF700FA044656B958B92A4611
S21400A5C04946404624F0FFFA3D6020460FB0BDE8FD
S21400A5D0F08F6FF092040025F6E76FF08904F4E739
S21400A5E06FF08504F1E700BF0002C0032DE9F041DB
S21400A5F0069F0C461646054610B309B302B9FBB9CA
S21400A6006288B3EBD20F4FEAD20819D34C2200214E
S21400A610284624F0CDFA0D4B27F47E129A4212D12A
S21400A6202046FFF75FFF044638B942463146281DEC
S21400A63024F0C9FAC5F824802F602046BDE8F081D2
S21400A6406FF08604F9E76FF08504F6E70002C003B2
S21400A6502DE9F0410E4614460546002840D0002954
S21400A6603ED092B10368214823F47E1383423AD148
S21400A670AF6BF7B1C7F1100807F128004245284430
S21400A68006D2274424F09FFAAF630020BDE8F0818D
S21400A690424624F098FA1022103C3C19AA63F4D0E3
S21400A6A0284605F128011BF084FA0028EED146441E
S21400A6B0A863102C0CD9671E27F00F073A463146C0
S21400A6C028461BF076FA0028E0D1E41BDDD03E4495
S21400A6D02246314605F1280024F075FAAC63D4E72B
S21400A6E06FF08600D2E76FF08800CFE70002C00365
S21400A6F02DE9F04388461F4605468BB070B169B118
S21400A70063B10368234923F47E1088423ED113F4D4
S21400A7107C1FC3F3054604D0102E03D96FF08604C1
S21400A7202AE0102696422BD8FFF73AF9044618BBC3
S21400A730AB6B05F12802CDE901236B6A2A1DCDE932
S21400A74004231023CDE9083007AB1A460390069081
S21400A75005F13C0901A904A8CDF81C90FEF7BEFD42
S21400A7600546FFF729F904466DB928B93246494629
S21400A770404624F028FA3E6020460BB0BDE8F08341
S21400A7806FF08904F8E76FF09204F5E76FF0850440
S21400A790F2E700BF0002C00307B56B46054A106823
S21400A7A0516803C36846FDF75DFF002003B05DF8FF
S21400A7B004FB00BFD401030013B50024064A684614
S21400A7C0536F43F00103536700948DF80440FDF780
S21400A7D081FE204602B010BD0040005030B58BB060
S21400A7E06C46174D0FCD0FC40FCD0FC495E8030070
S21400A7F084E80300134BD3F84C2112031CD5A3F5B1
S21400A800FE431C884FF6FF739C4208BF8C248DF8CD
S21400A8101940FDF79BFC204480F308008DF81800D3
S21400A8200948FCF703FB6846FDF7B0FB3220FDF74E
S21400A830C5FC00200BB030BDD3F85041E4B2E6E7CB
S21400A840DC0103000080E00F00F049026FF0040313
S21400A850502110B50A480B4C13F0800F03F101028B
S21400A86007D12344402A83F800131346F4D100206E
S21400A87010BD03F00F03043B034419761346EBE7C1
S21400A88000ED00E000E100E010B504461AF0CCFC54
S21400A890024B1C601AF0CCFC002010BD741D00207A
S21400A8A010B51AF0C1FC034B1C681AF0C1FC204618
S21400A8B010BD00BF741D0020034B02221868002341
S21400A8C08068194619F06CB8200C002030B5144684
S21400A8D0054687B010461BF044FA63690246834279
S21400A8E03CBFD4E903315B181B1A7BB10F490494B3
S21400A8F003910021CDE90131012300932846D4E9D4
S21400A90000131AF05CFB002007B030BD012262760F
S21400A91094F82D20002AF6D084F835301321E36908
S21400A920204698472046636A9847ECE7CDA8000083
S21400A9302DE9F04788B004460F46164698461AF0AA
S21400A9407AFC8146002E7AD0237E03F0FF02002B8D
S21400A95000F0A28020461BF004FA6569A84205D1E3
S21400A960637ED4E9033213445D1B01E0F9D9451B2D
S21400A970B54228BF35461AF05EFC94F82D30824664
S21400A980002B6DD12A463846616924F01CF96369AC
S21400A9902E462B44636121E0037803F0FD01112964
S21400A9A05BD1216B814205D1A3F111014B424B4192
S21400A9B084F83430013E6369216B01328B4203F127
S21400A9C0010308BF2363636195426069E4D1D4E95B
S21400A9D00323216B1344994200D122630025D4E956
S21400A9E0032361691344994208BF6261207A657641
S21400A9F0FCF728FE20461BF0B4F96369834232D187
S21400AA00257694F82D30E568656103B12563204608
S21400AA10636A9847214B04940393002302932369A7
S21400AA202A4601930123009363682168207A1AF06E
S21400AA30C6FA207AFCF726FE50461AF002FC484674
S21400AA40C8F800601AF0FDFBD8F80030002B0CBFE9
S21400AA501B20002008B0BDE8F08707F8013BAAE7F6
S21400AA602E460022B0E70123207A23760DF11E0140
S21400AA70FCF770FE9DF81E30002BDAD00DF11F019A
S21400AA80207AFCF73FFE9DF81F100029D1D1224600
S21400AA90207AFFF71BFFCCE71646D0E7CDA80000CC
S21400AAA0002807DB01234109034A00F01F0083400A
S21400AAB042F82130704700BF00E100E0002808DBC4
S21400AAC001224309034900F01F008240603341F829
S21400AAD02320704700E100E070B504460568FFF7E4
S21400AAE0DFFE844202D10020FFF7CEFE95F93660E5
S21400AAF03046FFF7E3FF002E0CDB012219497309ED
S21400AB0006F01F06B240203341F82320BFF34F8FD4
S21400AB10BFF36F8F95F937603046FFF7CFFF002EF3
S21400AB200CDB01220F49730906F01F06B2402033E2
S21400AB3041F82320BFF34F8FBFF36F8F287AFCF7BF
S21400AB40C1FD287AFCF724FDFCF700FD002328460B
S21400AB50C4E90033C4E90433A360AB6ABDE87040BF
S21400AB60184700BF00E100E02DE9F0430C4615460B
S21400AB70064687B04022002120461F4624F018F8DB
S21400AB8095E8030000232A692376EB6884E803002F
S21400AB90C4E904232A7DE36084F82C20AA7D23637D
S21400ABA0012384F8343084F835300E9B84F82D2049
S21400ABB023620F9BE7616362109BA3622B7A84F883
S21400ABC036306B7A84F837302D4B346073602D4BFB
S21400ABD0B3602D4B33612D4B73612D4BF360FCF747
S21400ABE0FDFC38B12B4B984204D01024204607B009
S21400ABF0BDE8F083002104F10800FCF777FC074667
S21400AC000028F2D14FF00108234B3362234B84F81F
S21400AC103C80B361224BF3619DF8483084F83900DC
S21400AC2084F83B309DF84430204684F83A30697DFD
S21400AC3084F838801BF0A5F895F909904846FFF788
S21400AC403DFF4846FFF72CFF164B0494CDE90273F0
S21400AC502369CDE900836368E2682168207A1AF0E8
S21400AC60AEF904460028C0D195F908502846FFF7EB
S21400AC7025FF2846FFF714FF3046FFF705FEB5E729
S21400AC80D35D020031A90000515D0200575D02004D
S21400AC90D9AA0000038000F02B5D0200835D02004D
S21400ACA05D5D0200CDA800002DE9F04101271C469D
S21400ACB0584B86B00293584B0C9D0193574B9046C9
S21400ACC000930A46CDE903772946554BFFF74CFF1C
S21400ACD00646002840F09680236839462B64636851
S21400ACE03A206B64637A85F84930237A85F84830D1
S21400ACF0E37A85F84B30A37A85F84A30637B85F88B
S21400AD004D30237B85F84C30E37B85F84F30A37BB2
S21400AD1085F84E30FDF736F83B460422617A207AF5
S21400AD20FDF734FD3B460222E17AA07AFDF72EFDC0
S21400AD3039466068FDF726F888F8006041462068C6
S21400AD40FDF78AFF1422637C5B0103F1A04303F541
S21400AD507033C3F81C26617A227A42EA0142C3F8AD
S21400AD603426E17AA27A42EA0142C3F82C2685F814
S21400AD70506098F81930032B4AD8DFE803F03447C0
S21400AD80021C022385F8503000230422E17BA07BBE
S21400AD90FDF7FCFC022741F21C61627C214B03EBB1
S21400ADA042104750E07BA17BB13241EA004103EB01
S21400ADB04213996017E0012785F8503002220023DD
S21400ADC0617B207BFDF7E2FC637B227B617C42EAB1
S21400ADD00342154B49015A500422236803F5805359
S21400ADE0DA65002FD0D1237A2A6C85F84830637A4A
S21400ADF0052185F84930D36C206843F00403D364FA
S21400AE001AF042FA304606B0BDE8F0810027D3E7D4
S21400AE102326F7E7015F0200F55E02008D5F020061
S21400AE20815F020000C0035024D60350BFF35F8F3B
S21400AE30074B5A6A22F480325A62D3F8942022F0E2
S21400AE400102C3F89420BFF34F8FBFF36F8F704794
S21400AE5000ED00E070B52948294CFFF7E7FF844273
S21400AE60284D294919D1D5F8C03023F0FF0343F007
S21400AE70A003C5F8C0304FF080430A68214D234E2A
S21400AE80C5F8982043F0010301328442C5F89C605F
S21400AE90C5F8A0300A601ED00DE0D5F8C02020F01E
S21400AEA01F03203B22F0FF0242F0A002B3F1005F36
S21400AEB0C5F8C020E1D2164B0A68124823F01F03DB
S21400AEC043F00303C0F89820C0F89C30114B0132C1
S21400AED0C0F8A0300A60BFF35F8F0522094BC3F8A5
S21400AEE094205A6A42F480325A62BFF34F8FBFF3FF
S21400AEF06F8FBFF34F8FBFF36F8F70BD3C0D002079
S21400AF00140F002000ED00E0781D00200300002054
S21400AF10330F0020E1FFFF3FF8B51446FFF786FF2A
S21400AF201F2C27D90027C2062A4D1CBF20F01F0061
S21400AF3020302A68CB06284B18BF21F01F01FCB230
S21400AF40A2422BD8D3F8C04020F01F0024F47F4440
S21400AF5044F4807421F01F01C3F8C04040F00300A1
S21400AF60C3F8982041F003010132C3F89C00C3F8EF
S21400AF70A0102A600020BFF35F8F0522164BC3F88F
S21400AF8094205A6A42F480325A62BFF34F8FBFF35E
S21400AF906F8FBFF34F8FBFF36F8FF8BDC3F8984026
S21400AFA0D3F89C40D3F8A06024F01F04A04226F0FB
S21400AFB01F0601D1B142DDD0B04201D8A14207D26E
S21400AFC0D3F89840013724F0FF04C3F89840B6E75A
S21400AFD02820D0E7781D002000ED00E0BFF34F8F5B
S21400AFE00549064BCA6802F4E0621343CB60BFF320
S21400AFF04F8F00BFFDE700BF00ED00E00400FA053C
S21400B000054B1A782AB95B78002B0CBF0320022068
S21400B01070470120704700BF6B2B00200329F8B54E
S21400B02098BF124B05460E468CBF00245C5C032876
S21400B03005D8DFE800F002080B0E44F002040C4BC3
S21400B0401F684FB9F8BD44F00804F8E744F0200440
S21400B050F5E744F08004F2E77B681A68144203D0F0
S21400B060314628465B6898473F68EAE704020300D3
S21400B070A81D002038B5104D2B78ABB10F4C2378A7
S21400B0801BB100F0B7FB0023237000201AF0E7FF87
S21400B0900B4C50B100F000FC0023012120782B70EF
S21400B0A0FFF7BCFF0123237038BD0122054B1A7041
S21400B0B02278054B1A70F7E7662B0020642B0020D9
S21400B0C06D2B0020672B0020682B002010B51AF08F
S21400B0D0ABF8064B04461B781BB1BDE810401AF0CF
S21400B0E0A7B8FFF7C7FF2046F7E700BF632B00208F
S21400B0F0094A137830B101331370084B1B78012BC3
S21400B10003D87047013B13707047054B1B780BB98B
S21400B110FFF7B0BF704700BF6B2B00206D2B0020E1
S21400B120672B002070B51AF07FF8124E054633786C
S21400B1309BB900F0EDFC044620B128461AF078F8DA
S21400B140204670BD0C4819F07FFE00F047FF0B4B01
S21400B1501C6000F0A9FD0A4B186000F02BFA1AF0EC
S21400B16080FF084B002418600123284633701AF02D
S21400B1705FF8E5E76E2B0020A81D00207C1D002050
S21400B180A41D0020801D00202DE9F843284A013820
S21400B190135C39B1274F013339781354012904D889
S21400B1A0BDE8F883013B1354FAE7FFF729FF0128AF
S21400B1B0044635D81AF038F8DFF88480054698F843
S21400B1C0003013B31C4E33781BB9012232701B4A71
S21400B1D01370DFF8709099F8003023B100F00AFB86
S21400B1E0002389F8003028461AF022F801201AF0C9
S21400B1F036FF1AF019F8337805461BB100F04CFB01
S21400B20000233370002388F8003028461AF010F820
S21400B2103878A042C4D02146FFF700FF3C70BFE755
S21400B2200329F5D10228F3D11AF01FFFF0E700BF7B
S21400B2306B2B00206D2B0020632B0020672B00203B
S21400B240662B0020642B002010B5044619F0ECFF96
S21400B250002C0CBFFF210121064A13780B44DBB2F9
S21400B2601370B3FA83F3BDE81040034A5B0913700A
S21400B27019F0DEBF6A2B0020692B002038B519F0C4
S21400B280D3FF094B05461B78012B04D819F0D0FFD5
S21400B2900024204638BD054B1C6800F047FB0444DC
S21400B2A0284619F0C5FFF4E76D2B00207C1D002012
S21400B2B038B54160044619F0B7FF054621460448F4
S21400B2C019F0C5FD2846BDE8384019F0B1BF00BFEB
S21400B2D0A81D0020054B1B685843054B00F574203D
S21400B2E000F23F20B0FBF3F0704700BFA41D002023
S21400B2F040420F002DE9F04F85B0EFF3108772B68D
S21400B300AFF3008019F019FD00286FD0804EDFF8EB
S21400B3102C82337823B10020FFF7EAFE0023337037
S21400B320FFF76EFE0446002867D0841EE4B2012CA8
S21400B3306AD9FFF765FE01280546764CDFF80092CD
S21400B34000F28C802078854240F0C680207800F09D
S21400B350D7FA99F8003013B16F4B1B782370AFF310
S21400B360008007B962B6EFF3108772B66B4B1A7897
S21400B37052B100221A70684B20781B78984203D18D
S21400B38001212170FFF74AFE654800F0FBFB19F02B
S21400B390DEFC05460028BCD1624BDFF894811870AD
S21400B3A098F80030ABB189F80000DFF88C9199F876
S21400B3B000301BB100F01EFA89F8005000201AF089
S21400B3C04EFE002800F09B8000F066FA002388F806
S21400B3D00030337823B10020FFF78AFE0023337055
S21400B3E000212078FFF71AFE00232370AFF30080B9
S21400B3F007B962B605B0BDE8F08F3378002B98D059
S21400B400FFF776FE347094E7002003A900F008FCEE
S21400B410044600288DD1D8F80030039A9A4205D801
S21400B4200120FFF765FE0123337082E73E4B1D685F
S21400B43000F07CFA039B05449D42F1D200F08EFAA0
S21400B4408200039942F0020292B2CDE900422346FE
S21400B450364A491B32481AF009FE6AE7344BDFF8D1
S21400B460C4A093F800B0BBF1000F25D100F046F958
S21400B4702078854230D19AF800307BB92C4D2B7855
S21400B480002B7FF463AF2B4B1B7823B900F0ACF98D
S21400B4900122294B1A7001232B7057E7022DEDD19C
S21400B4A08AF800B015E02378022B25D100238AF80D
S21400B4B0003023F014F81FE0207885420CD19AF86B
S21400B4C00030002B3FF442AF022DD7D100238AF87C
S21400B4D0003023F004F8D1E70023DFF848A08AF80C
S21400B4E0003099F8003013B92946FFF797FD9AF80F
S21400B4F000302570002BD6D1012DBFD826E70120BD
S21400B50000F0FEF907B962B6EFF3108772B655E79A
S21400B510652B00206D2B0020682B0020612B00205F
S21400B520841D0020692B00207C1D0020CDB000006B
S21400B530662B00206A2B0020642B0020801D002034
S21400B540672B002010B519F06FFE0022044B1C7804
S21400B5501A7019F06DFE00F087FC2043C0B210BDD3
S21400B560622B002073B5114E0446337883420FD009
S21400B5704FF400730E4DADF8043058B101A8FCF737
S21400B58045FF4020FFF7A6FE2B68181A2860347087
S21400B59002B070BD8DF8050001A8FCF737FF40200B
S21400B5A0FFF798FE2B681844F0E700BF220D002036
S21400B5B0E01D002073B5002401A88DF80440FCF7B8
S21400B5C0EBFF2046FFF7CEFF404A4149136F414844
S21400B5D003F007030B60D2F800113F4D01F00301A2
S21400B5E001604FF400203D49032B48664FF40030BD
S21400B5F0486601F598318969C1F3400129705DD02C
S21400B600D2F8203103F00303981E43424341D2F898
S21400B6102421334C02F00702022A08BF43F001033C
S21400B6204FF4C8702370FFF755FE00222D4B2E49AD
S21400B63018602E4E0B680132D2B20A2A46F8040B66
S21400B640F9D1034400EBC00003440B602B78284D6F
S21400B65063B323781D4A3BB9D2F8003103F00303E5
S21400B660591E4B424B412370D2F8003103F00303BE
S21400B670022B25D0032B26D0012B17D1FBF7D0FBAE
S21400B680024698B11B4B1C4EDC6800231946C4F3D7
S21400B6900B04013404EB84040138E4FB060117F0C4
S21400B6A07BFEFFF717FE2B6803442B601F20FFF777
S21400B6B011FE2B6803442B6002B070BD0123A6E781
S21400B6C0FBF7C8FBDCE719F076FBD9E700800050F3
S21400B6D0E41D0020E81D0020722B00200090005082
S21400B6E0732B0020AC1D0020B01D0020B41D0020D0
S21400B6F0E01D002000C0015040420F00074A0849E4
S21400B700D2F8203103F003030B60D2F82431054A47
S21400B71003F00703136019F099BD00BF00800050C6
S21400B720F01D0020EC1D002008B5104B1A78C2B1A1
S21400B73000221A700E4B1A6F22F0070242F0010226
S21400B7401A67D3F8202142F00302C3F82021D3F869
S21400B750242122F0070242F00302C3F82421FBF75B
S21400B76049FB0122034B5A6708BD00BF712B00201E
S21400B7700080005000E000500122154B10B55A67BB
S21400B780144B154C1B7813B302201AF0D3FCF0B1FF
S21400B79000F076FAD8B1A36DD90302D5E36D9A0707
S21400B7A015D40D4B9B6DDB0711D401220B4B1A7081
S21400B7B01AF09FFCBDE81040094B0A4A1860136F48
S21400B7C023F0070343F003031367FBF713BB10BD17
S21400B7D000D00050732B002000C00050702B0020BB
S21400B7E0DC1D0020008000500122014B1A707047BB
S21400B7F0712B0020F8B51F4B1B78002B39D01E4C40
S21400B8002378B3B91D4B9A6DD10302D5DA6D920732
S21400B8102FD49B6DDB072CD41AF06BFC184B194AFF
S21400B8201860136F23F0070343F003031367FBF757
S21400B830E1FA1AF05EFC124B134D1B68134EC01A49
S21400B8402B78134F56F8232046F82300111A3A682F
S21400B8501048521A0A213A600932B2FBF1F201335B
S21400B860DBB20260B3FBF1F201FB12332B70002354
S21400B8702370F8BD732B0020702B002000C00050F2
S21400B880DC1D0020008000506F2B0020B41D00201F
S21400B890B01D0020AC1D002008B519F0DAFC124BD4
S21400B8A012491A6F096822F007020A431A671049FC
S21400B8B0D3F82021096822F003020A43C3F82021A6
S21400B8C00C49D3F82421096822F007020A43C3F87A
