S01E0000626F6F746C6F616465722D6170706C6F616465725F646B2E73333798
S1130000081000202F9E00002D9E0000E79F000096
S11300102D9E00002D9E00002D9E00002D9E0000B0
S11300202D9E00002D9E000034BA00002D9E00007D
S11300302D9E0000E4B900002D9E00002D9E0000BE
S11300402D9E00002D9E00002D9E00002D9E000080
S11300502D9E00002D9E00002D9E00002D9E000070
S11300602D9E00002D9E00002D9E00002D9E000060
S11300702D9E00002D9E00002D9E00002D9E000050
S11300802D9E00002D9E00002D9E00002D9E000040
S11300902D9E00002D9E00002D9E00002D9E000030
S11300A02D9E00002D9E00002D9E00002D9E000020
S11300B02D9E0000318700002D9E000079910000E4
S11300C0DBB80000D7B8000069890000E7B8000079
S11300D0DFB800004D910000E3B80000B9910000C2
S11300E0B572000005730000299200002D9E0000E7
S11300F02D9E00002D9E00002D9E00002D9E0000D0
S11301002D9E00002D9E00002D9E00002D9E0000BF
S11301102D9E00002D9E00002D9E00002D9E0000AF
S11301202D9E00002D9E00002D9E00002D9E00009F
S11301302D9E00002D9E00002D9E00002D9E00008F
S113014070B506468AB02C480BF07AF82B482C4B35
S1130150002103602B4B2C4C436003F075FF24A358
S1130160D3E900232060CDE900234FF0FF334FF0A3
S1130170FF320BF0EDF802224FF0FF3120680BF054
S1130180E9F800239422CDE9073309933C23CDE910
S113019003320593962303A92068069303F0EEFF28
S11301A00AF09EFA2546014620680BF0E8F820681C
S11301B00BF052F9B6F9001055F8080B0BF0F4F8EF
S11301C0766866B928460AF0BEFDA37B66F3000391
S11301D0A3732023238402F0A1F90AB070BD306810
S11301E0A060B288B379AA80AB71F2E7AFF3008064
S11301F00855005100000000690345EC281A00204E
S11302004D360000381A0020481A00200348044BD9
S1130210834202D0034B03B118477047B423002034
S1130220B423002000000000064B0749C91A8910B6
S113023048BF0131491003D0044B0BB101481847A2
S1130240704700BFB4230020B42300200000000046
S113025010B5064C237843B9FFF7D8FF044B13B10C
S11302600448AFF300800123237010BD0423002051
S1130270000000008CF9000008B5054B1BB10549CE
S11302800548AFF30080BDE80840FFF7CDBF00BFCD
S113029000000000281200208CF9000010B5234C47
S11302A001F082FC01F08AFD236F012023F0070393
S11302B043F0030323670AF001F91D4B00209B6AF6
S11302C09B075EBF01221B4B9A62D4F8203123F0B6
S11302D0030343F00203C4F82031D4F8243123F09B
S11302E0070343F00203C4F82431D4F8403123F067
S11302F0030343F00103C4F84031D4F8603123F020
S1130300030343F00103C4F86031D4F8403223F00E
S1130310030343F00103C4F84032D4F8003223F05D
S1130320070343F00103C4F8003210BD00800050FD
S113033000C0005000E00050064B0748DA1C121AB7
S1130340C11E22F00302994288BF002203490BF028
S113035012BB00BFB42300203C230020A0F90000FE
S1130360064B0748DA1C121AC11E22F003029942F6
S113037088BF002200210BF0F6BA00BF3C23002006
S1130380081000200348044A0449121A921009F084
S11303905BBD00BF40010000400100003C23002081
S11303A04FF400414FF0FF30124B134A10B59A60DE
S11303B0D3F8882042F47002C3F888200F4A91666B
S11303C001F1884101F5005210664FF6DF70506666
S11303D00220C3F8D000BFF34F8FBFF36F8F082400
S11303E04FF440330648C0F88041D36004600B6189
S11303F010BD00BF00ED00E00000000000900050C0
S113040000E100E0014B1868704700BF4023002062
S1130410084B1B6F03F00703022B04D0032B05D0FA
S1130420012B05D0FEE7044B18687047034BFBE72C
S113043003487047008000504023002048230020D8
S1130440002D310108B5FFF7E3FF054B1B6FC3F324
S113045003330133B0FBF3F0024B186008BD00BF57
S1130460008000503C2300200048704700B4C404BE
S1130470014B1868704700BF48230020054B1860E3
S1130480054B1B6F03F00703032B01D1FFF7DABF02
S1130490704700BF48230020008000500048704788
S11304A0002D3101014B1868704700BF4423002020
S11304B010B5154BADF5087D03AC0FCB84E80F00E8
S11304C02C22002107A80BF04EFAFF234FF494725C
S11304D000213EA88DF81D300BF045FA482200217A
S11304E00DEB02000BF03FFA6822002124A80BF068
S11304F03AFA009424AB12AA3EA907A800F0E2F845
S11305000DF5087D10BD00BFB8B900000122044BF1
S11305101A700023034A1370034A1370704700BF14
S1130520072300200623002005230020002238B5DD
S1130530134B144C1A700122134B1A7023689A78C7
S1130540EAB1DA78DAB11A78510707D5986A09F06E
S113055029FD18B14FF4C03000F0B4F923681A78BB
S113056092070CD55D6809F005FD854207D923681B
S11305704FF4C030596ABDE8384000F07BB938BD4B
S113058007230020581200200623002007B5024646
S113059001200B460649087006490748096800917E
S11305A006490068096800F0C9FB03B05DF804FB64
S11305B0052300205412002050120020581200205D
S11305C0044A05490548202312680968006800F0B8
S11305D07BBB00BF481200204C12002050120020A8
S11305E0094B1A68D37892782AB1002B41F20C0097
S11305F018BF0020704741F20C0240F20570002B36
S113060008BF1046704700BF5812002008B5FFF716
S113061045FE01F04BFF01F039FF01F04FFEBDE84C
S1130620084001480AF000BB4012002010B5234BDB
S1130630234C18681B7992B08DF80C3023880290F3
S1130640ADF80D30A37868468DF80F300AF0FAFA49
S113065041F60833ADF810309DF80630BDF804209B
S1130660C3F300038DF8183040F60223ADF82830A8
S113067000230098ADF816208DF82A30CDF812002A
S113068002F0EEF902F0F2F92046032102F0F4F947
S113069002F0FAF902F0DEF9112102A80AF0E6FAF2
S11306A003210AA80AF0E9FA01200AF0EDFA002869
S11306B040F2017008BF002012B010BDC8B900009C
S11306C0CEB9000070B5134C134E20601348144D7E
S11306D0016014490A60144A1360049A134B1A60A7
S11306E033780BB10AF0ACFA2B78002BF8D0104B0E
S11306F01B784BB123689A784AB1DB7840F20570D5
S1130700002B18BF002070BD40F20370FBE740F2DD
S11307100570F8E75812002007230020501200202B
S1130720062300204C1200204812002054120020FE
S113073005230020F0B5421ED11C034685B018D80D
S11307406E460D4C04F11007354620686168083484
S113075003C5BC422E46F7D104A90F3311F8014D4D
S113076012F8010F844204D19A42F7D1012005B056
S1130770F0BD0020FBE700BFD2B90000F0B503686C
S1130780044603F16043B3F5004F4FF000009FB0FF
S113079029D8826A636816699E4224D8B3F5B02FBB
S11307A021D8656B06F14003AB425ED8B5F5B02F96
S11307B05BD82846FFF7BEFF002856D0284609F02C
S11307C0BFFB80B16B6973B1022B0ED1AB69C4F16D
S11307D0040119444FF0FF32204600F0F9FD244B88
S11307E0C31A584258411FB0F0BD40F20463284672
S11307F00293FFF79FFF08B90020F4E700235F6B23
S11308003846FFF797FF0028F6D0A6F150039F4221
S1130810F2D8284603A909F09AFB0028ECD0039DDE
S1130820AE42E9D8AC42E7D8B5F5B02FE4D804A875
S113083000F08AFE21462A1B04A809F0F9FC04A84A
S113084009F0F8FC00F094FE044600F095FE2346FF
S11308500090294605F1200204A800F0FBFD029057
S11308600298B0FA80F04009BDE70120BBE700BF61
S1130870E320BBDE30B54FF0FF3289B005460C46AD
S113088000F0A6FD0D4B984215D140F2022000F075
S11308900DF91C22002101A80BF065F8084B29462C
S11308A06846009309F022FE6846211F09F01EFEE7
S11308B0684601F02BFD002009B030BDE320BBDE0B
S11308C00100064310B5044688B040F2022000F04F
S11308D0EDF81C22002101A80BF045F8054B214638
S11308E06846009309F002FE684601F00FFD0020FF
S11308F008B010BD0000034310B501F049FC012805
S11309000DD1214B04205A6E4FF480231F494B66AE
S113091001F51041086250035CBF1D4A53661D4B2C
S1130920D3F88420110606D44FF400621A67D3F872
S11309308420D206FBD409F048FB00F0A1F809F0AA
S113094096FA09F096FA18B14FF4017000F0BAF86B
S1130950FFF7AEFD044609F08EFA34B940F20120E7
S113096000F0B0F84FF4017009E040F203739C42C8
S1130970F4D0A4F20574012CF4D840F2032000F062
S1130980A1F8002010BD00BF00800050009000506E
S113099000A0005000400050012337B58DF8063008
S11309A08DF80730314BD3F894305A060FD500F048
S11309B09DF8A0F2022080B2072808D8C923C340BA
S11309C0DB0742BF00238DF806308DF807304FF463
S11309D090335B68013308D14FF4027000F066F87D
S11309E000238DF806308DF807309DF8073063B189
S11309F04FF49030FFF7C2FE8DF806009DF80630E4
S1130A001BB94FF4027000F051F89DF8063053B34F
S1130A104FF400424FF0FF31154B9A6603F17443D3
S1130A2019664FF6FF7159660021124BC3F8D010B6
S1130A30BFF34F8FBFF36F8F08250F4CC4F880505E
S1130A40BFF34F8FBFF36F8F4FF440300B490861F2
S1130A50C4F88051C8604FF4903001F140618A6657
S1130A60986009F0B6FA03B030BD00BF00400050F2
S1130A700090005000ED00E000E100E000A0004420
S1130A804CF23C32014B5A80704700BF00000020FA
S1130A904AF6C030044B5B8823F00F039BB21B1A49
S1130AA058425841704700BF00000020044A08B56E
S1130AB01080FFF7EDFF10B94FF20F03538008BD0C
S1130AC00000002008B5FFF7F1FFBFF34F8F054981
S1130AD0054BCA6802F4E0621343CB60BFF34F8F47
S1130AE000BFFDE700ED00E00400FA054FF20F013E
S1130AF0084B5A888A4201D1188870473AB91B8832
S1130B0040F20220012B18BF4FF4007070474FF4DD
S1130B1000707047000000204FF4003208B5044B09
S1130B209A6601F085FAB0FA80F0400908BD00BF6A
S1130B3000900050072BF8B506460F4614461D4694
S1130B4001D90020F8BD0121202000F053FF01212C
S1130B50212000F04FFF8CB144EA06039B07F0D13B
S1130B604FF40032064B31469A66284623463A46ED
S1130B7001F088FAB0FA80F04009E3E70120E1E7E8
S1130B800090005030B5024600230C25054905FBB2
S1130B9003F460180C59944203D001330C2BF6D1A2
S1130BA0002030BD7CBA0000F0B50023082787B0D0
S1130BB0CDE9013315463B46009704AA044609F0E3
S1130BC0A5FA41F203039842064623D194F8433030
S1130BD053B13A46E06C04A909F02AFB04AA3B4647
S1130BE01146A06C09F013FB059A049B6A6094F803
S1130BF043202B6052B9094A934207D0084A9342D2
S1130C0004D00822E06C04A909F012FB6B68236588
S1130C1000236365304607B0F0BD00BFF70A0AF74A
S1130C20FC0404FC2DE9F04799465B6804460F4632
S1130C309046002B3ED011F003033ED19B6A006E18
S1130C401B6981181D1DA9421BD31C33984218D25D
S1130C50A842024638BF2A46994294BFC2EB010A11
S1130C60C2EB030A101A3E18C5F16800104431465D
S1130C70524620440AF07FFE5246FF2130460AF0D5
S1130C8072FE226E0E4B9A420BD80E4902EB0800FC
S1130C90884206D99B1AFA58C4F880204FF0FF32D4
S1130CA0FA50D9E9003542463946206EA847236EEA
S1130CB0434423660020BDE8F08741F20200FAE7CE
S1130CC004800100078001002DE9F04100254FF068
S1130CD0FF3704468846164603F0200380F8423066
S1130CE01822FF21C0E91855A0F8405080F843505D
S1130CF0A0F8445080F84650C0F8887068300AF074
S1130D0032FE88222946C4E91286C4F88070C4F8E9
S1130D10847004F190000AF026FE074BC4F8207199
S1130D20C4E9463584F8245116B1304600F00CFC71
S1130D300020BDE8F08100BF000101012DE9F04F62
S1130D40A5B09946CDE91123002304460E464FF081
S1130D5001082E9D1393139978E094F846300C2BD8
S1130D6070D8062B4BD908FA03F212F4286F40F01E
S1130D700B8212F4885F40F0B7810A2B66D1DFF84A
S1130D80B4A3636D072B00F228814FF0080B3823BE
S1130D9016AA2046CDE90188CDF800B011A909F0C2
S1130DA0B5F941F203030A900A9A9A4200F03F818E
S1130DB00A9B5BE0A3F10E02052A00F28F82DFE8B2
S1130DC012F000030600F50032023202FE02002790
S1130DD0636D0F2B00F28A80102314AA009320461F
S1130DE04023CDE9018711A909F090F941F20303E9
S1130DF00890089A9A4200F0CB80089B36E0013BA9
S1130E00052B27D8DFE813F074006E000600C0013C
S1130E10DC0078010127636D072B00F2DE800823D4
S1130E2014AA009320464023CDE9017711A909F0C3
S1130E306DF941F203030B900B9A9A4200F0218161
S1130E400B9B13E0A3F10D02062AB3D9494584D3C1
S1130E50002065E014AA204611A9FFF7A5FE41F27F
S1130E6003020590059B934208D0059B049341F22D
S1130E700303049A9A423FF46EAF50E0159A149912
S1130E80226500226265A94A914240F0058102224E
S1130E9084F84620EAE7082314AA00932046402356
S1130EA0CDE9018711A909F031F941F20303069054
S1130EB0069A9A4201D0069BD8E7149B03F07F431D
S1130EC0B3F1407F05D0132384F8463041F209037F
S1130ED0CCE7159BD90706D594F8423043F00103BB
S1130EE084F842300027636D072BD4D9012300E135
S1130EF0204614AA11A9FFF757FE41F203030790F5
S1130F00079F9F420FD0079F41F203030497049A5F
S1130F109A423FF420AF049B0BB10023F370049872
S1130F2025B0BDE8F08F1498FFF72CFE28B91323E1
S1130F3041F2080784F84630E6E7437994F824211F
S1130F409A4205D9132341F20E0784F84630DBE7B1
S1130F50026877498A4205D00289D20748BF013323
S1130F6084F8243194F84230D9070DD5028994F8D5
S1130F704330920706D53BB1132341F2010784F8AD
S1130F804630C1E7002BF7D0037984F84630BBE73D
S1130F90D4F848A000F0F4FA80230221CDE900033C
S1130FA015AA0123504600F02BFA11E7226D012304
S1130FB0A265002284F84330E26584F84630CAE62C
S1130FC000213C2215A8149101270AF0CCFCD4E995
S1130FD01432934204D884F8467041F2030345E77F
S1130FE0009314AA40232046CDE9017711A909F002
S1130FF08DF841F203030990099A9A4201D0099BA2
S113100034E70DF1500C06F108030DF1680E624649
S113101003CA724518605960944603F10803F6D177
S113102010681860337843F001033370CFE73378E6
S113103043F004033370179BB36273785F071CD5C6
S11310400020236DCDF850A0C4F8843094F84530C6
S1131050606643F0020384F84530EF686FB1042200
S11310602B6814A9B847606E2B685A46EF6816A916
S11310700830B847636E103363660B2384F8463038
S11310807FE63378159A43F002033370149B736040
S1131090236D083B73622AB1132384F8463041F26E
S11310A00103E3E6042384F8463094F8453062668D
S11310B043F0010384F84530ADE6042314AA0093F9
S11310C020464023CDE9017711A909F01FF841F228
S11310D003030C900C9A9A4201D00C9BC6E6226D35
S11310E0149B042A01D923660127636D032BE4D9D9
S11310F0092384F8463070E70023636607235CE71E
S11311009F4251D89F4228BF1F46402314AA20461D
S1131110CDE90188009711A908F0F8FF41F2030313
S11311200D900D9A9A4210D00D9B9FE6EB17A603E3
S1131130F90707F9EB17A65E402F28BF40279F4207
S113114028BF1F4627F00307DFE794F846B0BBF13A
S1131150070F2FD0042FC7F1040A88BF4FF0000AED
S113116014AB5246FF21D8190AF0FDFBBBF1090F5D
S1131170BA442DD12B465246204614A9FFF752FDFE
S11311800D900D9B002BCFD1D4E914739F427FF6B1
S1131190ADAEFF1ADDE912329B1A94F84020032FFA
S11311A01344ADD9032BC7D8204611A908F08DFFED
S11311B000235BE6D5F808A0BAF1000FCAD02B686B
S11311C03A46606E14A9D047636E3B446366DBE71E
S11311D0BBF1040F1DD173789807D5D5EB68002BAC
S11311E0D2D0626E042A0BD80AEB0203062B07D96D
S11311F015AB9B1A1A68C4F884204FF0FF321A60AA
S1131200EF682B685246606E14A9B847636E534466
S1131210DCE7BBF10B0FB7D173785907B4D5EF688E
S1131220002FEED1B0E700218A6A496B1269503A67
S113123091423FF634AF112B0FD194F81831002BA3
S11312407FF454AE41F206030E930E9A9A4202D1F1
S1131250132384F846300E9B08E694F84430002BA0
S11312607FF444AECDE90133402314AA0093204611
S113127011A908F04BFF41F203030E900E9A9A4213
S1131280E9D1E06C08F0D6FF94F81831A3B104F169
S1131290B4030093E06C04F194031CAA14A900F0B5
S11312A0D9F80E900E9BA3B10023F370132384F896
S11312B0463041F20603D9E5D4F84CA000F058F9C1
S11312C0074600F059F93B4600901CAA504614A961
S11312D0E5E70123F37084F8443007E600234FF078
S11312E00408CDE9013314AA40232046CDF8008038
S11312F011A908F00BFF41F203030F900F9A9A42D1
S113130002D00F9B04930AE6D4F888202E4B9A420D
S113131005D0132384F8463041F20503F2E7012394
S1131320F37094F84530DA0707D5EF682FB14246D9
S113133040462B6804F18401B84794F845309B0774
S113134007D5EF682FB104222B68104604F18401FD
S1131350B847236E63B36F6857B34FF0FF3304F19C
S113136080080422414610A810930AF0D2FA20B152
S1131370042241462B681548B84704F16809042241
S1131380494610A80AF0C5FA90B100239B6A1422BA
S1131390D3F8108004F16C0108F10800D5E9003796
S11313A0B847D5E900370422494608EB0200B8479C
S11313B00123B3700E2384F846300023A2E70023F0
S11313C0F37041F20700ABE5E320BBDE04800100CB
S11313D030B50824094B00255C66012403F5FE237F
S11313E05C6001449D601A61DC60884201D1586AE6
S11313F030BD10F8012B1A62F7E700BF00900050CF
S1131400F8B516464FF400521D46114B04469A6631
S11314100222C3F860220F4609F084F8DDE90612BF
S1131420204609F083F8002384F838706362336837
S1131430C4F839307368C4F83D30B368C4F8413037
S11314402B0C6DBA84F84530A4F84650F8BD00BFA3
S1131450009000502DE9F041B0B014460D461A46F4
S11314600646369B002867D0002965D0002C63D03F
S1131470002A61D0002B5FD006214FF40050069162
S11314802F4920AF88660320C1F860020021BE46C0
S113149009910C910F9105F12008F44628686968B8
S11314A00835ACE803004545E646F6D10DF1A00C3D
S11314B004F1200E654620686168083403C574454C
S11314C0AC46F7D10DF1400C654602F1200E2C46D6
S11314D010685168083203C472452546F7D118AC28
S11314E003F12005224618685968083303C2AB4249
S11314F01446F7D14023CDE90A73089320230AAA9E
S11315000E9303AB07CACDF81CC00D9683E8070001
S113151007AB93E807008DE807000DAB0ECB094835
S113152009F0BCFA0690069B40F20460002B08BF49
S1131530002030B0BDE8F08140F20160F9E700BF5F
S1131540009000505CBC00004FF40052074B10B5F3
S11315509A6602220446C3F8602208F06EFE204612
S1131560BDE81040002108F06CBE00BF00900050A0
S1131570004870474C630500004870476C630500E1
S113158000487047866205002DE9F3471446DDE9FB
S11315900A920D461F4600284DD14CB313683F2BC9
S11315A02AD8516851B32549002F14BFB84688463C
S11315B003F03F061B19136022BF536801335360C5
S11315C0FEB93F2C0ED9A3092A46009341463B4657
S11315D0002008F04FFE24F03F031D4404F03F04B4
S11315E034B100262246294609EB06000AF0C3F965
S11315F0002002B0BDE8F087B846D9E7DFF83C80A8
S1131600D6E7C6F1400A5445ECD32946524609EBC5
S113161006000AF0B0F90123264400934A463B46EB
S113162041460020A6F1400408F024FE3F2C554416
S1131630D6D9B846C7E70248DBE700BF4CBB000079
S113164080AFFFFF2DE9F0411746146886B01E46AF
S1131650E3008DF80F3063098DF80E30630B8DF8BD
S11316600D30630D8DF80C3053680546DA0002EB3B
S113167054728DF80B2004F03F045A09372C8DF86E
S11316800A204FEA53324FEA53538DF80920884613
S113169094BFC4F13802C4F17802CDE900178DF883
S11316A008300D4903460020FFF76EFF08222B4641
S11316B00020CDE900870DEB0201FFF765FF284606
S11316C005F1200350F8042B984246F8042BF9D175
S11316D0002006B0BDE8F0810CBB0000044BD3F839
S11316E08420D206FBD4D3F88400C0F38110704761
S11316F00040005038B5104B0546D3F820310C4655
S113170003F00303022B0BD0032B0DD0012B0FD1BD
S1131710FEF778FE052305B1286004B1236038BDC7
S1131720FEF7A6FE0323F6E7FEF7B8FE0223F2E770
S113173001230020EFE700BF0080005073B50D4681
S113174000210E4B0191D3F88041064604F00304B6
S1131750012C09D0022C0CD00C460EB1019B336035
S113176005B12C6002B070BD01A8FFF7C3FF0F24C0
S1131770F3E7FEF793FE0190EFE700BF008000500F
S113178038B5184B0546D3F824010C4600F0070081
S1131790062823D8DFE800F0040A121A1E0E1600E9
S11317A0012305B1286004B1236038BDFEF72AFE89
S11317B00523F6E7FEF726FE0623F2E7FEF758FEBA
S11317C00323EEE7FEF754FE0423EAE7FEF766FE82
S11317D00223E6E708F043FB0723E2E70023184669
S11317E0DFE700BF0080005038B5104B0546D3F842
S11317F040310C4603F00303022B0BD0032B0DD016
S1131800012B0FD108F02DFB092305B1286004B189
S1131810236038BDFEF746FE0823F6E708F024FBF4
S11318200B23F2E701230020EFE700BF0080005004
S113183038B5144B0546D3F800020C4600F00700F7
S113184004281BD8DFE800F003090D11150001235B
S113185005B1286004B1236038BD08F002FB0923F8
S1131860F6E7FEF71FFE0823F2E708F0FDFA0B2364
S1131870EEE7FEF7E7FD0E23800AE9E700231846AA
S1131880E6E700BF0080005038B5104B0546D3F89A
S113189040320C4603F00303022B0BD0032B0DD074
S11318A0012B0FD108F0DDFA092305B1286004B13A
S11318B0236038BDFEF7F6FD0823F6E708F0D4FAF6
S11318C00B23F2E700231846EFE700BF0080005027
S11318D038B5104B0546D3F860310C4603F00303CA
S11318E0022B0BD0032B0DD0012B0FD108F0B9FA2A
S11318F0092305B1286004B1236038BDFEF7D2FD89
S11319000823F6E708F0B0FA0B23F2E701230020DE
S1131910EFE700BF0080005010B40D4C0B46D4F824
S1131920204204F00304012C0AD0022C0CD008B18C
S1131930002101600BB100221A605DF8044B70476E
S11319405DF8044BFFF7D6BE5DF8044BFFF74CBFC0
S113195000800050B0F5207F1FD009D8B0F5007F7B
S113196015D003D868B1B0F5C07F0AD000200CE0D0
S1131970B0F5607FFAD10B4BD3F88000C0F30110AF
S113198003E0084B186FC0F3033001307047054B78
S1131990D3F89000C0F30460F7E7024B186FC0F36C
S11319A08020F2E7008000504FF400320E4B0146D5
S11319B010B500209A66FFF7CDFF484341F6713217
S11319C00A490B4B884294BF00200120DC69DA638A
S11319D09A6822F4401242EA00529A60E20344BF39
S11319E00022DA6310BD00BF00900050005A62026A
S11319F000000350420910B50FD0012A0FD00A4B42
S1131A000A4C022A18BF234600F01F0049B103F50F
S1131A108053012282401A6010BD1346F4E7044B40
S1131A20F2E703F50053F4E7688000506082005049
S1131A306480005008B5802008F077FC034B98427E
S1131A409EBF4FF48032024B1A6708BD005A6202EF
S1131A5000A000501FB50023B0F5807F019377D01C
S1131A6028D8382800F094800BD82438092810D8B6
S1131A7009280ED8DFE800F0676767670D0D620D6F
S1131A80377D52285FD008D83D283BD03E2800F04F
S1131A908480019805B05DF804FB8028F9D1414B9E
S1131AA01B6F03F00703013B032BF2D8DFE803F0BD
S1131AB044413F6CB0F5D06F5BD019D8B0F5A06F3E
S1131AC066D00AD8B0F5806F3DD0B0F5906FE0D104
S1131AD0002001A9FFF754FEDBE7B0F5B06F2DD06D
S1131AE0B0F5C06FD5D1002001A9FFF77DFED0E786
S1131AF0B0F5006FECD00AD8B0F5E06F4DD0B0F57A
S1131B00F06FC6D1002001A9FFF7E2FEC1E7B0F5EE
S1131B10086FBED1234BD3F8003103F00303022B2B
S1131B202CD0032B2ED0012B30D1FEF7A1FC0323A4
S1131B3000E005230193ACE70223FBE7002001A9A1
S1131B40FFF7FCFDA5E7002001A9FFF7D3FDA0E7FF
S1131B5002934FF0E0231B695B0705D5FEF772FC87
S1131B600C230393039BE5E703A902A8FFF73CFEBC
S1131B70F8E7002001A9FFF75BFE8AE7FEF792FC75
S1131B800823D7E708F06BF90723D3E70123D1E74C
S1131B90002001A9FFF7C0FE7BE7002001A9FFF7A1
S1131BA073FE76E7008000504FF40022034B5A6620
S1131BB0012203F580439A62704700BF00900050F1
S1131BC0F8B504468020FFF745FF032800F087801E
S1131BD04FF40022424B02215A6645F60E03414A55
S1131BE0C2F88030404B9962012103F58053996219
S1131BF0936DD903FCD4D4E900131B0543EA0163B4
S1131C00E17B94F820500B43217BE77E43EA0143B8
S1131C10617B6D0143EA0133A17B43EA81131361C4
S1131C209169D4E904031B0643EA806301F000418F
S1131C300B43A17E94F823000B43217E43EA014326
S1131C40617E43EA01239361136AE66923F00D037D
S1131C5094F8221043EA8703002E2DD11362966A6A
S1131C6094F8213045EA031326F033052B4343F05F
S1131C70010393621D4D1B4B9A6D35EA0202FBD1A1
S1131C800222194DAA621A659A6D5200FCD41A698F
S1131C90A56822F4700242EA05521A614FF000422C
S1131CA0114B9A6119B9022203F580539A6278B9EB
S1131CB001220F4B9A620BE0334343F00803136293
S1131CC0936A23F0330303432B4343EA41039362B0
S1131CD094F824301BB1034B064AC3F88020F8BDA6
S1131CE00090005000C0005000D00050030001409C
S1131CF000E00050F1A7FFFF014B93F9000070478B
S1131D0008230020014B1880704700BF9423002053
S1131D10B0F5207F10B50C4642D008D8B0F5007F4E
S1131D2033D003D888B1B0F5C07F0ED010BDB0F564
S1131D30607FFBD11F4A4C1ED2F8803023F0300361
S1131D4043EA0413C2F88030F0E708F0E6FA08F03A
S1131D50B0FB4FF48031184B164A1967136F013CDE
S1131D6023F4704343EA04331367FEF76BFB044622
S1131D70FFF7B4FCC0F10201204608F094FB00F028
S1131D802DF8BDE81040FFF755BE0A4A4C1ED2F8A4
S1131D90903023F0F85343EA0463C2F89030C5E767
S1131DA0044A4C1E136F23F4806343EA84231367AD
S1131DB0BCE700BF008000500090005008B501212E
S1131DC0022000F01DF808F0A8FA08F072FB4FF4A6
S1131DD08032014B1A6708BD0090005008B54FF4DB
S1131DE0C07008F0A2FABDE808400449884294BFD4
S1131DF0012102214FF42070FFF78ABF80F0FA021C
S1131E00F8B504461C4BD3F88420D106FBD4D3F890
S1131E108430C3F381139C422CD0FEF7F9FA012CD1
S1131E20064602D1214608F03EFB08F066FA4FF060
S1131E300072124B07465A66204608F056FB4FF4D0
S1131E4080630D4D621E93402B676B6E9A0103D421
S1131E50D5F884309B060AD5384608F052FA022C8D
S1131E6008D13046BDE8F840002108F01CBBD5F885
S1131E708430EAE7F8BD00BF004000500060005025
S1131E8010B50C4608B9FEF7C3FA074B21461B7878
S1131E903BB1064B984204D80120BDE81040FFF73F
S1131EA0AFBF0220F9E700BF09230020005A6202F5
S1131EB04FF0004238B5264B26495A6601224A6043
S1131EC04AF6CD3103F50B235D6C1964154030BB24
S1131ED09968C9070BD4002401221F4B5A6015B11D
S1131EE01E4B1F4A1A6409F048FA204638BD1A49A5
S1131EF08A601C4AD96ACC0705D4904201D10724D0
S1131F00EAE70130F6E79042E5D1F8E70132DC6A0E
S1131F1014F0080406D08A42F8D10724DFE700222F
S1131F201049F4E78A42F8D020220B4B0B495A623D
S1131F300122A3F580539A6023460A4A486A800620
S1131F4003D49342E9D00133F8E79342C7D1E4E7DD
S1131F5000900050005009500060095000400950A2
S1131F603254FFFF40420F004FF0004238B5174B88
S1131F70174C5A66012203F50C235A604AF6CD33F6
S1131F80656C2364437893401343124AD363C37844
S1131F908178A2689B0043EA011322F07402134380
S1131FA0A3600279837943EA022323614279C379E6
S1131FB043EA022363610078FFF77AFFEB0744BF2B
S1131FC0054B236409F0D9F9012038BD0090005075
S1131FD000400950004000503254FFFFF0B5114A50
S1131FE0114C124E00F00105E3695F0713D40DB9DB
S1131FF0334213D103EA00078F4207D10B4A1A4038
S1132000002A0CBF00206FF00100F0BD013AEBD1B3
S11320106FF00200F9E74FF0FF30F6E76FF00100D0
S1132020F3E700BF8096980000000350020001000F
S11320304FF4003238B50F4B0F4C9A6641F67133AA
S11320400122E569E3630D4B0021DA60022360613C
S11320502120236105F48035FFF7C0FF10B921204A
S1132060FFF7BCFF0122064BDA600DB10023E363E6
S113207038BD00BF00900050000003500010035012
S1132080002003502DE9F04F01274FF4402530265E
S11320902C4CDFF8BCC0DFF8BCE0CCF8047044F88A
S11320A0205000244FF4003506FB00E6F465346646
S11320B03467254CDFF8A090A56641F6713504F528
S11320C01C34D4F81C80E563E568DFF890A03D4338
S11320D0E56007FA00F04BB9E26818F4803F22F09B
S11320E00102E26029D10020BDE8F08F01F500551E
S11320F005EA09056D1A9D4228BF1D466161D4F8A1
S11321001CB0AF081BF0040F19D1013F3F0147F089
S113211060577766B266C6F86CA0CCF82400DEF887
S113212034703842FBD0094F294478630427CCF833
S113213028002A4427615B1BCDE7E363D3E74FF014
S1132140FF30D1E7004004500090005000200450BC
S1132150001004500000045000E0FFFF180003507A
S11321604FF48032064B5A6603F5E6235B69C3F3EA
S11321708512827003F03F021B0B4270037070479C
S113218000900050014B986CD96C70470080E00FB0
S1132190024B1868C0F30740704700BF0080E00F8F
S11321A038B50446054D09F0FBF80FCC0FC594E88B
S11321B0030085E80300002038BD00BF5C12002046
S11321C047F6FF739A42F0B56FD002296FD8394BA6
S11321D05B5C012B6BD8384DDF0005EBC30415F8AD
S11321E03330A178012B13D10025E078401AA8429E
S11321F002D80844C0B2F0BD431B6668A0EB530389
S113220036F913609642D4BF1D4603F1FF30EEE762
S113221060680028EFD0B0F90040944204DBB0F9C4
S113222002409442B8BF144683883D44FF2B19BF33
S1132230C8224FF0280CB0F90620B0F908C0A2EB70
S113224004030CBF0126002693FBFCF333446E7891
S11322501BB29E4201DD002B01DA731E1BB24FF448
S11322607A7C01339BB2071D5D1E2DB24FEAC50E69
S113227000EBC505EA88AD689E4214FB025222EACF
S1132280E27202F15C02B2FBFCF204DD37F8335077
S113229001339542E8D200EB0E039888904228BFA0
S11322A01046884238BF0846A4E7FF20A3E7002071
S11322B0A1E700BF6CBB00005C12002008B5044815
S11322C0FFF76EFFBDE80840012009F08CB800BF9D
S11322D070BB00000048704796230020084B094952
S11322E05A6E4FF48033D2034B6601F5E621D1F8E0
S11322F0040658BF044A00F1805058BF5366704723
S1132300008000500090005000A00050F8B5C36950
S11323100446042B68D807F0F0FF344B344A596E56
S11323204FF480333348536602F5E622C2F80006C0
S1132330C90300F50070C2F804065CBFA2F5E422EC
S113234053662D4B2D4AE5691A6022685A602C4A5F
S113235004F1080303EB8501121B8B4202EB03001B
S11323601FD1294600206368264CF3B9224A40EA6B
S1132370056090601368506892684340534000229F
S113238091422CD144F82130BFF34F8F1E491F4B8B
S1132390CA6802F4E0621343CB60BFF34F8F00BFFF
S11323A0FDE753F8046F0660D7E70022D3F800E096
S11323B004EB81079E68BC46C6F39906964207F172
S11323C0040706D8104411445A68012ACED05B6829
S11323D0CBE75EF822600132CCF80060EAE754F8FB
S11323E0220001324340CBE7F8BD00BF008000501B
S11323F000900050004C00A0004C00B0DEC0ECE5A2
S1132400044C00B00C4C00B000ED00E00400FA05F0
S113241010B5FFF763FF00F1A043A3F58043B3F5C4
S1132420606F17D802680C4B9A4213D103690533C5
S1132430B3F5007F0ED2002211469A4205D350F81C
S11324402300431A5842584110BD50F8224001322B
S11324506140F2E70020F7E7DEC0ECE54FF40052FC
S1132460034B00209A660322C3F86022704700BF22
S1132470009000504FF40052034B00209A66032250
S1132480C3F86022704700BF00A0005007B56B4638
S1132490054A1068516803C36846FFF765FD0020CC
S11324A003B05DF804FB00BFF4BB000030B58BB093
S11324B06C46174D0FCD0FC40FCD0FC495E8030024
S11324C084E80300134BD3F84C2112031CD5A3F565
S11324D0FE431C884FF6FF739C4208BF8C248DF882
S11324E01940FFF709FC204480F308008DF8180018
S11324F00948FDF7C3FF6846FFF762FB3220FFF788
S113250001FC00200BB030BDD3F85041E4B2E6E743
S1132510FCBB00000080E00F00F049021022084BD1
S113252083F8212383F8222383F8262383F82523A1
S113253083F8232383F8202383F82423704700BFE0
S113254000E100E060B5054619B10139B1F5806FCD
S11325500FD2094EF06810F48030FBD143EA012316
S113256012072B4302F08052134343F0004373607D
S113257060BD0120FCE700BF0020025C0122054B86
S11325809A60DA68D203FCD4D86820F00F00000403
S1132590000C70470020025C0322024B1860196192
S11325A05A6370470000025C82B01FB507930A9B10
S11325B004AC8B4228BF0B4604E907001048D10045
S11325C0079948BF03330160099948BF23F0030307
S11325D023F0704301F0E041194341F00051816060
S11325E0002102F0E042019C1A4342F00052C16013
S11325F004618261416304B0BDE8104002B07047D9
S11326000000025C3F22034B1A631022DA610322AA
S11326109A6370470000025C024AD36B9B07FCD4A8
S1132620704700BF0000025C044B9B6A13F0240F48
S113263014BF012000208000704700BF0000025C2E
S113264008B5FFF7F1FF064BDB6B23F47F4323F060
S1132650EF0303431EBF0122024BC3F8FC2F08BD46
S11326600000025C00F0FF3F4368182B0AD0202BC7
S11326701DD0102B2BD1174BD3F80434DB010AD413
S113268001207047134BD3F804349A01F8D50B6832
S113269043F008030B6003680F4A934210D10B68A0
S11326A043F040030B600023436000207047094B54
S11326B0D3F804345B01E3D50B6843F00403E9E782
S11326C0064A9342F1D10B6843F08003EAE70720FE
S11326D0704700BF0000025C0B2300200A23002087
S11326E00B4607B50749D1F80414C90708D50021DA
S11326F000920246084600F033F803B05DF804FB8C
S11327000120FAE70000025C0B4607B50749D1F83F
S11327100414C90708D5009201210246002000F0E4
S11327201FF803B05DF804FB0120FAE70000025C27
S11327301FB50A4CD4F8044464070CD5CDE9001243
S11327400021069C0222CDE902340346084600F02B
S113275031F804B010BD0120FBE700BF0000025CAB
S1132760F0B51C465B6815468DB01A07129E1AD147
S1132770CBB17268934216D10C4B0D4A53F82170B9
S113278009AB07CA83E807001A462946CDE9053391
S1132790CDE90333CDE90163009447F4807008F078
S11327A0A7F80DB0F0BD0720FBE700BF54BC000044
S11327B024BC00002DE9F0418CB0DDE9127C7C687A
S11327C01E46DDE9143E200728D13CB3DCF80400A2
S11327D0844223D15868102820D1DEF80400102840
S11327E01CD10F4809AC50F821500E4951F82280F1
S11327F00D4A07CA84E8070045EA08002246314624
S1132800CDE9054ECDE90344CDE901C4009740F07C
S1132810300008F06DF80CB0BDE8F0810720FAE74D
S113282054BC000030BC000024BC00000138C0B21D
S113283006289ABF014B185C0020704737BD000082
S11328400138C0B206289ABF014B185C00207047BB
S113285030BD00002DE9F04FBBB0804603A880E8EE
S11328600E001E467A4B1746D3F800248A46D40637
S11328709DF8109103D401203BB0BDE8F08F08F11E
S1132880FF32062A6DD8DFE802F004191F252B3128
S11328903700D3F80C34D807EDD501230793002370
S11328A0B9F1010FCDE908332CD0B9F1020F5AD098
S11328B04046FFF7C5FF6324054631E0D3F80C34E6
S11328C09907D8D50223E9E7D3F80C345A07D2D5AF
S11328D00423E3E7D3F80C341B07CCD50823DDE746
S11328E0D3F80C34DD06C6D51023D7E7D3F80C345F
S11328F09C06C0D52023D1E7D3F80C345806BAD5AA
S11329004023CBE7524BD3F80C34D903B3D5079B00
S1132910404643F4C0630793FFF788FF032405464A
S113292013230422009307A94FF0005312A807F0C1
S11329309DFF5146009446F000533A4607F096FF37
S11329404FF0000B04465E46DDF814A1469B9B4500
S11329502CD1B9F1030F42D14046FFF771FFB842C1
S113296037D0072088E73A4BD3F80C24D20382D51A
S1132970D3F80C349B037FF57EAF97B17C42394684
S1132980374604F00304079B404643F4E06307938F
S1132990FFF74CFF24023E4605460F4644F0A304CD
S11329A0BEE704210DF1200A0C46ECE7DAF8042016
S11329B016444AB1032300932046DAF80830DAF8C3
S11329C0001007F053FF04460BF1010B0AF10C0A47
S11329D0BCE7404608F0ACF801383042C1D17EBBB8
S11329E0032332462046009308A9334607F03EFFEE
S11329F004260446103C204607F04DFF204631468D
S1132A0007F054FF489BAB4228BF2B461C46EBB152
S1132A100023224600934799499B0AA807F026FF02
S1132A202A1B04D000231946009307F01FFF103817
S1132A3007F031FF12A80AA907F00DFF00201BE7D9
S1132A4016F0030618BFC6F10406D3E70AA8E7E7A1
S1132A500000025C014808F049B900BF741200206C
S1132A60014808F018B900BF74120020014800F0B2
S1132A7053B800BF741200200A460146014800F012
S1132A807BB800BF74120020014800F0B5B800BF45
S1132A90741200201FB50A79064B02920A680831A5
S1132AA00192022200920CCB08F0FEF905B05DF809
S1132AB004FB00BF4CBD000030B50B7985B0033377
S1132AC0029301F14403019302230C460546114A83
S1132AD0009314310CCA08F0E7F9238A04F12C019D
S1132AE00293E36828460193237A009394E80C0048
S1132AF008F0DAF90546237AA4F84500227921681A
S1132B0084F8443004F1470008F035FF284605B046
S1132B1030BD00BF44BD000038B50546124B134C10
S1132B2094E8030083E8030019462846FFF7B2FF40
S1132B30D4E9020110220E4B83E80300194628460B
S1132B401A72FFF7B9FFD4E904010222094B1834C1
S1132B501A7283E80300DC60194628461A82BDE82D
S1132B60384008F0A1B800BF7813002060BD000011
S1132B7020130020F4120020F8B504460D4B0E4D2E
S1132B800F46D5E9070183E8030019462046164697
S1132B90FFF780FFD5E909010222084B1A7283E886
S1132BA00300DF60194620461E82BDE8F840FFF7A7
S1132BB083BF00BFD412002060BD00007C1200203F
S1132BC010B50C4630B907F059F9034B186023606F
S1132BD00423A380002010BDC815002010B50C46A6
S1132BE030B907F049F9034B186023600423A3802C
S1132BF0002010BDCC1500202DE9F74306466D4694
S1132C004FF00809404C414B414F94E8030083E8DE
S1132C10030019463046FFF73DFFD4E9020187E877
S1132C20030028463B4987F8089008F038F895E8EF
S1132C30030007F10C0383E8030039463046FFF72D
S1132C403BFFD4E904010C234FF00208324F87E81C
S1132C500300284631493B7208F021F895E8030047
S1132C6007F10C0383E8030039463046FFF724FFDD
S1132C70D4E906012A4B2B4A83E80300194630465F
S1132C8083F80880DA60A3F81090FFF715FFD4E901
S1132C900801254B254A264FDA60012283E8030008
S1132CA0194630461A8283F80880FFF705FFD4E9F5
S1132CB00A0187E8030028461E4987F8088007F0C0
S1132CC0EEFF95E8030007F10C0383E8030039469F
S1132CD0194F3046FFF7F0FED4E90C0187E80300F2
S1132CE02846164987F8088007F0D9FF95E80300BD
S1132CF007F10C0383E803003946304603B0BDE80E
S1132D00F043FFF7D9BE00BF14BE0000A815002091
S1132D10501500202DAD0000F814002015AD000062
S1132D20A01400200ABE00004814002009BE0000C0
S1132D30F0130020DD2B000098130020C12B0000AD
S1132D407FB500230130CDE9043380B2054BCDE9D2
S1132D500101694604200093039208F0C6F807B005
S1132D605DF804FB0C2300201B22014B1A807047E2
S1132D70E4220020064B10B401241A7100221C70B6
S1132D8058705980042011465DF8044BFFF7D8BFF2
S1132D900C2300200322044B1A700022A3F8010024
S1132DA011460220FFF7CCBF0C23002082B00DF1A6
S1132DB0080C0CE90C00064B0522587003201A700D
S1132DC059809DF80420009902B0FFF7B9BF00BFF5
S1132DD00C2300200722054B1A700022A3F80100DF
S1132DE0A3F8031004201146FFF7AABF0C23002008
S1132DF00A460B21024B197001460020FFF7A0BFC1
S1132E000C2300201322034B1A7000221146104693
S1132E10FFF796BF0C23002010B40924044B1C7048
S1132E20941C5C7058805DF8044B0320FFF788BF46
S1132E300C23002030B40C46112511461A46054BCC
S1132E401D70151D5D7058809C80052030BCFFF7F7
S1132E5077BF00BF0C23002038B50023074D01398C
S1132E6089B204466B8000F03BF8024628B16988B9
S1132E702078BDE83840FFF77DBF38BDE42200204C
S1132E80024610B5F8B1114B1968888890421AD3DC
S1132E9098880024904281BF012009689880996035
S1132EA09868998820B904B198604FF6FF7203E0DE
S1132EB08A4203D10CB198609A8010BD013101247B
S1132EC0006889B2EEE70020F7E700BFD0150020C4
S1132ED04FF6FF72014B18609A807047D01500209E
S1132EE02DE9F04704780546122C0E4688B017D811
S1132EF0012C18D9A31E102B15D8DFE813F01600E7
S1132F0014002700140047001400D10014008000AE
S1132F101400140014001400140009011400A40087
S1132F20522C00F0AC8006242CE0022940F04681AB
S1132F30B0F80140B4F5007F28BF4FF40074204678
S1132F40FFF728FF9E4B1C8000241BE0042919D1A5
S1132F50B0F8017006ADBEB22946304607F022FF34
S1132F60044618B1964B5F800A240BE09DF81C3090
S1132F703146022B18BF022095E80C0008BF01203F
S1132F80FFF714FF204608B0BDE8F08702278E1F24
S1132F9000F10508C31DB6B2019600938DF81470B4
S1132FA0CDF81080B0F803104246059BB0F801003C
S1132FB007F005FF4FF6FF76B042044606D1AA7823
S1132FC06B7843EA02237E4A5380CDE70023CDE9A0
S1132FD00033CDF818808DF81C7008AB01303146F1
S1132FE013E90C0080B207F0EAFE0146B0421CBFB0
S1132FF000F1FF3189B22046FFF7ECFEA4E7022975
S113300040F0DC80B0F8010007F02BFF6C4E044662
S113301028B16B78AA7843EA02237380B2E7338835
S11330200146013BADF81030B5F8010004AB06AA27
S113303007F029FF04460028EBD1BDF810100698CC
S1133040FFF7D6FE9EE70821B0F8010007F009FF5C
S1133050044630B1AA786B7843EA0223584A538075
S113306090E7B31E01469BB2B5F80100EA1C07F0D5
S1133070DFFE04460028EDD1FFF7C4FE64E7042117
S1133080B0F8010007F0EDFE014600287FF45CAFC4
S1133090B31EB5F801009BB2EA1C07F0C9FE53E762
S11330A00E1FB6B2022E02D0102E40F087800024EC
S11330B0CDE900446B1D06938DF81C6008AB13E941
S11330C00C00B5F80310B5F8010007F078FE4FF6D0
S11330D0FF73984206463A4F05D16B78AA7843EAC3
S11330E002237B8040E73B882146043BADF80E3049
S11330F004AA0DF10E0307F0C6FE044608B17E8053
S113310040E73046BDF80E200499FFF785FE39E705
S11331100E1FB6B2022E01D0102E4FD10024CDE9DD
S1133120004405F1050AF6B28DF81460CDF810A03C
S11331305246059BB5F80310B5F8010007F03FFEB1
S11331404FF6FF7948450746DFF8748006D16B785F
S1133150AA7843EA0223A8F8023005E7CDE900443F
S1133160CDF818A006AC8DF81C60013094E80C0072
S1133170494680B207F023FE0546B8F800304845BA
S1133180A3F1060318BF00F1FF352246ADF80E3057
S11331904FF0000138460DF10E0318BFADB207F031
S11331A072FE044610B1A8F80270EBE629463846D0
S11331B0BDF80E30069AFFF73DFEE3E60424E1E68F
S11331C0E42200200022014B1A607047DC15002025
S11331D003291FB503460A461CD90188081D8242EB
S11331E018D304D85888042805D0062807D001200D
S11331F005B05DF804FB181DFFF72EFEF7E700236A
S1133200CDE90233044B694600930223019307F08E
S11332106CFEECE70020EBE7A423002037B5002286
S11332200DF10700114600F05FF89DF807300C4CD3
S11332300BB10023236021680A4DC1F5017292B2DB
S113324029440DF1070000F04FF82368C1182846FF
S11332502160FFF7BDFF08B10023236003B030BD38
S1133260DC150020E015002010B504464FF48073EF
S113327000210E4A0E4807F0C4FE4FF4807300216B
S11332800C4A0D4807F0BDFE2046FCF759FF07F035
S113329080FE00F005FC07F066FD830705D500F00D
S11332A0C9FABDE8104000F07BB910BD1419002024
S11332B0FC17002014180020E417002008B513465A
S11332C00A460146024807F05AFFC0B208BD00BFD3
S11332D0FC17002008B5034807F09CFE003818BF0F
S11332E0012008BDFC170020F8B50E461746044619
S11332F007F003F8214605463B463246044807F0EA
S11333003EFF0446284606F0FCFF2046F8BD00BFF9
S1133310E417002008B5034807F07CFE003818BF06
S1133320012008BDE4170020F8B50E4617460446F0
S113333006F0E3FF214605463B463246044807F0C3
S1133340E9FE0446284606F0DCFF2046F8BD00BF2F
S1133350FC17002010B50C460146044807F039FF5D
S1133360A04234BF0020012010BD00BFE41700209C
S1133370F8B50F46114606461546FFF7EBFF04461F
S113338028B12B463A463146024807F0C3FE204690
S1133390F8BD00BFE417002010B5034CA07900F07D
S11333A0C3FC0023236010BD141A002010B5044C84
S11333B0204600F04FFC002344F8063C10BD00BF3B
S11333C01A1A002010B5074CB4F80710A07900F0C1
S11333D073FCB4F80D10B4F8090000F081FC00236C
S11333E0236010BD141A0020014B998018607047A7
S11333F0141A00200022014B1A607047141A00208E
S1133400034A13681BB19288824200D1184770475F
S1133410141A0020014B187018467047132300201B
S1133420162808BF1320022110B5084C60702046EE
S1133430217000F06DFC00F0B9FD054B054A053024
S11334401A60627898809A7110BD00BF132300201F
S1133450141A002099330000037810B50C2B04468D
S11334600AD80C2B0AD8DFE803F03B2752090909D4
S113347009095B0909091500142B62D0204600F0E4
S113348095F8002842D1072223783A480221027095
S113349043700DE00C2337484FF0FF3203700123D3
S11334A0827043700222037100230621C2704371AB
S11334B0BDE8104000F02CBCC17983792E4A43EA60
S11334C00123938013462D4943F8061BD0F80110BD
S11334D0C2F80610B0F805209A80C2799A7115E0F6
S11334E0C27A837A244943EA02238B800B46244A16
S11334F043F8062BD0F80120C1F80620D0F80520A7
S11335005A60B0F809201A81C27A9A7210BD00F08C
S11335104DFD194B1B4A05301A6098806278DDE72F
S113352000F05CF9D4F80130092163F0FF03034093
S113353010480246C0F80130002302F8011B536012
S1133540B6E7B0F80310B0F8010000F0D7FB15237C
S1133550084800216FF004046FF02702037007236A
S11335608170817144700921C27003714471C27108
S113357003729DE713230020141A0020AD330000CA
S1133580C53300009933000008B5044B987900F066
S1133590AFFBBDE80840FFF72DBF00BF141A0020A1
S11335A00122014B1A7070471F230020144B70B581
S11335B01E7805462EB10378162B04D0182B13D091
S11335C00026304670BD8378447817201C4004F0F0
S11335D00304022C18BF0124FFF71CFF02214470CE
S11335E0847007F0D3FCECE7B0F803100548FFF74C
S11335F0FBFED5F80120044BC3F80620E1E700BF29
S11336001F23002089350000141A002013B50D4B28
S113361001281B880C4CADF80030ADF8043002BF13
S113362002238DF8003004236946206808BF8DF812
S1133630043007F075FE206801A907F087FE02B088
S113364010BD00BF74BE0000481A002010B51E4C07
S11336501946236986B023B3A2F10800084322D196
S1133660032101AA206807F0D6FE636860615B7AD3
S1133670022023769DF8043004F11801DA1F534226
S11336805341627E63F30002039B6276E361BDF8FB
S1133690063063832369984701220021206807F0DC
S11336A0C0FE06B010BD02F17F40084305D10021E1
S11336B0012006B0BDE81040184712F4A0411ABF1B
S11336C000210320FF20F4E7481A00200A4601469F
S11336D002484FF40073006807F099BE481A0020AE
S11336E0F0B50446154D164A6B68807A5B7A85B04E
S11336F0D75C0E46FFF78AFF237A022B0DD10023F5
S113370039461A46286807F08BFD98B10021FF203E
S1133710334605B0BDE8F040184700222168009206
S1133720039202918DF80C303946286802AB07F0F9
S113373079FDEAE72E6105B0F0BD00BF481A00200C
S11337404CBE00002DE9FF4104461B4D1B4A6B682B
S1133750807A5B7A0E46D75CFFF758FF237A4FF0E6
S11337600108022B08BF01238DF80430636818BFD9
S1133770226803F1640308BF00220293637A0024E1
S1133780394600928DF80C306A46234628688DF835
S11337900D808DF80E4007F047FD0746424621464E
S11337A0286807F03EFE2FB12146FF20B04704B041
S11337B0BDE8F0812E61FAE7481A00204CBE0000F3
S11337C00022034B03211A611868012207F023BD6C
S11337D0481A002000487047501A0020014B188CEA
S11337E0704700BF481A00207FB502238DF80630C9
S11337F0064B5A8B59690332ADF8042018686A469F
S113380007F00DFE009807B05DF804FB481A00208D
S1133810002313B5064C60600093437AD0E900217D
S1133820206807F039FE00F00DF802B010BD00BFAB
S1133830481A0020024A138C43F48073138470479F
S1133840481A002038B50D4C238CDB050CD5636871
S11338500B4D1B7A2A789A4206D0012B05D0022BF5
S113386007D063681B7A2B7038BD206800F022FEF5
S1133870F7E7206800F024FEF3E700BF481A0020B1
S11338802023002010B50024064B1C60064B1C703E
S113389007F0A3FBB0FA80F3044A5B091370044BEE
S11338A01C7010BD6C1A002023230020222300204A
S11338B02123002010B5074B1C782CB9064B1B782C
S11338C033B107F092FB044600F066F8204610BDC1
S11338D08124F9E7232300202223002038B50A4657
S11338E00F4903460978C1B10E49087850B90E4C06
S11338F024783CB90D4C20681518B5F5806F02D9B1
S11339008220087038BD1946094B184408F033F872
S11339102560BDE8384000F00DB88120F2E700BF13
S11339202223002023230020212300206C1A0020BE
S1133930701A002038B5134B134D1A782968022ADF
S11339400ED0032901D8002038BD104A1068104A4F
S1133950904203D084200F4B1870F5E702221A70AE
S11339600A48FCF713FE04462A680749074807F08B
S113397011FB002CE7D041F207039C42E3D08520E1
S1133980E9E700BF222300206C1A0020701A0020EF
S1133990EB17A603232300200022014B1A70704763
S11339A0222300201FB5124C637A20460133DBB278
S11339B0282B28BF25236372FFF72AFF0023CDE9B4
S11339C00233E368627C01930123617DD2070948D5
S11339D001F102018DF80C3048BF8DF80E30FFF76D
S11339E075FE054901A8FFF77BFE04B010BD00BFBA
S11339F0701E0020841E0020FD390000022810B52E
S1133A001BD002D8012805D0FEE7032843D0FF28A5
S1133A1041D0F9E7214C637C990707D5FFF7D0FE25
S1133A20FFF7C0FF637C6FF341036374637CDA07C1
S1133A3030D4BDE81040FFF7B5BF4B78DB072AD57B
S1133A404C68217801F00F03032B11D0052B22D1F0
S1133A50C90904F1080007F0C7FBD8B1FFF7B0FEAD
S1133A60FFF7C2FE01462046BDE8104000F0A4BAAC
S1133A70C90904F1080007F0B7FB58B1074C94F8E2
S1133A803D1004F13C000231FFF720FE637C43F05B
S1133A900203637410BDFFF793FECAE7701E002093
S1133AA010B50A4C5A220021204607F05CFF42F26E
S1133AB01072C4F80220064A44F80A2C054A44F855
S1133AC0062C42F2015224F8022C10BD7A1E00206A
S1133AD0D6BE898E5555550038B50446FFF770FE9D
S1133AE0002C3FD0204C257C627CB5FA85F35B0921
S1133AF063F300026274FFF76DFE837905F00F052E
S1133B00C3F3000345EA8315237D23F04F031D43CC
S1133B10637D25750BB9062363750368C4F81630F5
S1133B208288124B9A80FFF755FE837994F83C20E3
S1133B30C3F300039B0143F0040322F04F02134339
S1133B4084F83C3094F83D3013B9062384F83D30B2
S1133B500368C4F83E308288054B9A80BDE838403B
S1133B60FFF720BF38BD00BF701E0020861E002056
S1133B70AE1E002020290A4608B509D8054B063197
S1133B805975014603F11C0007F0F5FE002008BD3D
S1133B901220FCE7701E002020290A4608B50AD826
S1133BA0064B063183F83D10014603F1440007F04B
S1133BB0E2FE002008BD1220FCE700BF701E0020BA
S1133BC00A20D0B50B4CE38C584305F003FD0646A0
S1133BD0A08C0F4605F0FEFC0022074B05F064FDA7
S1133BE002460B463046394605F088FE05F06EFF66
S1133BF02083D0BDD41F00200000F43F1FB5134C18
S1133C00A37E5A061FD423F0070343F0010320893F
S1133C10A376FFF7F5FBA37A04F10C00234493F891
S1133C202A306375FFF7F4FDD4E90032A3EB5201A7
S1133C3003EB520302934FF48033019101A804492A
S1133C400393FFF77FFD04B010BD00BFD41F002015
S1133C50953D00000022134630B58BB0D910415C6D
S1133C6003F007042141CC0742BF02F12801694453
S1133C7001F8283C03F1010348BF0132252BEDD1A3
S1133C8000230C4CD910415C03F007052941C907F6
S1133C905FBFB3FBF2F102FB1131283169444CBF21
S1133CA0D9B211F8281C0133252B04F8011FE9D1DE
S1133CB00BB030BDFD1F002010B540F2E244074AAE
S1133CC06043136800F5807004FB013303EB500379
S1133CD0136053680344536010BD00BFD41F002019
S1133CE0024B9884D984FFF76BBF00BFD41F002018
S1133CF0014B1875704700BFD41F0020C9088142CA
S1133D0028BF0146014B1985704700BFD41F00200E
S1133D10044B5A6D22B95865A3F858100120704716
S1133D2000207047D41F0020034A937E43F04003D1
S1133D30937607F029B900BFD41F002010B5144CA6
S1133D40A37E5B0623D4FFF73BFD40F2E241A28C45
S1133D50236801FB023394F84F102360A37A0B44C9
S1133D602521B3FBF1F001FB10330A21A37223894F
S1133D7001332381636801FB02336360238B5A1E82
S1133D80228323B9BDE810400820FFF7CDBF10BD42
S1133D90D41F00200228F7B50E460BD003D8012803
S1133DA000F0F180FEE7032800F0F380FF2800F024
S1133DB0F080F7E74D784F6815F00105794C59D13B
S1133DC00025A37E784F13F0200F12D0616D6FF39E
S1133DD04513A376002900F0BB803B7894F8582063
S1133DE043F00303B81C3B707A7007F0C4FD002352
S1133DF06365FFF76FFAA37E797860F34103C3F339
S1133E00C002A376C3F300139B0043EAC2033A78CB
S1133E1043EA001322F01C0203F01C030231134393
S1133E20C9B261483B70FFF751FCA37E7668D9079D
S1133E3009D56FF30003A37600236360FFF7D4FC76
S1133E402060FFF7BDFE002D00F0AA80337803F058
S1133E500303022B06D0032B00F08E80012B40F0CD
S1133E609F80002528467278B11C03B0BDE8F0405D
S1133E70FFF77EBA3B78A27EC3F3001363F382029A
S1133E803B78A276D1B2C3F3C000C2F300129042D1
S1133E9010D0A17EC3F38003C1F3C00293428FD03C
S1133EA082F00102D20042F0200221F028010A43EC
S1133EB0A27685E703F00302022A1DD0032A03D069
S1133EC0012AE6D1002018E0C1F3C002C3F3800345
S1133ED0934208D082F00102D20042F0200221F085
S1133EE028010A43A276A37EC3F3001282F00102E2
S1133EF062F30413A37664E72846797891B9A17E26
S1133F00C3F38003C1F3C002934201D10025EAE761
S1133F1082F00102D20042F0200221F028010A437B
S1133F20A276F3E7FFF716FAA27E3978C2F3C0034C
S1133F30C1F38001994208D083F00103DB0043F010
S1133F40200322F028021343A3760028CBD137E7BD
S1133F5094F82820B91C0DF10700FFF7AFF948B118
S1133F609DF807300133DBB23A78787063F30102CD
S1133F703A703EE70123F7E77178B01C03B0BDE85F
S1133F80F040FFF769BA074B9B7E9A0708D45B079A
S1133F9006D4FFF7D3FE03B0BDE8F040FFF72EBE12
S1133FA003B0F0BDD41F0020D41E0020014B18899B
S1133FB0704700BFD41F0020F8B5224D04460E46BA
S1133FC05C220021284607F0CEFC2023AB76052393
S1133FD02B83627E237E012743EA0223AB84627F24
S1133FE0237F04F11E0043EA0223EB8494F8233078
S1133FF0C3F3040385F84F3094F82330C3F342131A
S113400085F850301B232B85FFF724FED4F80E309F
S1134010E27CEB60A37C2E6043EA0223227D2F75B1
S113402043EA02432B6195F84F30607DAB72E18A1D
S11340303944FFF741FEFFF7E1FD204606F0A2FFF9
S11340403846F8BDD41F0020F8B50D4610B9002439
S11340502046F8BD0E4F3E68002EF8D100F030F82F
S113406004460028F3D0386000F076F8204607F0C4
S1134070EEF838B130463E6000F06EF8204607F0A6
S1134080E1F8E4E7002DE3D02046A847E0E700BFCD
S113409030200020024B1868003818BF01207047F8
S11340A030200020431E033306D8044B984228BF17
S11340B01846642838BF6420704700BF40420F0090
S11340C0F8B5054606F019F907460F4B1E6826B9E0
S11340D0384606F016F9344611E0B4688CB194F809
S11340E010C01CF0010F0CD14CF0010C95E80F002E
S11340F084F810C084E80F00384606F002F9204620
S1134100F8BD3668E3E700BF5023002038B5054604
S11341100C4641B10B6833B11B68013303D0CB6843
S11341200BB18B684BB907F00AFBBDE838404FF47C
S113413086724121002000F0A7B9084602F07CF8FD
S11341400023044A85F81031C5E93043C2E900333D
S113415038BD00BF0810002010B5044618B9054B3F
S1134160054A136010BD00F0FDFAD4F8CC30002BE2
S1134170F6D1F4E72DB200004C23002008B5024626
S11341800868FFF78FFF08604868FFF78BFF4860F7
S11341908868FFF787FF8860C868FFF783FF0B69AB
S11341A0C860581C03D00B48834228BF03460B61E8
S11341B04B69581C03D00748834228BF03468869CB
S11341C04B61FFF76FFFBDE808408861104601F0BE
S11341D007B900BF40420F002DE9F84FD0F8C430B2
S11341E006460F4613B1038B8B4244D0D6F8C0B0B9
S11341F0BBF1000F42D0DBF80830002B3ED0DBF8D7
S11342000C1000293AD0D6F8D4A0BAF1000F38D057
S11342104FF000094D46C84601E0DBF8083005EBD5
S1134220C50203EB8204E3890135BB4214D8238A17
S1134230BB4211D3B4F91220B6F92430934250DDB5
S1134240304696F80411FDF7BBFF737D8146834227
S1134250A04606D9DBF80C108D42DED3B8F1000F6E
S113426039D00023424630461946D0473783C6F832
S1134270C48086F80D910020BDE8F88F0320BDE8C6
S1134280F88FD14647F6FF755446524604EBC408EE
S113429003EB8808B8F80E30BB4216D8B8F81030D3
S11342A0BB4212D3B8F91220AA4202D14FF0FF093F
S11342B0DCE7304696F80411FDF782FF737D8146F2
S11342C08342D3D94246DBF80C100134A14204D90D
S11342D0DBF80830DAE70120CEE7002AFBD090466D
S11342E0C4E7A046BDE700BF2DE9F04782B004460D
S11342F00F46164601F010FA002851D13E4D2B68A6
S1134300D4F8C0A0D4F8C4800BB1534555D04FF0B5
S11343100009AF6001F01EFA0128074644D12B685A
S1134320DAF80010D8F8002013B1186888424FD08A
S1134330204607F06BF9C5E900A8D4F8D4508DF8ED
S11343400760002D4BD00022204611460DF10703D3
S1134350A847204600F036FD0546B9F1000F0CD001
S11343605EB9012F05D025B1244B002103205B68E1
S11343709847284602B0BDE8F087B5FA85F040F2C8
S1134380DB323321400900F07FF83146204600F04B
S11343902DFF1B4B0546414620461B689847E0E726
S11343A00023154D6B60AAE70021012000F018FAE4
S11343B001F0D0F90128FBD1B1E76B68002BA6D03E
S11343C04345A4D1AB689F4214D04FF00109A0E744
S11343D0696811B109689142ADD05968A8E7617D57
S11343E094F80D313246994228BF1946204600F010
S11343F06FFCAEE70025BCE708100020582300201E
S11344004C230020F8B50E46054605F076FF3146EC
S113441007462846FFF7E0FE044620B1384605F07B
S113442070FF2046F8BD01F05DF92246314628466A
S1134430FFF75AFF0446384605F063FF2046F8BDEF
S11344404FF4007307B50A490DF10602ADF80630C2
S113445006F0DFFFBDF80630B3F5007F05D1022872
S113446008BF002003B05DF804FB0120FAE700BF99
S113447034200020024B1960024B1860FEE700BF95
S1134480542300203422002008B550B90548064BB7
S113449001601A60054B1A68054B1A601868FFF72B
S11344A0E9FF08BD542300203822002030200020DA
S11344B034220020014906F0C0BF00BF915900001A
S11344C0014906F0BABF00BF6559000037B50C4674
S11344D0234D59B90A46012104F0C4FE214BAC64B2
S11344E05C6003B0BDE8304004F0DABE012211463E
S11344F004F0B8FE07221C4B0121DA60237901A8DD
S113450085F848306379019307F0EFF9019BC2B253
S1134510D34000F00F0040EA031085F84900A27967
S113452085F84A20E27985F84B202068E8640193F5
S11345309BB1012102888B4208D82379013B1344A3
S11345400A4A136204F0ACFE03B030BD30F81150D7
S11345500131AA4228BF2A46EDE71A46EDE700BF1B
S1134560003F00B0483F00B0006000B8004000B811
S1134570431C07D06FF0FF02034B10405A62A3F5AF
S113458080535862704700BF00E000B810B50423A0
S11345904FF03A4101240A4AD1F81801C2F81831FF
S11345A0C2F814314C634FF400511163410742BF08
S11345B0C2F81431A2F58052C2F8183110BD00BF00
S11345C0002000BA00F01803182B0AD003070AD4FD
S11345D040F2011310F0100018BF1846034BD867BF
S11345E070470020FAE70120F8E700BF003F00B061
S11345F0344B2DE9F7431E6801F4007900F0010300
S1134600174653EA090205460C462FD04FF000081E
S11346100BB30023002201200021CDE9008803F020
S11346203DFC4146304602F0AFFD01224146708315
S1134630104606F016FE716B06F1D80002F020FE5B
S113464021490868FFF794FF4FF0FF330B60337C78
S113465043F004033374B9F1000F07D0012130464D
S113466006F0C3FE24F4007405430C43D6E94A2340
S11346702A40234052EA030103D014493046096812
S11346808847FB070FD51249124A086800211368AE
S113469011600121104A117003B198470F4B00219A
S11346A002205B68984717F00E0F08D040F20B22E7
S11346B03B21002003B0BDE8F043FFF7E5BE03B0A3
S11346C0BDE8F08330200020602300206423002014
S11346D0482200204C2200202623002058230020BA
S11346E0F7B504461046D4E94AC7DDE908268CEA42
S11346F0020587EA06010540194085EA0C05794060
S1134700C4E94A51002523F4004106EA010320F0DC
S1134710010043F40073024043F00203CDE9005565
S113472003F0BCFB237C9A0717D5D4F82C319B05E6
S113473013D54FF48811204606F057FE237C65F309
S113474041032374D4E94A2302400B4052EA030193
S113475003D00349204609688847002003B0F0BD10
S11347606423002038B10368044A002B08BF1346B1
S1134770034A13607047014BFAE700BFBFB400005F
S113478064230020024B986E00F00F00704700BFB6
S1134790003F00B00F2938B505460C460ED800F08E
S11347A0D9FF01280CD1074A2846936E23F00F0342
S11347B02343936606F04FFF002038BD0120FCE739
S11347C00220FAE7003F00B0014BD86E704700BFEB
S11347D0003F00B0014B0020D9667047003F00B095
S11347E003282DE9F347884655D82C4B13F800903D
S11347F02B4B1E5C2B4B13F800A005F07EFD0746E7
S113480003F01AFD054640B100230022CDE9003330
S113481001200023002103F041FB03F015FD48B102
S113482000230022CDE90033002000234FF400418F
S113483003F034FB6EB31C4BDC6C04F008041B4B1C
S113484031464846DC6403F02FFF012352463146CB
S1134850484603F0B5FF164BDC6465B1154B186888
S1134860416BD83002F00CFD13490868FFF780FE55
S11348704FF0FF330B60B8F1000F04D00F4B002151
S113488003205B689847384602B0BDE8F04705F05E
S113489038BD3446D3E702B0BDE8F0878CBE0000D3
S11348A088BE000084BE0000004000B8006000B86C
S11348B0005000B83020002060230020582300203E
S11348C00F4A136C13F0A00F15D1506C10F00400B4
S11348D013D10C4BD3F8EC3E23F07F4323F0FF03BA
S11348E05BB1D368C3F30362092A07D0B2F10C00A9
S11348F018BF01207047002070470120704700BF97
S1134900000002B8003000B070B50D46064620B96C
S1134910194B1B68A3B1032011E000F01BFF012811
S113492028D1164B93F90040C4F12704641BC4F149
S11349301C03002BB8BF5B42232B0CDD012070BD90
S1134940A1F10B03002BB8BF5B42232BF6DC0B4B0E
S113495019700020F3E7B57405F0CFFC084AE402AF
S1134960136A04F4FF2423F4FF231C43146205F0A8
S1134970C8FCEEE70220E2E73020002024230020D8
S113498000C000B8094B08465A6A91020BD4D3F808
S11349900021D20708D4D3F8803013F4706F14BF09
S11349A00120002070470120704700BF004001B87B
S11349B0F8B50D46436B02EA010423EA01032343DD
S11349C043633D4A01F00B0323EA0401D16423400D
S11349D0A2F580526F070646D36410D50121FFF774
S11349E0D1FF60B103F002FE4FF4007314F0040F22
S11349F014BF324A324A53620422324B1A64E90623
S1134A0006D514F0100F14BF00221B222E4B5A653A
S1134A102A061DD5230616D54FF40012274B1A6219
S1134A20012203F58053C3F8002105F066FC0E2132
S1134A300746032002F06EFB40F20122224B384667
S1134A40DA6205F05EFC214606F1D80002F018FC9B
S1134A50EF0503D5E00529D502F02CFBA90503D504
S1134A60A20526D502F032FB15F0600F09D0D6F866
S1134A70C810304606F024FD8022144B9867144B6E
S1134A801A612B0510D503F0B1FD124A14F4006F1E
S1134A90D2F8EC3E14BF43F0006323F00063C2F885
S1134AA0EC3E0422074B1A640020F8BD02F0FCFA25
S1134AB0D4E702F005FBD7E7006000B8005001B866
S1134AC0006001B8002002B8004000B8003F00B008
S1134AD0000002B8003000B0014B186A02F02CBB91
S1134AE0004001B8014B186A06F0C4BE004001B88A
S1134AF0437C5A1F012A01D9082B05D14B7C2BB1C9
S1134B00012B05D0022B05D006F002BD02487047E8
S1134B10024870470248704720A1070048E8010096
S1134B2040420F0070B50E4605F0E7FB054600F065
S1134B3035FE044620B1284605F0E3FB204670BD4F
S1134B4003F054FD104B3278D3F8EC3E022A23F0E4
S1134B50F00315D0101F42424241520043EA0213AF
S1134B607278022A0ED0111F4A424A41520043EA87
S1134B708213054AC2F8EC3E0422044B1A64DAE7B5
S1134B800122EBE70122F2E7003000B0002002B876
S1134B9070B50E4605F0B1FB054600F015FE04465F
S1134BA020B1284605F0ADFB204670BD03F01EFD84
S1134BB0104B3278D3F8EC3E022A23F00F0314D0C2
S1134BC0101F42424241520013437278022A0ED00F
S1134BD0111F4A424A41520043EA8203054AC2F87D
S1134BE0EC3E0422044B1A64DBE70122ECE70122C9
S1134BF0F2E700BF003000B0002002B82DE9F8430E
S1134C000E780446042E0D4690F804810BD100273B
S1134C105FFA87F9484601F05DFB08B14E4602E0B1
S1134C200137042FF4D1304601F054FB002845D05D
S1134C3094F80431B34208D1AA88A36C9A4204D1EF
S1134C406A88B4F806319A4235D084F80461AB8896
S1134C503046A4F808316B88A4F80631AB8804F513
S1134C608275A364FF23A37506F072FD6075284660
S1134C7001F0F0FA18BB284601F022FBF8B9D4F889
S1134C80C43053B194F80411414506D02046B3F919
S1134C901220FDF795FA84F80D01204601F05CFB23
S1134CA00949A4F808010123084AD1F8FC1004F1C9
S1134CB0D80002F097FE0020BDE8F88301200C2301
S1134CC084F80431F8E700BF004F00B0A43F00B0FF
S1134CD070B5054690F804010C460C281DD0FF2938
S1134CE01DD01AB14FF0FF320E4B1A6006F030FDA2
S1134CF0064695F8040101F021FB844228BF0446CE
S1134D00E4B2B44238BF3446E0B2A87501F018FCEE
S1134D10A0F1FF035842584170BD0220FCE7012076
S1134D20FAE700BF6C23002010B590F80431044664
S1134D300C2B3ED0D0F8C4304175BBB3D0F8D4208E
S1134D40DAB990F80D318B421DD300222046FFF7CB
S1134D50BFFF88B9184B1B7813F0FD0F0BD1204609
S1134D6001F0FAFA15490123154AD1F8FC1004F1AF
S1134D70D80002F037FE002010BDB0F92420B3F9AA
S1134D8012309A42E1DD0022204694F80D11FFF71B
S1134D909FFF0028F0D1C4F8C400204606F0A8FA0A
S1134DA001462046BDE81040FFF72CBBFF23837566
S1134DB0E1E70220E0E700BF9E230020004F00B09F
S1134DC0A43F00B0C36B012B01D10020704770B524
S1134DD0054654498EB006F00EFDD5F8C460014670
S1134DE02C8BC5F8C80026B1336813B15B68002B5F
S1134DF069D105F082FA05F084FA0123D5F8C810C8
S1134E008DF80E30B389D6E90120E31A9BB200FB7A
S1134E1003224548ADF80C3003680292994207D04A
S1134E20284606F04DFB80224049414B88671A61B1
S1134E30404C3F4E00F08EFC0128FBD1236CD90777
S1134E40F8D4336CDA01F5D4D5F8C81028460D919E
S1134E509DF80E20029908AB02F09EFA00282FD18B
S1134E6000F078FC0128FBD1314A3249136CDB0194
S1134E70FCD40B6CDE07F9D408A901A802F0A4FC49
S1134E80F0B92A8B2C4B5A642B7C60F341032B74AE
S1134E9006F016FCD5F8C43002465B691968431E57
S1134EA0DBB2FD2B049114D9CC1C12D9234B013154
S1134EB01B6815D0D81C10D8284604A904930AE00E
S1134EC002200EB070BD1A68032A92D99B6A5B0E49
S1134ED096E7284604A906F0DDFB00200EB070BD5D
S1134EE0D91C04D8284604A9049306F0D3FBD5F8AA
S1134EF02C319B0504D42B7C43F002032B74ECE788
S1134F004FF48031284606F070FAD5E94A2302406E
S1134F100B4052EA0301E0D0094928460968884752
S1134F20DBE700BFFC4F00B03C220020003F00B094
S1134F30000002B800C002B8008001B87823002045
S1134F406423002038B590F8105104463DB305F0B1
S1134F50D4F91F22124B013D5A621540114A1249DD
S1134F605562D4F814518D66D4F81851CD66D1F831
S1134F700011C9070FD54FF0FF31C3F80411216C9C
S1134F80C2F804114FF0F041C3F81011E37CDB06C2
S1134F900B40C2F81031BDE8384005F0B2B938BD55
S1134FA0006001B8005001B8004001B82DE9F74F86
S1134FB006461546084619B9012003B0BDE8F08F2E
S1134FC0002AF9D0032904D8002101F07FF8002831
S1134FD0F2D004888378B4F5804F03F0070280F0A0
S1134FE0D380A2F1070CDCF1000141EB0C01052A8E
S1134FF0077990F805B0C088297394BF0021C3F3E2
S11350000011C3F3801C6973990985F810C001F07D
S11350100201C3F3C00C41EA0C01C3F340136974E9
S1135020AB74EF74736BA882D80600F19980063ACA
S1135030012A00F29580554B4FF001095B6D4FF04A
S11350403A431A6DDB6C083C03F00703063309FA94
S113505003F9002309F1FF3942F0005804EA090476
S113506018F804A0013404EA0904AB60631D03EAE0
S113507009035A1C02EA090218F8037018F80220FE
S1135080BAF1800F737C18BFAAF1320A47EA0227EB
S11350900CBF6FF07F0A4FFA8AFA3FB2A3B3002025
S11350A0D6F8D0300BB1514698470134E87385F8EF
S11350B00EA004EA090418F80410013404EA0904EF
S11350C018F80430013404EA090441EA032118F809
S11350D00430013404EA090441EA034118F80430B5
S11350E041EA036117F4804305D0294BDB6EB3FA20
S11350F083F35B095B0030466A7C02F075FD06238E
S11351002860AB71002058E7F90425D5D6F8C830DB
S1135110ABB11A68022A12D993F82400C7F30B031F
S1135120DB0008B1B3FBF0F39B45B8D8002BB6D035
S1135130CBEB0B20B0FBF3F0C043C0B2B0E7294681
S11351403046FFF7D5FC0190304606F0D1F9019BBB
S1135150B3FBF0F0C0B2E1E718F804004000ECE75C
S113516000230020EB730B4BDA69C2F3072312040C
S113517048BF63F0FF035AB212F1800F1CBF323BE9
S11351805AB2AA730346BBE7022016E7004000B8F0
S1135190003F00B000C000B870B54FF03A434FF480
S11351A080640A4DD3F818610020C5F81841C5F889
S11351B0144103F0E1FA4FF400532B67730542BF27
S11351C0034BC5F81441C3F8184170BD002000BA60
S11351D0001000BA082310B1024A13647047024A4F
S11351E0FBE700BF001002B8002002B8F8B504467F
S11351F00E4611B9037C5A0647D44FF6FF73A18BB0
S1135200D4F8C870994204D0344B1B680BB12046C3
S11352109847334D2B68BB4254D0324B1B683BB18B
S11352201FB13A68002A4FD0BF68394620469847D4
S11352300727204601F090F8002E39D004F030F80A
S11352400620294B94F9122093F900302749C3F121
S113525027039B1A0A6ADB0222F4FF2203F4FF23CA
S113526013430B62D4F8C820214B2A60986701F0DD
S1135270CFF9002501211F4A1F4B1170204683F8E6
S1135280845006F0E8F92846F8BD4FF6FF71144D36
S1135290D0F8C8702A6866F3861397428183037432
S11352A017D0104B1B68002BBAD101F055F8072713
S11352B012493B46124AD1F8FC1004F1D80002F01E
S11352C091FBBBE70127B4E71746204639469847C8
S11352D0AEE701F041F80127EAE700BF44220020CD
S11352E03C220020402200202423002000C000B8DB
S11352F0006000B825230020003F00B0004F00B03C
S1135300A43F00B008B558220021064806F02BFB44
S11353101022FF21044806F026FB03F0C1FF002001
S113532008BD00BFF03E00B0343F00B00C2337B5D9
S113533080F80431002383746D23C0F8E0307423B3
S11353404FF0FF35A0F8F43064230446C0E9393344
S1135350C0E93B33C0E9075585644575C58202F051
S11353607BFF2046FFF7CEFF94F912102046FFF78B
S1135370CBFA6023114A40F6FF71D3644FF03A42EE
S1135380116311670E4A2946D36440220D4B20460F
S11353901A64626BFFF70CFB0E230022CDE9003385
S11353A040F202231046194602F078FD00F0A6FFF1
S11353B0204603B0BDE83040FFF742B8004000B8D3
S11353C0005000B8002002B8044BD3F8EC3E13F0B0
S11353D0806F14BF23200020704700BF003000B04E
S11353E00246F8B5B0F8084100F1D805FFF7ECFF24
S11353F00B688E68013304BFD2F8E0300B604B6851
S1135400013304BFD2F8EC304B60771C37D1D2F8AB
S1135410E830CF688B607E1C38D1D2F8E4600F6925
S1135420CE60013704BFD2F8D8700F614F690137DD
S113543004BFD2F8DC704F618F69013704BFD2F822
S1135440F0708F618F6947BBC0F1640408688C6198
S1135450C2F8E8304B68C2E93806C2E93B340B694C
S11354602846C2F8D8304B690F49C2F8DC30D1F86D
S1135470FC1007230D4A02F0B5FA0020F8BD04F130
S11354806D031B1AB34238BF3346C2E704F17406F6
S1135490361ABE4238BF3E46C1E76D34241ABC42B8
S11354A038BF3C46D2E700BF004F00B0A43F00B075
S11354B038B504F022FF4FF6FF710A4A13888B4275
S11354C003D104F01EFF032038BD074C074D1B0415
S11354D06566A4F580546366118004F012FF002011
S11354E0F2E700BF9C230020006001B80000FFFF2A
S11354F02DE9F743054688461446FFF7E1F980B1E4
S11355006B4F02F0B9F97B69DE0740F1CE8004F0FD
S1135510F4FE0646032001F0C9FA30B1304604F027
S1135520F0FE022003B0BDE8F0837F6917F00607A0
S1135530F4D1304604F0E5FE5E4B4FF4006128469A
S1135540D3F8EC9ED3F8CC6E03F0A0FE40B14FF438
S113555000720121584B08461A643A4605F081FE50
S113556041462846FEF74EFF524BC3F8EC9EC3F863
S1135570CC6E0028D6D12B7CD80601D4002C55D073
S1135580C4F3400002F0F8FF022314F4807F1FBF2D
S11355904A4A002113644FF03A420BBF464A9161D4
S11355A01364536303F022F84FF4806314F0040F80
S11355B014BF434A434A14F0400F53624FF00402AD
S11355C03D4B20461A644FF0400314BF3E4A3F4A05
S11355D0C2F88830FEF7F6FF284605F0B9FF38B167
S11355E04FF4807314F0010F14BF344A324A136429
S11355F0A10644D54FF6FF726B8C93420FD0344A08
S11356003449526E100CC2F301120132B3FBF2F3AF
S113561008802B4A2B4930481B0448665366003CDB
S113562018BF01242B7C64F304132B74284606F062
S11356300FF8F0B1284605F08BFFD0B14FF40031DC
S1135640284603F023FE431C03229BB2234801A9EE
S113565006F06CF89DF8042002F00703052B9DF872
S1135660053015D112070DD443F480731C4AC2F8D7
S1135670D430002003B0BDE8F04306F064B8FFF76F
S113568017FFCCE713F0040F09D19DF80630EBE7C0
S113569003F03002202A05D113F0010FF4E74FF490
S11356A08073E3E79DF80630E0E703203AE700BFA4
S11356B000C001B8003000B0002002B8001002B8E9
S11356C0005001B8006001B800D000B800E000B894
S11356D0004001B89C2300200000FFFF0C0000BA2A
S11356E0003E00B008B50A4BD3F84C114B1C0DD04A
S11356F011F080410AD10320FFF772F84FF0806265
S1135700044BDA6401225A6102229A6208BD00BF86
S11357100080E00F001002B84FF40022034B186C15
S113572003F500531A64C0F3C0407047000002B888
S1135730024B034A00201A60704700BF4022002039
S1135740CD440000024B586900F00100704700BFCF
S113575000C001B80F4BDB68C3F30363013B0B2BA1
S11357600FD8DFE803F006060C06060606080A084A
S11357700808022070470420704705207047032062
S11357807047054B5B6913F0060F0CBF0120042022
S1135790704700BF000002B800C001B8094AD368CE
S11357A0C3F303630B2B08D06FF49050184100F03F
S11357B0010080F0010040007047106C10F480304C
S11357C0EDD17047000002B80C4AD368C3F30363F9
S11357D0062B07D8042BD8B20BD8C31E5842584105
S11357E040007047072B06D1D2F844010028ECD1C1
S11357F07047022070470020704700BF000002B8C5
S1135800094BDB68C3F303639A1E012A8CBF002291
S11358100122012B02701EBF4FF4026222FA03F32D
S113582003F001030B707047000002B8F0B5CF0716
S11358302BD5002A14BFAA2555250E461E24154F24
S113584001F0030383F001033B449B7806F0070C4B
S113585017F80CC0013C63444FEA5606F6D10E4ECD
S113586073436FF481769B0C334482B991FAA1F1AE
S113587095FAA5F54A082D0F490042EAC57201F0D0
S11358800204C474C0E91023F0BDAA25D5E7034A75
S1135890F7E700BF98BE000036FC1000B75635127B
S11358A030B547F6FE74164BC3F83042456C04EA33
S11358B04504144DC5F830420F245C66CC071CD552
S11358C0DAB901246C664FF0FF34C3F80441056C67
S11358D00C4CC4F804514FF0F045C3F81051C37C8C
S11358E0DB062B40C4F8103132B14FF03A430222A8
S11358F0C0F88010C3F8F42030BD0224E2E700BFF2
S1135900006001B8005001B813B5437C0446033B62
S1135910DBB2072B96BF104A0021D15CFEF75AFF79
S1135920012000F025FF4FF4F0620C4BDA644FF4D1
S11359300072A3F58053DA64637C053B012B08D81D
S11359400421074B01229B6E0DEB0100019300F033
S11359503BFA02B010BD00BF90BE0000006000B86A
S1135960004001B8012310B580F8F6302823C0F8B0
S1135970DC30042304464374044B196805F084FCAA
S11359802046FFF7C1FF002010BD00BFD8BE0000B5
S1135990012310B580F8F6302823C0F8DC30022348
S11359A004464374044B196805F06EFC2046FFF767
S11359B0ABFF002010BD00BFDCBE000038B5184BA3
S11359C004461D6845B1EB6833B1286801F0B0FAAC
S11359D0AB68186801F0ACFA124B1B682BB1DA689B
S11359E01AB19B68186801F0A3FA0F4B1B682BB11E
S11359F0DA681AB19B68186801F09AFA0B4B1B68B5
S1135A002BB1DA681AB19B68186801F091FA204644
S1135A10FFF7BEFF2046BDE83840FFF775BF00BF63
S1135A20DCBE0000D8BE0000D4BE0000D0BE000022
S1135A30F8B5D0F8143104468B420D46164603D10E
S1135A4090F81031202B0ED0324629462046FFF71D
S1135A50EDFE202384F810310023C4F81451C4F857
S1135A601831FFF76FFA4FF00077074B32461F6487
S1135A7029462046FFF714FF8022044B1A6103F5E0
S1135A8000531F64F8BD00BF001002B8000002B844
S1135A9010B50724134BDC6331B94FF48041A3F5EF
S1135AA08053C3F8041114E044210F4B59630F4988
S1135AB00968497C07291CBF40F040009863012312
S1135AC00B484FF48041C363064B002AE9D0C0F869
S1135AD004114FF48042C3F80821C3F80C21C3F821
S1135AE0102110BD006000B8004000B83020002034
S1135AF0005000B80A68064B12F0802F1CBF42F217
S1135B000101C3F82812C3F88822C3F88C22704715
S1135B10004001B8F0B585B06C460E460B4B074605
S1135B2015460FCB84E80F00094BD3F848220092A6
S1135B3026B16B1EDBB2FD2B88BF32602A4621469C
S1135B40384605F0A7FD05B0F0BD00BFA0BE0000BB
S1135B500080E00F30B50823054685B080B9094AB6
S1135B60C2F8FC3351B96C46074B0FCB84E80F00E5
S1135B70064B2A4621461868FFF7CCFF05B030BD16
S1135B80034AEDE7001002B8B0BE00003020002048
S1135B90002002B84FF03A43D3F81421D2031ED5A3
S1135BA04FF480320E49C1F81421A1F58051C1F897
S1135BB018215A6DD1B2C2F30722C3F8A410C3F856
S1135BC0A4200422C3F8A4200022C3F8A420C3F80C
S1135BD0A420C3F8A420C3F8A420C3F8A4207047C9
S1135BE0002000BAF8B50D464FF03A441746064671
S1135BF004F083FB01230421074A6363E760266101
S1135C006561C2F81411054AC2F8843104F079FBC5
S1135C100DB102236363F8BD002000BA00E100E087
S1135C20054B012218604FF03A435A6740F6FF7261
S1135C30D96418651A677047542200202DE9F04191
S1135C4005460124006800F00700063004FA00F35A
S1135C50A868EC685E1EA04262D000EA060E6C687A
S1135C6010441E430640A3EB0E000EEB040C8242CC
S1135C70644618D9D31A0EEB030298B1431E052BC0
S1135C8004D94B1CACEB0303022B59D80B46084434
S1135C90ACEB010E03EB0E0113F8014B83420C70C5
S1135CA0F8D101466C688AB1531E052B01F101033A
S1135CB002D9E01A022812D80A44611E00E0013316
S1135CC013F8010C934201F8010FF8D104F015FB0D
S1135CD00223AE60AB62BDE8F04104F012BB0B4698
